{
	"Documents/BBX/contracts/BBX_Token.sol": {
		"BBX": {
			"abi": [
				{
					"inputs": [
						{
							"internalType": "string",
							"name": "_name",
							"type": "string"
						},
						{
							"internalType": "string",
							"name": "_symbol",
							"type": "string"
						}
					],
					"stateMutability": "nonpayable",
					"type": "constructor"
				},
				{
					"anonymous": false,
					"inputs": [
						{
							"indexed": true,
							"internalType": "address",
							"name": "owner",
							"type": "address"
						},
						{
							"indexed": true,
							"internalType": "address",
							"name": "spender",
							"type": "address"
						},
						{
							"indexed": false,
							"internalType": "uint256",
							"name": "value",
							"type": "uint256"
						}
					],
					"name": "Approval",
					"type": "event"
				},
				{
					"anonymous": false,
					"inputs": [
						{
							"indexed": true,
							"internalType": "address",
							"name": "previousOwner",
							"type": "address"
						},
						{
							"indexed": true,
							"internalType": "address",
							"name": "newOwner",
							"type": "address"
						}
					],
					"name": "OwnershipPulled",
					"type": "event"
				},
				{
					"anonymous": false,
					"inputs": [
						{
							"indexed": true,
							"internalType": "address",
							"name": "previousOwner",
							"type": "address"
						},
						{
							"indexed": true,
							"internalType": "address",
							"name": "newOwner",
							"type": "address"
						}
					],
					"name": "OwnershipPushed",
					"type": "event"
				},
				{
					"anonymous": false,
					"inputs": [
						{
							"indexed": true,
							"internalType": "address",
							"name": "from",
							"type": "address"
						},
						{
							"indexed": true,
							"internalType": "address",
							"name": "to",
							"type": "address"
						},
						{
							"indexed": false,
							"internalType": "uint256",
							"name": "value",
							"type": "uint256"
						}
					],
					"name": "Transfer",
					"type": "event"
				},
				{
					"inputs": [],
					"name": "DOMAIN_SEPARATOR",
					"outputs": [
						{
							"internalType": "bytes32",
							"name": "",
							"type": "bytes32"
						}
					],
					"stateMutability": "view",
					"type": "function"
				},
				{
					"inputs": [],
					"name": "PERMIT_TYPEHASH",
					"outputs": [
						{
							"internalType": "bytes32",
							"name": "",
							"type": "bytes32"
						}
					],
					"stateMutability": "view",
					"type": "function"
				},
				{
					"inputs": [
						{
							"internalType": "address",
							"name": "account_",
							"type": "address"
						},
						{
							"internalType": "uint256",
							"name": "amount_",
							"type": "uint256"
						}
					],
					"name": "_burnFrom",
					"outputs": [],
					"stateMutability": "nonpayable",
					"type": "function"
				},
				{
					"inputs": [
						{
							"internalType": "address",
							"name": "owner",
							"type": "address"
						},
						{
							"internalType": "address",
							"name": "spender",
							"type": "address"
						}
					],
					"name": "allowance",
					"outputs": [
						{
							"internalType": "uint256",
							"name": "",
							"type": "uint256"
						}
					],
					"stateMutability": "view",
					"type": "function"
				},
				{
					"inputs": [
						{
							"internalType": "address",
							"name": "spender",
							"type": "address"
						},
						{
							"internalType": "uint256",
							"name": "amount",
							"type": "uint256"
						}
					],
					"name": "approve",
					"outputs": [
						{
							"internalType": "bool",
							"name": "",
							"type": "bool"
						}
					],
					"stateMutability": "nonpayable",
					"type": "function"
				},
				{
					"inputs": [
						{
							"internalType": "address",
							"name": "account",
							"type": "address"
						}
					],
					"name": "balanceOf",
					"outputs": [
						{
							"internalType": "uint256",
							"name": "",
							"type": "uint256"
						}
					],
					"stateMutability": "view",
					"type": "function"
				},
				{
					"inputs": [
						{
							"internalType": "uint256",
							"name": "amount",
							"type": "uint256"
						}
					],
					"name": "burn",
					"outputs": [],
					"stateMutability": "nonpayable",
					"type": "function"
				},
				{
					"inputs": [
						{
							"internalType": "address",
							"name": "account_",
							"type": "address"
						},
						{
							"internalType": "uint256",
							"name": "amount_",
							"type": "uint256"
						}
					],
					"name": "burnFrom",
					"outputs": [],
					"stateMutability": "nonpayable",
					"type": "function"
				},
				{
					"inputs": [],
					"name": "decimals",
					"outputs": [
						{
							"internalType": "uint8",
							"name": "",
							"type": "uint8"
						}
					],
					"stateMutability": "view",
					"type": "function"
				},
				{
					"inputs": [
						{
							"internalType": "address",
							"name": "spender",
							"type": "address"
						},
						{
							"internalType": "uint256",
							"name": "subtractedValue",
							"type": "uint256"
						}
					],
					"name": "decreaseAllowance",
					"outputs": [
						{
							"internalType": "bool",
							"name": "",
							"type": "bool"
						}
					],
					"stateMutability": "nonpayable",
					"type": "function"
				},
				{
					"inputs": [
						{
							"internalType": "address",
							"name": "_entity",
							"type": "address"
						}
					],
					"name": "delWhiteList",
					"outputs": [
						{
							"internalType": "bool",
							"name": "_success",
							"type": "bool"
						}
					],
					"stateMutability": "nonpayable",
					"type": "function"
				},
				{
					"inputs": [
						{
							"internalType": "address",
							"name": "spender",
							"type": "address"
						},
						{
							"internalType": "uint256",
							"name": "addedValue",
							"type": "uint256"
						}
					],
					"name": "increaseAllowance",
					"outputs": [
						{
							"internalType": "bool",
							"name": "",
							"type": "bool"
						}
					],
					"stateMutability": "nonpayable",
					"type": "function"
				},
				{
					"inputs": [
						{
							"internalType": "address",
							"name": "",
							"type": "address"
						}
					],
					"name": "isWhiteListed",
					"outputs": [
						{
							"internalType": "bool",
							"name": "",
							"type": "bool"
						}
					],
					"stateMutability": "view",
					"type": "function"
				},
				{
					"inputs": [
						{
							"internalType": "address",
							"name": "account_",
							"type": "address"
						},
						{
							"internalType": "uint256",
							"name": "amount_",
							"type": "uint256"
						}
					],
					"name": "mint",
					"outputs": [],
					"stateMutability": "nonpayable",
					"type": "function"
				},
				{
					"inputs": [],
					"name": "name",
					"outputs": [
						{
							"internalType": "string",
							"name": "",
							"type": "string"
						}
					],
					"stateMutability": "view",
					"type": "function"
				},
				{
					"inputs": [
						{
							"internalType": "address",
							"name": "owner",
							"type": "address"
						}
					],
					"name": "nonces",
					"outputs": [
						{
							"internalType": "uint256",
							"name": "",
							"type": "uint256"
						}
					],
					"stateMutability": "view",
					"type": "function"
				},
				{
					"inputs": [],
					"name": "owner",
					"outputs": [
						{
							"internalType": "address",
							"name": "",
							"type": "address"
						}
					],
					"stateMutability": "view",
					"type": "function"
				},
				{
					"inputs": [
						{
							"internalType": "address",
							"name": "owner",
							"type": "address"
						},
						{
							"internalType": "address",
							"name": "spender",
							"type": "address"
						},
						{
							"internalType": "uint256",
							"name": "amount",
							"type": "uint256"
						},
						{
							"internalType": "uint256",
							"name": "deadline",
							"type": "uint256"
						},
						{
							"internalType": "uint8",
							"name": "v",
							"type": "uint8"
						},
						{
							"internalType": "bytes32",
							"name": "r",
							"type": "bytes32"
						},
						{
							"internalType": "bytes32",
							"name": "s",
							"type": "bytes32"
						}
					],
					"name": "permit",
					"outputs": [],
					"stateMutability": "nonpayable",
					"type": "function"
				},
				{
					"inputs": [],
					"name": "pullManagement",
					"outputs": [],
					"stateMutability": "nonpayable",
					"type": "function"
				},
				{
					"inputs": [
						{
							"internalType": "address",
							"name": "newOwner_",
							"type": "address"
						}
					],
					"name": "pushManagement",
					"outputs": [],
					"stateMutability": "nonpayable",
					"type": "function"
				},
				{
					"inputs": [
						{
							"internalType": "address",
							"name": "_feeTo",
							"type": "address"
						}
					],
					"name": "setFeeTo",
					"outputs": [],
					"stateMutability": "nonpayable",
					"type": "function"
				},
				{
					"inputs": [
						{
							"internalType": "uint256",
							"name": "_tax",
							"type": "uint256"
						}
					],
					"name": "setTax",
					"outputs": [],
					"stateMutability": "nonpayable",
					"type": "function"
				},
				{
					"inputs": [
						{
							"internalType": "address",
							"name": "vault_",
							"type": "address"
						}
					],
					"name": "setVault",
					"outputs": [
						{
							"internalType": "bool",
							"name": "",
							"type": "bool"
						}
					],
					"stateMutability": "nonpayable",
					"type": "function"
				},
				{
					"inputs": [
						{
							"internalType": "address",
							"name": "_entity",
							"type": "address"
						}
					],
					"name": "setWhileList",
					"outputs": [
						{
							"internalType": "bool",
							"name": "_success",
							"type": "bool"
						}
					],
					"stateMutability": "nonpayable",
					"type": "function"
				},
				{
					"inputs": [],
					"name": "symbol",
					"outputs": [
						{
							"internalType": "string",
							"name": "",
							"type": "string"
						}
					],
					"stateMutability": "view",
					"type": "function"
				},
				{
					"inputs": [],
					"name": "taxRate",
					"outputs": [
						{
							"internalType": "uint256",
							"name": "",
							"type": "uint256"
						}
					],
					"stateMutability": "view",
					"type": "function"
				},
				{
					"inputs": [],
					"name": "totalSupply",
					"outputs": [
						{
							"internalType": "uint256",
							"name": "",
							"type": "uint256"
						}
					],
					"stateMutability": "view",
					"type": "function"
				},
				{
					"inputs": [
						{
							"internalType": "address",
							"name": "recipient",
							"type": "address"
						},
						{
							"internalType": "uint256",
							"name": "amount",
							"type": "uint256"
						}
					],
					"name": "transfer",
					"outputs": [
						{
							"internalType": "bool",
							"name": "",
							"type": "bool"
						}
					],
					"stateMutability": "nonpayable",
					"type": "function"
				},
				{
					"inputs": [
						{
							"internalType": "address",
							"name": "sender",
							"type": "address"
						},
						{
							"internalType": "address",
							"name": "recipient",
							"type": "address"
						},
						{
							"internalType": "uint256",
							"name": "amount",
							"type": "uint256"
						}
					],
					"name": "transferFrom",
					"outputs": [
						{
							"internalType": "bool",
							"name": "",
							"type": "bool"
						}
					],
					"stateMutability": "nonpayable",
					"type": "function"
				},
				{
					"inputs": [],
					"name": "vault",
					"outputs": [
						{
							"internalType": "address",
							"name": "",
							"type": "address"
						}
					],
					"stateMutability": "view",
					"type": "function"
				}
			],
			"devdoc": {
				"kind": "dev",
				"methods": {},
				"version": 1
			},
			"evm": {
				"assembly": "    /* \"Documents/BBX/contracts/BBX_Token.sol\":141:2406  contract BBX is OlympusERC20Token {... */\n  mstore(0x40, 0x80)\n    /* \"Documents/BBX/contracts/BBX_Token.sol\":265:361  constructor(string memory _name, string memory _symbol) OlympusERC20Token(_name, _symbol){... */\n  callvalue\n  dup1\n  iszero\n  tag_1\n  jumpi\n  0x00\n  dup1\n  revert\ntag_1:\n  pop\n  mload(0x40)\n  sub(codesize, bytecodeSize)\n  dup1\n  bytecodeSize\n  dup4\n  codecopy\n  dup2\n  dup2\n  add\n  0x40\n  mstore\n  0x40\n  dup2\n  lt\n  iszero\n  tag_2\n  jumpi\n  0x00\n  dup1\n  revert\ntag_2:\n  dup2\n  add\n  swap1\n  dup1\n  dup1\n  mload\n  mload(0x40)\n  swap4\n  swap3\n  swap2\n  swap1\n  dup5\n  0x0100000000\n  dup3\n  gt\n  iszero\n  tag_3\n  jumpi\n  0x00\n  dup1\n  revert\ntag_3:\n  dup4\n  dup3\n  add\n  swap2\n  pop\n  0x20\n  dup3\n  add\n  dup6\n  dup2\n  gt\n  iszero\n  tag_4\n  jumpi\n  0x00\n  dup1\n  revert\ntag_4:\n  dup3\n  mload\n  dup7\n  0x01\n  dup3\n  mul\n  dup4\n  add\n  gt\n  0x0100000000\n  dup3\n  gt\n  or\n  iszero\n  tag_5\n  jumpi\n  0x00\n  dup1\n  revert\ntag_5:\n  dup1\n  dup4\n  mstore\n  0x20\n  dup4\n  add\n  swap3\n  pop\n  pop\n  pop\n  swap1\n  dup1\n  mload\n  swap1\n  0x20\n  add\n  swap1\n  dup1\n  dup4\n  dup4\n  0x00\ntag_6:\n  dup4\n  dup2\n  lt\n  iszero\n  tag_8\n  jumpi\n  dup1\n  dup3\n  add\n  mload\n  dup2\n  dup5\n  add\n  mstore\n  0x20\n  dup2\n  add\n  swap1\n  pop\n  jump(tag_6)\ntag_8:\n  pop\n  pop\n  pop\n  pop\n  swap1\n  pop\n  swap1\n  dup2\n  add\n  swap1\n  0x1f\n  and\n  dup1\n  iszero\n  tag_9\n  jumpi\n  dup1\n  dup3\n  sub\n  dup1\n  mload\n  0x01\n  dup4\n  0x20\n  sub\n  0x0100\n  exp\n  sub\n  not\n  and\n  dup2\n  mstore\n  0x20\n  add\n  swap2\n  pop\ntag_9:\n  pop\n  0x40\n  mstore\n  0x20\n  add\n  dup1\n  mload\n  mload(0x40)\n  swap4\n  swap3\n  swap2\n  swap1\n  dup5\n  0x0100000000\n  dup3\n  gt\n  iszero\n  tag_10\n  jumpi\n  0x00\n  dup1\n  revert\ntag_10:\n  dup4\n  dup3\n  add\n  swap2\n  pop\n  0x20\n  dup3\n  add\n  dup6\n  dup2\n  gt\n  iszero\n  tag_11\n  jumpi\n  0x00\n  dup1\n  revert\ntag_11:\n  dup3\n  mload\n  dup7\n  0x01\n  dup3\n  mul\n  dup4\n  add\n  gt\n  0x0100000000\n  dup3\n  gt\n  or\n  iszero\n  tag_12\n  jumpi\n  0x00\n  dup1\n  revert\ntag_12:\n  dup1\n  dup4\n  mstore\n  0x20\n  dup4\n  add\n  swap3\n  pop\n  pop\n  pop\n  swap1\n  dup1\n  mload\n  swap1\n  0x20\n  add\n  swap1\n  dup1\n  dup4\n  dup4\n  0x00\ntag_13:\n  dup4\n  dup2\n  lt\n  iszero\n  tag_15\n  jumpi\n  dup1\n  dup3\n  add\n  mload\n  dup2\n  dup5\n  add\n  mstore\n  0x20\n  dup2\n  add\n  swap1\n  pop\n  jump(tag_13)\ntag_15:\n  pop\n  pop\n  pop\n  pop\n  swap1\n  pop\n  swap1\n  dup2\n  add\n  swap1\n  0x1f\n  and\n  dup1\n  iszero\n  tag_16\n  jumpi\n  dup1\n  dup3\n  sub\n  dup1\n  mload\n  0x01\n  dup4\n  0x20\n  sub\n  0x0100\n  exp\n  sub\n  not\n  and\n  dup2\n  mstore\n  0x20\n  add\n  swap2\n  pop\ntag_16:\n  pop\n  0x40\n  mstore\n  pop\n  pop\n  pop\n    /* \"Documents/BBX/contracts/BBX_Token.sol\":339:344  _name */\n  dup2\n    /* \"Documents/BBX/contracts/BBX_Token.sol\":346:353  _symbol */\n  dup2\n    /* \"Documents/BBX/contracts/OlympusERC20Token.sol\":359:364  _name */\n  dup2\n    /* \"Documents/BBX/contracts/OlympusERC20Token.sol\":366:373  _symbol */\n  dup2\n    /* \"Documents/BBX/contracts/OlympusERC20Token.sol\":375:376  9 */\n  0x09\n    /* \"Documents/BBX/contracts/utils/ERC20.sol\":698:703  name_ */\n  dup3\n    /* \"Documents/BBX/contracts/utils/ERC20.sol\":690:695  _name */\n  0x03\n    /* \"Documents/BBX/contracts/utils/ERC20.sol\":690:703  _name = name_ */\n  swap1\n  dup1\n  mload\n  swap1\n  0x20\n  add\n  swap1\n  tag_23\n  swap3\n  swap2\n  swap1\n  tag_24\n  jump\t// in\ntag_23:\n  pop\n    /* \"Documents/BBX/contracts/utils/ERC20.sol\":723:730  symbol_ */\n  dup2\n    /* \"Documents/BBX/contracts/utils/ERC20.sol\":713:720  _symbol */\n  0x04\n    /* \"Documents/BBX/contracts/utils/ERC20.sol\":713:730  _symbol = symbol_ */\n  swap1\n  dup1\n  mload\n  swap1\n  0x20\n  add\n  swap1\n  tag_25\n  swap3\n  swap2\n  swap1\n  tag_24\n  jump\t// in\ntag_25:\n  pop\n    /* \"Documents/BBX/contracts/utils/ERC20.sol\":752:761  decimals_ */\n  dup1\n    /* \"Documents/BBX/contracts/utils/ERC20.sol\":740:749  _decimals */\n  0x05\n  0x00\n    /* \"Documents/BBX/contracts/utils/ERC20.sol\":740:761  _decimals = decimals_ */\n  0x0100\n  exp\n  dup2\n  sload\n  dup2\n  0xff\n  mul\n  not\n  and\n  swap1\n  dup4\n  0xff\n  and\n  mul\n  or\n  swap1\n  sstore\n  pop\n    /* \"Documents/BBX/contracts/utils/ERC20.sol\":606:768  constructor (string memory name_, string memory symbol_, uint8 decimals_) {... */\n  pop\n  pop\n  pop\n    /* \"Documents/BBX/contracts/utils/ERC20Permit.sol\":687:702  uint256 chainID */\n  0x00\n    /* \"Documents/BBX/contracts/utils/ERC20Permit.sol\":746:755  chainid() */\n  chainid\n    /* \"Documents/BBX/contracts/utils/ERC20Permit.sol\":735:755  chainID := chainid() */\n  swap1\n  pop\n    /* \"Documents/BBX/contracts/utils/ERC20Permit.sol\":845:940  keccak256(\"EIP712Domain(string name,string version,uint256 chainId,address verifyingContract)\") */\n  0x8b73c3c69bb8fe3d512ecc4cf759cc79239f7b179b0ffacaa9a75d522b39400f\n    /* \"Documents/BBX/contracts/utils/ERC20Permit.sol\":974:980  name() */\n  tag_27\n    /* \"Documents/BBX/contracts/utils/ERC20Permit.sol\":974:978  name */\n  shl(0x20, tag_28)\n    /* \"Documents/BBX/contracts/utils/ERC20Permit.sol\":974:980  name() */\n  0x20\n  shr\n  jump\t// in\ntag_27:\n    /* \"Documents/BBX/contracts/utils/ERC20Permit.sol\":958:982  keccak256(bytes(name())) */\n  dup1\n  mload\n  swap1\n  0x20\n  add\n  keccak256\n    /* \"Documents/BBX/contracts/utils/ERC20Permit.sol\":1010:1020  bytes(\"1\") */\n  mload(0x40)\n  dup1\n  0x40\n  add\n  0x40\n  mstore\n  dup1\n  0x01\n  dup2\n  mstore\n  0x20\n  add\n  0x3100000000000000000000000000000000000000000000000000000000000000\n  dup2\n  mstore\n  pop\n    /* \"Documents/BBX/contracts/utils/ERC20Permit.sol\":1000:1021  keccak256(bytes(\"1\")) */\n  dup1\n  mload\n  swap1\n  0x20\n  add\n  keccak256\n    /* \"Documents/BBX/contracts/utils/ERC20Permit.sol\":1050:1057  chainID */\n  dup4\n    /* \"Documents/BBX/contracts/utils/ERC20Permit.sol\":1083:1087  this */\n  address\n    /* \"Documents/BBX/contracts/utils/ERC20Permit.sol\":817:1102  abi.encode(... */\n  add(0x20, mload(0x40))\n  dup1\n  dup7\n  dup2\n  mstore\n  0x20\n  add\n  dup6\n  dup2\n  mstore\n  0x20\n  add\n  dup5\n  dup2\n  mstore\n  0x20\n  add\n  dup4\n  dup2\n  mstore\n  0x20\n  add\n  dup3\n  0xffffffffffffffffffffffffffffffffffffffff\n  and\n  dup2\n  mstore\n  0x20\n  add\n  swap6\n  pop\n  pop\n  pop\n  pop\n  pop\n  pop\n  mload(0x40)\n  0x20\n  dup2\n  dup4\n  sub\n  sub\n  dup2\n  mstore\n  swap1\n  0x40\n  mstore\n    /* \"Documents/BBX/contracts/utils/ERC20Permit.sol\":794:1112  keccak256(... */\n  dup1\n  mload\n  swap1\n  0x20\n  add\n  keccak256\n    /* \"Documents/BBX/contracts/utils/ERC20Permit.sol\":775:791  DOMAIN_SEPARATOR */\n  0x07\n    /* \"Documents/BBX/contracts/utils/ERC20Permit.sol\":775:1112  DOMAIN_SEPARATOR = keccak256(... */\n  dup2\n  swap1\n  sstore\n  pop\n    /* \"Documents/BBX/contracts/utils/ERC20Permit.sol\":663:1119  constructor() {... */\n  pop\n    /* \"Documents/BBX/contracts/utils/Ownable.sol\":418:428  msg.sender */\n  caller\n    /* \"Documents/BBX/contracts/utils/Ownable.sol\":409:415  _owner */\n  0x08\n  0x00\n    /* \"Documents/BBX/contracts/utils/Ownable.sol\":409:428  _owner = msg.sender */\n  0x0100\n  exp\n  dup2\n  sload\n  dup2\n  0xffffffffffffffffffffffffffffffffffffffff\n  mul\n  not\n  and\n  swap1\n  dup4\n  0xffffffffffffffffffffffffffffffffffffffff\n  and\n  mul\n  or\n  swap1\n  sstore\n  pop\n    /* \"Documents/BBX/contracts/utils/Ownable.sol\":472:478  _owner */\n  0x08\n  0x00\n  swap1\n  sload\n  swap1\n  0x0100\n  exp\n  swap1\n  div\n  0xffffffffffffffffffffffffffffffffffffffff\n  and\n    /* \"Documents/BBX/contracts/utils/Ownable.sol\":443:480  OwnershipPushed( address(0), _owner ) */\n  0xffffffffffffffffffffffffffffffffffffffff\n  and\n    /* \"Documents/BBX/contracts/utils/Ownable.sol\":468:469  0 */\n  0x00\n    /* \"Documents/BBX/contracts/utils/Ownable.sol\":443:480  OwnershipPushed( address(0), _owner ) */\n  0xffffffffffffffffffffffffffffffffffffffff\n  and\n  0xea8258f2d9ddb679928cf34b78cf645b7feda9acc828e4dd82d014eaae270eba\n  mload(0x40)\n  mload(0x40)\n  dup1\n  swap2\n  sub\n  swap1\n  log3\n    /* \"Documents/BBX/contracts/OlympusERC20Token.sol\":297:385  constructor(string memory _name, string memory _symbol) ERC20(_name, _symbol, 9) {... */\n  pop\n  pop\n    /* \"Documents/BBX/contracts/BBX_Token.sol\":265:361  constructor(string memory _name, string memory _symbol) OlympusERC20Token(_name, _symbol){... */\n  pop\n  pop\n    /* \"Documents/BBX/contracts/BBX_Token.sol\":141:2406  contract BBX is OlympusERC20Token {... */\n  jump(tag_32)\n    /* \"Documents/BBX/contracts/utils/ERC20.sol\":774:855  function name() public view returns (string memory) {... */\ntag_28:\n    /* \"Documents/BBX/contracts/utils/ERC20.sol\":811:824  string memory */\n  0x60\n    /* \"Documents/BBX/contracts/utils/ERC20.sol\":843:848  _name */\n  0x03\n    /* \"Documents/BBX/contracts/utils/ERC20.sol\":836:848  return _name */\n  dup1\n  sload\n  0x01\n  dup2\n  0x01\n  and\n  iszero\n  0x0100\n  mul\n  sub\n  and\n  0x02\n  swap1\n  div\n  dup1\n  0x1f\n  add\n  0x20\n  dup1\n  swap2\n  div\n  mul\n  0x20\n  add\n  mload(0x40)\n  swap1\n  dup2\n  add\n  0x40\n  mstore\n  dup1\n  swap3\n  swap2\n  swap1\n  dup2\n  dup2\n  mstore\n  0x20\n  add\n  dup3\n  dup1\n  sload\n  0x01\n  dup2\n  0x01\n  and\n  iszero\n  0x0100\n  mul\n  sub\n  and\n  0x02\n  swap1\n  div\n  dup1\n  iszero\n  tag_34\n  jumpi\n  dup1\n  0x1f\n  lt\n  tag_35\n  jumpi\n  0x0100\n  dup1\n  dup4\n  sload\n  div\n  mul\n  dup4\n  mstore\n  swap2\n  0x20\n  add\n  swap2\n  jump(tag_34)\ntag_35:\n  dup3\n  add\n  swap2\n  swap1\n  0x00\n  mstore\n  keccak256(0x00, 0x20)\n  swap1\ntag_36:\n  dup2\n  sload\n  dup2\n  mstore\n  swap1\n  0x01\n  add\n  swap1\n  0x20\n  add\n  dup1\n  dup4\n  gt\n  tag_36\n  jumpi\n  dup3\n  swap1\n  sub\n  0x1f\n  and\n  dup3\n  add\n  swap2\ntag_34:\n  pop\n  pop\n  pop\n  pop\n  pop\n  swap1\n  pop\n    /* \"Documents/BBX/contracts/utils/ERC20.sol\":774:855  function name() public view returns (string memory) {... */\n  swap1\n  jump\t// out\n    /* \"Documents/BBX/contracts/BBX_Token.sol\":141:2406  contract BBX is OlympusERC20Token {... */\ntag_24:\n  dup3\n  dup1\n  sload\n  0x01\n  dup2\n  0x01\n  and\n  iszero\n  0x0100\n  mul\n  sub\n  and\n  0x02\n  swap1\n  div\n  swap1\n  0x00\n  mstore\n  keccak256(0x00, 0x20)\n  swap1\n  0x1f\n  add\n  0x20\n  swap1\n  div\n  dup2\n  add\n  swap3\n  dup3\n  tag_38\n  jumpi\n  0x00\n  dup6\n  sstore\n  jump(tag_37)\ntag_38:\n  dup3\n  0x1f\n  lt\n  tag_39\n  jumpi\n  dup1\n  mload\n  not(0xff)\n  and\n  dup4\n  dup1\n  add\n  or\n  dup6\n  sstore\n  jump(tag_37)\ntag_39:\n  dup3\n  dup1\n  add\n  0x01\n  add\n  dup6\n  sstore\n  dup3\n  iszero\n  tag_37\n  jumpi\n  swap2\n  dup3\n  add\ntag_40:\n  dup3\n  dup2\n  gt\n  iszero\n  tag_41\n  jumpi\n  dup3\n  mload\n  dup3\n  sstore\n  swap2\n  0x20\n  add\n  swap2\n  swap1\n  0x01\n  add\n  swap1\n  jump(tag_40)\ntag_41:\ntag_37:\n  pop\n  swap1\n  pop\n  tag_42\n  swap2\n  swap1\n  tag_43\n  jump\t// in\ntag_42:\n  pop\n  swap1\n  jump\t// out\ntag_43:\ntag_44:\n  dup1\n  dup3\n  gt\n  iszero\n  tag_45\n  jumpi\n  0x00\n  dup2\n  0x00\n  swap1\n  sstore\n  pop\n  0x01\n  add\n  jump(tag_44)\ntag_45:\n  pop\n  swap1\n  jump\t// out\ntag_32:\n  dataSize(sub_0)\n  dup1\n  dataOffset(sub_0)\n  0x00\n  codecopy\n  0x00\n  return\nstop\n\nsub_0: assembly {\n        /* \"Documents/BBX/contracts/BBX_Token.sol\":141:2406  contract BBX is OlympusERC20Token {... */\n      mstore(0x40, 0x80)\n      callvalue\n      dup1\n      iszero\n      tag_1\n      jumpi\n      0x00\n      dup1\n      revert\n    tag_1:\n      pop\n      jumpi(tag_2, lt(calldatasize, 0x04))\n      shr(0xe0, calldataload(0x00))\n      dup1\n      0x6817031b\n      gt\n      tag_33\n      jumpi\n      dup1\n      0x95d89b41\n      gt\n      tag_34\n      jumpi\n      dup1\n      0xd505accf\n      gt\n      tag_35\n      jumpi\n      dup1\n      0xd505accf\n      eq\n      tag_29\n      jumpi\n      dup1\n      0xdd62ed3e\n      eq\n      tag_30\n      jumpi\n      dup1\n      0xf46901ed\n      eq\n      tag_31\n      jumpi\n      dup1\n      0xfbfa77cf\n      eq\n      tag_32\n      jumpi\n      jump(tag_2)\n    tag_35:\n      dup1\n      0x95d89b41\n      eq\n      tag_25\n      jumpi\n      dup1\n      0xa22b35ce\n      eq\n      tag_26\n      jumpi\n      dup1\n      0xa457c2d7\n      eq\n      tag_27\n      jumpi\n      dup1\n      0xa9059cbb\n      eq\n      tag_28\n      jumpi\n      jump(tag_2)\n    tag_34:\n      dup1\n      0x771a3a1d\n      gt\n      tag_36\n      jumpi\n      dup1\n      0x771a3a1d\n      eq\n      tag_21\n      jumpi\n      dup1\n      0x79cc6790\n      eq\n      tag_22\n      jumpi\n      dup1\n      0x7ecebe00\n      eq\n      tag_23\n      jumpi\n      dup1\n      0x8da5cb5b\n      eq\n      tag_24\n      jumpi\n      jump(tag_2)\n    tag_36:\n      dup1\n      0x6817031b\n      eq\n      tag_18\n      jumpi\n      dup1\n      0x6f9170f6\n      eq\n      tag_19\n      jumpi\n      dup1\n      0x70a08231\n      eq\n      tag_20\n      jumpi\n      jump(tag_2)\n    tag_33:\n      dup1\n      0x313ce567\n      gt\n      tag_37\n      jumpi\n      dup1\n      0x42966c68\n      gt\n      tag_38\n      jumpi\n      dup1\n      0x42966c68\n      eq\n      tag_14\n      jumpi\n      dup1\n      0x46f68ee9\n      eq\n      tag_15\n      jumpi\n      dup1\n      0x5a96ac0a\n      eq\n      tag_16\n      jumpi\n      dup1\n      0x605e5ee1\n      eq\n      tag_17\n      jumpi\n      jump(tag_2)\n    tag_38:\n      dup1\n      0x313ce567\n      eq\n      tag_10\n      jumpi\n      dup1\n      0x3644e515\n      eq\n      tag_11\n      jumpi\n      dup1\n      0x39509351\n      eq\n      tag_12\n      jumpi\n      dup1\n      0x40c10f19\n      eq\n      tag_13\n      jumpi\n      jump(tag_2)\n    tag_37:\n      dup1\n      0x23b872dd\n      gt\n      tag_39\n      jumpi\n      dup1\n      0x23b872dd\n      eq\n      tag_6\n      jumpi\n      dup1\n      0x24e1bfea\n      eq\n      tag_7\n      jumpi\n      dup1\n      0x2e5bb6ff\n      eq\n      tag_8\n      jumpi\n      dup1\n      0x30adf81f\n      eq\n      tag_9\n      jumpi\n      jump(tag_2)\n    tag_39:\n      dup1\n      0x06fdde03\n      eq\n      tag_3\n      jumpi\n      dup1\n      0x095ea7b3\n      eq\n      tag_4\n      jumpi\n      dup1\n      0x18160ddd\n      eq\n      tag_5\n      jumpi\n    tag_2:\n      0x00\n      dup1\n      revert\n        /* \"Documents/BBX/contracts/utils/ERC20.sol\":774:855  function name() public view returns (string memory) {... */\n    tag_3:\n      tag_40\n      tag_41\n      jump\t// in\n    tag_40:\n      mload(0x40)\n      dup1\n      dup1\n      0x20\n      add\n      dup3\n      dup2\n      sub\n      dup3\n      mstore\n      dup4\n      dup2\n      dup2\n      mload\n      dup2\n      mstore\n      0x20\n      add\n      swap2\n      pop\n      dup1\n      mload\n      swap1\n      0x20\n      add\n      swap1\n      dup1\n      dup4\n      dup4\n      0x00\n    tag_42:\n      dup4\n      dup2\n      lt\n      iszero\n      tag_44\n      jumpi\n      dup1\n      dup3\n      add\n      mload\n      dup2\n      dup5\n      add\n      mstore\n      0x20\n      dup2\n      add\n      swap1\n      pop\n      jump(tag_42)\n    tag_44:\n      pop\n      pop\n      pop\n      pop\n      swap1\n      pop\n      swap1\n      dup2\n      add\n      swap1\n      0x1f\n      and\n      dup1\n      iszero\n      tag_45\n      jumpi\n      dup1\n      dup3\n      sub\n      dup1\n      mload\n      0x01\n      dup4\n      0x20\n      sub\n      0x0100\n      exp\n      sub\n      not\n      and\n      dup2\n      mstore\n      0x20\n      add\n      swap2\n      pop\n    tag_45:\n      pop\n      swap3\n      pop\n      pop\n      pop\n      mload(0x40)\n      dup1\n      swap2\n      sub\n      swap1\n      return\n        /* \"Documents/BBX/contracts/utils/ERC20.sol\":1614:1778  function approve(address spender, uint256 amount) public virtual override returns (bool) {... */\n    tag_4:\n      tag_46\n      0x04\n      dup1\n      calldatasize\n      sub\n      0x40\n      dup2\n      lt\n      iszero\n      tag_47\n      jumpi\n      0x00\n      dup1\n      revert\n    tag_47:\n      dup2\n      add\n      swap1\n      dup1\n      dup1\n      calldataload\n      0xffffffffffffffffffffffffffffffffffffffff\n      and\n      swap1\n      0x20\n      add\n      swap1\n      swap3\n      swap2\n      swap1\n      dup1\n      calldataload\n      swap1\n      0x20\n      add\n      swap1\n      swap3\n      swap2\n      swap1\n      pop\n      pop\n      pop\n      tag_48\n      jump\t// in\n    tag_46:\n      mload(0x40)\n      dup1\n      dup3\n      iszero\n      iszero\n      dup2\n      mstore\n      0x20\n      add\n      swap2\n      pop\n      pop\n      mload(0x40)\n      dup1\n      swap2\n      sub\n      swap1\n      return\n        /* \"Documents/BBX/contracts/utils/ERC20.sol\":1048:1146  function totalSupply() public view override returns (uint256) {... */\n    tag_5:\n      tag_49\n      tag_50\n      jump\t// in\n    tag_49:\n      mload(0x40)\n      dup1\n      dup3\n      dup2\n      mstore\n      0x20\n      add\n      swap2\n      pop\n      pop\n      mload(0x40)\n      dup1\n      swap2\n      sub\n      swap1\n      return\n        /* \"Documents/BBX/contracts/BBX_Token.sol\":1588:2404  function transferFrom(address sender, address recipient, uint256 amount) public override returns (bool) {... */\n    tag_6:\n      tag_51\n      0x04\n      dup1\n      calldatasize\n      sub\n      0x60\n      dup2\n      lt\n      iszero\n      tag_52\n      jumpi\n      0x00\n      dup1\n      revert\n    tag_52:\n      dup2\n      add\n      swap1\n      dup1\n      dup1\n      calldataload\n      0xffffffffffffffffffffffffffffffffffffffff\n      and\n      swap1\n      0x20\n      add\n      swap1\n      swap3\n      swap2\n      swap1\n      dup1\n      calldataload\n      0xffffffffffffffffffffffffffffffffffffffff\n      and\n      swap1\n      0x20\n      add\n      swap1\n      swap3\n      swap2\n      swap1\n      dup1\n      calldataload\n      swap1\n      0x20\n      add\n      swap1\n      swap3\n      swap2\n      swap1\n      pop\n      pop\n      pop\n      tag_53\n      jump\t// in\n    tag_51:\n      mload(0x40)\n      dup1\n      dup3\n      iszero\n      iszero\n      dup2\n      mstore\n      0x20\n      add\n      swap2\n      pop\n      pop\n      mload(0x40)\n      dup1\n      swap2\n      sub\n      swap1\n      return\n        /* \"Documents/BBX/contracts/BBX_Token.sol\":536:703  function setWhileList(address _entity)public onlyOwner returns(bool _success)... */\n    tag_7:\n      tag_54\n      0x04\n      dup1\n      calldatasize\n      sub\n      0x20\n      dup2\n      lt\n      iszero\n      tag_55\n      jumpi\n      0x00\n      dup1\n      revert\n    tag_55:\n      dup2\n      add\n      swap1\n      dup1\n      dup1\n      calldataload\n      0xffffffffffffffffffffffffffffffffffffffff\n      and\n      swap1\n      0x20\n      add\n      swap1\n      swap3\n      swap2\n      swap1\n      pop\n      pop\n      pop\n      tag_56\n      jump\t// in\n    tag_54:\n      mload(0x40)\n      dup1\n      dup3\n      iszero\n      iszero\n      dup2\n      mstore\n      0x20\n      add\n      swap2\n      pop\n      pop\n      mload(0x40)\n      dup1\n      swap2\n      sub\n      swap1\n      return\n        /* \"Documents/BBX/contracts/BBX_Token.sol\":881:959  function setTax(uint256 _tax) public onlyOwner {... */\n    tag_8:\n      tag_57\n      0x04\n      dup1\n      calldatasize\n      sub\n      0x20\n      dup2\n      lt\n      iszero\n      tag_58\n      jumpi\n      0x00\n      dup1\n      revert\n    tag_58:\n      dup2\n      add\n      swap1\n      dup1\n      dup1\n      calldataload\n      swap1\n      0x20\n      add\n      swap1\n      swap3\n      swap2\n      swap1\n      pop\n      pop\n      pop\n      tag_59\n      jump\t// in\n    tag_57:\n      stop\n        /* \"Documents/BBX/contracts/utils/ERC20Permit.sol\":510:618  bytes32 public constant PERMIT_TYPEHASH = 0x6e71edae12b1b97f4d1f60370fef10105fa2faae0126114a169c64845d6126c9 */\n    tag_9:\n      tag_60\n      tag_61\n      jump\t// in\n    tag_60:\n      mload(0x40)\n      dup1\n      dup3\n      dup2\n      mstore\n      0x20\n      add\n      swap2\n      pop\n      pop\n      mload(0x40)\n      dup1\n      swap2\n      sub\n      swap1\n      return\n        /* \"Documents/BBX/contracts/utils/ERC20.sol\":952:1042  function decimals() public view override returns (uint8) {... */\n    tag_10:\n      tag_62\n      tag_63\n      jump\t// in\n    tag_62:\n      mload(0x40)\n      dup1\n      dup3\n      0xff\n      and\n      dup2\n      mstore\n      0x20\n      add\n      swap2\n      pop\n      pop\n      mload(0x40)\n      dup1\n      swap2\n      sub\n      swap1\n      return\n        /* \"Documents/BBX/contracts/utils/ERC20Permit.sol\":625:656  bytes32 public DOMAIN_SEPARATOR */\n    tag_11:\n      tag_64\n      tag_65\n      jump\t// in\n    tag_64:\n      mload(0x40)\n      dup1\n      dup3\n      dup2\n      mstore\n      0x20\n      add\n      swap2\n      pop\n      pop\n      mload(0x40)\n      dup1\n      swap2\n      sub\n      swap1\n      return\n        /* \"Documents/BBX/contracts/utils/ERC20.sol\":2103:2314  function increaseAllowance(address spender, uint256 addedValue) public virtual returns (bool) {... */\n    tag_12:\n      tag_66\n      0x04\n      dup1\n      calldatasize\n      sub\n      0x40\n      dup2\n      lt\n      iszero\n      tag_67\n      jumpi\n      0x00\n      dup1\n      revert\n    tag_67:\n      dup2\n      add\n      swap1\n      dup1\n      dup1\n      calldataload\n      0xffffffffffffffffffffffffffffffffffffffff\n      and\n      swap1\n      0x20\n      add\n      swap1\n      swap3\n      swap2\n      swap1\n      dup1\n      calldataload\n      swap1\n      0x20\n      add\n      swap1\n      swap3\n      swap2\n      swap1\n      pop\n      pop\n      pop\n      tag_68\n      jump\t// in\n    tag_66:\n      mload(0x40)\n      dup1\n      dup3\n      iszero\n      iszero\n      dup2\n      mstore\n      0x20\n      add\n      swap2\n      pop\n      pop\n      mload(0x40)\n      dup1\n      swap2\n      sub\n      swap1\n      return\n        /* \"Documents/BBX/contracts/OlympusERC20Token.sol\":391:502  function mint(address account_, uint256 amount_) external onlyVault() {... */\n    tag_13:\n      tag_69\n      0x04\n      dup1\n      calldatasize\n      sub\n      0x40\n      dup2\n      lt\n      iszero\n      tag_70\n      jumpi\n      0x00\n      dup1\n      revert\n    tag_70:\n      dup2\n      add\n      swap1\n      dup1\n      dup1\n      calldataload\n      0xffffffffffffffffffffffffffffffffffffffff\n      and\n      swap1\n      0x20\n      add\n      swap1\n      swap3\n      swap2\n      swap1\n      dup1\n      calldataload\n      swap1\n      0x20\n      add\n      swap1\n      swap3\n      swap2\n      swap1\n      pop\n      pop\n      pop\n      tag_71\n      jump\t// in\n    tag_69:\n      stop\n        /* \"Documents/BBX/contracts/OlympusERC20Token.sol\":508:595  function burn(uint256 amount) public virtual {... */\n    tag_14:\n      tag_72\n      0x04\n      dup1\n      calldatasize\n      sub\n      0x20\n      dup2\n      lt\n      iszero\n      tag_73\n      jumpi\n      0x00\n      dup1\n      revert\n    tag_73:\n      dup2\n      add\n      swap1\n      dup1\n      dup1\n      calldataload\n      swap1\n      0x20\n      add\n      swap1\n      swap3\n      swap2\n      swap1\n      pop\n      pop\n      pop\n      tag_74\n      jump\t// in\n    tag_72:\n      stop\n        /* \"Documents/BBX/contracts/utils/Ownable.sol\":711:881  function pushManagement( address newOwner_ ) public virtual override onlyOwner() {... */\n    tag_15:\n      tag_75\n      0x04\n      dup1\n      calldatasize\n      sub\n      0x20\n      dup2\n      lt\n      iszero\n      tag_76\n      jumpi\n      0x00\n      dup1\n      revert\n    tag_76:\n      dup2\n      add\n      swap1\n      dup1\n      dup1\n      calldataload\n      0xffffffffffffffffffffffffffffffffffffffff\n      and\n      swap1\n      0x20\n      add\n      swap1\n      swap3\n      swap2\n      swap1\n      pop\n      pop\n      pop\n      tag_77\n      jump\t// in\n    tag_75:\n      stop\n        /* \"Documents/BBX/contracts/utils/Ownable.sol\":891:1140  function pullManagement() public virtual override {... */\n    tag_16:\n      tag_78\n      tag_79\n      jump\t// in\n    tag_78:\n      stop\n        /* \"Documents/BBX/contracts/BBX_Token.sol\":708:876  function delWhiteList(address _entity)public onlyOwner returns(bool _success)... */\n    tag_17:\n      tag_80\n      0x04\n      dup1\n      calldatasize\n      sub\n      0x20\n      dup2\n      lt\n      iszero\n      tag_81\n      jumpi\n      0x00\n      dup1\n      revert\n    tag_81:\n      dup2\n      add\n      swap1\n      dup1\n      dup1\n      calldataload\n      0xffffffffffffffffffffffffffffffffffffffff\n      and\n      swap1\n      0x20\n      add\n      swap1\n      swap3\n      swap2\n      swap1\n      pop\n      pop\n      pop\n      tag_82\n      jump\t// in\n    tag_80:\n      mload(0x40)\n      dup1\n      dup3\n      iszero\n      iszero\n      dup2\n      mstore\n      0x20\n      add\n      swap2\n      pop\n      pop\n      mload(0x40)\n      dup1\n      swap2\n      sub\n      swap1\n      return\n        /* \"Documents/BBX/contracts/utils/VaultOwned.sol\":163:281  function setVault( address vault_ ) external onlyOwner() returns ( bool ) {... */\n    tag_18:\n      tag_83\n      0x04\n      dup1\n      calldatasize\n      sub\n      0x20\n      dup2\n      lt\n      iszero\n      tag_84\n      jumpi\n      0x00\n      dup1\n      revert\n    tag_84:\n      dup2\n      add\n      swap1\n      dup1\n      dup1\n      calldataload\n      0xffffffffffffffffffffffffffffffffffffffff\n      and\n      swap1\n      0x20\n      add\n      swap1\n      swap3\n      swap2\n      swap1\n      pop\n      pop\n      pop\n      tag_85\n      jump\t// in\n    tag_83:\n      mload(0x40)\n      dup1\n      dup3\n      iszero\n      iszero\n      dup2\n      mstore\n      0x20\n      add\n      swap2\n      pop\n      pop\n      mload(0x40)\n      dup1\n      swap2\n      sub\n      swap1\n      return\n        /* \"Documents/BBX/contracts/BBX_Token.sol\":213:258  mapping(address => bool) public isWhiteListed */\n    tag_19:\n      tag_86\n      0x04\n      dup1\n      calldatasize\n      sub\n      0x20\n      dup2\n      lt\n      iszero\n      tag_87\n      jumpi\n      0x00\n      dup1\n      revert\n    tag_87:\n      dup2\n      add\n      swap1\n      dup1\n      dup1\n      calldataload\n      0xffffffffffffffffffffffffffffffffffffffff\n      and\n      swap1\n      0x20\n      add\n      swap1\n      swap3\n      swap2\n      swap1\n      pop\n      pop\n      pop\n      tag_88\n      jump\t// in\n    tag_86:\n      mload(0x40)\n      dup1\n      dup3\n      iszero\n      iszero\n      dup2\n      mstore\n      0x20\n      add\n      swap2\n      pop\n      pop\n      mload(0x40)\n      dup1\n      swap2\n      sub\n      swap1\n      return\n        /* \"Documents/BBX/contracts/utils/ERC20.sol\":1152:1277  function balanceOf(address account) public view virtual override returns (uint256) {... */\n    tag_20:\n      tag_89\n      0x04\n      dup1\n      calldatasize\n      sub\n      0x20\n      dup2\n      lt\n      iszero\n      tag_90\n      jumpi\n      0x00\n      dup1\n      revert\n    tag_90:\n      dup2\n      add\n      swap1\n      dup1\n      dup1\n      calldataload\n      0xffffffffffffffffffffffffffffffffffffffff\n      and\n      swap1\n      0x20\n      add\n      swap1\n      swap3\n      swap2\n      swap1\n      pop\n      pop\n      pop\n      tag_91\n      jump\t// in\n    tag_89:\n      mload(0x40)\n      dup1\n      dup3\n      dup2\n      mstore\n      0x20\n      add\n      swap2\n      pop\n      pop\n      mload(0x40)\n      dup1\n      swap2\n      sub\n      swap1\n      return\n        /* \"Documents/BBX/contracts/BBX_Token.sol\":390:412  uint256 public taxRate */\n    tag_21:\n      tag_92\n      tag_93\n      jump\t// in\n    tag_92:\n      mload(0x40)\n      dup1\n      dup3\n      dup2\n      mstore\n      0x20\n      add\n      swap2\n      pop\n      pop\n      mload(0x40)\n      dup1\n      swap2\n      sub\n      swap1\n      return\n        /* \"Documents/BBX/contracts/OlympusERC20Token.sol\":606:719  function burnFrom(address account_, uint256 amount_) public virtual {... */\n    tag_22:\n      tag_94\n      0x04\n      dup1\n      calldatasize\n      sub\n      0x40\n      dup2\n      lt\n      iszero\n      tag_95\n      jumpi\n      0x00\n      dup1\n      revert\n    tag_95:\n      dup2\n      add\n      swap1\n      dup1\n      dup1\n      calldataload\n      0xffffffffffffffffffffffffffffffffffffffff\n      and\n      swap1\n      0x20\n      add\n      swap1\n      swap3\n      swap2\n      swap1\n      dup1\n      calldataload\n      swap1\n      0x20\n      add\n      swap1\n      swap3\n      swap2\n      swap1\n      pop\n      pop\n      pop\n      tag_96\n      jump\t// in\n    tag_94:\n      stop\n        /* \"Documents/BBX/contracts/utils/ERC20Permit.sol\":1880:1998  function nonces(address owner) public view override returns (uint256) {... */\n    tag_23:\n      tag_97\n      0x04\n      dup1\n      calldatasize\n      sub\n      0x20\n      dup2\n      lt\n      iszero\n      tag_98\n      jumpi\n      0x00\n      dup1\n      revert\n    tag_98:\n      dup2\n      add\n      swap1\n      dup1\n      dup1\n      calldataload\n      0xffffffffffffffffffffffffffffffffffffffff\n      and\n      swap1\n      0x20\n      add\n      swap1\n      swap3\n      swap2\n      swap1\n      pop\n      pop\n      pop\n      tag_99\n      jump\t// in\n    tag_97:\n      mload(0x40)\n      dup1\n      dup3\n      dup2\n      mstore\n      0x20\n      add\n      swap2\n      pop\n      pop\n      mload(0x40)\n      dup1\n      swap2\n      sub\n      swap1\n      return\n        /* \"Documents/BBX/contracts/utils/Ownable.sol\":493:579  function owner() public view override returns (address) {... */\n    tag_24:\n      tag_100\n      tag_101\n      jump\t// in\n    tag_100:\n      mload(0x40)\n      dup1\n      dup3\n      0xffffffffffffffffffffffffffffffffffffffff\n      and\n      dup2\n      mstore\n      0x20\n      add\n      swap2\n      pop\n      pop\n      mload(0x40)\n      dup1\n      swap2\n      sub\n      swap1\n      return\n        /* \"Documents/BBX/contracts/utils/ERC20.sol\":861:946  function symbol() public view returns (string memory) {... */\n    tag_25:\n      tag_102\n      tag_103\n      jump\t// in\n    tag_102:\n      mload(0x40)\n      dup1\n      dup1\n      0x20\n      add\n      dup3\n      dup2\n      sub\n      dup3\n      mstore\n      dup4\n      dup2\n      dup2\n      mload\n      dup2\n      mstore\n      0x20\n      add\n      swap2\n      pop\n      dup1\n      mload\n      swap1\n      0x20\n      add\n      swap1\n      dup1\n      dup4\n      dup4\n      0x00\n    tag_104:\n      dup4\n      dup2\n      lt\n      iszero\n      tag_106\n      jumpi\n      dup1\n      dup3\n      add\n      mload\n      dup2\n      dup5\n      add\n      mstore\n      0x20\n      dup2\n      add\n      swap1\n      pop\n      jump(tag_104)\n    tag_106:\n      pop\n      pop\n      pop\n      pop\n      swap1\n      pop\n      swap1\n      dup2\n      add\n      swap1\n      0x1f\n      and\n      dup1\n      iszero\n      tag_107\n      jumpi\n      dup1\n      dup3\n      sub\n      dup1\n      mload\n      0x01\n      dup4\n      0x20\n      sub\n      0x0100\n      exp\n      sub\n      not\n      and\n      dup2\n      mstore\n      0x20\n      add\n      swap2\n      pop\n    tag_107:\n      pop\n      swap3\n      pop\n      pop\n      pop\n      mload(0x40)\n      dup1\n      swap2\n      sub\n      swap1\n      return\n        /* \"Documents/BBX/contracts/OlympusERC20Token.sol\":725:1079  function _burnFrom(address account_, uint256 amount_) public virtual {... */\n    tag_26:\n      tag_108\n      0x04\n      dup1\n      calldatasize\n      sub\n      0x40\n      dup2\n      lt\n      iszero\n      tag_109\n      jumpi\n      0x00\n      dup1\n      revert\n    tag_109:\n      dup2\n      add\n      swap1\n      dup1\n      dup1\n      calldataload\n      0xffffffffffffffffffffffffffffffffffffffff\n      and\n      swap1\n      0x20\n      add\n      swap1\n      swap3\n      swap2\n      swap1\n      dup1\n      calldataload\n      swap1\n      0x20\n      add\n      swap1\n      swap3\n      swap2\n      swap1\n      pop\n      pop\n      pop\n      tag_110\n      jump\t// in\n    tag_108:\n      stop\n        /* \"Documents/BBX/contracts/utils/ERC20.sol\":2320:2582  function decreaseAllowance(address spender, uint256 subtractedValue) public virtual returns (bool) {... */\n    tag_27:\n      tag_111\n      0x04\n      dup1\n      calldatasize\n      sub\n      0x40\n      dup2\n      lt\n      iszero\n      tag_112\n      jumpi\n      0x00\n      dup1\n      revert\n    tag_112:\n      dup2\n      add\n      swap1\n      dup1\n      dup1\n      calldataload\n      0xffffffffffffffffffffffffffffffffffffffff\n      and\n      swap1\n      0x20\n      add\n      swap1\n      swap3\n      swap2\n      swap1\n      dup1\n      calldataload\n      swap1\n      0x20\n      add\n      swap1\n      swap3\n      swap2\n      swap1\n      pop\n      pop\n      pop\n      tag_113\n      jump\t// in\n    tag_111:\n      mload(0x40)\n      dup1\n      dup3\n      iszero\n      iszero\n      dup2\n      mstore\n      0x20\n      add\n      swap2\n      pop\n      pop\n      mload(0x40)\n      dup1\n      swap2\n      sub\n      swap1\n      return\n        /* \"Documents/BBX/contracts/BBX_Token.sol\":1053:1578  function transfer(address recipient, uint256 amount) public override returns (bool) {... */\n    tag_28:\n      tag_114\n      0x04\n      dup1\n      calldatasize\n      sub\n      0x40\n      dup2\n      lt\n      iszero\n      tag_115\n      jumpi\n      0x00\n      dup1\n      revert\n    tag_115:\n      dup2\n      add\n      swap1\n      dup1\n      dup1\n      calldataload\n      0xffffffffffffffffffffffffffffffffffffffff\n      and\n      swap1\n      0x20\n      add\n      swap1\n      swap3\n      swap2\n      swap1\n      dup1\n      calldataload\n      swap1\n      0x20\n      add\n      swap1\n      swap3\n      swap2\n      swap1\n      pop\n      pop\n      pop\n      tag_116\n      jump\t// in\n    tag_114:\n      mload(0x40)\n      dup1\n      dup3\n      iszero\n      iszero\n      dup2\n      mstore\n      0x20\n      add\n      swap2\n      pop\n      pop\n      mload(0x40)\n      dup1\n      swap2\n      sub\n      swap1\n      return\n        /* \"Documents/BBX/contracts/utils/ERC20Permit.sol\":1125:1874  function permit(... */\n    tag_29:\n      tag_117\n      0x04\n      dup1\n      calldatasize\n      sub\n      0xe0\n      dup2\n      lt\n      iszero\n      tag_118\n      jumpi\n      0x00\n      dup1\n      revert\n    tag_118:\n      dup2\n      add\n      swap1\n      dup1\n      dup1\n      calldataload\n      0xffffffffffffffffffffffffffffffffffffffff\n      and\n      swap1\n      0x20\n      add\n      swap1\n      swap3\n      swap2\n      swap1\n      dup1\n      calldataload\n      0xffffffffffffffffffffffffffffffffffffffff\n      and\n      swap1\n      0x20\n      add\n      swap1\n      swap3\n      swap2\n      swap1\n      dup1\n      calldataload\n      swap1\n      0x20\n      add\n      swap1\n      swap3\n      swap2\n      swap1\n      dup1\n      calldataload\n      swap1\n      0x20\n      add\n      swap1\n      swap3\n      swap2\n      swap1\n      dup1\n      calldataload\n      0xff\n      and\n      swap1\n      0x20\n      add\n      swap1\n      swap3\n      swap2\n      swap1\n      dup1\n      calldataload\n      swap1\n      0x20\n      add\n      swap1\n      swap3\n      swap2\n      swap1\n      dup1\n      calldataload\n      swap1\n      0x20\n      add\n      swap1\n      swap3\n      swap2\n      swap1\n      pop\n      pop\n      pop\n      tag_119\n      jump\t// in\n    tag_117:\n      stop\n        /* \"Documents/BBX/contracts/utils/ERC20.sol\":1459:1608  function allowance(address owner, address spender) public view virtual override returns (uint256) {... */\n    tag_30:\n      tag_120\n      0x04\n      dup1\n      calldatasize\n      sub\n      0x40\n      dup2\n      lt\n      iszero\n      tag_121\n      jumpi\n      0x00\n      dup1\n      revert\n    tag_121:\n      dup2\n      add\n      swap1\n      dup1\n      dup1\n      calldataload\n      0xffffffffffffffffffffffffffffffffffffffff\n      and\n      swap1\n      0x20\n      add\n      swap1\n      swap3\n      swap2\n      swap1\n      dup1\n      calldataload\n      0xffffffffffffffffffffffffffffffffffffffff\n      and\n      swap1\n      0x20\n      add\n      swap1\n      swap3\n      swap2\n      swap1\n      pop\n      pop\n      pop\n      tag_122\n      jump\t// in\n    tag_120:\n      mload(0x40)\n      dup1\n      dup3\n      dup2\n      mstore\n      0x20\n      add\n      swap2\n      pop\n      pop\n      mload(0x40)\n      dup1\n      swap2\n      sub\n      swap1\n      return\n        /* \"Documents/BBX/contracts/BBX_Token.sol\":965:1047  function setFeeTo(address _feeTo) public onlyOwner {... */\n    tag_31:\n      tag_123\n      0x04\n      dup1\n      calldatasize\n      sub\n      0x20\n      dup2\n      lt\n      iszero\n      tag_124\n      jumpi\n      0x00\n      dup1\n      revert\n    tag_124:\n      dup2\n      add\n      swap1\n      dup1\n      dup1\n      calldataload\n      0xffffffffffffffffffffffffffffffffffffffff\n      and\n      swap1\n      0x20\n      add\n      swap1\n      swap3\n      swap2\n      swap1\n      pop\n      pop\n      pop\n      tag_125\n      jump\t// in\n    tag_123:\n      stop\n        /* \"Documents/BBX/contracts/utils/VaultOwned.sol\":285:356  function vault() public view returns (address) {... */\n    tag_32:\n      tag_126\n      tag_127\n      jump\t// in\n    tag_126:\n      mload(0x40)\n      dup1\n      dup3\n      0xffffffffffffffffffffffffffffffffffffffff\n      and\n      dup2\n      mstore\n      0x20\n      add\n      swap2\n      pop\n      pop\n      mload(0x40)\n      dup1\n      swap2\n      sub\n      swap1\n      return\n        /* \"Documents/BBX/contracts/utils/ERC20.sol\":774:855  function name() public view returns (string memory) {... */\n    tag_41:\n        /* \"Documents/BBX/contracts/utils/ERC20.sol\":811:824  string memory */\n      0x60\n        /* \"Documents/BBX/contracts/utils/ERC20.sol\":843:848  _name */\n      0x03\n        /* \"Documents/BBX/contracts/utils/ERC20.sol\":836:848  return _name */\n      dup1\n      sload\n      0x01\n      dup2\n      0x01\n      and\n      iszero\n      0x0100\n      mul\n      sub\n      and\n      0x02\n      swap1\n      div\n      dup1\n      0x1f\n      add\n      0x20\n      dup1\n      swap2\n      div\n      mul\n      0x20\n      add\n      mload(0x40)\n      swap1\n      dup2\n      add\n      0x40\n      mstore\n      dup1\n      swap3\n      swap2\n      swap1\n      dup2\n      dup2\n      mstore\n      0x20\n      add\n      dup3\n      dup1\n      sload\n      0x01\n      dup2\n      0x01\n      and\n      iszero\n      0x0100\n      mul\n      sub\n      and\n      0x02\n      swap1\n      div\n      dup1\n      iszero\n      tag_129\n      jumpi\n      dup1\n      0x1f\n      lt\n      tag_130\n      jumpi\n      0x0100\n      dup1\n      dup4\n      sload\n      div\n      mul\n      dup4\n      mstore\n      swap2\n      0x20\n      add\n      swap2\n      jump(tag_129)\n    tag_130:\n      dup3\n      add\n      swap2\n      swap1\n      0x00\n      mstore\n      keccak256(0x00, 0x20)\n      swap1\n    tag_131:\n      dup2\n      sload\n      dup2\n      mstore\n      swap1\n      0x01\n      add\n      swap1\n      0x20\n      add\n      dup1\n      dup4\n      gt\n      tag_131\n      jumpi\n      dup3\n      swap1\n      sub\n      0x1f\n      and\n      dup3\n      add\n      swap2\n    tag_129:\n      pop\n      pop\n      pop\n      pop\n      pop\n      swap1\n      pop\n        /* \"Documents/BBX/contracts/utils/ERC20.sol\":774:855  function name() public view returns (string memory) {... */\n      swap1\n      jump\t// out\n        /* \"Documents/BBX/contracts/utils/ERC20.sol\":1614:1778  function approve(address spender, uint256 amount) public virtual override returns (bool) {... */\n    tag_48:\n        /* \"Documents/BBX/contracts/utils/ERC20.sol\":1697:1701  bool */\n      0x00\n        /* \"Documents/BBX/contracts/utils/ERC20.sol\":1713:1750  _approve(msg.sender, spender, amount) */\n      tag_133\n        /* \"Documents/BBX/contracts/utils/ERC20.sol\":1722:1732  msg.sender */\n      caller\n        /* \"Documents/BBX/contracts/utils/ERC20.sol\":1734:1741  spender */\n      dup5\n        /* \"Documents/BBX/contracts/utils/ERC20.sol\":1743:1749  amount */\n      dup5\n        /* \"Documents/BBX/contracts/utils/ERC20.sol\":1713:1721  _approve */\n      tag_134\n        /* \"Documents/BBX/contracts/utils/ERC20.sol\":1713:1750  _approve(msg.sender, spender, amount) */\n      jump\t// in\n    tag_133:\n        /* \"Documents/BBX/contracts/utils/ERC20.sol\":1767:1771  true */\n      0x01\n        /* \"Documents/BBX/contracts/utils/ERC20.sol\":1760:1771  return true */\n      swap1\n      pop\n        /* \"Documents/BBX/contracts/utils/ERC20.sol\":1614:1778  function approve(address spender, uint256 amount) public virtual override returns (bool) {... */\n      swap3\n      swap2\n      pop\n      pop\n      jump\t// out\n        /* \"Documents/BBX/contracts/utils/ERC20.sol\":1048:1146  function totalSupply() public view override returns (uint256) {... */\n    tag_50:\n        /* \"Documents/BBX/contracts/utils/ERC20.sol\":1101:1108  uint256 */\n      0x00\n        /* \"Documents/BBX/contracts/utils/ERC20.sol\":1127:1139  _totalSupply */\n      sload(0x02)\n        /* \"Documents/BBX/contracts/utils/ERC20.sol\":1120:1139  return _totalSupply */\n      swap1\n      pop\n        /* \"Documents/BBX/contracts/utils/ERC20.sol\":1048:1146  function totalSupply() public view override returns (uint256) {... */\n      swap1\n      jump\t// out\n        /* \"Documents/BBX/contracts/BBX_Token.sol\":1588:2404  function transferFrom(address sender, address recipient, uint256 amount) public override returns (bool) {... */\n    tag_53:\n        /* \"Documents/BBX/contracts/BBX_Token.sol\":1686:1690  bool */\n      0x00\n        /* \"Documents/BBX/contracts/BBX_Token.sol\":1705:1718  isWhiteListed */\n      0x0b\n        /* \"Documents/BBX/contracts/BBX_Token.sol\":1705:1730  isWhiteListed[msg.sender] */\n      0x00\n        /* \"Documents/BBX/contracts/BBX_Token.sol\":1719:1729  msg.sender */\n      caller\n        /* \"Documents/BBX/contracts/BBX_Token.sol\":1705:1730  isWhiteListed[msg.sender] */\n      0xffffffffffffffffffffffffffffffffffffffff\n      and\n      0xffffffffffffffffffffffffffffffffffffffff\n      and\n      dup2\n      mstore\n      0x20\n      add\n      swap1\n      dup2\n      mstore\n      0x20\n      add\n      0x00\n      keccak256\n      0x00\n      swap1\n      sload\n      swap1\n      0x0100\n      exp\n      swap1\n      div\n      0xff\n      and\n        /* \"Documents/BBX/contracts/BBX_Token.sol\":1705:1758  isWhiteListed[msg.sender] || isWhiteListed[recipient] */\n      dup1\n      tag_137\n      jumpi\n      pop\n        /* \"Documents/BBX/contracts/BBX_Token.sol\":1734:1747  isWhiteListed */\n      0x0b\n        /* \"Documents/BBX/contracts/BBX_Token.sol\":1734:1758  isWhiteListed[recipient] */\n      0x00\n        /* \"Documents/BBX/contracts/BBX_Token.sol\":1748:1757  recipient */\n      dup5\n        /* \"Documents/BBX/contracts/BBX_Token.sol\":1734:1758  isWhiteListed[recipient] */\n      0xffffffffffffffffffffffffffffffffffffffff\n      and\n      0xffffffffffffffffffffffffffffffffffffffff\n      and\n      dup2\n      mstore\n      0x20\n      add\n      swap1\n      dup2\n      mstore\n      0x20\n      add\n      0x00\n      keccak256\n      0x00\n      swap1\n      sload\n      swap1\n      0x0100\n      exp\n      swap1\n      div\n      0xff\n      and\n        /* \"Documents/BBX/contracts/BBX_Token.sol\":1705:1758  isWhiteListed[msg.sender] || isWhiteListed[recipient] */\n    tag_137:\n        /* \"Documents/BBX/contracts/BBX_Token.sol\":1705:1783  isWhiteListed[msg.sender] || isWhiteListed[recipient] || isWhiteListed[sender] */\n      dup1\n      tag_138\n      jumpi\n      pop\n        /* \"Documents/BBX/contracts/BBX_Token.sol\":1762:1775  isWhiteListed */\n      0x0b\n        /* \"Documents/BBX/contracts/BBX_Token.sol\":1762:1783  isWhiteListed[sender] */\n      0x00\n        /* \"Documents/BBX/contracts/BBX_Token.sol\":1776:1782  sender */\n      dup6\n        /* \"Documents/BBX/contracts/BBX_Token.sol\":1762:1783  isWhiteListed[sender] */\n      0xffffffffffffffffffffffffffffffffffffffff\n      and\n      0xffffffffffffffffffffffffffffffffffffffff\n      and\n      dup2\n      mstore\n      0x20\n      add\n      swap1\n      dup2\n      mstore\n      0x20\n      add\n      0x00\n      keccak256\n      0x00\n      swap1\n      sload\n      swap1\n      0x0100\n      exp\n      swap1\n      div\n      0xff\n      and\n        /* \"Documents/BBX/contracts/BBX_Token.sol\":1705:1783  isWhiteListed[msg.sender] || isWhiteListed[recipient] || isWhiteListed[sender] */\n    tag_138:\n        /* \"Documents/BBX/contracts/BBX_Token.sol\":1702:2389  if(isWhiteListed[msg.sender] || isWhiteListed[recipient] || isWhiteListed[sender])... */\n      iszero\n      tag_139\n      jumpi\n        /* \"Documents/BBX/contracts/BBX_Token.sol\":1807:1843  _transfer(sender, recipient, amount) */\n      tag_140\n        /* \"Documents/BBX/contracts/BBX_Token.sol\":1817:1823  sender */\n      dup5\n        /* \"Documents/BBX/contracts/BBX_Token.sol\":1825:1834  recipient */\n      dup5\n        /* \"Documents/BBX/contracts/BBX_Token.sol\":1836:1842  amount */\n      dup5\n        /* \"Documents/BBX/contracts/BBX_Token.sol\":1807:1816  _transfer */\n      tag_141\n        /* \"Documents/BBX/contracts/BBX_Token.sol\":1807:1843  _transfer(sender, recipient, amount) */\n      jump\t// in\n    tag_140:\n        /* \"Documents/BBX/contracts/BBX_Token.sol\":1857:1974  _approve(sender, msg.sender, _allowances[sender][msg.sender].sub(amount, \"ERC20: transfer amount exceeds allowance\")) */\n      tag_142\n        /* \"Documents/BBX/contracts/BBX_Token.sol\":1866:1872  sender */\n      dup5\n        /* \"Documents/BBX/contracts/BBX_Token.sol\":1874:1884  msg.sender */\n      caller\n        /* \"Documents/BBX/contracts/BBX_Token.sol\":1886:1973  _allowances[sender][msg.sender].sub(amount, \"ERC20: transfer amount exceeds allowance\") */\n      tag_143\n        /* \"Documents/BBX/contracts/BBX_Token.sol\":1922:1928  amount */\n      dup6\n        /* \"Documents/BBX/contracts/BBX_Token.sol\":1886:1973  _allowances[sender][msg.sender].sub(amount, \"ERC20: transfer amount exceeds allowance\") */\n      mload(0x40)\n      dup1\n      0x60\n      add\n      0x40\n      mstore\n      dup1\n      0x28\n      dup2\n      mstore\n      0x20\n      add\n      data_974d1b4421da69cc60b481194f0dad36a5bb4e23da810da7a7fb30cdba178330\n      0x28\n      swap2\n      codecopy\n        /* \"Documents/BBX/contracts/BBX_Token.sol\":1886:1897  _allowances */\n      0x01\n        /* \"Documents/BBX/contracts/BBX_Token.sol\":1886:1905  _allowances[sender] */\n      0x00\n        /* \"Documents/BBX/contracts/BBX_Token.sol\":1898:1904  sender */\n      dup12\n        /* \"Documents/BBX/contracts/BBX_Token.sol\":1886:1905  _allowances[sender] */\n      0xffffffffffffffffffffffffffffffffffffffff\n      and\n      0xffffffffffffffffffffffffffffffffffffffff\n      and\n      dup2\n      mstore\n      0x20\n      add\n      swap1\n      dup2\n      mstore\n      0x20\n      add\n      0x00\n      keccak256\n        /* \"Documents/BBX/contracts/BBX_Token.sol\":1886:1917  _allowances[sender][msg.sender] */\n      0x00\n        /* \"Documents/BBX/contracts/BBX_Token.sol\":1906:1916  msg.sender */\n      caller\n        /* \"Documents/BBX/contracts/BBX_Token.sol\":1886:1917  _allowances[sender][msg.sender] */\n      0xffffffffffffffffffffffffffffffffffffffff\n      and\n      0xffffffffffffffffffffffffffffffffffffffff\n      and\n      dup2\n      mstore\n      0x20\n      add\n      swap1\n      dup2\n      mstore\n      0x20\n      add\n      0x00\n      keccak256\n      sload\n        /* \"Documents/BBX/contracts/BBX_Token.sol\":1886:1921  _allowances[sender][msg.sender].sub */\n      tag_144\n      swap1\n        /* \"Documents/BBX/contracts/BBX_Token.sol\":1886:1973  _allowances[sender][msg.sender].sub(amount, \"ERC20: transfer amount exceeds allowance\") */\n      swap3\n      swap2\n      swap1\n      0xffffffff\n      and\n      jump\t// in\n    tag_143:\n        /* \"Documents/BBX/contracts/BBX_Token.sol\":1857:1865  _approve */\n      tag_134\n        /* \"Documents/BBX/contracts/BBX_Token.sol\":1857:1974  _approve(sender, msg.sender, _allowances[sender][msg.sender].sub(amount, \"ERC20: transfer amount exceeds allowance\")) */\n      jump\t// in\n    tag_142:\n        /* \"Documents/BBX/contracts/BBX_Token.sol\":1995:1999  true */\n      0x01\n        /* \"Documents/BBX/contracts/BBX_Token.sol\":1988:1999  return true */\n      swap1\n      pop\n      jump(tag_136)\n        /* \"Documents/BBX/contracts/BBX_Token.sol\":1702:2389  if(isWhiteListed[msg.sender] || isWhiteListed[recipient] || isWhiteListed[sender])... */\n    tag_139:\n        /* \"Documents/BBX/contracts/BBX_Token.sol\":2042:2053  uint256 fee */\n      0x00\n        /* \"Documents/BBX/contracts/BBX_Token.sol\":2056:2087  amount.mul(taxRate).div(100000) */\n      tag_146\n        /* \"Documents/BBX/contracts/BBX_Token.sol\":2080:2086  100000 */\n      0x0186a0\n        /* \"Documents/BBX/contracts/BBX_Token.sol\":2056:2075  amount.mul(taxRate) */\n      tag_147\n        /* \"Documents/BBX/contracts/BBX_Token.sol\":2067:2074  taxRate */\n      sload(0x0d)\n        /* \"Documents/BBX/contracts/BBX_Token.sol\":2056:2062  amount */\n      dup7\n        /* \"Documents/BBX/contracts/BBX_Token.sol\":2056:2066  amount.mul */\n      tag_148\n      swap1\n        /* \"Documents/BBX/contracts/BBX_Token.sol\":2056:2075  amount.mul(taxRate) */\n      swap2\n      swap1\n      0xffffffff\n      and\n      jump\t// in\n    tag_147:\n        /* \"Documents/BBX/contracts/BBX_Token.sol\":2056:2079  amount.mul(taxRate).div */\n      tag_149\n      swap1\n        /* \"Documents/BBX/contracts/BBX_Token.sol\":2056:2087  amount.mul(taxRate).div(100000) */\n      swap2\n      swap1\n      0xffffffff\n      and\n      jump\t// in\n    tag_146:\n        /* \"Documents/BBX/contracts/BBX_Token.sol\":2042:2087  uint256 fee = amount.mul(taxRate).div(100000) */\n      swap1\n      pop\n        /* \"Documents/BBX/contracts/BBX_Token.sol\":2097:2119  uint256 amountAfterFee */\n      0x00\n        /* \"Documents/BBX/contracts/BBX_Token.sol\":2122:2137  amount.sub(fee) */\n      tag_150\n        /* \"Documents/BBX/contracts/BBX_Token.sol\":2133:2136  fee */\n      dup3\n        /* \"Documents/BBX/contracts/BBX_Token.sol\":2122:2128  amount */\n      dup6\n        /* \"Documents/BBX/contracts/BBX_Token.sol\":2122:2132  amount.sub */\n      tag_151\n      swap1\n        /* \"Documents/BBX/contracts/BBX_Token.sol\":2122:2137  amount.sub(fee) */\n      swap2\n      swap1\n      0xffffffff\n      and\n      jump\t// in\n    tag_150:\n        /* \"Documents/BBX/contracts/BBX_Token.sol\":2097:2137  uint256 amountAfterFee = amount.sub(fee) */\n      swap1\n      pop\n        /* \"Documents/BBX/contracts/BBX_Token.sol\":2147:2191  _transfer(sender, recipient, amountAfterFee) */\n      tag_152\n        /* \"Documents/BBX/contracts/BBX_Token.sol\":2157:2163  sender */\n      dup7\n        /* \"Documents/BBX/contracts/BBX_Token.sol\":2165:2174  recipient */\n      dup7\n        /* \"Documents/BBX/contracts/BBX_Token.sol\":2176:2190  amountAfterFee */\n      dup4\n        /* \"Documents/BBX/contracts/BBX_Token.sol\":2147:2156  _transfer */\n      tag_141\n        /* \"Documents/BBX/contracts/BBX_Token.sol\":2147:2191  _transfer(sender, recipient, amountAfterFee) */\n      jump\t// in\n    tag_152:\n        /* \"Documents/BBX/contracts/BBX_Token.sol\":2201:2230  _transfer(sender, feeTo, fee) */\n      tag_153\n        /* \"Documents/BBX/contracts/BBX_Token.sol\":2211:2217  sender */\n      dup7\n        /* \"Documents/BBX/contracts/BBX_Token.sol\":2219:2224  feeTo */\n      0x0c\n      0x00\n      swap1\n      sload\n      swap1\n      0x0100\n      exp\n      swap1\n      div\n      0xffffffffffffffffffffffffffffffffffffffff\n      and\n        /* \"Documents/BBX/contracts/BBX_Token.sol\":2226:2229  fee */\n      dup5\n        /* \"Documents/BBX/contracts/BBX_Token.sol\":2201:2210  _transfer */\n      tag_141\n        /* \"Documents/BBX/contracts/BBX_Token.sol\":2201:2230  _transfer(sender, feeTo, fee) */\n      jump\t// in\n    tag_153:\n        /* \"Documents/BBX/contracts/BBX_Token.sol\":2240:2357  _approve(sender, msg.sender, _allowances[sender][msg.sender].sub(amount, \"ERC20: transfer amount exceeds allowance\")) */\n      tag_154\n        /* \"Documents/BBX/contracts/BBX_Token.sol\":2249:2255  sender */\n      dup7\n        /* \"Documents/BBX/contracts/BBX_Token.sol\":2257:2267  msg.sender */\n      caller\n        /* \"Documents/BBX/contracts/BBX_Token.sol\":2269:2356  _allowances[sender][msg.sender].sub(amount, \"ERC20: transfer amount exceeds allowance\") */\n      tag_155\n        /* \"Documents/BBX/contracts/BBX_Token.sol\":2305:2311  amount */\n      dup8\n        /* \"Documents/BBX/contracts/BBX_Token.sol\":2269:2356  _allowances[sender][msg.sender].sub(amount, \"ERC20: transfer amount exceeds allowance\") */\n      mload(0x40)\n      dup1\n      0x60\n      add\n      0x40\n      mstore\n      dup1\n      0x28\n      dup2\n      mstore\n      0x20\n      add\n      data_974d1b4421da69cc60b481194f0dad36a5bb4e23da810da7a7fb30cdba178330\n      0x28\n      swap2\n      codecopy\n        /* \"Documents/BBX/contracts/BBX_Token.sol\":2269:2280  _allowances */\n      0x01\n        /* \"Documents/BBX/contracts/BBX_Token.sol\":2269:2288  _allowances[sender] */\n      0x00\n        /* \"Documents/BBX/contracts/BBX_Token.sol\":2281:2287  sender */\n      dup14\n        /* \"Documents/BBX/contracts/BBX_Token.sol\":2269:2288  _allowances[sender] */\n      0xffffffffffffffffffffffffffffffffffffffff\n      and\n      0xffffffffffffffffffffffffffffffffffffffff\n      and\n      dup2\n      mstore\n      0x20\n      add\n      swap1\n      dup2\n      mstore\n      0x20\n      add\n      0x00\n      keccak256\n        /* \"Documents/BBX/contracts/BBX_Token.sol\":2269:2300  _allowances[sender][msg.sender] */\n      0x00\n        /* \"Documents/BBX/contracts/BBX_Token.sol\":2289:2299  msg.sender */\n      caller\n        /* \"Documents/BBX/contracts/BBX_Token.sol\":2269:2300  _allowances[sender][msg.sender] */\n      0xffffffffffffffffffffffffffffffffffffffff\n      and\n      0xffffffffffffffffffffffffffffffffffffffff\n      and\n      dup2\n      mstore\n      0x20\n      add\n      swap1\n      dup2\n      mstore\n      0x20\n      add\n      0x00\n      keccak256\n      sload\n        /* \"Documents/BBX/contracts/BBX_Token.sol\":2269:2304  _allowances[sender][msg.sender].sub */\n      tag_144\n      swap1\n        /* \"Documents/BBX/contracts/BBX_Token.sol\":2269:2356  _allowances[sender][msg.sender].sub(amount, \"ERC20: transfer amount exceeds allowance\") */\n      swap3\n      swap2\n      swap1\n      0xffffffff\n      and\n      jump\t// in\n    tag_155:\n        /* \"Documents/BBX/contracts/BBX_Token.sol\":2240:2248  _approve */\n      tag_134\n        /* \"Documents/BBX/contracts/BBX_Token.sol\":2240:2357  _approve(sender, msg.sender, _allowances[sender][msg.sender].sub(amount, \"ERC20: transfer amount exceeds allowance\")) */\n      jump\t// in\n    tag_154:\n        /* \"Documents/BBX/contracts/BBX_Token.sol\":2374:2378  true */\n      0x01\n        /* \"Documents/BBX/contracts/BBX_Token.sol\":2367:2378  return true */\n      swap3\n      pop\n      pop\n      pop\n        /* \"Documents/BBX/contracts/BBX_Token.sol\":1588:2404  function transferFrom(address sender, address recipient, uint256 amount) public override returns (bool) {... */\n    tag_136:\n      swap4\n      swap3\n      pop\n      pop\n      pop\n      jump\t// out\n        /* \"Documents/BBX/contracts/BBX_Token.sol\":536:703  function setWhileList(address _entity)public onlyOwner returns(bool _success)... */\n    tag_56:\n        /* \"Documents/BBX/contracts/BBX_Token.sol\":599:612  bool _success */\n      0x00\n        /* \"Documents/BBX/contracts/utils/Ownable.sol\":635:645  msg.sender */\n      caller\n        /* \"Documents/BBX/contracts/utils/Ownable.sol\":625:645  _owner == msg.sender */\n      0xffffffffffffffffffffffffffffffffffffffff\n      and\n        /* \"Documents/BBX/contracts/utils/Ownable.sol\":625:631  _owner */\n      0x08\n      0x00\n      swap1\n      sload\n      swap1\n      0x0100\n      exp\n      swap1\n      div\n      0xffffffffffffffffffffffffffffffffffffffff\n      and\n        /* \"Documents/BBX/contracts/utils/Ownable.sol\":625:645  _owner == msg.sender */\n      0xffffffffffffffffffffffffffffffffffffffff\n      and\n      eq\n        /* \"Documents/BBX/contracts/utils/Ownable.sol\":616:683  require( _owner == msg.sender, \"Ownable: caller is not the owner\" ) */\n      tag_157\n      jumpi\n      mload(0x40)\n      0x08c379a000000000000000000000000000000000000000000000000000000000\n      dup2\n      mstore\n      0x04\n      add\n      dup1\n      dup1\n      0x20\n      add\n      dup3\n      dup2\n      sub\n      dup3\n      mstore\n      0x20\n      dup2\n      mstore\n      0x20\n      add\n      dup1\n      0x4f776e61626c653a2063616c6c6572206973206e6f7420746865206f776e6572\n      dup2\n      mstore\n      pop\n      0x20\n      add\n      swap2\n      pop\n      pop\n      mload(0x40)\n      dup1\n      swap2\n      sub\n      swap1\n      revert\n    tag_157:\n        /* \"Documents/BBX/contracts/BBX_Token.sol\":653:657  true */\n      0x01\n        /* \"Documents/BBX/contracts/BBX_Token.sol\":628:641  isWhiteListed */\n      0x0b\n        /* \"Documents/BBX/contracts/BBX_Token.sol\":628:650  isWhiteListed[_entity] */\n      0x00\n        /* \"Documents/BBX/contracts/BBX_Token.sol\":642:649  _entity */\n      dup5\n        /* \"Documents/BBX/contracts/BBX_Token.sol\":628:650  isWhiteListed[_entity] */\n      0xffffffffffffffffffffffffffffffffffffffff\n      and\n      0xffffffffffffffffffffffffffffffffffffffff\n      and\n      dup2\n      mstore\n      0x20\n      add\n      swap1\n      dup2\n      mstore\n      0x20\n      add\n      0x00\n      keccak256\n      0x00\n        /* \"Documents/BBX/contracts/BBX_Token.sol\":628:657  isWhiteListed[_entity] = true */\n      0x0100\n      exp\n      dup2\n      sload\n      dup2\n      0xff\n      mul\n      not\n      and\n      swap1\n      dup4\n      iszero\n      iszero\n      mul\n      or\n      swap1\n      sstore\n      pop\n        /* \"Documents/BBX/contracts/BBX_Token.sol\":674:687  isWhiteListed */\n      0x0b\n        /* \"Documents/BBX/contracts/BBX_Token.sol\":674:696  isWhiteListed[_entity] */\n      0x00\n        /* \"Documents/BBX/contracts/BBX_Token.sol\":688:695  _entity */\n      dup4\n        /* \"Documents/BBX/contracts/BBX_Token.sol\":674:696  isWhiteListed[_entity] */\n      0xffffffffffffffffffffffffffffffffffffffff\n      and\n      0xffffffffffffffffffffffffffffffffffffffff\n      and\n      dup2\n      mstore\n      0x20\n      add\n      swap1\n      dup2\n      mstore\n      0x20\n      add\n      0x00\n      keccak256\n      0x00\n      swap1\n      sload\n      swap1\n      0x0100\n      exp\n      swap1\n      div\n      0xff\n      and\n        /* \"Documents/BBX/contracts/BBX_Token.sol\":667:696  return isWhiteListed[_entity] */\n      swap1\n      pop\n        /* \"Documents/BBX/contracts/BBX_Token.sol\":536:703  function setWhileList(address _entity)public onlyOwner returns(bool _success)... */\n      swap2\n      swap1\n      pop\n      jump\t// out\n        /* \"Documents/BBX/contracts/BBX_Token.sol\":881:959  function setTax(uint256 _tax) public onlyOwner {... */\n    tag_59:\n        /* \"Documents/BBX/contracts/utils/Ownable.sol\":635:645  msg.sender */\n      caller\n        /* \"Documents/BBX/contracts/utils/Ownable.sol\":625:645  _owner == msg.sender */\n      0xffffffffffffffffffffffffffffffffffffffff\n      and\n        /* \"Documents/BBX/contracts/utils/Ownable.sol\":625:631  _owner */\n      0x08\n      0x00\n      swap1\n      sload\n      swap1\n      0x0100\n      exp\n      swap1\n      div\n      0xffffffffffffffffffffffffffffffffffffffff\n      and\n        /* \"Documents/BBX/contracts/utils/Ownable.sol\":625:645  _owner == msg.sender */\n      0xffffffffffffffffffffffffffffffffffffffff\n      and\n      eq\n        /* \"Documents/BBX/contracts/utils/Ownable.sol\":616:683  require( _owner == msg.sender, \"Ownable: caller is not the owner\" ) */\n      tag_160\n      jumpi\n      mload(0x40)\n      0x08c379a000000000000000000000000000000000000000000000000000000000\n      dup2\n      mstore\n      0x04\n      add\n      dup1\n      dup1\n      0x20\n      add\n      dup3\n      dup2\n      sub\n      dup3\n      mstore\n      0x20\n      dup2\n      mstore\n      0x20\n      add\n      dup1\n      0x4f776e61626c653a2063616c6c6572206973206e6f7420746865206f776e6572\n      dup2\n      mstore\n      pop\n      0x20\n      add\n      swap2\n      pop\n      pop\n      mload(0x40)\n      dup1\n      swap2\n      sub\n      swap1\n      revert\n    tag_160:\n        /* \"Documents/BBX/contracts/BBX_Token.sol\":948:952  _tax */\n      dup1\n        /* \"Documents/BBX/contracts/BBX_Token.sol\":938:945  taxRate */\n      0x0d\n        /* \"Documents/BBX/contracts/BBX_Token.sol\":938:952  taxRate = _tax */\n      dup2\n      swap1\n      sstore\n      pop\n        /* \"Documents/BBX/contracts/BBX_Token.sol\":881:959  function setTax(uint256 _tax) public onlyOwner {... */\n      pop\n      jump\t// out\n        /* \"Documents/BBX/contracts/utils/ERC20Permit.sol\":510:618  bytes32 public constant PERMIT_TYPEHASH = 0x6e71edae12b1b97f4d1f60370fef10105fa2faae0126114a169c64845d6126c9 */\n    tag_61:\n        /* \"Documents/BBX/contracts/utils/ERC20Permit.sol\":552:618  0x6e71edae12b1b97f4d1f60370fef10105fa2faae0126114a169c64845d6126c9 */\n      0x6e71edae12b1b97f4d1f60370fef10105fa2faae0126114a169c64845d6126c9\n        /* \"Documents/BBX/contracts/utils/ERC20Permit.sol\":510:618  bytes32 public constant PERMIT_TYPEHASH = 0x6e71edae12b1b97f4d1f60370fef10105fa2faae0126114a169c64845d6126c9 */\n      0x00\n      shl\n      dup2\n      jump\t// out\n        /* \"Documents/BBX/contracts/utils/ERC20.sol\":952:1042  function decimals() public view override returns (uint8) {... */\n    tag_63:\n        /* \"Documents/BBX/contracts/utils/ERC20.sol\":1002:1007  uint8 */\n      0x00\n        /* \"Documents/BBX/contracts/utils/ERC20.sol\":1026:1035  _decimals */\n      0x05\n      0x00\n      swap1\n      sload\n      swap1\n      0x0100\n      exp\n      swap1\n      div\n      0xff\n      and\n        /* \"Documents/BBX/contracts/utils/ERC20.sol\":1019:1035  return _decimals */\n      swap1\n      pop\n        /* \"Documents/BBX/contracts/utils/ERC20.sol\":952:1042  function decimals() public view override returns (uint8) {... */\n      swap1\n      jump\t// out\n        /* \"Documents/BBX/contracts/utils/ERC20Permit.sol\":625:656  bytes32 public DOMAIN_SEPARATOR */\n    tag_65:\n      sload(0x07)\n      dup2\n      jump\t// out\n        /* \"Documents/BBX/contracts/utils/ERC20.sol\":2103:2314  function increaseAllowance(address spender, uint256 addedValue) public virtual returns (bool) {... */\n    tag_68:\n        /* \"Documents/BBX/contracts/utils/ERC20.sol\":2191:2195  bool */\n      0x00\n        /* \"Documents/BBX/contracts/utils/ERC20.sol\":2207:2286  _approve(msg.sender, spender, _allowances[msg.sender][spender].add(addedValue)) */\n      tag_164\n        /* \"Documents/BBX/contracts/utils/ERC20.sol\":2216:2226  msg.sender */\n      caller\n        /* \"Documents/BBX/contracts/utils/ERC20.sol\":2228:2235  spender */\n      dup5\n        /* \"Documents/BBX/contracts/utils/ERC20.sol\":2237:2285  _allowances[msg.sender][spender].add(addedValue) */\n      tag_165\n        /* \"Documents/BBX/contracts/utils/ERC20.sol\":2274:2284  addedValue */\n      dup6\n        /* \"Documents/BBX/contracts/utils/ERC20.sol\":2237:2248  _allowances */\n      0x01\n        /* \"Documents/BBX/contracts/utils/ERC20.sol\":2237:2260  _allowances[msg.sender] */\n      0x00\n        /* \"Documents/BBX/contracts/utils/ERC20.sol\":2249:2259  msg.sender */\n      caller\n        /* \"Documents/BBX/contracts/utils/ERC20.sol\":2237:2260  _allowances[msg.sender] */\n      0xffffffffffffffffffffffffffffffffffffffff\n      and\n      0xffffffffffffffffffffffffffffffffffffffff\n      and\n      dup2\n      mstore\n      0x20\n      add\n      swap1\n      dup2\n      mstore\n      0x20\n      add\n      0x00\n      keccak256\n        /* \"Documents/BBX/contracts/utils/ERC20.sol\":2237:2269  _allowances[msg.sender][spender] */\n      0x00\n        /* \"Documents/BBX/contracts/utils/ERC20.sol\":2261:2268  spender */\n      dup10\n        /* \"Documents/BBX/contracts/utils/ERC20.sol\":2237:2269  _allowances[msg.sender][spender] */\n      0xffffffffffffffffffffffffffffffffffffffff\n      and\n      0xffffffffffffffffffffffffffffffffffffffff\n      and\n      dup2\n      mstore\n      0x20\n      add\n      swap1\n      dup2\n      mstore\n      0x20\n      add\n      0x00\n      keccak256\n      sload\n        /* \"Documents/BBX/contracts/utils/ERC20.sol\":2237:2273  _allowances[msg.sender][spender].add */\n      tag_166\n      swap1\n        /* \"Documents/BBX/contracts/utils/ERC20.sol\":2237:2285  _allowances[msg.sender][spender].add(addedValue) */\n      swap2\n      swap1\n      0xffffffff\n      and\n      jump\t// in\n    tag_165:\n        /* \"Documents/BBX/contracts/utils/ERC20.sol\":2207:2215  _approve */\n      tag_134\n        /* \"Documents/BBX/contracts/utils/ERC20.sol\":2207:2286  _approve(msg.sender, spender, _allowances[msg.sender][spender].add(addedValue)) */\n      jump\t// in\n    tag_164:\n        /* \"Documents/BBX/contracts/utils/ERC20.sol\":2303:2307  true */\n      0x01\n        /* \"Documents/BBX/contracts/utils/ERC20.sol\":2296:2307  return true */\n      swap1\n      pop\n        /* \"Documents/BBX/contracts/utils/ERC20.sol\":2103:2314  function increaseAllowance(address spender, uint256 addedValue) public virtual returns (bool) {... */\n      swap3\n      swap2\n      pop\n      pop\n      jump\t// out\n        /* \"Documents/BBX/contracts/OlympusERC20Token.sol\":391:502  function mint(address account_, uint256 amount_) external onlyVault() {... */\n    tag_71:\n        /* \"Documents/BBX/contracts/utils/VaultOwned.sol\":406:416  msg.sender */\n      caller\n        /* \"Documents/BBX/contracts/utils/VaultOwned.sol\":396:416  _vault == msg.sender */\n      0xffffffffffffffffffffffffffffffffffffffff\n      and\n        /* \"Documents/BBX/contracts/utils/VaultOwned.sol\":396:402  _vault */\n      0x0a\n      0x00\n      swap1\n      sload\n      swap1\n      0x0100\n      exp\n      swap1\n      div\n      0xffffffffffffffffffffffffffffffffffffffff\n      and\n        /* \"Documents/BBX/contracts/utils/VaultOwned.sol\":396:416  _vault == msg.sender */\n      0xffffffffffffffffffffffffffffffffffffffff\n      and\n      eq\n        /* \"Documents/BBX/contracts/utils/VaultOwned.sol\":387:457  require( _vault == msg.sender, \"VaultOwned: caller is not the Vault\" ) */\n      tag_168\n      jumpi\n      mload(0x40)\n      0x08c379a000000000000000000000000000000000000000000000000000000000\n      dup2\n      mstore\n      0x04\n      add\n      dup1\n      dup1\n      0x20\n      add\n      dup3\n      dup2\n      sub\n      dup3\n      mstore\n      0x23\n      dup2\n      mstore\n      0x20\n      add\n      dup1\n      data_97fe5a45a8d4c3a56de1e69fee692968b53b5c0a2f63047c888a0effc9a2b247\n      0x23\n      swap2\n      codecopy\n      0x40\n      add\n      swap2\n      pop\n      pop\n      mload(0x40)\n      dup1\n      swap2\n      sub\n      swap1\n      revert\n    tag_168:\n        /* \"Documents/BBX/contracts/OlympusERC20Token.sol\":471:495  _mint(account_, amount_) */\n      tag_170\n        /* \"Documents/BBX/contracts/OlympusERC20Token.sol\":477:485  account_ */\n      dup3\n        /* \"Documents/BBX/contracts/OlympusERC20Token.sol\":487:494  amount_ */\n      dup3\n        /* \"Documents/BBX/contracts/OlympusERC20Token.sol\":471:476  _mint */\n      tag_171\n        /* \"Documents/BBX/contracts/OlympusERC20Token.sol\":471:495  _mint(account_, amount_) */\n      jump\t// in\n    tag_170:\n        /* \"Documents/BBX/contracts/OlympusERC20Token.sol\":391:502  function mint(address account_, uint256 amount_) external onlyVault() {... */\n      pop\n      pop\n      jump\t// out\n        /* \"Documents/BBX/contracts/OlympusERC20Token.sol\":508:595  function burn(uint256 amount) public virtual {... */\n    tag_74:\n        /* \"Documents/BBX/contracts/OlympusERC20Token.sol\":563:588  _burn(msg.sender, amount) */\n      tag_173\n        /* \"Documents/BBX/contracts/OlympusERC20Token.sol\":569:579  msg.sender */\n      caller\n        /* \"Documents/BBX/contracts/OlympusERC20Token.sol\":581:587  amount */\n      dup3\n        /* \"Documents/BBX/contracts/OlympusERC20Token.sol\":563:568  _burn */\n      tag_174\n        /* \"Documents/BBX/contracts/OlympusERC20Token.sol\":563:588  _burn(msg.sender, amount) */\n      jump\t// in\n    tag_173:\n        /* \"Documents/BBX/contracts/OlympusERC20Token.sol\":508:595  function burn(uint256 amount) public virtual {... */\n      pop\n      jump\t// out\n        /* \"Documents/BBX/contracts/utils/Ownable.sol\":711:881  function pushManagement( address newOwner_ ) public virtual override onlyOwner() {... */\n    tag_77:\n        /* \"Documents/BBX/contracts/utils/Ownable.sol\":635:645  msg.sender */\n      caller\n        /* \"Documents/BBX/contracts/utils/Ownable.sol\":625:645  _owner == msg.sender */\n      0xffffffffffffffffffffffffffffffffffffffff\n      and\n        /* \"Documents/BBX/contracts/utils/Ownable.sol\":625:631  _owner */\n      0x08\n      0x00\n      swap1\n      sload\n      swap1\n      0x0100\n      exp\n      swap1\n      div\n      0xffffffffffffffffffffffffffffffffffffffff\n      and\n        /* \"Documents/BBX/contracts/utils/Ownable.sol\":625:645  _owner == msg.sender */\n      0xffffffffffffffffffffffffffffffffffffffff\n      and\n      eq\n        /* \"Documents/BBX/contracts/utils/Ownable.sol\":616:683  require( _owner == msg.sender, \"Ownable: caller is not the owner\" ) */\n      tag_176\n      jumpi\n      mload(0x40)\n      0x08c379a000000000000000000000000000000000000000000000000000000000\n      dup2\n      mstore\n      0x04\n      add\n      dup1\n      dup1\n      0x20\n      add\n      dup3\n      dup2\n      sub\n      dup3\n      mstore\n      0x20\n      dup2\n      mstore\n      0x20\n      add\n      dup1\n      0x4f776e61626c653a2063616c6c6572206973206e6f7420746865206f776e6572\n      dup2\n      mstore\n      pop\n      0x20\n      add\n      swap2\n      pop\n      pop\n      mload(0x40)\n      dup1\n      swap2\n      sub\n      swap1\n      revert\n    tag_176:\n        /* \"Documents/BBX/contracts/utils/Ownable.sol\":832:841  newOwner_ */\n      dup1\n        /* \"Documents/BBX/contracts/utils/Ownable.sol\":807:843  OwnershipPushed( _owner, newOwner_ ) */\n      0xffffffffffffffffffffffffffffffffffffffff\n      and\n        /* \"Documents/BBX/contracts/utils/Ownable.sol\":824:830  _owner */\n      0x08\n      0x00\n      swap1\n      sload\n      swap1\n      0x0100\n      exp\n      swap1\n      div\n      0xffffffffffffffffffffffffffffffffffffffff\n      and\n        /* \"Documents/BBX/contracts/utils/Ownable.sol\":807:843  OwnershipPushed( _owner, newOwner_ ) */\n      0xffffffffffffffffffffffffffffffffffffffff\n      and\n      0xea8258f2d9ddb679928cf34b78cf645b7feda9acc828e4dd82d014eaae270eba\n      mload(0x40)\n      mload(0x40)\n      dup1\n      swap2\n      sub\n      swap1\n      log3\n        /* \"Documents/BBX/contracts/utils/Ownable.sol\":865:874  newOwner_ */\n      dup1\n        /* \"Documents/BBX/contracts/utils/Ownable.sol\":853:862  _newOwner */\n      0x09\n      0x00\n        /* \"Documents/BBX/contracts/utils/Ownable.sol\":853:874  _newOwner = newOwner_ */\n      0x0100\n      exp\n      dup2\n      sload\n      dup2\n      0xffffffffffffffffffffffffffffffffffffffff\n      mul\n      not\n      and\n      swap1\n      dup4\n      0xffffffffffffffffffffffffffffffffffffffff\n      and\n      mul\n      or\n      swap1\n      sstore\n      pop\n        /* \"Documents/BBX/contracts/utils/Ownable.sol\":711:881  function pushManagement( address newOwner_ ) public virtual override onlyOwner() {... */\n      pop\n      jump\t// out\n        /* \"Documents/BBX/contracts/utils/Ownable.sol\":891:1140  function pullManagement() public virtual override {... */\n    tag_79:\n        /* \"Documents/BBX/contracts/utils/Ownable.sol\":974:983  _newOwner */\n      0x09\n      0x00\n      swap1\n      sload\n      swap1\n      0x0100\n      exp\n      swap1\n      div\n      0xffffffffffffffffffffffffffffffffffffffff\n      and\n        /* \"Documents/BBX/contracts/utils/Ownable.sol\":960:983  msg.sender == _newOwner */\n      0xffffffffffffffffffffffffffffffffffffffff\n      and\n        /* \"Documents/BBX/contracts/utils/Ownable.sol\":960:970  msg.sender */\n      caller\n        /* \"Documents/BBX/contracts/utils/Ownable.sol\":960:983  msg.sender == _newOwner */\n      0xffffffffffffffffffffffffffffffffffffffff\n      and\n      eq\n        /* \"Documents/BBX/contracts/utils/Ownable.sol\":951:1022  require( msg.sender == _newOwner, \"Ownable: must be new owner to pull\") */\n      tag_179\n      jumpi\n      mload(0x40)\n      0x08c379a000000000000000000000000000000000000000000000000000000000\n      dup2\n      mstore\n      0x04\n      add\n      dup1\n      dup1\n      0x20\n      add\n      dup3\n      dup2\n      sub\n      dup3\n      mstore\n      0x22\n      dup2\n      mstore\n      0x20\n      add\n      dup1\n      data_4de71fbd3469e1b7fc89a70805ae86972c680281e629f271ab7471fd6321445c\n      0x22\n      swap2\n      codecopy\n      0x40\n      add\n      swap2\n      pop\n      pop\n      mload(0x40)\n      dup1\n      swap2\n      sub\n      swap1\n      revert\n    tag_179:\n        /* \"Documents/BBX/contracts/utils/Ownable.sol\":1062:1071  _newOwner */\n      0x09\n      0x00\n      swap1\n      sload\n      swap1\n      0x0100\n      exp\n      swap1\n      div\n      0xffffffffffffffffffffffffffffffffffffffff\n      and\n        /* \"Documents/BBX/contracts/utils/Ownable.sol\":1037:1073  OwnershipPulled( _owner, _newOwner ) */\n      0xffffffffffffffffffffffffffffffffffffffff\n      and\n        /* \"Documents/BBX/contracts/utils/Ownable.sol\":1054:1060  _owner */\n      0x08\n      0x00\n      swap1\n      sload\n      swap1\n      0x0100\n      exp\n      swap1\n      div\n      0xffffffffffffffffffffffffffffffffffffffff\n      and\n        /* \"Documents/BBX/contracts/utils/Ownable.sol\":1037:1073  OwnershipPulled( _owner, _newOwner ) */\n      0xffffffffffffffffffffffffffffffffffffffff\n      and\n      0xaa151555690c956fc3ea32f106bb9f119b5237a061eaa8557cff3e51e3792c8d\n      mload(0x40)\n      mload(0x40)\n      dup1\n      swap2\n      sub\n      swap1\n      log3\n        /* \"Documents/BBX/contracts/utils/Ownable.sol\":1092:1101  _newOwner */\n      0x09\n      0x00\n      swap1\n      sload\n      swap1\n      0x0100\n      exp\n      swap1\n      div\n      0xffffffffffffffffffffffffffffffffffffffff\n      and\n        /* \"Documents/BBX/contracts/utils/Ownable.sol\":1083:1089  _owner */\n      0x08\n      0x00\n        /* \"Documents/BBX/contracts/utils/Ownable.sol\":1083:1101  _owner = _newOwner */\n      0x0100\n      exp\n      dup2\n      sload\n      dup2\n      0xffffffffffffffffffffffffffffffffffffffff\n      mul\n      not\n      and\n      swap1\n      dup4\n      0xffffffffffffffffffffffffffffffffffffffff\n      and\n      mul\n      or\n      swap1\n      sstore\n      pop\n        /* \"Documents/BBX/contracts/utils/Ownable.sol\":1131:1132  0 */\n      0x00\n        /* \"Documents/BBX/contracts/utils/Ownable.sol\":1111:1120  _newOwner */\n      0x09\n      0x00\n        /* \"Documents/BBX/contracts/utils/Ownable.sol\":1111:1133  _newOwner = address(0) */\n      0x0100\n      exp\n      dup2\n      sload\n      dup2\n      0xffffffffffffffffffffffffffffffffffffffff\n      mul\n      not\n      and\n      swap1\n      dup4\n      0xffffffffffffffffffffffffffffffffffffffff\n      and\n      mul\n      or\n      swap1\n      sstore\n      pop\n        /* \"Documents/BBX/contracts/utils/Ownable.sol\":891:1140  function pullManagement() public virtual override {... */\n      jump\t// out\n        /* \"Documents/BBX/contracts/BBX_Token.sol\":708:876  function delWhiteList(address _entity)public onlyOwner returns(bool _success)... */\n    tag_82:\n        /* \"Documents/BBX/contracts/BBX_Token.sol\":771:784  bool _success */\n      0x00\n        /* \"Documents/BBX/contracts/utils/Ownable.sol\":635:645  msg.sender */\n      caller\n        /* \"Documents/BBX/contracts/utils/Ownable.sol\":625:645  _owner == msg.sender */\n      0xffffffffffffffffffffffffffffffffffffffff\n      and\n        /* \"Documents/BBX/contracts/utils/Ownable.sol\":625:631  _owner */\n      0x08\n      0x00\n      swap1\n      sload\n      swap1\n      0x0100\n      exp\n      swap1\n      div\n      0xffffffffffffffffffffffffffffffffffffffff\n      and\n        /* \"Documents/BBX/contracts/utils/Ownable.sol\":625:645  _owner == msg.sender */\n      0xffffffffffffffffffffffffffffffffffffffff\n      and\n      eq\n        /* \"Documents/BBX/contracts/utils/Ownable.sol\":616:683  require( _owner == msg.sender, \"Ownable: caller is not the owner\" ) */\n      tag_181\n      jumpi\n      mload(0x40)\n      0x08c379a000000000000000000000000000000000000000000000000000000000\n      dup2\n      mstore\n      0x04\n      add\n      dup1\n      dup1\n      0x20\n      add\n      dup3\n      dup2\n      sub\n      dup3\n      mstore\n      0x20\n      dup2\n      mstore\n      0x20\n      add\n      dup1\n      0x4f776e61626c653a2063616c6c6572206973206e6f7420746865206f776e6572\n      dup2\n      mstore\n      pop\n      0x20\n      add\n      swap2\n      pop\n      pop\n      mload(0x40)\n      dup1\n      swap2\n      sub\n      swap1\n      revert\n    tag_181:\n        /* \"Documents/BBX/contracts/BBX_Token.sol\":825:830  false */\n      0x00\n        /* \"Documents/BBX/contracts/BBX_Token.sol\":800:813  isWhiteListed */\n      0x0b\n        /* \"Documents/BBX/contracts/BBX_Token.sol\":800:822  isWhiteListed[_entity] */\n      0x00\n        /* \"Documents/BBX/contracts/BBX_Token.sol\":814:821  _entity */\n      dup5\n        /* \"Documents/BBX/contracts/BBX_Token.sol\":800:822  isWhiteListed[_entity] */\n      0xffffffffffffffffffffffffffffffffffffffff\n      and\n      0xffffffffffffffffffffffffffffffffffffffff\n      and\n      dup2\n      mstore\n      0x20\n      add\n      swap1\n      dup2\n      mstore\n      0x20\n      add\n      0x00\n      keccak256\n      0x00\n        /* \"Documents/BBX/contracts/BBX_Token.sol\":800:830  isWhiteListed[_entity] = false */\n      0x0100\n      exp\n      dup2\n      sload\n      dup2\n      0xff\n      mul\n      not\n      and\n      swap1\n      dup4\n      iszero\n      iszero\n      mul\n      or\n      swap1\n      sstore\n      pop\n        /* \"Documents/BBX/contracts/BBX_Token.sol\":847:860  isWhiteListed */\n      0x0b\n        /* \"Documents/BBX/contracts/BBX_Token.sol\":847:869  isWhiteListed[_entity] */\n      0x00\n        /* \"Documents/BBX/contracts/BBX_Token.sol\":861:868  _entity */\n      dup4\n        /* \"Documents/BBX/contracts/BBX_Token.sol\":847:869  isWhiteListed[_entity] */\n      0xffffffffffffffffffffffffffffffffffffffff\n      and\n      0xffffffffffffffffffffffffffffffffffffffff\n      and\n      dup2\n      mstore\n      0x20\n      add\n      swap1\n      dup2\n      mstore\n      0x20\n      add\n      0x00\n      keccak256\n      0x00\n      swap1\n      sload\n      swap1\n      0x0100\n      exp\n      swap1\n      div\n      0xff\n      and\n        /* \"Documents/BBX/contracts/BBX_Token.sol\":840:869  return isWhiteListed[_entity] */\n      swap1\n      pop\n        /* \"Documents/BBX/contracts/BBX_Token.sol\":708:876  function delWhiteList(address _entity)public onlyOwner returns(bool _success)... */\n      swap2\n      swap1\n      pop\n      jump\t// out\n        /* \"Documents/BBX/contracts/utils/VaultOwned.sol\":163:281  function setVault( address vault_ ) external onlyOwner() returns ( bool ) {... */\n    tag_85:\n        /* \"Documents/BBX/contracts/utils/VaultOwned.sol\":230:234  bool */\n      0x00\n        /* \"Documents/BBX/contracts/utils/Ownable.sol\":635:645  msg.sender */\n      caller\n        /* \"Documents/BBX/contracts/utils/Ownable.sol\":625:645  _owner == msg.sender */\n      0xffffffffffffffffffffffffffffffffffffffff\n      and\n        /* \"Documents/BBX/contracts/utils/Ownable.sol\":625:631  _owner */\n      0x08\n      0x00\n      swap1\n      sload\n      swap1\n      0x0100\n      exp\n      swap1\n      div\n      0xffffffffffffffffffffffffffffffffffffffff\n      and\n        /* \"Documents/BBX/contracts/utils/Ownable.sol\":625:645  _owner == msg.sender */\n      0xffffffffffffffffffffffffffffffffffffffff\n      and\n      eq\n        /* \"Documents/BBX/contracts/utils/Ownable.sol\":616:683  require( _owner == msg.sender, \"Ownable: caller is not the owner\" ) */\n      tag_184\n      jumpi\n      mload(0x40)\n      0x08c379a000000000000000000000000000000000000000000000000000000000\n      dup2\n      mstore\n      0x04\n      add\n      dup1\n      dup1\n      0x20\n      add\n      dup3\n      dup2\n      sub\n      dup3\n      mstore\n      0x20\n      dup2\n      mstore\n      0x20\n      add\n      dup1\n      0x4f776e61626c653a2063616c6c6572206973206e6f7420746865206f776e6572\n      dup2\n      mstore\n      pop\n      0x20\n      add\n      swap2\n      pop\n      pop\n      mload(0x40)\n      dup1\n      swap2\n      sub\n      swap1\n      revert\n    tag_184:\n        /* \"Documents/BBX/contracts/utils/VaultOwned.sol\":252:258  vault_ */\n      dup2\n        /* \"Documents/BBX/contracts/utils/VaultOwned.sol\":243:249  _vault */\n      0x0a\n      0x00\n        /* \"Documents/BBX/contracts/utils/VaultOwned.sol\":243:258  _vault = vault_ */\n      0x0100\n      exp\n      dup2\n      sload\n      dup2\n      0xffffffffffffffffffffffffffffffffffffffff\n      mul\n      not\n      and\n      swap1\n      dup4\n      0xffffffffffffffffffffffffffffffffffffffff\n      and\n      mul\n      or\n      swap1\n      sstore\n      pop\n        /* \"Documents/BBX/contracts/utils/VaultOwned.sol\":272:276  true */\n      0x01\n        /* \"Documents/BBX/contracts/utils/VaultOwned.sol\":265:276  return true */\n      swap1\n      pop\n        /* \"Documents/BBX/contracts/utils/VaultOwned.sol\":163:281  function setVault( address vault_ ) external onlyOwner() returns ( bool ) {... */\n      swap2\n      swap1\n      pop\n      jump\t// out\n        /* \"Documents/BBX/contracts/BBX_Token.sol\":213:258  mapping(address => bool) public isWhiteListed */\n    tag_88:\n      mstore(0x20, 0x0b)\n      dup1\n      0x00\n      mstore\n      keccak256(0x00, 0x40)\n      0x00\n      swap2\n      pop\n      sload\n      swap1\n      0x0100\n      exp\n      swap1\n      div\n      0xff\n      and\n      dup2\n      jump\t// out\n        /* \"Documents/BBX/contracts/utils/ERC20.sol\":1152:1277  function balanceOf(address account) public view virtual override returns (uint256) {... */\n    tag_91:\n        /* \"Documents/BBX/contracts/utils/ERC20.sol\":1226:1233  uint256 */\n      0x00\n        /* \"Documents/BBX/contracts/utils/ERC20.sol\":1252:1261  _balances */\n      dup1\n        /* \"Documents/BBX/contracts/utils/ERC20.sol\":1252:1270  _balances[account] */\n      0x00\n        /* \"Documents/BBX/contracts/utils/ERC20.sol\":1262:1269  account */\n      dup4\n        /* \"Documents/BBX/contracts/utils/ERC20.sol\":1252:1270  _balances[account] */\n      0xffffffffffffffffffffffffffffffffffffffff\n      and\n      0xffffffffffffffffffffffffffffffffffffffff\n      and\n      dup2\n      mstore\n      0x20\n      add\n      swap1\n      dup2\n      mstore\n      0x20\n      add\n      0x00\n      keccak256\n      sload\n        /* \"Documents/BBX/contracts/utils/ERC20.sol\":1245:1270  return _balances[account] */\n      swap1\n      pop\n        /* \"Documents/BBX/contracts/utils/ERC20.sol\":1152:1277  function balanceOf(address account) public view virtual override returns (uint256) {... */\n      swap2\n      swap1\n      pop\n      jump\t// out\n        /* \"Documents/BBX/contracts/BBX_Token.sol\":390:412  uint256 public taxRate */\n    tag_93:\n      sload(0x0d)\n      dup2\n      jump\t// out\n        /* \"Documents/BBX/contracts/OlympusERC20Token.sol\":606:719  function burnFrom(address account_, uint256 amount_) public virtual {... */\n    tag_96:\n        /* \"Documents/BBX/contracts/OlympusERC20Token.sol\":684:712  _burnFrom(account_, amount_) */\n      tag_188\n        /* \"Documents/BBX/contracts/OlympusERC20Token.sol\":694:702  account_ */\n      dup3\n        /* \"Documents/BBX/contracts/OlympusERC20Token.sol\":704:711  amount_ */\n      dup3\n        /* \"Documents/BBX/contracts/OlympusERC20Token.sol\":684:693  _burnFrom */\n      tag_110\n        /* \"Documents/BBX/contracts/OlympusERC20Token.sol\":684:712  _burnFrom(account_, amount_) */\n      jump\t// in\n    tag_188:\n        /* \"Documents/BBX/contracts/OlympusERC20Token.sol\":606:719  function burnFrom(address account_, uint256 amount_) public virtual {... */\n      pop\n      pop\n      jump\t// out\n        /* \"Documents/BBX/contracts/utils/ERC20Permit.sol\":1880:1998  function nonces(address owner) public view override returns (uint256) {... */\n    tag_99:\n        /* \"Documents/BBX/contracts/utils/ERC20Permit.sol\":1941:1948  uint256 */\n      0x00\n        /* \"Documents/BBX/contracts/utils/ERC20Permit.sol\":1967:1991  _nonces[owner].current() */\n      tag_190\n        /* \"Documents/BBX/contracts/utils/ERC20Permit.sol\":1967:1974  _nonces */\n      0x06\n        /* \"Documents/BBX/contracts/utils/ERC20Permit.sol\":1967:1981  _nonces[owner] */\n      0x00\n        /* \"Documents/BBX/contracts/utils/ERC20Permit.sol\":1975:1980  owner */\n      dup5\n        /* \"Documents/BBX/contracts/utils/ERC20Permit.sol\":1967:1981  _nonces[owner] */\n      0xffffffffffffffffffffffffffffffffffffffff\n      and\n      0xffffffffffffffffffffffffffffffffffffffff\n      and\n      dup2\n      mstore\n      0x20\n      add\n      swap1\n      dup2\n      mstore\n      0x20\n      add\n      0x00\n      keccak256\n        /* \"Documents/BBX/contracts/utils/ERC20Permit.sol\":1967:1989  _nonces[owner].current */\n      tag_191\n        /* \"Documents/BBX/contracts/utils/ERC20Permit.sol\":1967:1991  _nonces[owner].current() */\n      jump\t// in\n    tag_190:\n        /* \"Documents/BBX/contracts/utils/ERC20Permit.sol\":1960:1991  return _nonces[owner].current() */\n      swap1\n      pop\n        /* \"Documents/BBX/contracts/utils/ERC20Permit.sol\":1880:1998  function nonces(address owner) public view override returns (uint256) {... */\n      swap2\n      swap1\n      pop\n      jump\t// out\n        /* \"Documents/BBX/contracts/utils/Ownable.sol\":493:579  function owner() public view override returns (address) {... */\n    tag_101:\n        /* \"Documents/BBX/contracts/utils/Ownable.sol\":540:547  address */\n      0x00\n        /* \"Documents/BBX/contracts/utils/Ownable.sol\":566:572  _owner */\n      0x08\n      0x00\n      swap1\n      sload\n      swap1\n      0x0100\n      exp\n      swap1\n      div\n      0xffffffffffffffffffffffffffffffffffffffff\n      and\n        /* \"Documents/BBX/contracts/utils/Ownable.sol\":559:572  return _owner */\n      swap1\n      pop\n        /* \"Documents/BBX/contracts/utils/Ownable.sol\":493:579  function owner() public view override returns (address) {... */\n      swap1\n      jump\t// out\n        /* \"Documents/BBX/contracts/utils/ERC20.sol\":861:946  function symbol() public view returns (string memory) {... */\n    tag_103:\n        /* \"Documents/BBX/contracts/utils/ERC20.sol\":900:913  string memory */\n      0x60\n        /* \"Documents/BBX/contracts/utils/ERC20.sol\":932:939  _symbol */\n      0x04\n        /* \"Documents/BBX/contracts/utils/ERC20.sol\":925:939  return _symbol */\n      dup1\n      sload\n      0x01\n      dup2\n      0x01\n      and\n      iszero\n      0x0100\n      mul\n      sub\n      and\n      0x02\n      swap1\n      div\n      dup1\n      0x1f\n      add\n      0x20\n      dup1\n      swap2\n      div\n      mul\n      0x20\n      add\n      mload(0x40)\n      swap1\n      dup2\n      add\n      0x40\n      mstore\n      dup1\n      swap3\n      swap2\n      swap1\n      dup2\n      dup2\n      mstore\n      0x20\n      add\n      dup3\n      dup1\n      sload\n      0x01\n      dup2\n      0x01\n      and\n      iszero\n      0x0100\n      mul\n      sub\n      and\n      0x02\n      swap1\n      div\n      dup1\n      iszero\n      tag_194\n      jumpi\n      dup1\n      0x1f\n      lt\n      tag_195\n      jumpi\n      0x0100\n      dup1\n      dup4\n      sload\n      div\n      mul\n      dup4\n      mstore\n      swap2\n      0x20\n      add\n      swap2\n      jump(tag_194)\n    tag_195:\n      dup3\n      add\n      swap2\n      swap1\n      0x00\n      mstore\n      keccak256(0x00, 0x20)\n      swap1\n    tag_196:\n      dup2\n      sload\n      dup2\n      mstore\n      swap1\n      0x01\n      add\n      swap1\n      0x20\n      add\n      dup1\n      dup4\n      gt\n      tag_196\n      jumpi\n      dup3\n      swap1\n      sub\n      0x1f\n      and\n      dup3\n      add\n      swap2\n    tag_194:\n      pop\n      pop\n      pop\n      pop\n      pop\n      swap1\n      pop\n        /* \"Documents/BBX/contracts/utils/ERC20.sol\":861:946  function symbol() public view returns (string memory) {... */\n      swap1\n      jump\t// out\n        /* \"Documents/BBX/contracts/OlympusERC20Token.sol\":725:1079  function _burnFrom(address account_, uint256 amount_) public virtual {... */\n    tag_110:\n        /* \"Documents/BBX/contracts/OlympusERC20Token.sol\":804:831  uint256 decreasedAllowance_ */\n      0x00\n        /* \"Documents/BBX/contracts/OlympusERC20Token.sol\":846:976  allowance(account_, msg.sender).sub(... */\n      tag_198\n        /* \"Documents/BBX/contracts/OlympusERC20Token.sol\":899:906  amount_ */\n      dup3\n        /* \"Documents/BBX/contracts/OlympusERC20Token.sol\":846:976  allowance(account_, msg.sender).sub(... */\n      mload(0x40)\n      dup1\n      0x60\n      add\n      0x40\n      mstore\n      dup1\n      0x24\n      dup2\n      mstore\n      0x20\n      add\n      data_a287c363786607a1457a2d9d12fa61c0073358e02d76b4035fc2c2d86a19c0db\n      0x24\n      swap2\n      codecopy\n        /* \"Documents/BBX/contracts/OlympusERC20Token.sol\":846:877  allowance(account_, msg.sender) */\n      tag_199\n        /* \"Documents/BBX/contracts/OlympusERC20Token.sol\":856:864  account_ */\n      dup7\n        /* \"Documents/BBX/contracts/OlympusERC20Token.sol\":866:876  msg.sender */\n      caller\n        /* \"Documents/BBX/contracts/OlympusERC20Token.sol\":846:855  allowance */\n      tag_122\n        /* \"Documents/BBX/contracts/OlympusERC20Token.sol\":846:877  allowance(account_, msg.sender) */\n      jump\t// in\n    tag_199:\n        /* \"Documents/BBX/contracts/OlympusERC20Token.sol\":846:881  allowance(account_, msg.sender).sub */\n      tag_144\n      swap1\n        /* \"Documents/BBX/contracts/OlympusERC20Token.sol\":846:976  allowance(account_, msg.sender).sub(... */\n      swap3\n      swap2\n      swap1\n      0xffffffff\n      and\n      jump\t// in\n    tag_198:\n        /* \"Documents/BBX/contracts/OlympusERC20Token.sol\":804:976  uint256 decreasedAllowance_ =... */\n      swap1\n      pop\n        /* \"Documents/BBX/contracts/OlympusERC20Token.sol\":987:1038  _approve(account_, msg.sender, decreasedAllowance_) */\n      tag_200\n        /* \"Documents/BBX/contracts/OlympusERC20Token.sol\":996:1004  account_ */\n      dup4\n        /* \"Documents/BBX/contracts/OlympusERC20Token.sol\":1006:1016  msg.sender */\n      caller\n        /* \"Documents/BBX/contracts/OlympusERC20Token.sol\":1018:1037  decreasedAllowance_ */\n      dup4\n        /* \"Documents/BBX/contracts/OlympusERC20Token.sol\":987:995  _approve */\n      tag_134\n        /* \"Documents/BBX/contracts/OlympusERC20Token.sol\":987:1038  _approve(account_, msg.sender, decreasedAllowance_) */\n      jump\t// in\n    tag_200:\n        /* \"Documents/BBX/contracts/OlympusERC20Token.sol\":1048:1072  _burn(account_, amount_) */\n      tag_201\n        /* \"Documents/BBX/contracts/OlympusERC20Token.sol\":1054:1062  account_ */\n      dup4\n        /* \"Documents/BBX/contracts/OlympusERC20Token.sol\":1064:1071  amount_ */\n      dup4\n        /* \"Documents/BBX/contracts/OlympusERC20Token.sol\":1048:1053  _burn */\n      tag_174\n        /* \"Documents/BBX/contracts/OlympusERC20Token.sol\":1048:1072  _burn(account_, amount_) */\n      jump\t// in\n    tag_201:\n        /* \"Documents/BBX/contracts/OlympusERC20Token.sol\":725:1079  function _burnFrom(address account_, uint256 amount_) public virtual {... */\n      pop\n      pop\n      pop\n      jump\t// out\n        /* \"Documents/BBX/contracts/utils/ERC20.sol\":2320:2582  function decreaseAllowance(address spender, uint256 subtractedValue) public virtual returns (bool) {... */\n    tag_113:\n        /* \"Documents/BBX/contracts/utils/ERC20.sol\":2413:2417  bool */\n      0x00\n        /* \"Documents/BBX/contracts/utils/ERC20.sol\":2429:2554  _approve(msg.sender, spender, _allowances[msg.sender][spender].sub(subtractedValue, \"ERC20: decreased allowance below zero\")) */\n      tag_203\n        /* \"Documents/BBX/contracts/utils/ERC20.sol\":2438:2448  msg.sender */\n      caller\n        /* \"Documents/BBX/contracts/utils/ERC20.sol\":2450:2457  spender */\n      dup5\n        /* \"Documents/BBX/contracts/utils/ERC20.sol\":2459:2553  _allowances[msg.sender][spender].sub(subtractedValue, \"ERC20: decreased allowance below zero\") */\n      tag_204\n        /* \"Documents/BBX/contracts/utils/ERC20.sol\":2496:2511  subtractedValue */\n      dup6\n        /* \"Documents/BBX/contracts/utils/ERC20.sol\":2459:2553  _allowances[msg.sender][spender].sub(subtractedValue, \"ERC20: decreased allowance below zero\") */\n      mload(0x40)\n      dup1\n      0x60\n      add\n      0x40\n      mstore\n      dup1\n      0x25\n      dup2\n      mstore\n      0x20\n      add\n      data_f8b476f7d28209d77d4a4ac1fe36b9f8259aa1bb6bddfa6e89de7e51615cf8a8\n      0x25\n      swap2\n      codecopy\n        /* \"Documents/BBX/contracts/utils/ERC20.sol\":2459:2470  _allowances */\n      0x01\n        /* \"Documents/BBX/contracts/utils/ERC20.sol\":2459:2482  _allowances[msg.sender] */\n      0x00\n        /* \"Documents/BBX/contracts/utils/ERC20.sol\":2471:2481  msg.sender */\n      caller\n        /* \"Documents/BBX/contracts/utils/ERC20.sol\":2459:2482  _allowances[msg.sender] */\n      0xffffffffffffffffffffffffffffffffffffffff\n      and\n      0xffffffffffffffffffffffffffffffffffffffff\n      and\n      dup2\n      mstore\n      0x20\n      add\n      swap1\n      dup2\n      mstore\n      0x20\n      add\n      0x00\n      keccak256\n        /* \"Documents/BBX/contracts/utils/ERC20.sol\":2459:2491  _allowances[msg.sender][spender] */\n      0x00\n        /* \"Documents/BBX/contracts/utils/ERC20.sol\":2483:2490  spender */\n      dup11\n        /* \"Documents/BBX/contracts/utils/ERC20.sol\":2459:2491  _allowances[msg.sender][spender] */\n      0xffffffffffffffffffffffffffffffffffffffff\n      and\n      0xffffffffffffffffffffffffffffffffffffffff\n      and\n      dup2\n      mstore\n      0x20\n      add\n      swap1\n      dup2\n      mstore\n      0x20\n      add\n      0x00\n      keccak256\n      sload\n        /* \"Documents/BBX/contracts/utils/ERC20.sol\":2459:2495  _allowances[msg.sender][spender].sub */\n      tag_144\n      swap1\n        /* \"Documents/BBX/contracts/utils/ERC20.sol\":2459:2553  _allowances[msg.sender][spender].sub(subtractedValue, \"ERC20: decreased allowance below zero\") */\n      swap3\n      swap2\n      swap1\n      0xffffffff\n      and\n      jump\t// in\n    tag_204:\n        /* \"Documents/BBX/contracts/utils/ERC20.sol\":2429:2437  _approve */\n      tag_134\n        /* \"Documents/BBX/contracts/utils/ERC20.sol\":2429:2554  _approve(msg.sender, spender, _allowances[msg.sender][spender].sub(subtractedValue, \"ERC20: decreased allowance below zero\")) */\n      jump\t// in\n    tag_203:\n        /* \"Documents/BBX/contracts/utils/ERC20.sol\":2571:2575  true */\n      0x01\n        /* \"Documents/BBX/contracts/utils/ERC20.sol\":2564:2575  return true */\n      swap1\n      pop\n        /* \"Documents/BBX/contracts/utils/ERC20.sol\":2320:2582  function decreaseAllowance(address spender, uint256 subtractedValue) public virtual returns (bool) {... */\n      swap3\n      swap2\n      pop\n      pop\n      jump\t// out\n        /* \"Documents/BBX/contracts/BBX_Token.sol\":1053:1578  function transfer(address recipient, uint256 amount) public override returns (bool) {... */\n    tag_116:\n        /* \"Documents/BBX/contracts/BBX_Token.sol\":1131:1135  bool */\n      0x00\n        /* \"Documents/BBX/contracts/BBX_Token.sol\":1150:1163  isWhiteListed */\n      0x0b\n        /* \"Documents/BBX/contracts/BBX_Token.sol\":1150:1175  isWhiteListed[msg.sender] */\n      0x00\n        /* \"Documents/BBX/contracts/BBX_Token.sol\":1164:1174  msg.sender */\n      caller\n        /* \"Documents/BBX/contracts/BBX_Token.sol\":1150:1175  isWhiteListed[msg.sender] */\n      0xffffffffffffffffffffffffffffffffffffffff\n      and\n      0xffffffffffffffffffffffffffffffffffffffff\n      and\n      dup2\n      mstore\n      0x20\n      add\n      swap1\n      dup2\n      mstore\n      0x20\n      add\n      0x00\n      keccak256\n      0x00\n      swap1\n      sload\n      swap1\n      0x0100\n      exp\n      swap1\n      div\n      0xff\n      and\n        /* \"Documents/BBX/contracts/BBX_Token.sol\":1150:1203  isWhiteListed[msg.sender] || isWhiteListed[recipient] */\n      dup1\n      tag_206\n      jumpi\n      pop\n        /* \"Documents/BBX/contracts/BBX_Token.sol\":1179:1192  isWhiteListed */\n      0x0b\n        /* \"Documents/BBX/contracts/BBX_Token.sol\":1179:1203  isWhiteListed[recipient] */\n      0x00\n        /* \"Documents/BBX/contracts/BBX_Token.sol\":1193:1202  recipient */\n      dup5\n        /* \"Documents/BBX/contracts/BBX_Token.sol\":1179:1203  isWhiteListed[recipient] */\n      0xffffffffffffffffffffffffffffffffffffffff\n      and\n      0xffffffffffffffffffffffffffffffffffffffff\n      and\n      dup2\n      mstore\n      0x20\n      add\n      swap1\n      dup2\n      mstore\n      0x20\n      add\n      0x00\n      keccak256\n      0x00\n      swap1\n      sload\n      swap1\n      0x0100\n      exp\n      swap1\n      div\n      0xff\n      and\n        /* \"Documents/BBX/contracts/BBX_Token.sol\":1150:1203  isWhiteListed[msg.sender] || isWhiteListed[recipient] */\n    tag_206:\n        /* \"Documents/BBX/contracts/BBX_Token.sol\":1147:1563  if(isWhiteListed[msg.sender] || isWhiteListed[recipient])... */\n      iszero\n      tag_207\n      jumpi\n        /* \"Documents/BBX/contracts/BBX_Token.sol\":1227:1267  _transfer(msg.sender, recipient, amount) */\n      tag_208\n        /* \"Documents/BBX/contracts/BBX_Token.sol\":1237:1247  msg.sender */\n      caller\n        /* \"Documents/BBX/contracts/BBX_Token.sol\":1249:1258  recipient */\n      dup5\n        /* \"Documents/BBX/contracts/BBX_Token.sol\":1260:1266  amount */\n      dup5\n        /* \"Documents/BBX/contracts/BBX_Token.sol\":1227:1236  _transfer */\n      tag_141\n        /* \"Documents/BBX/contracts/BBX_Token.sol\":1227:1267  _transfer(msg.sender, recipient, amount) */\n      jump\t// in\n    tag_208:\n        /* \"Documents/BBX/contracts/BBX_Token.sol\":1288:1292  true */\n      0x01\n        /* \"Documents/BBX/contracts/BBX_Token.sol\":1281:1292  return true */\n      swap1\n      pop\n      jump(tag_205)\n        /* \"Documents/BBX/contracts/BBX_Token.sol\":1147:1563  if(isWhiteListed[msg.sender] || isWhiteListed[recipient])... */\n    tag_207:\n        /* \"Documents/BBX/contracts/BBX_Token.sol\":1335:1346  uint256 fee */\n      0x00\n        /* \"Documents/BBX/contracts/BBX_Token.sol\":1349:1380  amount.mul(taxRate).div(100000) */\n      tag_210\n        /* \"Documents/BBX/contracts/BBX_Token.sol\":1373:1379  100000 */\n      0x0186a0\n        /* \"Documents/BBX/contracts/BBX_Token.sol\":1349:1368  amount.mul(taxRate) */\n      tag_211\n        /* \"Documents/BBX/contracts/BBX_Token.sol\":1360:1367  taxRate */\n      sload(0x0d)\n        /* \"Documents/BBX/contracts/BBX_Token.sol\":1349:1355  amount */\n      dup7\n        /* \"Documents/BBX/contracts/BBX_Token.sol\":1349:1359  amount.mul */\n      tag_148\n      swap1\n        /* \"Documents/BBX/contracts/BBX_Token.sol\":1349:1368  amount.mul(taxRate) */\n      swap2\n      swap1\n      0xffffffff\n      and\n      jump\t// in\n    tag_211:\n        /* \"Documents/BBX/contracts/BBX_Token.sol\":1349:1372  amount.mul(taxRate).div */\n      tag_149\n      swap1\n        /* \"Documents/BBX/contracts/BBX_Token.sol\":1349:1380  amount.mul(taxRate).div(100000) */\n      swap2\n      swap1\n      0xffffffff\n      and\n      jump\t// in\n    tag_210:\n        /* \"Documents/BBX/contracts/BBX_Token.sol\":1335:1380  uint256 fee = amount.mul(taxRate).div(100000) */\n      swap1\n      pop\n        /* \"Documents/BBX/contracts/BBX_Token.sol\":1390:1412  uint256 amountAfterFee */\n      0x00\n        /* \"Documents/BBX/contracts/BBX_Token.sol\":1415:1430  amount.sub(fee) */\n      tag_212\n        /* \"Documents/BBX/contracts/BBX_Token.sol\":1426:1429  fee */\n      dup3\n        /* \"Documents/BBX/contracts/BBX_Token.sol\":1415:1421  amount */\n      dup6\n        /* \"Documents/BBX/contracts/BBX_Token.sol\":1415:1425  amount.sub */\n      tag_151\n      swap1\n        /* \"Documents/BBX/contracts/BBX_Token.sol\":1415:1430  amount.sub(fee) */\n      swap2\n      swap1\n      0xffffffff\n      and\n      jump\t// in\n    tag_212:\n        /* \"Documents/BBX/contracts/BBX_Token.sol\":1390:1430  uint256 amountAfterFee = amount.sub(fee) */\n      swap1\n      pop\n        /* \"Documents/BBX/contracts/BBX_Token.sol\":1440:1488  _transfer(msg.sender, recipient, amountAfterFee) */\n      tag_213\n        /* \"Documents/BBX/contracts/BBX_Token.sol\":1450:1460  msg.sender */\n      caller\n        /* \"Documents/BBX/contracts/BBX_Token.sol\":1462:1471  recipient */\n      dup7\n        /* \"Documents/BBX/contracts/BBX_Token.sol\":1473:1487  amountAfterFee */\n      dup4\n        /* \"Documents/BBX/contracts/BBX_Token.sol\":1440:1449  _transfer */\n      tag_141\n        /* \"Documents/BBX/contracts/BBX_Token.sol\":1440:1488  _transfer(msg.sender, recipient, amountAfterFee) */\n      jump\t// in\n    tag_213:\n        /* \"Documents/BBX/contracts/BBX_Token.sol\":1498:1531  _transfer(msg.sender, feeTo, fee) */\n      tag_214\n        /* \"Documents/BBX/contracts/BBX_Token.sol\":1508:1518  msg.sender */\n      caller\n        /* \"Documents/BBX/contracts/BBX_Token.sol\":1520:1525  feeTo */\n      0x0c\n      0x00\n      swap1\n      sload\n      swap1\n      0x0100\n      exp\n      swap1\n      div\n      0xffffffffffffffffffffffffffffffffffffffff\n      and\n        /* \"Documents/BBX/contracts/BBX_Token.sol\":1527:1530  fee */\n      dup5\n        /* \"Documents/BBX/contracts/BBX_Token.sol\":1498:1507  _transfer */\n      tag_141\n        /* \"Documents/BBX/contracts/BBX_Token.sol\":1498:1531  _transfer(msg.sender, feeTo, fee) */\n      jump\t// in\n    tag_214:\n        /* \"Documents/BBX/contracts/BBX_Token.sol\":1548:1552  true */\n      0x01\n        /* \"Documents/BBX/contracts/BBX_Token.sol\":1541:1552  return true */\n      swap3\n      pop\n      pop\n      pop\n        /* \"Documents/BBX/contracts/BBX_Token.sol\":1053:1578  function transfer(address recipient, uint256 amount) public override returns (bool) {... */\n    tag_205:\n      swap3\n      swap2\n      pop\n      pop\n      jump\t// out\n        /* \"Documents/BBX/contracts/utils/ERC20Permit.sol\":1125:1874  function permit(... */\n    tag_119:\n        /* \"Documents/BBX/contracts/utils/ERC20Permit.sol\":1361:1369  deadline */\n      dup4\n        /* \"Documents/BBX/contracts/utils/ERC20Permit.sol\":1342:1357  block.timestamp */\n      timestamp\n        /* \"Documents/BBX/contracts/utils/ERC20Permit.sol\":1342:1369  block.timestamp <= deadline */\n      gt\n      iszero\n        /* \"Documents/BBX/contracts/utils/ERC20Permit.sol\":1334:1398  require(block.timestamp <= deadline, \"Permit: expired deadline\") */\n      tag_216\n      jumpi\n      mload(0x40)\n      0x08c379a000000000000000000000000000000000000000000000000000000000\n      dup2\n      mstore\n      0x04\n      add\n      dup1\n      dup1\n      0x20\n      add\n      dup3\n      dup2\n      sub\n      dup3\n      mstore\n      0x18\n      dup2\n      mstore\n      0x20\n      add\n      dup1\n      0x5065726d69743a206578706972656420646561646c696e650000000000000000\n      dup2\n      mstore\n      pop\n      0x20\n      add\n      swap2\n      pop\n      pop\n      mload(0x40)\n      dup1\n      swap2\n      sub\n      swap1\n      revert\n    tag_216:\n        /* \"Documents/BBX/contracts/utils/ERC20Permit.sol\":1409:1427  bytes32 hashStruct */\n      0x00\n        /* \"Documents/BBX/contracts/utils/ERC20Permit.sol\":552:618  0x6e71edae12b1b97f4d1f60370fef10105fa2faae0126114a169c64845d6126c9 */\n      0x6e71edae12b1b97f4d1f60370fef10105fa2faae0126114a169c64845d6126c9\n        /* \"Documents/BBX/contracts/utils/ERC20Permit.sol\":1463:1478  PERMIT_TYPEHASH */\n      0x00\n      shl\n        /* \"Documents/BBX/contracts/utils/ERC20Permit.sol\":1480:1485  owner */\n      dup9\n        /* \"Documents/BBX/contracts/utils/ERC20Permit.sol\":1487:1494  spender */\n      dup9\n        /* \"Documents/BBX/contracts/utils/ERC20Permit.sol\":1496:1502  amount */\n      dup9\n        /* \"Documents/BBX/contracts/utils/ERC20Permit.sol\":1504:1528  _nonces[owner].current() */\n      tag_217\n        /* \"Documents/BBX/contracts/utils/ERC20Permit.sol\":1504:1511  _nonces */\n      0x06\n        /* \"Documents/BBX/contracts/utils/ERC20Permit.sol\":1504:1518  _nonces[owner] */\n      0x00\n        /* \"Documents/BBX/contracts/utils/ERC20Permit.sol\":1512:1517  owner */\n      dup15\n        /* \"Documents/BBX/contracts/utils/ERC20Permit.sol\":1504:1518  _nonces[owner] */\n      0xffffffffffffffffffffffffffffffffffffffff\n      and\n      0xffffffffffffffffffffffffffffffffffffffff\n      and\n      dup2\n      mstore\n      0x20\n      add\n      swap1\n      dup2\n      mstore\n      0x20\n      add\n      0x00\n      keccak256\n        /* \"Documents/BBX/contracts/utils/ERC20Permit.sol\":1504:1526  _nonces[owner].current */\n      tag_191\n        /* \"Documents/BBX/contracts/utils/ERC20Permit.sol\":1504:1528  _nonces[owner].current() */\n      jump\t// in\n    tag_217:\n        /* \"Documents/BBX/contracts/utils/ERC20Permit.sol\":1530:1538  deadline */\n      dup10\n        /* \"Documents/BBX/contracts/utils/ERC20Permit.sol\":1452:1539  abi.encode(PERMIT_TYPEHASH, owner, spender, amount, _nonces[owner].current(), deadline) */\n      add(0x20, mload(0x40))\n      dup1\n      dup8\n      dup2\n      mstore\n      0x20\n      add\n      dup7\n      0xffffffffffffffffffffffffffffffffffffffff\n      and\n      dup2\n      mstore\n      0x20\n      add\n      dup6\n      0xffffffffffffffffffffffffffffffffffffffff\n      and\n      dup2\n      mstore\n      0x20\n      add\n      dup5\n      dup2\n      mstore\n      0x20\n      add\n      dup4\n      dup2\n      mstore\n      0x20\n      add\n      dup3\n      dup2\n      mstore\n      0x20\n      add\n      swap7\n      pop\n      pop\n      pop\n      pop\n      pop\n      pop\n      pop\n      mload(0x40)\n      0x20\n      dup2\n      dup4\n      sub\n      sub\n      dup2\n      mstore\n      swap1\n      0x40\n      mstore\n        /* \"Documents/BBX/contracts/utils/ERC20Permit.sol\":1442:1540  keccak256(abi.encode(PERMIT_TYPEHASH, owner, spender, amount, _nonces[owner].current(), deadline)) */\n      dup1\n      mload\n      swap1\n      0x20\n      add\n      keccak256\n        /* \"Documents/BBX/contracts/utils/ERC20Permit.sol\":1409:1540  bytes32 hashStruct =... */\n      swap1\n      pop\n        /* \"Documents/BBX/contracts/utils/ERC20Permit.sol\":1551:1564  bytes32 _hash */\n      0x00\n        /* \"Documents/BBX/contracts/utils/ERC20Permit.sol\":1601:1607  0x1901 */\n      0x1901\n        /* \"Documents/BBX/contracts/utils/ERC20Permit.sol\":1610:1626  DOMAIN_SEPARATOR */\n      sload(0x07)\n        /* \"Documents/BBX/contracts/utils/ERC20Permit.sol\":1628:1638  hashStruct */\n      dup4\n        /* \"Documents/BBX/contracts/utils/ERC20Permit.sol\":1577:1639  abi.encodePacked(uint16(0x1901), DOMAIN_SEPARATOR, hashStruct) */\n      add(0x20, mload(0x40))\n      dup1\n      dup5\n      0xffff\n      and\n      0xf0\n      shl\n      dup2\n      mstore\n      0x02\n      add\n      dup4\n      dup2\n      mstore\n      0x20\n      add\n      dup3\n      dup2\n      mstore\n      0x20\n      add\n      swap4\n      pop\n      pop\n      pop\n      pop\n      mload(0x40)\n      0x20\n      dup2\n      dup4\n      sub\n      sub\n      dup2\n      mstore\n      swap1\n      0x40\n      mstore\n        /* \"Documents/BBX/contracts/utils/ERC20Permit.sol\":1567:1640  keccak256(abi.encodePacked(uint16(0x1901), DOMAIN_SEPARATOR, hashStruct)) */\n      dup1\n      mload\n      swap1\n      0x20\n      add\n      keccak256\n        /* \"Documents/BBX/contracts/utils/ERC20Permit.sol\":1551:1640  bytes32 _hash = keccak256(abi.encodePacked(uint16(0x1901), DOMAIN_SEPARATOR, hashStruct)) */\n      swap1\n      pop\n        /* \"Documents/BBX/contracts/utils/ERC20Permit.sol\":1651:1665  address signer */\n      0x00\n        /* \"Documents/BBX/contracts/utils/ERC20Permit.sol\":1668:1693  ecrecover(_hash, v, r, s) */\n      0x01\n        /* \"Documents/BBX/contracts/utils/ERC20Permit.sol\":1678:1683  _hash */\n      dup3\n        /* \"Documents/BBX/contracts/utils/ERC20Permit.sol\":1685:1686  v */\n      dup8\n        /* \"Documents/BBX/contracts/utils/ERC20Permit.sol\":1688:1689  r */\n      dup8\n        /* \"Documents/BBX/contracts/utils/ERC20Permit.sol\":1691:1692  s */\n      dup8\n        /* \"Documents/BBX/contracts/utils/ERC20Permit.sol\":1668:1693  ecrecover(_hash, v, r, s) */\n      mload(0x40)\n      0x00\n      dup2\n      mstore\n      0x20\n      add\n      0x40\n      mstore\n      mload(0x40)\n      dup1\n      dup6\n      dup2\n      mstore\n      0x20\n      add\n      dup5\n      0xff\n      and\n      dup2\n      mstore\n      0x20\n      add\n      dup4\n      dup2\n      mstore\n      0x20\n      add\n      dup3\n      dup2\n      mstore\n      0x20\n      add\n      swap5\n      pop\n      pop\n      pop\n      pop\n      pop\n      0x20\n      mload(0x40)\n      0x20\n      dup2\n      sub\n      swap1\n      dup1\n      dup5\n      sub\n      swap1\n      dup6\n      gas\n      staticcall\n      iszero\n      dup1\n      iszero\n      tag_219\n      jumpi\n      returndatasize\n      0x00\n      dup1\n      returndatacopy\n      revert(0x00, returndatasize)\n    tag_219:\n      pop\n      pop\n      pop\n      mload(sub(mload(0x40), 0x20))\n        /* \"Documents/BBX/contracts/utils/ERC20Permit.sol\":1651:1693  address signer = ecrecover(_hash, v, r, s) */\n      swap1\n      pop\n        /* \"Documents/BBX/contracts/utils/ERC20Permit.sol\":1729:1730  0 */\n      0x00\n        /* \"Documents/BBX/contracts/utils/ERC20Permit.sol\":1711:1731  signer != address(0) */\n      0xffffffffffffffffffffffffffffffffffffffff\n      and\n        /* \"Documents/BBX/contracts/utils/ERC20Permit.sol\":1711:1717  signer */\n      dup2\n        /* \"Documents/BBX/contracts/utils/ERC20Permit.sol\":1711:1731  signer != address(0) */\n      0xffffffffffffffffffffffffffffffffffffffff\n      and\n      eq\n      iszero\n        /* \"Documents/BBX/contracts/utils/ERC20Permit.sol\":1711:1750  signer != address(0) && signer == owner */\n      dup1\n      iszero\n      tag_220\n      jumpi\n      pop\n        /* \"Documents/BBX/contracts/utils/ERC20Permit.sol\":1745:1750  owner */\n      dup10\n        /* \"Documents/BBX/contracts/utils/ERC20Permit.sol\":1735:1750  signer == owner */\n      0xffffffffffffffffffffffffffffffffffffffff\n      and\n        /* \"Documents/BBX/contracts/utils/ERC20Permit.sol\":1735:1741  signer */\n      dup2\n        /* \"Documents/BBX/contracts/utils/ERC20Permit.sol\":1735:1750  signer == owner */\n      0xffffffffffffffffffffffffffffffffffffffff\n      and\n      eq\n        /* \"Documents/BBX/contracts/utils/ERC20Permit.sol\":1711:1750  signer != address(0) && signer == owner */\n    tag_220:\n        /* \"Documents/BBX/contracts/utils/ERC20Permit.sol\":1703:1788  require(signer != address(0) && signer == owner, \"ZeroSwapPermit: Invalid signature\") */\n      tag_221\n      jumpi\n      mload(0x40)\n      0x08c379a000000000000000000000000000000000000000000000000000000000\n      dup2\n      mstore\n      0x04\n      add\n      dup1\n      dup1\n      0x20\n      add\n      dup3\n      dup2\n      sub\n      dup3\n      mstore\n      0x21\n      dup2\n      mstore\n      0x20\n      add\n      dup1\n      data_5ef653edfc38c403ea52d691304feffa27a665e594b07a1719ac6b055d64dbee\n      0x21\n      swap2\n      codecopy\n      0x40\n      add\n      swap2\n      pop\n      pop\n      mload(0x40)\n      dup1\n      swap2\n      sub\n      swap1\n      revert\n    tag_221:\n        /* \"Documents/BBX/contracts/utils/ERC20Permit.sol\":1799:1825  _nonces[owner].increment() */\n      tag_222\n        /* \"Documents/BBX/contracts/utils/ERC20Permit.sol\":1799:1806  _nonces */\n      0x06\n        /* \"Documents/BBX/contracts/utils/ERC20Permit.sol\":1799:1813  _nonces[owner] */\n      0x00\n        /* \"Documents/BBX/contracts/utils/ERC20Permit.sol\":1807:1812  owner */\n      dup13\n        /* \"Documents/BBX/contracts/utils/ERC20Permit.sol\":1799:1813  _nonces[owner] */\n      0xffffffffffffffffffffffffffffffffffffffff\n      and\n      0xffffffffffffffffffffffffffffffffffffffff\n      and\n      dup2\n      mstore\n      0x20\n      add\n      swap1\n      dup2\n      mstore\n      0x20\n      add\n      0x00\n      keccak256\n        /* \"Documents/BBX/contracts/utils/ERC20Permit.sol\":1799:1823  _nonces[owner].increment */\n      tag_223\n        /* \"Documents/BBX/contracts/utils/ERC20Permit.sol\":1799:1825  _nonces[owner].increment() */\n      jump\t// in\n    tag_222:\n        /* \"Documents/BBX/contracts/utils/ERC20Permit.sol\":1835:1867  _approve(owner, spender, amount) */\n      tag_224\n        /* \"Documents/BBX/contracts/utils/ERC20Permit.sol\":1844:1849  owner */\n      dup11\n        /* \"Documents/BBX/contracts/utils/ERC20Permit.sol\":1851:1858  spender */\n      dup11\n        /* \"Documents/BBX/contracts/utils/ERC20Permit.sol\":1860:1866  amount */\n      dup11\n        /* \"Documents/BBX/contracts/utils/ERC20Permit.sol\":1835:1843  _approve */\n      tag_134\n        /* \"Documents/BBX/contracts/utils/ERC20Permit.sol\":1835:1867  _approve(owner, spender, amount) */\n      jump\t// in\n    tag_224:\n        /* \"Documents/BBX/contracts/utils/ERC20Permit.sol\":1125:1874  function permit(... */\n      pop\n      pop\n      pop\n      pop\n      pop\n      pop\n      pop\n      pop\n      pop\n      pop\n      jump\t// out\n        /* \"Documents/BBX/contracts/utils/ERC20.sol\":1459:1608  function allowance(address owner, address spender) public view virtual override returns (uint256) {... */\n    tag_122:\n        /* \"Documents/BBX/contracts/utils/ERC20.sol\":1548:1555  uint256 */\n      0x00\n        /* \"Documents/BBX/contracts/utils/ERC20.sol\":1574:1585  _allowances */\n      0x01\n        /* \"Documents/BBX/contracts/utils/ERC20.sol\":1574:1592  _allowances[owner] */\n      0x00\n        /* \"Documents/BBX/contracts/utils/ERC20.sol\":1586:1591  owner */\n      dup5\n        /* \"Documents/BBX/contracts/utils/ERC20.sol\":1574:1592  _allowances[owner] */\n      0xffffffffffffffffffffffffffffffffffffffff\n      and\n      0xffffffffffffffffffffffffffffffffffffffff\n      and\n      dup2\n      mstore\n      0x20\n      add\n      swap1\n      dup2\n      mstore\n      0x20\n      add\n      0x00\n      keccak256\n        /* \"Documents/BBX/contracts/utils/ERC20.sol\":1574:1601  _allowances[owner][spender] */\n      0x00\n        /* \"Documents/BBX/contracts/utils/ERC20.sol\":1593:1600  spender */\n      dup4\n        /* \"Documents/BBX/contracts/utils/ERC20.sol\":1574:1601  _allowances[owner][spender] */\n      0xffffffffffffffffffffffffffffffffffffffff\n      and\n      0xffffffffffffffffffffffffffffffffffffffff\n      and\n      dup2\n      mstore\n      0x20\n      add\n      swap1\n      dup2\n      mstore\n      0x20\n      add\n      0x00\n      keccak256\n      sload\n        /* \"Documents/BBX/contracts/utils/ERC20.sol\":1567:1601  return _allowances[owner][spender] */\n      swap1\n      pop\n        /* \"Documents/BBX/contracts/utils/ERC20.sol\":1459:1608  function allowance(address owner, address spender) public view virtual override returns (uint256) {... */\n      swap3\n      swap2\n      pop\n      pop\n      jump\t// out\n        /* \"Documents/BBX/contracts/BBX_Token.sol\":965:1047  function setFeeTo(address _feeTo) public onlyOwner {... */\n    tag_125:\n        /* \"Documents/BBX/contracts/utils/Ownable.sol\":635:645  msg.sender */\n      caller\n        /* \"Documents/BBX/contracts/utils/Ownable.sol\":625:645  _owner == msg.sender */\n      0xffffffffffffffffffffffffffffffffffffffff\n      and\n        /* \"Documents/BBX/contracts/utils/Ownable.sol\":625:631  _owner */\n      0x08\n      0x00\n      swap1\n      sload\n      swap1\n      0x0100\n      exp\n      swap1\n      div\n      0xffffffffffffffffffffffffffffffffffffffff\n      and\n        /* \"Documents/BBX/contracts/utils/Ownable.sol\":625:645  _owner == msg.sender */\n      0xffffffffffffffffffffffffffffffffffffffff\n      and\n      eq\n        /* \"Documents/BBX/contracts/utils/Ownable.sol\":616:683  require( _owner == msg.sender, \"Ownable: caller is not the owner\" ) */\n      tag_227\n      jumpi\n      mload(0x40)\n      0x08c379a000000000000000000000000000000000000000000000000000000000\n      dup2\n      mstore\n      0x04\n      add\n      dup1\n      dup1\n      0x20\n      add\n      dup3\n      dup2\n      sub\n      dup3\n      mstore\n      0x20\n      dup2\n      mstore\n      0x20\n      add\n      dup1\n      0x4f776e61626c653a2063616c6c6572206973206e6f7420746865206f776e6572\n      dup2\n      mstore\n      pop\n      0x20\n      add\n      swap2\n      pop\n      pop\n      mload(0x40)\n      dup1\n      swap2\n      sub\n      swap1\n      revert\n    tag_227:\n        /* \"Documents/BBX/contracts/BBX_Token.sol\":1034:1040  _feeTo */\n      dup1\n        /* \"Documents/BBX/contracts/BBX_Token.sol\":1026:1031  feeTo */\n      0x0c\n      0x00\n        /* \"Documents/BBX/contracts/BBX_Token.sol\":1026:1040  feeTo = _feeTo */\n      0x0100\n      exp\n      dup2\n      sload\n      dup2\n      0xffffffffffffffffffffffffffffffffffffffff\n      mul\n      not\n      and\n      swap1\n      dup4\n      0xffffffffffffffffffffffffffffffffffffffff\n      and\n      mul\n      or\n      swap1\n      sstore\n      pop\n        /* \"Documents/BBX/contracts/BBX_Token.sol\":965:1047  function setFeeTo(address _feeTo) public onlyOwner {... */\n      pop\n      jump\t// out\n        /* \"Documents/BBX/contracts/utils/VaultOwned.sol\":285:356  function vault() public view returns (address) {... */\n    tag_127:\n        /* \"Documents/BBX/contracts/utils/VaultOwned.sol\":323:330  address */\n      0x00\n        /* \"Documents/BBX/contracts/utils/VaultOwned.sol\":345:351  _vault */\n      0x0a\n      0x00\n      swap1\n      sload\n      swap1\n      0x0100\n      exp\n      swap1\n      div\n      0xffffffffffffffffffffffffffffffffffffffff\n      and\n        /* \"Documents/BBX/contracts/utils/VaultOwned.sol\":338:351  return _vault */\n      swap1\n      pop\n        /* \"Documents/BBX/contracts/utils/VaultOwned.sol\":285:356  function vault() public view returns (address) {... */\n      swap1\n      jump\t// out\n        /* \"Documents/BBX/contracts/utils/ERC20.sol\":3940:4280  function _approve(address owner, address spender, uint256 amount) internal virtual {... */\n    tag_134:\n        /* \"Documents/BBX/contracts/utils/ERC20.sol\":4058:4059  0 */\n      0x00\n        /* \"Documents/BBX/contracts/utils/ERC20.sol\":4041:4060  owner != address(0) */\n      0xffffffffffffffffffffffffffffffffffffffff\n      and\n        /* \"Documents/BBX/contracts/utils/ERC20.sol\":4041:4046  owner */\n      dup4\n        /* \"Documents/BBX/contracts/utils/ERC20.sol\":4041:4060  owner != address(0) */\n      0xffffffffffffffffffffffffffffffffffffffff\n      and\n      eq\n      iszero\n        /* \"Documents/BBX/contracts/utils/ERC20.sol\":4033:4101  require(owner != address(0), \"ERC20: approve from the zero address\") */\n      tag_231\n      jumpi\n      mload(0x40)\n      0x08c379a000000000000000000000000000000000000000000000000000000000\n      dup2\n      mstore\n      0x04\n      add\n      dup1\n      dup1\n      0x20\n      add\n      dup3\n      dup2\n      sub\n      dup3\n      mstore\n      0x24\n      dup2\n      mstore\n      0x20\n      add\n      dup1\n      data_c953f4879035ed60e766b34720f656aab5c697b141d924c283124ecedb91c208\n      0x24\n      swap2\n      codecopy\n      0x40\n      add\n      swap2\n      pop\n      pop\n      mload(0x40)\n      dup1\n      swap2\n      sub\n      swap1\n      revert\n    tag_231:\n        /* \"Documents/BBX/contracts/utils/ERC20.sol\":4138:4139  0 */\n      0x00\n        /* \"Documents/BBX/contracts/utils/ERC20.sol\":4119:4140  spender != address(0) */\n      0xffffffffffffffffffffffffffffffffffffffff\n      and\n        /* \"Documents/BBX/contracts/utils/ERC20.sol\":4119:4126  spender */\n      dup3\n        /* \"Documents/BBX/contracts/utils/ERC20.sol\":4119:4140  spender != address(0) */\n      0xffffffffffffffffffffffffffffffffffffffff\n      and\n      eq\n      iszero\n        /* \"Documents/BBX/contracts/utils/ERC20.sol\":4111:4179  require(spender != address(0), \"ERC20: approve to the zero address\") */\n      tag_232\n      jumpi\n      mload(0x40)\n      0x08c379a000000000000000000000000000000000000000000000000000000000\n      dup2\n      mstore\n      0x04\n      add\n      dup1\n      dup1\n      0x20\n      add\n      dup3\n      dup2\n      sub\n      dup3\n      mstore\n      0x22\n      dup2\n      mstore\n      0x20\n      add\n      dup1\n      data_24883cc5fe64ace9d0df1893501ecb93c77180f0ff69cca79affb3c316dc8029\n      0x22\n      swap2\n      codecopy\n      0x40\n      add\n      swap2\n      pop\n      pop\n      mload(0x40)\n      dup1\n      swap2\n      sub\n      swap1\n      revert\n    tag_232:\n        /* \"Documents/BBX/contracts/utils/ERC20.sol\":4220:4226  amount */\n      dup1\n        /* \"Documents/BBX/contracts/utils/ERC20.sol\":4190:4201  _allowances */\n      0x01\n        /* \"Documents/BBX/contracts/utils/ERC20.sol\":4190:4208  _allowances[owner] */\n      0x00\n        /* \"Documents/BBX/contracts/utils/ERC20.sol\":4202:4207  owner */\n      dup6\n        /* \"Documents/BBX/contracts/utils/ERC20.sol\":4190:4208  _allowances[owner] */\n      0xffffffffffffffffffffffffffffffffffffffff\n      and\n      0xffffffffffffffffffffffffffffffffffffffff\n      and\n      dup2\n      mstore\n      0x20\n      add\n      swap1\n      dup2\n      mstore\n      0x20\n      add\n      0x00\n      keccak256\n        /* \"Documents/BBX/contracts/utils/ERC20.sol\":4190:4217  _allowances[owner][spender] */\n      0x00\n        /* \"Documents/BBX/contracts/utils/ERC20.sol\":4209:4216  spender */\n      dup5\n        /* \"Documents/BBX/contracts/utils/ERC20.sol\":4190:4217  _allowances[owner][spender] */\n      0xffffffffffffffffffffffffffffffffffffffff\n      and\n      0xffffffffffffffffffffffffffffffffffffffff\n      and\n      dup2\n      mstore\n      0x20\n      add\n      swap1\n      dup2\n      mstore\n      0x20\n      add\n      0x00\n      keccak256\n        /* \"Documents/BBX/contracts/utils/ERC20.sol\":4190:4226  _allowances[owner][spender] = amount */\n      dup2\n      swap1\n      sstore\n      pop\n        /* \"Documents/BBX/contracts/utils/ERC20.sol\":4257:4264  spender */\n      dup2\n        /* \"Documents/BBX/contracts/utils/ERC20.sol\":4241:4273  Approval(owner, spender, amount) */\n      0xffffffffffffffffffffffffffffffffffffffff\n      and\n        /* \"Documents/BBX/contracts/utils/ERC20.sol\":4250:4255  owner */\n      dup4\n        /* \"Documents/BBX/contracts/utils/ERC20.sol\":4241:4273  Approval(owner, spender, amount) */\n      0xffffffffffffffffffffffffffffffffffffffff\n      and\n      0x8c5be1e5ebec7d5bd14f71427d1e84f3dd0314c0f7b2291e5b200ac8c7c3b925\n        /* \"Documents/BBX/contracts/utils/ERC20.sol\":4266:4272  amount */\n      dup4\n        /* \"Documents/BBX/contracts/utils/ERC20.sol\":4241:4273  Approval(owner, spender, amount) */\n      mload(0x40)\n      dup1\n      dup3\n      dup2\n      mstore\n      0x20\n      add\n      swap2\n      pop\n      pop\n      mload(0x40)\n      dup1\n      swap2\n      sub\n      swap1\n      log3\n        /* \"Documents/BBX/contracts/utils/ERC20.sol\":3940:4280  function _approve(address owner, address spender, uint256 amount) internal virtual {... */\n      pop\n      pop\n      pop\n      jump\t// out\n        /* \"Documents/BBX/contracts/utils/ERC20.sol\":2588:3118  function _transfer(address sender, address recipient, uint256 amount) internal virtual {... */\n    tag_141:\n        /* \"Documents/BBX/contracts/utils/ERC20.sol\":2711:2712  0 */\n      0x00\n        /* \"Documents/BBX/contracts/utils/ERC20.sol\":2693:2713  sender != address(0) */\n      0xffffffffffffffffffffffffffffffffffffffff\n      and\n        /* \"Documents/BBX/contracts/utils/ERC20.sol\":2693:2699  sender */\n      dup4\n        /* \"Documents/BBX/contracts/utils/ERC20.sol\":2693:2713  sender != address(0) */\n      0xffffffffffffffffffffffffffffffffffffffff\n      and\n      eq\n      iszero\n        /* \"Documents/BBX/contracts/utils/ERC20.sol\":2685:2755  require(sender != address(0), \"ERC20: transfer from the zero address\") */\n      tag_234\n      jumpi\n      mload(0x40)\n      0x08c379a000000000000000000000000000000000000000000000000000000000\n      dup2\n      mstore\n      0x04\n      add\n      dup1\n      dup1\n      0x20\n      add\n      dup3\n      dup2\n      sub\n      dup3\n      mstore\n      0x25\n      dup2\n      mstore\n      0x20\n      add\n      dup1\n      data_baecc556b46f4ed0f2b4cb599d60785ac8563dd2dc0a5bf12edea1c39e5e1fea\n      0x25\n      swap2\n      codecopy\n      0x40\n      add\n      swap2\n      pop\n      pop\n      mload(0x40)\n      dup1\n      swap2\n      sub\n      swap1\n      revert\n    tag_234:\n        /* \"Documents/BBX/contracts/utils/ERC20.sol\":2794:2795  0 */\n      0x00\n        /* \"Documents/BBX/contracts/utils/ERC20.sol\":2773:2796  recipient != address(0) */\n      0xffffffffffffffffffffffffffffffffffffffff\n      and\n        /* \"Documents/BBX/contracts/utils/ERC20.sol\":2773:2782  recipient */\n      dup3\n        /* \"Documents/BBX/contracts/utils/ERC20.sol\":2773:2796  recipient != address(0) */\n      0xffffffffffffffffffffffffffffffffffffffff\n      and\n      eq\n      iszero\n        /* \"Documents/BBX/contracts/utils/ERC20.sol\":2765:2836  require(recipient != address(0), \"ERC20: transfer to the zero address\") */\n      tag_235\n      jumpi\n      mload(0x40)\n      0x08c379a000000000000000000000000000000000000000000000000000000000\n      dup2\n      mstore\n      0x04\n      add\n      dup1\n      dup1\n      0x20\n      add\n      dup3\n      dup2\n      sub\n      dup3\n      mstore\n      0x23\n      dup2\n      mstore\n      0x20\n      add\n      dup1\n      data_0557e210f7a69a685100a7e4e3d0a7024c546085cee28910fd17d0b081d9516f\n      0x23\n      swap2\n      codecopy\n      0x40\n      add\n      swap2\n      pop\n      pop\n      mload(0x40)\n      dup1\n      swap2\n      sub\n      swap1\n      revert\n    tag_235:\n        /* \"Documents/BBX/contracts/utils/ERC20.sol\":2847:2894  _beforeTokenTransfer(sender, recipient, amount) */\n      tag_236\n        /* \"Documents/BBX/contracts/utils/ERC20.sol\":2868:2874  sender */\n      dup4\n        /* \"Documents/BBX/contracts/utils/ERC20.sol\":2876:2885  recipient */\n      dup4\n        /* \"Documents/BBX/contracts/utils/ERC20.sol\":2887:2893  amount */\n      dup4\n        /* \"Documents/BBX/contracts/utils/ERC20.sol\":2847:2867  _beforeTokenTransfer */\n      tag_237\n        /* \"Documents/BBX/contracts/utils/ERC20.sol\":2847:2894  _beforeTokenTransfer(sender, recipient, amount) */\n      jump\t// in\n    tag_236:\n        /* \"Documents/BBX/contracts/utils/ERC20.sol\":2925:2996  _balances[sender].sub(amount, \"ERC20: transfer amount exceeds balance\") */\n      tag_238\n        /* \"Documents/BBX/contracts/utils/ERC20.sol\":2947:2953  amount */\n      dup2\n        /* \"Documents/BBX/contracts/utils/ERC20.sol\":2925:2996  _balances[sender].sub(amount, \"ERC20: transfer amount exceeds balance\") */\n      mload(0x40)\n      dup1\n      0x60\n      add\n      0x40\n      mstore\n      dup1\n      0x26\n      dup2\n      mstore\n      0x20\n      add\n      data_4107e8a8b9e94bf8ff83080ddec1c0bffe897ebc2241b89d44f66b3d274088b6\n      0x26\n      swap2\n      codecopy\n        /* \"Documents/BBX/contracts/utils/ERC20.sol\":2925:2934  _balances */\n      0x00\n        /* \"Documents/BBX/contracts/utils/ERC20.sol\":2925:2942  _balances[sender] */\n      dup1\n        /* \"Documents/BBX/contracts/utils/ERC20.sol\":2935:2941  sender */\n      dup8\n        /* \"Documents/BBX/contracts/utils/ERC20.sol\":2925:2942  _balances[sender] */\n      0xffffffffffffffffffffffffffffffffffffffff\n      and\n      0xffffffffffffffffffffffffffffffffffffffff\n      and\n      dup2\n      mstore\n      0x20\n      add\n      swap1\n      dup2\n      mstore\n      0x20\n      add\n      0x00\n      keccak256\n      sload\n        /* \"Documents/BBX/contracts/utils/ERC20.sol\":2925:2946  _balances[sender].sub */\n      tag_144\n      swap1\n        /* \"Documents/BBX/contracts/utils/ERC20.sol\":2925:2996  _balances[sender].sub(amount, \"ERC20: transfer amount exceeds balance\") */\n      swap3\n      swap2\n      swap1\n      0xffffffff\n      and\n      jump\t// in\n    tag_238:\n        /* \"Documents/BBX/contracts/utils/ERC20.sol\":2905:2914  _balances */\n      0x00\n        /* \"Documents/BBX/contracts/utils/ERC20.sol\":2905:2922  _balances[sender] */\n      dup1\n        /* \"Documents/BBX/contracts/utils/ERC20.sol\":2915:2921  sender */\n      dup6\n        /* \"Documents/BBX/contracts/utils/ERC20.sol\":2905:2922  _balances[sender] */\n      0xffffffffffffffffffffffffffffffffffffffff\n      and\n      0xffffffffffffffffffffffffffffffffffffffff\n      and\n      dup2\n      mstore\n      0x20\n      add\n      swap1\n      dup2\n      mstore\n      0x20\n      add\n      0x00\n      keccak256\n        /* \"Documents/BBX/contracts/utils/ERC20.sol\":2905:2996  _balances[sender] = _balances[sender].sub(amount, \"ERC20: transfer amount exceeds balance\") */\n      dup2\n      swap1\n      sstore\n      pop\n        /* \"Documents/BBX/contracts/utils/ERC20.sol\":3029:3061  _balances[recipient].add(amount) */\n      tag_239\n        /* \"Documents/BBX/contracts/utils/ERC20.sol\":3054:3060  amount */\n      dup2\n        /* \"Documents/BBX/contracts/utils/ERC20.sol\":3029:3038  _balances */\n      0x00\n        /* \"Documents/BBX/contracts/utils/ERC20.sol\":3029:3049  _balances[recipient] */\n      dup1\n        /* \"Documents/BBX/contracts/utils/ERC20.sol\":3039:3048  recipient */\n      dup6\n        /* \"Documents/BBX/contracts/utils/ERC20.sol\":3029:3049  _balances[recipient] */\n      0xffffffffffffffffffffffffffffffffffffffff\n      and\n      0xffffffffffffffffffffffffffffffffffffffff\n      and\n      dup2\n      mstore\n      0x20\n      add\n      swap1\n      dup2\n      mstore\n      0x20\n      add\n      0x00\n      keccak256\n      sload\n        /* \"Documents/BBX/contracts/utils/ERC20.sol\":3029:3053  _balances[recipient].add */\n      tag_166\n      swap1\n        /* \"Documents/BBX/contracts/utils/ERC20.sol\":3029:3061  _balances[recipient].add(amount) */\n      swap2\n      swap1\n      0xffffffff\n      and\n      jump\t// in\n    tag_239:\n        /* \"Documents/BBX/contracts/utils/ERC20.sol\":3006:3015  _balances */\n      0x00\n        /* \"Documents/BBX/contracts/utils/ERC20.sol\":3006:3026  _balances[recipient] */\n      dup1\n        /* \"Documents/BBX/contracts/utils/ERC20.sol\":3016:3025  recipient */\n      dup5\n        /* \"Documents/BBX/contracts/utils/ERC20.sol\":3006:3026  _balances[recipient] */\n      0xffffffffffffffffffffffffffffffffffffffff\n      and\n      0xffffffffffffffffffffffffffffffffffffffff\n      and\n      dup2\n      mstore\n      0x20\n      add\n      swap1\n      dup2\n      mstore\n      0x20\n      add\n      0x00\n      keccak256\n        /* \"Documents/BBX/contracts/utils/ERC20.sol\":3006:3061  _balances[recipient] = _balances[recipient].add(amount) */\n      dup2\n      swap1\n      sstore\n      pop\n        /* \"Documents/BBX/contracts/utils/ERC20.sol\":3093:3102  recipient */\n      dup2\n        /* \"Documents/BBX/contracts/utils/ERC20.sol\":3076:3111  Transfer(sender, recipient, amount) */\n      0xffffffffffffffffffffffffffffffffffffffff\n      and\n        /* \"Documents/BBX/contracts/utils/ERC20.sol\":3085:3091  sender */\n      dup4\n        /* \"Documents/BBX/contracts/utils/ERC20.sol\":3076:3111  Transfer(sender, recipient, amount) */\n      0xffffffffffffffffffffffffffffffffffffffff\n      and\n      0xddf252ad1be2c89b69c2b068fc378daa952ba7f163c4a11628f55a4df523b3ef\n        /* \"Documents/BBX/contracts/utils/ERC20.sol\":3104:3110  amount */\n      dup4\n        /* \"Documents/BBX/contracts/utils/ERC20.sol\":3076:3111  Transfer(sender, recipient, amount) */\n      mload(0x40)\n      dup1\n      dup3\n      dup2\n      mstore\n      0x20\n      add\n      swap2\n      pop\n      pop\n      mload(0x40)\n      dup1\n      swap2\n      sub\n      swap1\n      log3\n        /* \"Documents/BBX/contracts/utils/ERC20.sol\":2588:3118  function _transfer(address sender, address recipient, uint256 amount) internal virtual {... */\n      pop\n      pop\n      pop\n      jump\t// out\n        /* \"Documents/BBX/contracts/libraries/SafeMath.sol\":417:604  function sub(uint256 a, uint256 b, string memory errorMessage) internal pure returns (uint256) {... */\n    tag_144:\n        /* \"Documents/BBX/contracts/libraries/SafeMath.sol\":503:510  uint256 */\n      0x00\n        /* \"Documents/BBX/contracts/libraries/SafeMath.sol\":535:536  a */\n      dup4\n        /* \"Documents/BBX/contracts/libraries/SafeMath.sol\":530:531  b */\n      dup4\n        /* \"Documents/BBX/contracts/libraries/SafeMath.sol\":530:536  b <= a */\n      gt\n      iszero\n        /* \"Documents/BBX/contracts/libraries/SafeMath.sol\":538:550  errorMessage */\n      dup3\n        /* \"Documents/BBX/contracts/libraries/SafeMath.sol\":522:551  require(b <= a, errorMessage) */\n      swap1\n      tag_241\n      jumpi\n      mload(0x40)\n      0x08c379a000000000000000000000000000000000000000000000000000000000\n      dup2\n      mstore\n      0x04\n      add\n      dup1\n      dup1\n      0x20\n      add\n      dup3\n      dup2\n      sub\n      dup3\n      mstore\n      dup4\n      dup2\n      dup2\n      mload\n      dup2\n      mstore\n      0x20\n      add\n      swap2\n      pop\n      dup1\n      mload\n      swap1\n      0x20\n      add\n      swap1\n      dup1\n      dup4\n      dup4\n      0x00\n    tag_242:\n      dup4\n      dup2\n      lt\n      iszero\n      tag_244\n      jumpi\n      dup1\n      dup3\n      add\n      mload\n      dup2\n      dup5\n      add\n      mstore\n      0x20\n      dup2\n      add\n      swap1\n      pop\n      jump(tag_242)\n    tag_244:\n      pop\n      pop\n      pop\n      pop\n      swap1\n      pop\n      swap1\n      dup2\n      add\n      swap1\n      0x1f\n      and\n      dup1\n      iszero\n      tag_245\n      jumpi\n      dup1\n      dup3\n      sub\n      dup1\n      mload\n      0x01\n      dup4\n      0x20\n      sub\n      0x0100\n      exp\n      sub\n      not\n      and\n      dup2\n      mstore\n      0x20\n      add\n      swap2\n      pop\n    tag_245:\n      pop\n      swap3\n      pop\n      pop\n      pop\n      mload(0x40)\n      dup1\n      swap2\n      sub\n      swap1\n      revert\n    tag_241:\n      pop\n        /* \"Documents/BBX/contracts/libraries/SafeMath.sol\":561:570  uint256 c */\n      0x00\n        /* \"Documents/BBX/contracts/libraries/SafeMath.sol\":577:578  b */\n      dup4\n        /* \"Documents/BBX/contracts/libraries/SafeMath.sol\":573:574  a */\n      dup6\n        /* \"Documents/BBX/contracts/libraries/SafeMath.sol\":573:578  a - b */\n      sub\n        /* \"Documents/BBX/contracts/libraries/SafeMath.sol\":561:578  uint256 c = a - b */\n      swap1\n      pop\n        /* \"Documents/BBX/contracts/libraries/SafeMath.sol\":596:597  c */\n      dup1\n        /* \"Documents/BBX/contracts/libraries/SafeMath.sol\":589:597  return c */\n      swap2\n      pop\n      pop\n        /* \"Documents/BBX/contracts/libraries/SafeMath.sol\":417:604  function sub(uint256 a, uint256 b, string memory errorMessage) internal pure returns (uint256) {... */\n      swap4\n      swap3\n      pop\n      pop\n      pop\n      jump\t// out\n        /* \"Documents/BBX/contracts/libraries/SafeMath.sol\":610:852  function mul(uint256 a, uint256 b) internal pure returns (uint256) {... */\n    tag_148:\n        /* \"Documents/BBX/contracts/libraries/SafeMath.sol\":668:675  uint256 */\n      0x00\n        /* \"Documents/BBX/contracts/libraries/SafeMath.sol\":697:698  0 */\n      dup1\n        /* \"Documents/BBX/contracts/libraries/SafeMath.sol\":692:693  a */\n      dup4\n        /* \"Documents/BBX/contracts/libraries/SafeMath.sol\":692:698  a == 0 */\n      eq\n        /* \"Documents/BBX/contracts/libraries/SafeMath.sol\":688:733  if (a == 0) {... */\n      iszero\n      tag_247\n      jumpi\n        /* \"Documents/BBX/contracts/libraries/SafeMath.sol\":721:722  0 */\n      0x00\n        /* \"Documents/BBX/contracts/libraries/SafeMath.sol\":714:722  return 0 */\n      swap1\n      pop\n      jump(tag_246)\n        /* \"Documents/BBX/contracts/libraries/SafeMath.sol\":688:733  if (a == 0) {... */\n    tag_247:\n        /* \"Documents/BBX/contracts/libraries/SafeMath.sol\":743:752  uint256 c */\n      0x00\n        /* \"Documents/BBX/contracts/libraries/SafeMath.sol\":759:760  b */\n      dup3\n        /* \"Documents/BBX/contracts/libraries/SafeMath.sol\":755:756  a */\n      dup5\n        /* \"Documents/BBX/contracts/libraries/SafeMath.sol\":755:760  a * b */\n      mul\n        /* \"Documents/BBX/contracts/libraries/SafeMath.sol\":743:760  uint256 c = a * b */\n      swap1\n      pop\n        /* \"Documents/BBX/contracts/libraries/SafeMath.sol\":787:788  b */\n      dup3\n        /* \"Documents/BBX/contracts/libraries/SafeMath.sol\":782:783  a */\n      dup5\n        /* \"Documents/BBX/contracts/libraries/SafeMath.sol\":778:779  c */\n      dup3\n        /* \"Documents/BBX/contracts/libraries/SafeMath.sol\":778:783  c / a */\n      dup2\n      tag_248\n      jumpi\n      invalid\n    tag_248:\n      div\n        /* \"Documents/BBX/contracts/libraries/SafeMath.sol\":778:788  c / a == b */\n      eq\n        /* \"Documents/BBX/contracts/libraries/SafeMath.sol\":770:826  require(c / a == b, \"SafeMath: multiplication overflow\") */\n      tag_249\n      jumpi\n      mload(0x40)\n      0x08c379a000000000000000000000000000000000000000000000000000000000\n      dup2\n      mstore\n      0x04\n      add\n      dup1\n      dup1\n      0x20\n      add\n      dup3\n      dup2\n      sub\n      dup3\n      mstore\n      0x21\n      dup2\n      mstore\n      0x20\n      add\n      dup1\n      data_9113bb53c2876a3805b2c9242029423fc540a728243ce887ab24c82cf119fba3\n      0x21\n      swap2\n      codecopy\n      0x40\n      add\n      swap2\n      pop\n      pop\n      mload(0x40)\n      dup1\n      swap2\n      sub\n      swap1\n      revert\n    tag_249:\n        /* \"Documents/BBX/contracts/libraries/SafeMath.sol\":844:845  c */\n      dup1\n        /* \"Documents/BBX/contracts/libraries/SafeMath.sol\":837:845  return c */\n      swap2\n      pop\n      pop\n        /* \"Documents/BBX/contracts/libraries/SafeMath.sol\":610:852  function mul(uint256 a, uint256 b) internal pure returns (uint256) {... */\n    tag_246:\n      swap3\n      swap2\n      pop\n      pop\n      jump\t// out\n        /* \"Documents/BBX/contracts/libraries/SafeMath.sol\":858:988  function div(uint256 a, uint256 b) internal pure returns (uint256) {... */\n    tag_149:\n        /* \"Documents/BBX/contracts/libraries/SafeMath.sol\":916:923  uint256 */\n      0x00\n        /* \"Documents/BBX/contracts/libraries/SafeMath.sol\":942:981  div(a, b, \"SafeMath: division by zero\") */\n      tag_251\n        /* \"Documents/BBX/contracts/libraries/SafeMath.sol\":946:947  a */\n      dup4\n        /* \"Documents/BBX/contracts/libraries/SafeMath.sol\":949:950  b */\n      dup4\n        /* \"Documents/BBX/contracts/libraries/SafeMath.sol\":942:981  div(a, b, \"SafeMath: division by zero\") */\n      mload(0x40)\n      dup1\n      0x40\n      add\n      0x40\n      mstore\n      dup1\n      0x1a\n      dup2\n      mstore\n      0x20\n      add\n      0x536166654d6174683a206469766973696f6e206279207a65726f000000000000\n      dup2\n      mstore\n      pop\n        /* \"Documents/BBX/contracts/libraries/SafeMath.sol\":942:945  div */\n      tag_252\n        /* \"Documents/BBX/contracts/libraries/SafeMath.sol\":942:981  div(a, b, \"SafeMath: division by zero\") */\n      jump\t// in\n    tag_251:\n        /* \"Documents/BBX/contracts/libraries/SafeMath.sol\":935:981  return div(a, b, \"SafeMath: division by zero\") */\n      swap1\n      pop\n        /* \"Documents/BBX/contracts/libraries/SafeMath.sol\":858:988  function div(uint256 a, uint256 b) internal pure returns (uint256) {... */\n      swap3\n      swap2\n      pop\n      pop\n      jump\t// out\n        /* \"Documents/BBX/contracts/libraries/SafeMath.sol\":277:411  function sub(uint256 a, uint256 b) internal pure returns (uint256) {... */\n    tag_151:\n        /* \"Documents/BBX/contracts/libraries/SafeMath.sol\":335:342  uint256 */\n      0x00\n        /* \"Documents/BBX/contracts/libraries/SafeMath.sol\":361:404  sub(a, b, \"SafeMath: subtraction overflow\") */\n      tag_254\n        /* \"Documents/BBX/contracts/libraries/SafeMath.sol\":365:366  a */\n      dup4\n        /* \"Documents/BBX/contracts/libraries/SafeMath.sol\":368:369  b */\n      dup4\n        /* \"Documents/BBX/contracts/libraries/SafeMath.sol\":361:404  sub(a, b, \"SafeMath: subtraction overflow\") */\n      mload(0x40)\n      dup1\n      0x40\n      add\n      0x40\n      mstore\n      dup1\n      0x1e\n      dup2\n      mstore\n      0x20\n      add\n      0x536166654d6174683a207375627472616374696f6e206f766572666c6f770000\n      dup2\n      mstore\n      pop\n        /* \"Documents/BBX/contracts/libraries/SafeMath.sol\":361:364  sub */\n      tag_144\n        /* \"Documents/BBX/contracts/libraries/SafeMath.sol\":361:404  sub(a, b, \"SafeMath: subtraction overflow\") */\n      jump\t// in\n    tag_254:\n        /* \"Documents/BBX/contracts/libraries/SafeMath.sol\":354:404  return sub(a, b, \"SafeMath: subtraction overflow\") */\n      swap1\n      pop\n        /* \"Documents/BBX/contracts/libraries/SafeMath.sol\":277:411  function sub(uint256 a, uint256 b) internal pure returns (uint256) {... */\n      swap3\n      swap2\n      pop\n      pop\n      jump\t// out\n        /* \"Documents/BBX/contracts/libraries/SafeMath.sol\":95:271  function add(uint256 a, uint256 b) internal pure returns (uint256) {... */\n    tag_166:\n        /* \"Documents/BBX/contracts/libraries/SafeMath.sol\":153:160  uint256 */\n      0x00\n        /* \"Documents/BBX/contracts/libraries/SafeMath.sol\":172:181  uint256 c */\n      dup1\n        /* \"Documents/BBX/contracts/libraries/SafeMath.sol\":188:189  b */\n      dup3\n        /* \"Documents/BBX/contracts/libraries/SafeMath.sol\":184:185  a */\n      dup5\n        /* \"Documents/BBX/contracts/libraries/SafeMath.sol\":184:189  a + b */\n      add\n        /* \"Documents/BBX/contracts/libraries/SafeMath.sol\":172:189  uint256 c = a + b */\n      swap1\n      pop\n        /* \"Documents/BBX/contracts/libraries/SafeMath.sol\":212:213  a */\n      dup4\n        /* \"Documents/BBX/contracts/libraries/SafeMath.sol\":207:208  c */\n      dup2\n        /* \"Documents/BBX/contracts/libraries/SafeMath.sol\":207:213  c >= a */\n      lt\n      iszero\n        /* \"Documents/BBX/contracts/libraries/SafeMath.sol\":199:245  require(c >= a, \"SafeMath: addition overflow\") */\n      tag_256\n      jumpi\n      mload(0x40)\n      0x08c379a000000000000000000000000000000000000000000000000000000000\n      dup2\n      mstore\n      0x04\n      add\n      dup1\n      dup1\n      0x20\n      add\n      dup3\n      dup2\n      sub\n      dup3\n      mstore\n      0x1b\n      dup2\n      mstore\n      0x20\n      add\n      dup1\n      0x536166654d6174683a206164646974696f6e206f766572666c6f770000000000\n      dup2\n      mstore\n      pop\n      0x20\n      add\n      swap2\n      pop\n      pop\n      mload(0x40)\n      dup1\n      swap2\n      sub\n      swap1\n      revert\n    tag_256:\n        /* \"Documents/BBX/contracts/libraries/SafeMath.sol\":263:264  c */\n      dup1\n        /* \"Documents/BBX/contracts/libraries/SafeMath.sol\":256:264  return c */\n      swap2\n      pop\n      pop\n        /* \"Documents/BBX/contracts/libraries/SafeMath.sol\":95:271  function add(uint256 a, uint256 b) internal pure returns (uint256) {... */\n      swap3\n      swap2\n      pop\n      pop\n      jump\t// out\n        /* \"Documents/BBX/contracts/utils/ERC20.sol\":3124:3518  function _mint(address account_, uint256 ammount_) internal virtual {... */\n    tag_171:\n        /* \"Documents/BBX/contracts/utils/ERC20.sol\":3230:3231  0 */\n      0x00\n        /* \"Documents/BBX/contracts/utils/ERC20.sol\":3210:3232  account_ != address(0) */\n      0xffffffffffffffffffffffffffffffffffffffff\n      and\n        /* \"Documents/BBX/contracts/utils/ERC20.sol\":3210:3218  account_ */\n      dup3\n        /* \"Documents/BBX/contracts/utils/ERC20.sol\":3210:3232  account_ != address(0) */\n      0xffffffffffffffffffffffffffffffffffffffff\n      and\n      eq\n      iszero\n        /* \"Documents/BBX/contracts/utils/ERC20.sol\":3202:3268  require(account_ != address(0), \"ERC20: mint to the zero address\") */\n      tag_258\n      jumpi\n      mload(0x40)\n      0x08c379a000000000000000000000000000000000000000000000000000000000\n      dup2\n      mstore\n      0x04\n      add\n      dup1\n      dup1\n      0x20\n      add\n      dup3\n      dup2\n      sub\n      dup3\n      mstore\n      0x1f\n      dup2\n      mstore\n      0x20\n      add\n      dup1\n      0x45524332303a206d696e7420746f20746865207a65726f206164647265737300\n      dup2\n      mstore\n      pop\n      0x20\n      add\n      swap2\n      pop\n      pop\n      mload(0x40)\n      dup1\n      swap2\n      sub\n      swap1\n      revert\n    tag_258:\n        /* \"Documents/BBX/contracts/utils/ERC20.sol\":3278:3335  _beforeTokenTransfer(address( this ), account_, ammount_) */\n      tag_259\n        /* \"Documents/BBX/contracts/utils/ERC20.sol\":3308:3312  this */\n      address\n        /* \"Documents/BBX/contracts/utils/ERC20.sol\":3316:3324  account_ */\n      dup4\n        /* \"Documents/BBX/contracts/utils/ERC20.sol\":3326:3334  ammount_ */\n      dup4\n        /* \"Documents/BBX/contracts/utils/ERC20.sol\":3278:3298  _beforeTokenTransfer */\n      tag_237\n        /* \"Documents/BBX/contracts/utils/ERC20.sol\":3278:3335  _beforeTokenTransfer(address( this ), account_, ammount_) */\n      jump\t// in\n    tag_259:\n        /* \"Documents/BBX/contracts/utils/ERC20.sol\":3360:3386  _totalSupply.add(ammount_) */\n      tag_260\n        /* \"Documents/BBX/contracts/utils/ERC20.sol\":3377:3385  ammount_ */\n      dup2\n        /* \"Documents/BBX/contracts/utils/ERC20.sol\":3360:3372  _totalSupply */\n      sload(0x02)\n        /* \"Documents/BBX/contracts/utils/ERC20.sol\":3360:3376  _totalSupply.add */\n      tag_166\n      swap1\n        /* \"Documents/BBX/contracts/utils/ERC20.sol\":3360:3386  _totalSupply.add(ammount_) */\n      swap2\n      swap1\n      0xffffffff\n      and\n      jump\t// in\n    tag_260:\n        /* \"Documents/BBX/contracts/utils/ERC20.sol\":3345:3357  _totalSupply */\n      0x02\n        /* \"Documents/BBX/contracts/utils/ERC20.sol\":3345:3386  _totalSupply = _totalSupply.add(ammount_) */\n      dup2\n      swap1\n      sstore\n      pop\n        /* \"Documents/BBX/contracts/utils/ERC20.sol\":3418:3451  _balances[account_].add(ammount_) */\n      tag_261\n        /* \"Documents/BBX/contracts/utils/ERC20.sol\":3442:3450  ammount_ */\n      dup2\n        /* \"Documents/BBX/contracts/utils/ERC20.sol\":3418:3427  _balances */\n      0x00\n        /* \"Documents/BBX/contracts/utils/ERC20.sol\":3418:3437  _balances[account_] */\n      dup1\n        /* \"Documents/BBX/contracts/utils/ERC20.sol\":3428:3436  account_ */\n      dup6\n        /* \"Documents/BBX/contracts/utils/ERC20.sol\":3418:3437  _balances[account_] */\n      0xffffffffffffffffffffffffffffffffffffffff\n      and\n      0xffffffffffffffffffffffffffffffffffffffff\n      and\n      dup2\n      mstore\n      0x20\n      add\n      swap1\n      dup2\n      mstore\n      0x20\n      add\n      0x00\n      keccak256\n      sload\n        /* \"Documents/BBX/contracts/utils/ERC20.sol\":3418:3441  _balances[account_].add */\n      tag_166\n      swap1\n        /* \"Documents/BBX/contracts/utils/ERC20.sol\":3418:3451  _balances[account_].add(ammount_) */\n      swap2\n      swap1\n      0xffffffff\n      and\n      jump\t// in\n    tag_261:\n        /* \"Documents/BBX/contracts/utils/ERC20.sol\":3396:3405  _balances */\n      0x00\n        /* \"Documents/BBX/contracts/utils/ERC20.sol\":3396:3415  _balances[account_] */\n      dup1\n        /* \"Documents/BBX/contracts/utils/ERC20.sol\":3406:3414  account_ */\n      dup5\n        /* \"Documents/BBX/contracts/utils/ERC20.sol\":3396:3415  _balances[account_] */\n      0xffffffffffffffffffffffffffffffffffffffff\n      and\n      0xffffffffffffffffffffffffffffffffffffffff\n      and\n      dup2\n      mstore\n      0x20\n      add\n      swap1\n      dup2\n      mstore\n      0x20\n      add\n      0x00\n      keccak256\n        /* \"Documents/BBX/contracts/utils/ERC20.sol\":3396:3451  _balances[account_] = _balances[account_].add(ammount_) */\n      dup2\n      swap1\n      sstore\n      pop\n        /* \"Documents/BBX/contracts/utils/ERC20.sol\":3492:3500  account_ */\n      dup2\n        /* \"Documents/BBX/contracts/utils/ERC20.sol\":3466:3511  Transfer(address( this ), account_, ammount_) */\n      0xffffffffffffffffffffffffffffffffffffffff\n      and\n        /* \"Documents/BBX/contracts/utils/ERC20.sol\":3484:3488  this */\n      address\n        /* \"Documents/BBX/contracts/utils/ERC20.sol\":3466:3511  Transfer(address( this ), account_, ammount_) */\n      0xffffffffffffffffffffffffffffffffffffffff\n      and\n      0xddf252ad1be2c89b69c2b068fc378daa952ba7f163c4a11628f55a4df523b3ef\n        /* \"Documents/BBX/contracts/utils/ERC20.sol\":3502:3510  ammount_ */\n      dup4\n        /* \"Documents/BBX/contracts/utils/ERC20.sol\":3466:3511  Transfer(address( this ), account_, ammount_) */\n      mload(0x40)\n      dup1\n      dup3\n      dup2\n      mstore\n      0x20\n      add\n      swap2\n      pop\n      pop\n      mload(0x40)\n      dup1\n      swap2\n      sub\n      swap1\n      log3\n        /* \"Documents/BBX/contracts/utils/ERC20.sol\":3124:3518  function _mint(address account_, uint256 ammount_) internal virtual {... */\n      pop\n      pop\n      jump\t// out\n        /* \"Documents/BBX/contracts/utils/ERC20.sol\":3524:3934  function _burn(address account, uint256 amount) internal virtual {... */\n    tag_174:\n        /* \"Documents/BBX/contracts/utils/ERC20.sol\":3626:3627  0 */\n      0x00\n        /* \"Documents/BBX/contracts/utils/ERC20.sol\":3607:3628  account != address(0) */\n      0xffffffffffffffffffffffffffffffffffffffff\n      and\n        /* \"Documents/BBX/contracts/utils/ERC20.sol\":3607:3614  account */\n      dup3\n        /* \"Documents/BBX/contracts/utils/ERC20.sol\":3607:3628  account != address(0) */\n      0xffffffffffffffffffffffffffffffffffffffff\n      and\n      eq\n      iszero\n        /* \"Documents/BBX/contracts/utils/ERC20.sol\":3599:3666  require(account != address(0), \"ERC20: burn from the zero address\") */\n      tag_263\n      jumpi\n      mload(0x40)\n      0x08c379a000000000000000000000000000000000000000000000000000000000\n      dup2\n      mstore\n      0x04\n      add\n      dup1\n      dup1\n      0x20\n      add\n      dup3\n      dup2\n      sub\n      dup3\n      mstore\n      0x21\n      dup2\n      mstore\n      0x20\n      add\n      dup1\n      data_b16788493b576042bb52c50ed56189e0b250db113c7bfb1c3897d25cf9632d7f\n      0x21\n      swap2\n      codecopy\n      0x40\n      add\n      swap2\n      pop\n      pop\n      mload(0x40)\n      dup1\n      swap2\n      sub\n      swap1\n      revert\n    tag_263:\n        /* \"Documents/BBX/contracts/utils/ERC20.sol\":3677:3726  _beforeTokenTransfer(account, address(0), amount) */\n      tag_264\n        /* \"Documents/BBX/contracts/utils/ERC20.sol\":3698:3705  account */\n      dup3\n        /* \"Documents/BBX/contracts/utils/ERC20.sol\":3715:3716  0 */\n      0x00\n        /* \"Documents/BBX/contracts/utils/ERC20.sol\":3719:3725  amount */\n      dup4\n        /* \"Documents/BBX/contracts/utils/ERC20.sol\":3677:3697  _beforeTokenTransfer */\n      tag_237\n        /* \"Documents/BBX/contracts/utils/ERC20.sol\":3677:3726  _beforeTokenTransfer(account, address(0), amount) */\n      jump\t// in\n    tag_264:\n        /* \"Documents/BBX/contracts/utils/ERC20.sol\":3758:3826  _balances[account].sub(amount, \"ERC20: burn amount exceeds balance\") */\n      tag_265\n        /* \"Documents/BBX/contracts/utils/ERC20.sol\":3781:3787  amount */\n      dup2\n        /* \"Documents/BBX/contracts/utils/ERC20.sol\":3758:3826  _balances[account].sub(amount, \"ERC20: burn amount exceeds balance\") */\n      mload(0x40)\n      dup1\n      0x60\n      add\n      0x40\n      mstore\n      dup1\n      0x22\n      dup2\n      mstore\n      0x20\n      add\n      data_149b126e7125232b4200af45303d04fba8b74653b1a295a6a561a528c33fefdd\n      0x22\n      swap2\n      codecopy\n        /* \"Documents/BBX/contracts/utils/ERC20.sol\":3758:3767  _balances */\n      0x00\n        /* \"Documents/BBX/contracts/utils/ERC20.sol\":3758:3776  _balances[account] */\n      dup1\n        /* \"Documents/BBX/contracts/utils/ERC20.sol\":3768:3775  account */\n      dup7\n        /* \"Documents/BBX/contracts/utils/ERC20.sol\":3758:3776  _balances[account] */\n      0xffffffffffffffffffffffffffffffffffffffff\n      and\n      0xffffffffffffffffffffffffffffffffffffffff\n      and\n      dup2\n      mstore\n      0x20\n      add\n      swap1\n      dup2\n      mstore\n      0x20\n      add\n      0x00\n      keccak256\n      sload\n        /* \"Documents/BBX/contracts/utils/ERC20.sol\":3758:3780  _balances[account].sub */\n      tag_144\n      swap1\n        /* \"Documents/BBX/contracts/utils/ERC20.sol\":3758:3826  _balances[account].sub(amount, \"ERC20: burn amount exceeds balance\") */\n      swap3\n      swap2\n      swap1\n      0xffffffff\n      and\n      jump\t// in\n    tag_265:\n        /* \"Documents/BBX/contracts/utils/ERC20.sol\":3737:3746  _balances */\n      0x00\n        /* \"Documents/BBX/contracts/utils/ERC20.sol\":3737:3755  _balances[account] */\n      dup1\n        /* \"Documents/BBX/contracts/utils/ERC20.sol\":3747:3754  account */\n      dup5\n        /* \"Documents/BBX/contracts/utils/ERC20.sol\":3737:3755  _balances[account] */\n      0xffffffffffffffffffffffffffffffffffffffff\n      and\n      0xffffffffffffffffffffffffffffffffffffffff\n      and\n      dup2\n      mstore\n      0x20\n      add\n      swap1\n      dup2\n      mstore\n      0x20\n      add\n      0x00\n      keccak256\n        /* \"Documents/BBX/contracts/utils/ERC20.sol\":3737:3826  _balances[account] = _balances[account].sub(amount, \"ERC20: burn amount exceeds balance\") */\n      dup2\n      swap1\n      sstore\n      pop\n        /* \"Documents/BBX/contracts/utils/ERC20.sol\":3851:3875  _totalSupply.sub(amount) */\n      tag_266\n        /* \"Documents/BBX/contracts/utils/ERC20.sol\":3868:3874  amount */\n      dup2\n        /* \"Documents/BBX/contracts/utils/ERC20.sol\":3851:3863  _totalSupply */\n      sload(0x02)\n        /* \"Documents/BBX/contracts/utils/ERC20.sol\":3851:3867  _totalSupply.sub */\n      tag_151\n      swap1\n        /* \"Documents/BBX/contracts/utils/ERC20.sol\":3851:3875  _totalSupply.sub(amount) */\n      swap2\n      swap1\n      0xffffffff\n      and\n      jump\t// in\n    tag_266:\n        /* \"Documents/BBX/contracts/utils/ERC20.sol\":3836:3848  _totalSupply */\n      0x02\n        /* \"Documents/BBX/contracts/utils/ERC20.sol\":3836:3875  _totalSupply = _totalSupply.sub(amount) */\n      dup2\n      swap1\n      sstore\n      pop\n        /* \"Documents/BBX/contracts/utils/ERC20.sol\":3916:3917  0 */\n      0x00\n        /* \"Documents/BBX/contracts/utils/ERC20.sol\":3890:3927  Transfer(account, address(0), amount) */\n      0xffffffffffffffffffffffffffffffffffffffff\n      and\n        /* \"Documents/BBX/contracts/utils/ERC20.sol\":3899:3906  account */\n      dup3\n        /* \"Documents/BBX/contracts/utils/ERC20.sol\":3890:3927  Transfer(account, address(0), amount) */\n      0xffffffffffffffffffffffffffffffffffffffff\n      and\n      0xddf252ad1be2c89b69c2b068fc378daa952ba7f163c4a11628f55a4df523b3ef\n        /* \"Documents/BBX/contracts/utils/ERC20.sol\":3920:3926  amount */\n      dup4\n        /* \"Documents/BBX/contracts/utils/ERC20.sol\":3890:3927  Transfer(account, address(0), amount) */\n      mload(0x40)\n      dup1\n      dup3\n      dup2\n      mstore\n      0x20\n      add\n      swap2\n      pop\n      pop\n      mload(0x40)\n      dup1\n      swap2\n      sub\n      swap1\n      log3\n        /* \"Documents/BBX/contracts/utils/ERC20.sol\":3524:3934  function _burn(address account, uint256 amount) internal virtual {... */\n      pop\n      pop\n      jump\t// out\n        /* \"Documents/BBX/contracts/libraries/Counters.sol\":220:332  function current(Counter storage counter) internal view returns (uint256) {... */\n    tag_191:\n        /* \"Documents/BBX/contracts/libraries/Counters.sol\":285:292  uint256 */\n      0x00\n        /* \"Documents/BBX/contracts/libraries/Counters.sol\":311:318  counter */\n      dup2\n        /* \"Documents/BBX/contracts/libraries/Counters.sol\":311:325  counter._value */\n      0x00\n      add\n      sload\n        /* \"Documents/BBX/contracts/libraries/Counters.sol\":304:325  return counter._value */\n      swap1\n      pop\n        /* \"Documents/BBX/contracts/libraries/Counters.sol\":220:332  function current(Counter storage counter) internal view returns (uint256) {... */\n      swap2\n      swap1\n      pop\n      jump\t// out\n        /* \"Documents/BBX/contracts/libraries/Counters.sol\":338:427  function increment(Counter storage counter) internal {... */\n    tag_223:\n        /* \"Documents/BBX/contracts/libraries/Counters.sol\":419:420  1 */\n      0x01\n        /* \"Documents/BBX/contracts/libraries/Counters.sol\":401:408  counter */\n      dup2\n        /* \"Documents/BBX/contracts/libraries/Counters.sol\":401:415  counter._value */\n      0x00\n      add\n      0x00\n        /* \"Documents/BBX/contracts/libraries/Counters.sol\":401:420  counter._value += 1 */\n      dup3\n      dup3\n      sload\n      add\n      swap3\n      pop\n      pop\n      dup2\n      swap1\n      sstore\n      pop\n        /* \"Documents/BBX/contracts/libraries/Counters.sol\":338:427  function increment(Counter storage counter) internal {... */\n      pop\n      jump\t// out\n        /* \"Documents/BBX/contracts/utils/ERC20.sol\":4284:4381  function _beforeTokenTransfer( address from_, address to_, uint256 amount_ ) internal virtual { } */\n    tag_237:\n      pop\n      pop\n      pop\n      jump\t// out\n        /* \"Documents/BBX/contracts/libraries/SafeMath.sol\":994:1266  function div(uint256 a, uint256 b, string memory errorMessage) internal pure returns (uint256) {... */\n    tag_252:\n        /* \"Documents/BBX/contracts/libraries/SafeMath.sol\":1080:1087  uint256 */\n      0x00\n        /* \"Documents/BBX/contracts/libraries/SafeMath.sol\":1111:1112  0 */\n      dup1\n        /* \"Documents/BBX/contracts/libraries/SafeMath.sol\":1107:1108  b */\n      dup4\n        /* \"Documents/BBX/contracts/libraries/SafeMath.sol\":1107:1112  b > 0 */\n      gt\n        /* \"Documents/BBX/contracts/libraries/SafeMath.sol\":1114:1126  errorMessage */\n      dup3\n        /* \"Documents/BBX/contracts/libraries/SafeMath.sol\":1099:1127  require(b > 0, errorMessage) */\n      swap1\n      tag_271\n      jumpi\n      mload(0x40)\n      0x08c379a000000000000000000000000000000000000000000000000000000000\n      dup2\n      mstore\n      0x04\n      add\n      dup1\n      dup1\n      0x20\n      add\n      dup3\n      dup2\n      sub\n      dup3\n      mstore\n      dup4\n      dup2\n      dup2\n      mload\n      dup2\n      mstore\n      0x20\n      add\n      swap2\n      pop\n      dup1\n      mload\n      swap1\n      0x20\n      add\n      swap1\n      dup1\n      dup4\n      dup4\n      0x00\n    tag_272:\n      dup4\n      dup2\n      lt\n      iszero\n      tag_274\n      jumpi\n      dup1\n      dup3\n      add\n      mload\n      dup2\n      dup5\n      add\n      mstore\n      0x20\n      dup2\n      add\n      swap1\n      pop\n      jump(tag_272)\n    tag_274:\n      pop\n      pop\n      pop\n      pop\n      swap1\n      pop\n      swap1\n      dup2\n      add\n      swap1\n      0x1f\n      and\n      dup1\n      iszero\n      tag_275\n      jumpi\n      dup1\n      dup3\n      sub\n      dup1\n      mload\n      0x01\n      dup4\n      0x20\n      sub\n      0x0100\n      exp\n      sub\n      not\n      and\n      dup2\n      mstore\n      0x20\n      add\n      swap2\n      pop\n    tag_275:\n      pop\n      swap3\n      pop\n      pop\n      pop\n      mload(0x40)\n      dup1\n      swap2\n      sub\n      swap1\n      revert\n    tag_271:\n      pop\n        /* \"Documents/BBX/contracts/libraries/SafeMath.sol\":1137:1146  uint256 c */\n      0x00\n        /* \"Documents/BBX/contracts/libraries/SafeMath.sol\":1153:1154  b */\n      dup4\n        /* \"Documents/BBX/contracts/libraries/SafeMath.sol\":1149:1150  a */\n      dup6\n        /* \"Documents/BBX/contracts/libraries/SafeMath.sol\":1149:1154  a / b */\n      dup2\n      tag_276\n      jumpi\n      invalid\n    tag_276:\n      div\n        /* \"Documents/BBX/contracts/libraries/SafeMath.sol\":1137:1154  uint256 c = a / b */\n      swap1\n      pop\n        /* \"Documents/BBX/contracts/libraries/SafeMath.sol\":1258:1259  c */\n      dup1\n        /* \"Documents/BBX/contracts/libraries/SafeMath.sol\":1251:1259  return c */\n      swap2\n      pop\n      pop\n        /* \"Documents/BBX/contracts/libraries/SafeMath.sol\":994:1266  function div(uint256 a, uint256 b, string memory errorMessage) internal pure returns (uint256) {... */\n      swap4\n      swap3\n      pop\n      pop\n      pop\n      jump\t// out\n    stop\n    data_0557e210f7a69a685100a7e4e3d0a7024c546085cee28910fd17d0b081d9516f 45524332303a207472616e7366657220746f20746865207a65726f2061646472657373\n    data_149b126e7125232b4200af45303d04fba8b74653b1a295a6a561a528c33fefdd 45524332303a206275726e20616d6f756e7420657863656564732062616c616e6365\n    data_24883cc5fe64ace9d0df1893501ecb93c77180f0ff69cca79affb3c316dc8029 45524332303a20617070726f766520746f20746865207a65726f2061646472657373\n    data_4107e8a8b9e94bf8ff83080ddec1c0bffe897ebc2241b89d44f66b3d274088b6 45524332303a207472616e7366657220616d6f756e7420657863656564732062616c616e6365\n    data_4de71fbd3469e1b7fc89a70805ae86972c680281e629f271ab7471fd6321445c 4f776e61626c653a206d757374206265206e6577206f776e657220746f2070756c6c\n    data_5ef653edfc38c403ea52d691304feffa27a665e594b07a1719ac6b055d64dbee 5a65726f537761705065726d69743a20496e76616c6964207369676e6174757265\n    data_9113bb53c2876a3805b2c9242029423fc540a728243ce887ab24c82cf119fba3 536166654d6174683a206d756c7469706c69636174696f6e206f766572666c6f77\n    data_974d1b4421da69cc60b481194f0dad36a5bb4e23da810da7a7fb30cdba178330 45524332303a207472616e7366657220616d6f756e74206578636565647320616c6c6f77616e6365\n    data_97fe5a45a8d4c3a56de1e69fee692968b53b5c0a2f63047c888a0effc9a2b247 5661756c744f776e65643a2063616c6c6572206973206e6f7420746865205661756c74\n    data_a287c363786607a1457a2d9d12fa61c0073358e02d76b4035fc2c2d86a19c0db 45524332303a206275726e20616d6f756e74206578636565647320616c6c6f77616e6365\n    data_b16788493b576042bb52c50ed56189e0b250db113c7bfb1c3897d25cf9632d7f 45524332303a206275726e2066726f6d20746865207a65726f2061646472657373\n    data_baecc556b46f4ed0f2b4cb599d60785ac8563dd2dc0a5bf12edea1c39e5e1fea 45524332303a207472616e736665722066726f6d20746865207a65726f2061646472657373\n    data_c953f4879035ed60e766b34720f656aab5c697b141d924c283124ecedb91c208 45524332303a20617070726f76652066726f6d20746865207a65726f2061646472657373\n    data_f8b476f7d28209d77d4a4ac1fe36b9f8259aa1bb6bddfa6e89de7e51615cf8a8 45524332303a2064656372656173656420616c6c6f77616e63652062656c6f77207a65726f\n\n    auxdata: 0xa2646970667358221220f0133ce63798a0827db636a78a0cacf5ce209e32838c1cf6c4bdcf3ff3b78bd764736f6c63430007050033\n}\n",
				"bytecode": {
					"linkReferences": {},
					"object": "60806040523480156200001157600080fd5b506040516200343638038062003436833981810160405260408110156200003757600080fd5b81019080805160405193929190846401000000008211156200005857600080fd5b838201915060208201858111156200006f57600080fd5b82518660018202830111640100000000821117156200008d57600080fd5b8083526020830192505050908051906020019080838360005b83811015620000c3578082015181840152602081019050620000a6565b50505050905090810190601f168015620000f15780820380516001836020036101000a031916815260200191505b50604052602001805160405193929190846401000000008211156200011557600080fd5b838201915060208201858111156200012c57600080fd5b82518660018202830111640100000000821117156200014a57600080fd5b8083526020830192505050908051906020019080838360005b838110156200018057808201518184015260208101905062000163565b50505050905090810190601f168015620001ae5780820380516001836020036101000a031916815260200191505b506040525050508181818160098260039080519060200190620001d392919062000454565b508160049080519060200190620001ec92919062000454565b5080600560006101000a81548160ff021916908360ff16021790555050505060004690507f8b73c3c69bb8fe3d512ecc4cf759cc79239f7b179b0ffacaa9a75d522b39400f62000241620003ae60201b60201c565b805190602001206040518060400160405280600181526020017f3100000000000000000000000000000000000000000000000000000000000000815250805190602001208330604051602001808681526020018581526020018481526020018381526020018273ffffffffffffffffffffffffffffffffffffffff16815260200195505050505050604051602081830303815290604052805190602001206007819055505033600860006101000a81548173ffffffffffffffffffffffffffffffffffffffff021916908373ffffffffffffffffffffffffffffffffffffffff160217905550600860009054906101000a900473ffffffffffffffffffffffffffffffffffffffff1673ffffffffffffffffffffffffffffffffffffffff16600073ffffffffffffffffffffffffffffffffffffffff167fea8258f2d9ddb679928cf34b78cf645b7feda9acc828e4dd82d014eaae270eba60405160405180910390a3505050506200050a565b606060038054600181600116156101000203166002900480601f0160208091040260200160405190810160405280929190818152602001828054600181600116156101000203166002900480156200044a5780601f106200041e576101008083540402835291602001916200044a565b820191906000526020600020905b8154815290600101906020018083116200042c57829003601f168201915b5050505050905090565b828054600181600116156101000203166002900490600052602060002090601f0160209004810192826200048c5760008555620004d8565b82601f10620004a757805160ff1916838001178555620004d8565b82800160010185558215620004d8579182015b82811115620004d7578251825591602001919060010190620004ba565b5b509050620004e79190620004eb565b5090565b5b8082111562000506576000816000905550600101620004ec565b5090565b612f1c806200051a6000396000f3fe608060405234801561001057600080fd5b50600436106101da5760003560e01c80636817031b1161010457806395d89b41116100a2578063d505accf11610071578063d505accf14610972578063dd62ed3e14610a0b578063f46901ed14610a83578063fbfa77cf14610ac7576101da565b806395d89b41146107d9578063a22b35ce1461085c578063a457c2d7146108aa578063a9059cbb1461090e576101da565b8063771a3a1d116100de578063771a3a1d146106e157806379cc6790146106ff5780637ecebe001461074d5780638da5cb5b146107a5576101da565b80636817031b146105d55780636f9170f61461062f57806370a0823114610689576101da565b8063313ce5671161017c57806342966c681161014b57806342966c68146104ff57806346f68ee91461052d5780635a96ac0a14610571578063605e5ee11461057b576101da565b8063313ce5671461040e5780633644e5151461042f578063395093511461044d57806340c10f19146104b1576101da565b806323b872dd116101b857806323b872dd146102e457806324e1bfea146103685780632e5bb6ff146103c257806330adf81f146103f0576101da565b806306fdde03146101df578063095ea7b31461026257806318160ddd146102c6575b600080fd5b6101e7610afb565b6040518080602001828103825283818151815260200191508051906020019080838360005b8381101561022757808201518184015260208101905061020c565b50505050905090810190601f1680156102545780820380516001836020036101000a031916815260200191505b509250505060405180910390f35b6102ae6004803603604081101561027857600080fd5b81019080803573ffffffffffffffffffffffffffffffffffffffff16906020019092919080359060200190929190505050610b9d565b60405180821515815260200191505060405180910390f35b6102ce610bb4565b6040518082815260200191505060405180910390f35b610350600480360360608110156102fa57600080fd5b81019080803573ffffffffffffffffffffffffffffffffffffffff169060200190929190803573ffffffffffffffffffffffffffffffffffffffff16906020019092919080359060200190929190505050610bbe565b60405180821515815260200191505060405180910390f35b6103aa6004803603602081101561037e57600080fd5b81019080803573ffffffffffffffffffffffffffffffffffffffff169060200190929190505050610ebf565b60405180821515815260200191505060405180910390f35b6103ee600480360360208110156103d857600080fd5b8101908080359060200190929190505050611030565b005b6103f86110fd565b6040518082815260200191505060405180910390f35b610416611124565b604051808260ff16815260200191505060405180910390f35b61043761113b565b6040518082815260200191505060405180910390f35b6104996004803603604081101561046357600080fd5b81019080803573ffffffffffffffffffffffffffffffffffffffff16906020019092919080359060200190929190505050611141565b60405180821515815260200191505060405180910390f35b6104fd600480360360408110156104c757600080fd5b81019080803573ffffffffffffffffffffffffffffffffffffffff169060200190929190803590602001909291905050506111e6565b005b61052b6004803603602081101561051557600080fd5b810190808035906020019092919050505061129a565b005b61056f6004803603602081101561054357600080fd5b81019080803573ffffffffffffffffffffffffffffffffffffffff1690602001909291905050506112a7565b005b61057961142a565b005b6105bd6004803603602081101561059157600080fd5b81019080803573ffffffffffffffffffffffffffffffffffffffff169060200190929190505050611615565b60405180821515815260200191505060405180910390f35b610617600480360360208110156105eb57600080fd5b81019080803573ffffffffffffffffffffffffffffffffffffffff169060200190929190505050611786565b60405180821515815260200191505060405180910390f35b6106716004803603602081101561064557600080fd5b81019080803573ffffffffffffffffffffffffffffffffffffffff169060200190929190505050611895565b60405180821515815260200191505060405180910390f35b6106cb6004803603602081101561069f57600080fd5b81019080803573ffffffffffffffffffffffffffffffffffffffff1690602001909291905050506118b5565b6040518082815260200191505060405180910390f35b6106e96118fd565b6040518082815260200191505060405180910390f35b61074b6004803603604081101561071557600080fd5b81019080803573ffffffffffffffffffffffffffffffffffffffff16906020019092919080359060200190929190505050611903565b005b61078f6004803603602081101561076357600080fd5b81019080803573ffffffffffffffffffffffffffffffffffffffff169060200190929190505050611911565b6040518082815260200191505060405180910390f35b6107ad611961565b604051808273ffffffffffffffffffffffffffffffffffffffff16815260200191505060405180910390f35b6107e161198b565b6040518080602001828103825283818151815260200191508051906020019080838360005b83811015610821578082015181840152602081019050610806565b50505050905090810190601f16801561084e5780820380516001836020036101000a031916815260200191505b509250505060405180910390f35b6108a86004803603604081101561087257600080fd5b81019080803573ffffffffffffffffffffffffffffffffffffffff16906020019092919080359060200190929190505050611a2d565b005b6108f6600480360360408110156108c057600080fd5b81019080803573ffffffffffffffffffffffffffffffffffffffff16906020019092919080359060200190929190505050611a81565b60405180821515815260200191505060405180910390f35b61095a6004803603604081101561092457600080fd5b81019080803573ffffffffffffffffffffffffffffffffffffffff16906020019092919080359060200190929190505050611b40565b60405180821515815260200191505060405180910390f35b610a09600480360360e081101561098857600080fd5b81019080803573ffffffffffffffffffffffffffffffffffffffff169060200190929190803573ffffffffffffffffffffffffffffffffffffffff1690602001909291908035906020019092919080359060200190929190803560ff1690602001909291908035906020019092919080359060200190929190505050611c86565b005b610a6d60048036036040811015610a2157600080fd5b81019080803573ffffffffffffffffffffffffffffffffffffffff169060200190929190803573ffffffffffffffffffffffffffffffffffffffff169060200190929190505050611fad565b6040518082815260200191505060405180910390f35b610ac560048036036020811015610a9957600080fd5b81019080803573ffffffffffffffffffffffffffffffffffffffff169060200190929190505050612034565b005b610acf61213b565b604051808273ffffffffffffffffffffffffffffffffffffffff16815260200191505060405180910390f35b606060038054600181600116156101000203166002900480601f016020809104026020016040519081016040528092919081815260200182805460018160011615610100020316600290048015610b935780601f10610b6857610100808354040283529160200191610b93565b820191906000526020600020905b815481529060010190602001808311610b7657829003601f168201915b5050505050905090565b6000610baa338484612165565b6001905092915050565b6000600254905090565b6000600b60003373ffffffffffffffffffffffffffffffffffffffff1673ffffffffffffffffffffffffffffffffffffffff16815260200190815260200160002060009054906101000a900460ff1680610c615750600b60008473ffffffffffffffffffffffffffffffffffffffff1673ffffffffffffffffffffffffffffffffffffffff16815260200190815260200160002060009054906101000a900460ff165b80610cb55750600b60008573ffffffffffffffffffffffffffffffffffffffff1673ffffffffffffffffffffffffffffffffffffffff16815260200190815260200160002060009054906101000a900460ff165b15610d8157610cc584848461235c565b610d788433610d7385604051806060016040528060288152602001612de960289139600160008b73ffffffffffffffffffffffffffffffffffffffff1673ffffffffffffffffffffffffffffffffffffffff16815260200190815260200160002060003373ffffffffffffffffffffffffffffffffffffffff1673ffffffffffffffffffffffffffffffffffffffff1681526020019081526020016000205461261d9092919063ffffffff16565b612165565b60019050610eb8565b6000610dad620186a0610d9f600d54866126dd90919063ffffffff16565b61276390919063ffffffff16565b90506000610dc482856127ad90919063ffffffff16565b9050610dd186868361235c565b610dfe86600c60009054906101000a900473ffffffffffffffffffffffffffffffffffffffff168461235c565b610eb18633610eac87604051806060016040528060288152602001612de960289139600160008d73ffffffffffffffffffffffffffffffffffffffff1673ffffffffffffffffffffffffffffffffffffffff16815260200190815260200160002060003373ffffffffffffffffffffffffffffffffffffffff1673ffffffffffffffffffffffffffffffffffffffff1681526020019081526020016000205461261d9092919063ffffffff16565b612165565b6001925050505b9392505050565b60003373ffffffffffffffffffffffffffffffffffffffff16600860009054906101000a900473ffffffffffffffffffffffffffffffffffffffff1673ffffffffffffffffffffffffffffffffffffffff1614610f84576040517f08c379a00000000000000000000000000000000000000000000000000000000081526004018080602001828103825260208152602001807f4f776e61626c653a2063616c6c6572206973206e6f7420746865206f776e657281525060200191505060405180910390fd5b6001600b60008473ffffffffffffffffffffffffffffffffffffffff1673ffffffffffffffffffffffffffffffffffffffff16815260200190815260200160002060006101000a81548160ff021916908315150217905550600b60008373ffffffffffffffffffffffffffffffffffffffff1673ffffffffffffffffffffffffffffffffffffffff16815260200190815260200160002060009054906101000a900460ff169050919050565b3373ffffffffffffffffffffffffffffffffffffffff16600860009054906101000a900473ffffffffffffffffffffffffffffffffffffffff1673ffffffffffffffffffffffffffffffffffffffff16146110f3576040517f08c379a00000000000000000000000000000000000000000000000000000000081526004018080602001828103825260208152602001807f4f776e61626c653a2063616c6c6572206973206e6f7420746865206f776e657281525060200191505060405180910390fd5b80600d8190555050565b7f6e71edae12b1b97f4d1f60370fef10105fa2faae0126114a169c64845d6126c960001b81565b6000600560009054906101000a900460ff16905090565b60075481565b60006111dc33846111d785600160003373ffffffffffffffffffffffffffffffffffffffff1673ffffffffffffffffffffffffffffffffffffffff16815260200190815260200160002060008973ffffffffffffffffffffffffffffffffffffffff1673ffffffffffffffffffffffffffffffffffffffff168152602001908152602001600020546127f790919063ffffffff16565b612165565b6001905092915050565b3373ffffffffffffffffffffffffffffffffffffffff16600a60009054906101000a900473ffffffffffffffffffffffffffffffffffffffff1673ffffffffffffffffffffffffffffffffffffffff161461128c576040517f08c379a0000000000000000000000000000000000000000000000000000000008152600401808060200182810382526023815260200180612e116023913960400191505060405180910390fd5b611296828261287f565b5050565b6112a43382612a44565b50565b3373ffffffffffffffffffffffffffffffffffffffff16600860009054906101000a900473ffffffffffffffffffffffffffffffffffffffff1673ffffffffffffffffffffffffffffffffffffffff161461136a576040517f08c379a00000000000000000000000000000000000000000000000000000000081526004018080602001828103825260208152602001807f4f776e61626c653a2063616c6c6572206973206e6f7420746865206f776e657281525060200191505060405180910390fd5b8073ffffffffffffffffffffffffffffffffffffffff16600860009054906101000a900473ffffffffffffffffffffffffffffffffffffffff1673ffffffffffffffffffffffffffffffffffffffff167fea8258f2d9ddb679928cf34b78cf645b7feda9acc828e4dd82d014eaae270eba60405160405180910390a380600960006101000a81548173ffffffffffffffffffffffffffffffffffffffff021916908373ffffffffffffffffffffffffffffffffffffffff16021790555050565b600960009054906101000a900473ffffffffffffffffffffffffffffffffffffffff1673ffffffffffffffffffffffffffffffffffffffff163373ffffffffffffffffffffffffffffffffffffffff16146114d0576040517f08c379a0000000000000000000000000000000000000000000000000000000008152600401808060200182810382526022815260200180612d856022913960400191505060405180910390fd5b600960009054906101000a900473ffffffffffffffffffffffffffffffffffffffff1673ffffffffffffffffffffffffffffffffffffffff16600860009054906101000a900473ffffffffffffffffffffffffffffffffffffffff1673ffffffffffffffffffffffffffffffffffffffff167faa151555690c956fc3ea32f106bb9f119b5237a061eaa8557cff3e51e3792c8d60405160405180910390a3600960009054906101000a900473ffffffffffffffffffffffffffffffffffffffff16600860006101000a81548173ffffffffffffffffffffffffffffffffffffffff021916908373ffffffffffffffffffffffffffffffffffffffff1602179055506000600960006101000a81548173ffffffffffffffffffffffffffffffffffffffff021916908373ffffffffffffffffffffffffffffffffffffffff160217905550565b60003373ffffffffffffffffffffffffffffffffffffffff16600860009054906101000a900473ffffffffffffffffffffffffffffffffffffffff1673ffffffffffffffffffffffffffffffffffffffff16146116da576040517f08c379a00000000000000000000000000000000000000000000000000000000081526004018080602001828103825260208152602001807f4f776e61626c653a2063616c6c6572206973206e6f7420746865206f776e657281525060200191505060405180910390fd5b6000600b60008473ffffffffffffffffffffffffffffffffffffffff1673ffffffffffffffffffffffffffffffffffffffff16815260200190815260200160002060006101000a81548160ff021916908315150217905550600b60008373ffffffffffffffffffffffffffffffffffffffff1673ffffffffffffffffffffffffffffffffffffffff16815260200190815260200160002060009054906101000a900460ff169050919050565b60003373ffffffffffffffffffffffffffffffffffffffff16600860009054906101000a900473ffffffffffffffffffffffffffffffffffffffff1673ffffffffffffffffffffffffffffffffffffffff161461184b576040517f08c379a00000000000000000000000000000000000000000000000000000000081526004018080602001828103825260208152602001807f4f776e61626c653a2063616c6c6572206973206e6f7420746865206f776e657281525060200191505060405180910390fd5b81600a60006101000a81548173ffffffffffffffffffffffffffffffffffffffff021916908373ffffffffffffffffffffffffffffffffffffffff16021790555060019050919050565b600b6020528060005260406000206000915054906101000a900460ff1681565b60008060008373ffffffffffffffffffffffffffffffffffffffff1673ffffffffffffffffffffffffffffffffffffffff168152602001908152602001600020549050919050565b600d5481565b61190d8282611a2d565b5050565b600061195a600660008473ffffffffffffffffffffffffffffffffffffffff1673ffffffffffffffffffffffffffffffffffffffff168152602001908152602001600020612c08565b9050919050565b6000600860009054906101000a900473ffffffffffffffffffffffffffffffffffffffff16905090565b606060048054600181600116156101000203166002900480601f016020809104026020016040519081016040528092919081815260200182805460018160011615610100020316600290048015611a235780601f106119f857610100808354040283529160200191611a23565b820191906000526020600020905b815481529060010190602001808311611a0657829003601f168201915b5050505050905090565b6000611a6582604051806060016040528060248152602001612e3460249139611a568633611fad565b61261d9092919063ffffffff16565b9050611a72833383612165565b611a7c8383612a44565b505050565b6000611b363384611b3185604051806060016040528060258152602001612ec260259139600160003373ffffffffffffffffffffffffffffffffffffffff1673ffffffffffffffffffffffffffffffffffffffff16815260200190815260200160002060008a73ffffffffffffffffffffffffffffffffffffffff1673ffffffffffffffffffffffffffffffffffffffff1681526020019081526020016000205461261d9092919063ffffffff16565b612165565b6001905092915050565b6000600b60003373ffffffffffffffffffffffffffffffffffffffff1673ffffffffffffffffffffffffffffffffffffffff16815260200190815260200160002060009054906101000a900460ff1680611be35750600b60008473ffffffffffffffffffffffffffffffffffffffff1673ffffffffffffffffffffffffffffffffffffffff16815260200190815260200160002060009054906101000a900460ff165b15611bfc57611bf333848461235c565b60019050611c80565b6000611c28620186a0611c1a600d54866126dd90919063ffffffff16565b61276390919063ffffffff16565b90506000611c3f82856127ad90919063ffffffff16565b9050611c4c33868361235c565b611c7933600c60009054906101000a900473ffffffffffffffffffffffffffffffffffffffff168461235c565b6001925050505b92915050565b83421115611cfc576040517f08c379a00000000000000000000000000000000000000000000000000000000081526004018080602001828103825260188152602001807f5065726d69743a206578706972656420646561646c696e65000000000000000081525060200191505060405180910390fd5b60007f6e71edae12b1b97f4d1f60370fef10105fa2faae0126114a169c64845d6126c960001b888888611d6c600660008e73ffffffffffffffffffffffffffffffffffffffff1673ffffffffffffffffffffffffffffffffffffffff168152602001908152602001600020612c08565b89604051602001808781526020018673ffffffffffffffffffffffffffffffffffffffff1681526020018573ffffffffffffffffffffffffffffffffffffffff1681526020018481526020018381526020018281526020019650505050505050604051602081830303815290604052805190602001209050600061190160075483604051602001808461ffff1660f01b81526002018381526020018281526020019350505050604051602081830303815290604052805190602001209050600060018287878760405160008152602001604052604051808581526020018460ff1681526020018381526020018281526020019450505050506020604051602081039080840390855afa158015611e86573d6000803e3d6000fd5b505050602060405103519050600073ffffffffffffffffffffffffffffffffffffffff168173ffffffffffffffffffffffffffffffffffffffff1614158015611efa57508973ffffffffffffffffffffffffffffffffffffffff168173ffffffffffffffffffffffffffffffffffffffff16145b611f4f576040517f08c379a0000000000000000000000000000000000000000000000000000000008152600401808060200182810382526021815260200180612da76021913960400191505060405180910390fd5b611f96600660008c73ffffffffffffffffffffffffffffffffffffffff1673ffffffffffffffffffffffffffffffffffffffff168152602001908152602001600020612c16565b611fa18a8a8a612165565b50505050505050505050565b6000600160008473ffffffffffffffffffffffffffffffffffffffff1673ffffffffffffffffffffffffffffffffffffffff16815260200190815260200160002060008373ffffffffffffffffffffffffffffffffffffffff1673ffffffffffffffffffffffffffffffffffffffff16815260200190815260200160002054905092915050565b3373ffffffffffffffffffffffffffffffffffffffff16600860009054906101000a900473ffffffffffffffffffffffffffffffffffffffff1673ffffffffffffffffffffffffffffffffffffffff16146120f7576040517f08c379a00000000000000000000000000000000000000000000000000000000081526004018080602001828103825260208152602001807f4f776e61626c653a2063616c6c6572206973206e6f7420746865206f776e657281525060200191505060405180910390fd5b80600c60006101000a81548173ffffffffffffffffffffffffffffffffffffffff021916908373ffffffffffffffffffffffffffffffffffffffff16021790555050565b6000600a60009054906101000a900473ffffffffffffffffffffffffffffffffffffffff16905090565b600073ffffffffffffffffffffffffffffffffffffffff168373ffffffffffffffffffffffffffffffffffffffff1614156121eb576040517f08c379a0000000000000000000000000000000000000000000000000000000008152600401808060200182810382526024815260200180612e9e6024913960400191505060405180910390fd5b600073ffffffffffffffffffffffffffffffffffffffff168273ffffffffffffffffffffffffffffffffffffffff161415612271576040517f08c379a0000000000000000000000000000000000000000000000000000000008152600401808060200182810382526022815260200180612d3d6022913960400191505060405180910390fd5b80600160008573ffffffffffffffffffffffffffffffffffffffff1673ffffffffffffffffffffffffffffffffffffffff16815260200190815260200160002060008473ffffffffffffffffffffffffffffffffffffffff1673ffffffffffffffffffffffffffffffffffffffff168152602001908152602001600020819055508173ffffffffffffffffffffffffffffffffffffffff168373ffffffffffffffffffffffffffffffffffffffff167f8c5be1e5ebec7d5bd14f71427d1e84f3dd0314c0f7b2291e5b200ac8c7c3b925836040518082815260200191505060405180910390a3505050565b600073ffffffffffffffffffffffffffffffffffffffff168373ffffffffffffffffffffffffffffffffffffffff1614156123e2576040517f08c379a0000000000000000000000000000000000000000000000000000000008152600401808060200182810382526025815260200180612e796025913960400191505060405180910390fd5b600073ffffffffffffffffffffffffffffffffffffffff168273ffffffffffffffffffffffffffffffffffffffff161415612468576040517f08c379a0000000000000000000000000000000000000000000000000000000008152600401808060200182810382526023815260200180612cf86023913960400191505060405180910390fd5b612473838383612c2c565b6124de81604051806060016040528060268152602001612d5f602691396000808773ffffffffffffffffffffffffffffffffffffffff1673ffffffffffffffffffffffffffffffffffffffff1681526020019081526020016000205461261d9092919063ffffffff16565b6000808573ffffffffffffffffffffffffffffffffffffffff1673ffffffffffffffffffffffffffffffffffffffff16815260200190815260200160002081905550612571816000808573ffffffffffffffffffffffffffffffffffffffff1673ffffffffffffffffffffffffffffffffffffffff168152602001908152602001600020546127f790919063ffffffff16565b6000808473ffffffffffffffffffffffffffffffffffffffff1673ffffffffffffffffffffffffffffffffffffffff168152602001908152602001600020819055508173ffffffffffffffffffffffffffffffffffffffff168373ffffffffffffffffffffffffffffffffffffffff167fddf252ad1be2c89b69c2b068fc378daa952ba7f163c4a11628f55a4df523b3ef836040518082815260200191505060405180910390a3505050565b60008383111582906126ca576040517f08c379a00000000000000000000000000000000000000000000000000000000081526004018080602001828103825283818151815260200191508051906020019080838360005b8381101561268f578082015181840152602081019050612674565b50505050905090810190601f1680156126bc5780820380516001836020036101000a031916815260200191505b509250505060405180910390fd5b5060008385039050809150509392505050565b6000808314156126f0576000905061275d565b600082840290508284828161270157fe5b0414612758576040517f08c379a0000000000000000000000000000000000000000000000000000000008152600401808060200182810382526021815260200180612dc86021913960400191505060405180910390fd5b809150505b92915050565b60006127a583836040518060400160405280601a81526020017f536166654d6174683a206469766973696f6e206279207a65726f000000000000815250612c31565b905092915050565b60006127ef83836040518060400160405280601e81526020017f536166654d6174683a207375627472616374696f6e206f766572666c6f77000081525061261d565b905092915050565b600080828401905083811015612875576040517f08c379a000000000000000000000000000000000000000000000000000000000815260040180806020018281038252601b8152602001807f536166654d6174683a206164646974696f6e206f766572666c6f77000000000081525060200191505060405180910390fd5b8091505092915050565b600073ffffffffffffffffffffffffffffffffffffffff168273ffffffffffffffffffffffffffffffffffffffff161415612922576040517f08c379a000000000000000000000000000000000000000000000000000000000815260040180806020018281038252601f8152602001807f45524332303a206d696e7420746f20746865207a65726f20616464726573730081525060200191505060405180910390fd5b61292d308383612c2c565b612942816002546127f790919063ffffffff16565b600281905550612999816000808573ffffffffffffffffffffffffffffffffffffffff1673ffffffffffffffffffffffffffffffffffffffff168152602001908152602001600020546127f790919063ffffffff16565b6000808473ffffffffffffffffffffffffffffffffffffffff1673ffffffffffffffffffffffffffffffffffffffff168152602001908152602001600020819055508173ffffffffffffffffffffffffffffffffffffffff163073ffffffffffffffffffffffffffffffffffffffff167fddf252ad1be2c89b69c2b068fc378daa952ba7f163c4a11628f55a4df523b3ef836040518082815260200191505060405180910390a35050565b600073ffffffffffffffffffffffffffffffffffffffff168273ffffffffffffffffffffffffffffffffffffffff161415612aca576040517f08c379a0000000000000000000000000000000000000000000000000000000008152600401808060200182810382526021815260200180612e586021913960400191505060405180910390fd5b612ad682600083612c2c565b612b4181604051806060016040528060228152602001612d1b602291396000808673ffffffffffffffffffffffffffffffffffffffff1673ffffffffffffffffffffffffffffffffffffffff1681526020019081526020016000205461261d9092919063ffffffff16565b6000808473ffffffffffffffffffffffffffffffffffffffff1673ffffffffffffffffffffffffffffffffffffffff16815260200190815260200160002081905550612b98816002546127ad90919063ffffffff16565b600281905550600073ffffffffffffffffffffffffffffffffffffffff168273ffffffffffffffffffffffffffffffffffffffff167fddf252ad1be2c89b69c2b068fc378daa952ba7f163c4a11628f55a4df523b3ef836040518082815260200191505060405180910390a35050565b600081600001549050919050565b6001816000016000828254019250508190555050565b505050565b60008083118290612cdd576040517f08c379a00000000000000000000000000000000000000000000000000000000081526004018080602001828103825283818151815260200191508051906020019080838360005b83811015612ca2578082015181840152602081019050612c87565b50505050905090810190601f168015612ccf5780820380516001836020036101000a031916815260200191505b509250505060405180910390fd5b506000838581612ce957fe5b04905080915050939250505056fe45524332303a207472616e7366657220746f20746865207a65726f206164647265737345524332303a206275726e20616d6f756e7420657863656564732062616c616e636545524332303a20617070726f766520746f20746865207a65726f206164647265737345524332303a207472616e7366657220616d6f756e7420657863656564732062616c616e63654f776e61626c653a206d757374206265206e6577206f776e657220746f2070756c6c5a65726f537761705065726d69743a20496e76616c6964207369676e6174757265536166654d6174683a206d756c7469706c69636174696f6e206f766572666c6f7745524332303a207472616e7366657220616d6f756e74206578636565647320616c6c6f77616e63655661756c744f776e65643a2063616c6c6572206973206e6f7420746865205661756c7445524332303a206275726e20616d6f756e74206578636565647320616c6c6f77616e636545524332303a206275726e2066726f6d20746865207a65726f206164647265737345524332303a207472616e736665722066726f6d20746865207a65726f206164647265737345524332303a20617070726f76652066726f6d20746865207a65726f206164647265737345524332303a2064656372656173656420616c6c6f77616e63652062656c6f77207a65726fa2646970667358221220f0133ce63798a0827db636a78a0cacf5ce209e32838c1cf6c4bdcf3ff3b78bd764736f6c63430007050033",
					"opcodes": "PUSH1 0x80 PUSH1 0x40 MSTORE CALLVALUE DUP1 ISZERO PUSH3 0x11 JUMPI PUSH1 0x0 DUP1 REVERT JUMPDEST POP PUSH1 0x40 MLOAD PUSH3 0x3436 CODESIZE SUB DUP1 PUSH3 0x3436 DUP4 CODECOPY DUP2 DUP2 ADD PUSH1 0x40 MSTORE PUSH1 0x40 DUP2 LT ISZERO PUSH3 0x37 JUMPI PUSH1 0x0 DUP1 REVERT JUMPDEST DUP2 ADD SWAP1 DUP1 DUP1 MLOAD PUSH1 0x40 MLOAD SWAP4 SWAP3 SWAP2 SWAP1 DUP5 PUSH5 0x100000000 DUP3 GT ISZERO PUSH3 0x58 JUMPI PUSH1 0x0 DUP1 REVERT JUMPDEST DUP4 DUP3 ADD SWAP2 POP PUSH1 0x20 DUP3 ADD DUP6 DUP2 GT ISZERO PUSH3 0x6F JUMPI PUSH1 0x0 DUP1 REVERT JUMPDEST DUP3 MLOAD DUP7 PUSH1 0x1 DUP3 MUL DUP4 ADD GT PUSH5 0x100000000 DUP3 GT OR ISZERO PUSH3 0x8D JUMPI PUSH1 0x0 DUP1 REVERT JUMPDEST DUP1 DUP4 MSTORE PUSH1 0x20 DUP4 ADD SWAP3 POP POP POP SWAP1 DUP1 MLOAD SWAP1 PUSH1 0x20 ADD SWAP1 DUP1 DUP4 DUP4 PUSH1 0x0 JUMPDEST DUP4 DUP2 LT ISZERO PUSH3 0xC3 JUMPI DUP1 DUP3 ADD MLOAD DUP2 DUP5 ADD MSTORE PUSH1 0x20 DUP2 ADD SWAP1 POP PUSH3 0xA6 JUMP JUMPDEST POP POP POP POP SWAP1 POP SWAP1 DUP2 ADD SWAP1 PUSH1 0x1F AND DUP1 ISZERO PUSH3 0xF1 JUMPI DUP1 DUP3 SUB DUP1 MLOAD PUSH1 0x1 DUP4 PUSH1 0x20 SUB PUSH2 0x100 EXP SUB NOT AND DUP2 MSTORE PUSH1 0x20 ADD SWAP2 POP JUMPDEST POP PUSH1 0x40 MSTORE PUSH1 0x20 ADD DUP1 MLOAD PUSH1 0x40 MLOAD SWAP4 SWAP3 SWAP2 SWAP1 DUP5 PUSH5 0x100000000 DUP3 GT ISZERO PUSH3 0x115 JUMPI PUSH1 0x0 DUP1 REVERT JUMPDEST DUP4 DUP3 ADD SWAP2 POP PUSH1 0x20 DUP3 ADD DUP6 DUP2 GT ISZERO PUSH3 0x12C JUMPI PUSH1 0x0 DUP1 REVERT JUMPDEST DUP3 MLOAD DUP7 PUSH1 0x1 DUP3 MUL DUP4 ADD GT PUSH5 0x100000000 DUP3 GT OR ISZERO PUSH3 0x14A JUMPI PUSH1 0x0 DUP1 REVERT JUMPDEST DUP1 DUP4 MSTORE PUSH1 0x20 DUP4 ADD SWAP3 POP POP POP SWAP1 DUP1 MLOAD SWAP1 PUSH1 0x20 ADD SWAP1 DUP1 DUP4 DUP4 PUSH1 0x0 JUMPDEST DUP4 DUP2 LT ISZERO PUSH3 0x180 JUMPI DUP1 DUP3 ADD MLOAD DUP2 DUP5 ADD MSTORE PUSH1 0x20 DUP2 ADD SWAP1 POP PUSH3 0x163 JUMP JUMPDEST POP POP POP POP SWAP1 POP SWAP1 DUP2 ADD SWAP1 PUSH1 0x1F AND DUP1 ISZERO PUSH3 0x1AE JUMPI DUP1 DUP3 SUB DUP1 MLOAD PUSH1 0x1 DUP4 PUSH1 0x20 SUB PUSH2 0x100 EXP SUB NOT AND DUP2 MSTORE PUSH1 0x20 ADD SWAP2 POP JUMPDEST POP PUSH1 0x40 MSTORE POP POP POP DUP2 DUP2 DUP2 DUP2 PUSH1 0x9 DUP3 PUSH1 0x3 SWAP1 DUP1 MLOAD SWAP1 PUSH1 0x20 ADD SWAP1 PUSH3 0x1D3 SWAP3 SWAP2 SWAP1 PUSH3 0x454 JUMP JUMPDEST POP DUP2 PUSH1 0x4 SWAP1 DUP1 MLOAD SWAP1 PUSH1 0x20 ADD SWAP1 PUSH3 0x1EC SWAP3 SWAP2 SWAP1 PUSH3 0x454 JUMP JUMPDEST POP DUP1 PUSH1 0x5 PUSH1 0x0 PUSH2 0x100 EXP DUP2 SLOAD DUP2 PUSH1 0xFF MUL NOT AND SWAP1 DUP4 PUSH1 0xFF AND MUL OR SWAP1 SSTORE POP POP POP POP PUSH1 0x0 CHAINID SWAP1 POP PUSH32 0x8B73C3C69BB8FE3D512ECC4CF759CC79239F7B179B0FFACAA9A75D522B39400F PUSH3 0x241 PUSH3 0x3AE PUSH1 0x20 SHL PUSH1 0x20 SHR JUMP JUMPDEST DUP1 MLOAD SWAP1 PUSH1 0x20 ADD KECCAK256 PUSH1 0x40 MLOAD DUP1 PUSH1 0x40 ADD PUSH1 0x40 MSTORE DUP1 PUSH1 0x1 DUP2 MSTORE PUSH1 0x20 ADD PUSH32 0x3100000000000000000000000000000000000000000000000000000000000000 DUP2 MSTORE POP DUP1 MLOAD SWAP1 PUSH1 0x20 ADD KECCAK256 DUP4 ADDRESS PUSH1 0x40 MLOAD PUSH1 0x20 ADD DUP1 DUP7 DUP2 MSTORE PUSH1 0x20 ADD DUP6 DUP2 MSTORE PUSH1 0x20 ADD DUP5 DUP2 MSTORE PUSH1 0x20 ADD DUP4 DUP2 MSTORE PUSH1 0x20 ADD DUP3 PUSH20 0xFFFFFFFFFFFFFFFFFFFFFFFFFFFFFFFFFFFFFFFF AND DUP2 MSTORE PUSH1 0x20 ADD SWAP6 POP POP POP POP POP POP PUSH1 0x40 MLOAD PUSH1 0x20 DUP2 DUP4 SUB SUB DUP2 MSTORE SWAP1 PUSH1 0x40 MSTORE DUP1 MLOAD SWAP1 PUSH1 0x20 ADD KECCAK256 PUSH1 0x7 DUP2 SWAP1 SSTORE POP POP CALLER PUSH1 0x8 PUSH1 0x0 PUSH2 0x100 EXP DUP2 SLOAD DUP2 PUSH20 0xFFFFFFFFFFFFFFFFFFFFFFFFFFFFFFFFFFFFFFFF MUL NOT AND SWAP1 DUP4 PUSH20 0xFFFFFFFFFFFFFFFFFFFFFFFFFFFFFFFFFFFFFFFF AND MUL OR SWAP1 SSTORE POP PUSH1 0x8 PUSH1 0x0 SWAP1 SLOAD SWAP1 PUSH2 0x100 EXP SWAP1 DIV PUSH20 0xFFFFFFFFFFFFFFFFFFFFFFFFFFFFFFFFFFFFFFFF AND PUSH20 0xFFFFFFFFFFFFFFFFFFFFFFFFFFFFFFFFFFFFFFFF AND PUSH1 0x0 PUSH20 0xFFFFFFFFFFFFFFFFFFFFFFFFFFFFFFFFFFFFFFFF AND PUSH32 0xEA8258F2D9DDB679928CF34B78CF645B7FEDA9ACC828E4DD82D014EAAE270EBA PUSH1 0x40 MLOAD PUSH1 0x40 MLOAD DUP1 SWAP2 SUB SWAP1 LOG3 POP POP POP POP PUSH3 0x50A JUMP JUMPDEST PUSH1 0x60 PUSH1 0x3 DUP1 SLOAD PUSH1 0x1 DUP2 PUSH1 0x1 AND ISZERO PUSH2 0x100 MUL SUB AND PUSH1 0x2 SWAP1 DIV DUP1 PUSH1 0x1F ADD PUSH1 0x20 DUP1 SWAP2 DIV MUL PUSH1 0x20 ADD PUSH1 0x40 MLOAD SWAP1 DUP2 ADD PUSH1 0x40 MSTORE DUP1 SWAP3 SWAP2 SWAP1 DUP2 DUP2 MSTORE PUSH1 0x20 ADD DUP3 DUP1 SLOAD PUSH1 0x1 DUP2 PUSH1 0x1 AND ISZERO PUSH2 0x100 MUL SUB AND PUSH1 0x2 SWAP1 DIV DUP1 ISZERO PUSH3 0x44A JUMPI DUP1 PUSH1 0x1F LT PUSH3 0x41E JUMPI PUSH2 0x100 DUP1 DUP4 SLOAD DIV MUL DUP4 MSTORE SWAP2 PUSH1 0x20 ADD SWAP2 PUSH3 0x44A JUMP JUMPDEST DUP3 ADD SWAP2 SWAP1 PUSH1 0x0 MSTORE PUSH1 0x20 PUSH1 0x0 KECCAK256 SWAP1 JUMPDEST DUP2 SLOAD DUP2 MSTORE SWAP1 PUSH1 0x1 ADD SWAP1 PUSH1 0x20 ADD DUP1 DUP4 GT PUSH3 0x42C JUMPI DUP3 SWAP1 SUB PUSH1 0x1F AND DUP3 ADD SWAP2 JUMPDEST POP POP POP POP POP SWAP1 POP SWAP1 JUMP JUMPDEST DUP3 DUP1 SLOAD PUSH1 0x1 DUP2 PUSH1 0x1 AND ISZERO PUSH2 0x100 MUL SUB AND PUSH1 0x2 SWAP1 DIV SWAP1 PUSH1 0x0 MSTORE PUSH1 0x20 PUSH1 0x0 KECCAK256 SWAP1 PUSH1 0x1F ADD PUSH1 0x20 SWAP1 DIV DUP2 ADD SWAP3 DUP3 PUSH3 0x48C JUMPI PUSH1 0x0 DUP6 SSTORE PUSH3 0x4D8 JUMP JUMPDEST DUP3 PUSH1 0x1F LT PUSH3 0x4A7 JUMPI DUP1 MLOAD PUSH1 0xFF NOT AND DUP4 DUP1 ADD OR DUP6 SSTORE PUSH3 0x4D8 JUMP JUMPDEST DUP3 DUP1 ADD PUSH1 0x1 ADD DUP6 SSTORE DUP3 ISZERO PUSH3 0x4D8 JUMPI SWAP2 DUP3 ADD JUMPDEST DUP3 DUP2 GT ISZERO PUSH3 0x4D7 JUMPI DUP3 MLOAD DUP3 SSTORE SWAP2 PUSH1 0x20 ADD SWAP2 SWAP1 PUSH1 0x1 ADD SWAP1 PUSH3 0x4BA JUMP JUMPDEST JUMPDEST POP SWAP1 POP PUSH3 0x4E7 SWAP2 SWAP1 PUSH3 0x4EB JUMP JUMPDEST POP SWAP1 JUMP JUMPDEST JUMPDEST DUP1 DUP3 GT ISZERO PUSH3 0x506 JUMPI PUSH1 0x0 DUP2 PUSH1 0x0 SWAP1 SSTORE POP PUSH1 0x1 ADD PUSH3 0x4EC JUMP JUMPDEST POP SWAP1 JUMP JUMPDEST PUSH2 0x2F1C DUP1 PUSH3 0x51A PUSH1 0x0 CODECOPY PUSH1 0x0 RETURN INVALID PUSH1 0x80 PUSH1 0x40 MSTORE CALLVALUE DUP1 ISZERO PUSH2 0x10 JUMPI PUSH1 0x0 DUP1 REVERT JUMPDEST POP PUSH1 0x4 CALLDATASIZE LT PUSH2 0x1DA JUMPI PUSH1 0x0 CALLDATALOAD PUSH1 0xE0 SHR DUP1 PUSH4 0x6817031B GT PUSH2 0x104 JUMPI DUP1 PUSH4 0x95D89B41 GT PUSH2 0xA2 JUMPI DUP1 PUSH4 0xD505ACCF GT PUSH2 0x71 JUMPI DUP1 PUSH4 0xD505ACCF EQ PUSH2 0x972 JUMPI DUP1 PUSH4 0xDD62ED3E EQ PUSH2 0xA0B JUMPI DUP1 PUSH4 0xF46901ED EQ PUSH2 0xA83 JUMPI DUP1 PUSH4 0xFBFA77CF EQ PUSH2 0xAC7 JUMPI PUSH2 0x1DA JUMP JUMPDEST DUP1 PUSH4 0x95D89B41 EQ PUSH2 0x7D9 JUMPI DUP1 PUSH4 0xA22B35CE EQ PUSH2 0x85C JUMPI DUP1 PUSH4 0xA457C2D7 EQ PUSH2 0x8AA JUMPI DUP1 PUSH4 0xA9059CBB EQ PUSH2 0x90E JUMPI PUSH2 0x1DA JUMP JUMPDEST DUP1 PUSH4 0x771A3A1D GT PUSH2 0xDE JUMPI DUP1 PUSH4 0x771A3A1D EQ PUSH2 0x6E1 JUMPI DUP1 PUSH4 0x79CC6790 EQ PUSH2 0x6FF JUMPI DUP1 PUSH4 0x7ECEBE00 EQ PUSH2 0x74D JUMPI DUP1 PUSH4 0x8DA5CB5B EQ PUSH2 0x7A5 JUMPI PUSH2 0x1DA JUMP JUMPDEST DUP1 PUSH4 0x6817031B EQ PUSH2 0x5D5 JUMPI DUP1 PUSH4 0x6F9170F6 EQ PUSH2 0x62F JUMPI DUP1 PUSH4 0x70A08231 EQ PUSH2 0x689 JUMPI PUSH2 0x1DA JUMP JUMPDEST DUP1 PUSH4 0x313CE567 GT PUSH2 0x17C JUMPI DUP1 PUSH4 0x42966C68 GT PUSH2 0x14B JUMPI DUP1 PUSH4 0x42966C68 EQ PUSH2 0x4FF JUMPI DUP1 PUSH4 0x46F68EE9 EQ PUSH2 0x52D JUMPI DUP1 PUSH4 0x5A96AC0A EQ PUSH2 0x571 JUMPI DUP1 PUSH4 0x605E5EE1 EQ PUSH2 0x57B JUMPI PUSH2 0x1DA JUMP JUMPDEST DUP1 PUSH4 0x313CE567 EQ PUSH2 0x40E JUMPI DUP1 PUSH4 0x3644E515 EQ PUSH2 0x42F JUMPI DUP1 PUSH4 0x39509351 EQ PUSH2 0x44D JUMPI DUP1 PUSH4 0x40C10F19 EQ PUSH2 0x4B1 JUMPI PUSH2 0x1DA JUMP JUMPDEST DUP1 PUSH4 0x23B872DD GT PUSH2 0x1B8 JUMPI DUP1 PUSH4 0x23B872DD EQ PUSH2 0x2E4 JUMPI DUP1 PUSH4 0x24E1BFEA EQ PUSH2 0x368 JUMPI DUP1 PUSH4 0x2E5BB6FF EQ PUSH2 0x3C2 JUMPI DUP1 PUSH4 0x30ADF81F EQ PUSH2 0x3F0 JUMPI PUSH2 0x1DA JUMP JUMPDEST DUP1 PUSH4 0x6FDDE03 EQ PUSH2 0x1DF JUMPI DUP1 PUSH4 0x95EA7B3 EQ PUSH2 0x262 JUMPI DUP1 PUSH4 0x18160DDD EQ PUSH2 0x2C6 JUMPI JUMPDEST PUSH1 0x0 DUP1 REVERT JUMPDEST PUSH2 0x1E7 PUSH2 0xAFB JUMP JUMPDEST PUSH1 0x40 MLOAD DUP1 DUP1 PUSH1 0x20 ADD DUP3 DUP2 SUB DUP3 MSTORE DUP4 DUP2 DUP2 MLOAD DUP2 MSTORE PUSH1 0x20 ADD SWAP2 POP DUP1 MLOAD SWAP1 PUSH1 0x20 ADD SWAP1 DUP1 DUP4 DUP4 PUSH1 0x0 JUMPDEST DUP4 DUP2 LT ISZERO PUSH2 0x227 JUMPI DUP1 DUP3 ADD MLOAD DUP2 DUP5 ADD MSTORE PUSH1 0x20 DUP2 ADD SWAP1 POP PUSH2 0x20C JUMP JUMPDEST POP POP POP POP SWAP1 POP SWAP1 DUP2 ADD SWAP1 PUSH1 0x1F AND DUP1 ISZERO PUSH2 0x254 JUMPI DUP1 DUP3 SUB DUP1 MLOAD PUSH1 0x1 DUP4 PUSH1 0x20 SUB PUSH2 0x100 EXP SUB NOT AND DUP2 MSTORE PUSH1 0x20 ADD SWAP2 POP JUMPDEST POP SWAP3 POP POP POP PUSH1 0x40 MLOAD DUP1 SWAP2 SUB SWAP1 RETURN JUMPDEST PUSH2 0x2AE PUSH1 0x4 DUP1 CALLDATASIZE SUB PUSH1 0x40 DUP2 LT ISZERO PUSH2 0x278 JUMPI PUSH1 0x0 DUP1 REVERT JUMPDEST DUP2 ADD SWAP1 DUP1 DUP1 CALLDATALOAD PUSH20 0xFFFFFFFFFFFFFFFFFFFFFFFFFFFFFFFFFFFFFFFF AND SWAP1 PUSH1 0x20 ADD SWAP1 SWAP3 SWAP2 SWAP1 DUP1 CALLDATALOAD SWAP1 PUSH1 0x20 ADD SWAP1 SWAP3 SWAP2 SWAP1 POP POP POP PUSH2 0xB9D JUMP JUMPDEST PUSH1 0x40 MLOAD DUP1 DUP3 ISZERO ISZERO DUP2 MSTORE PUSH1 0x20 ADD SWAP2 POP POP PUSH1 0x40 MLOAD DUP1 SWAP2 SUB SWAP1 RETURN JUMPDEST PUSH2 0x2CE PUSH2 0xBB4 JUMP JUMPDEST PUSH1 0x40 MLOAD DUP1 DUP3 DUP2 MSTORE PUSH1 0x20 ADD SWAP2 POP POP PUSH1 0x40 MLOAD DUP1 SWAP2 SUB SWAP1 RETURN JUMPDEST PUSH2 0x350 PUSH1 0x4 DUP1 CALLDATASIZE SUB PUSH1 0x60 DUP2 LT ISZERO PUSH2 0x2FA JUMPI PUSH1 0x0 DUP1 REVERT JUMPDEST DUP2 ADD SWAP1 DUP1 DUP1 CALLDATALOAD PUSH20 0xFFFFFFFFFFFFFFFFFFFFFFFFFFFFFFFFFFFFFFFF AND SWAP1 PUSH1 0x20 ADD SWAP1 SWAP3 SWAP2 SWAP1 DUP1 CALLDATALOAD PUSH20 0xFFFFFFFFFFFFFFFFFFFFFFFFFFFFFFFFFFFFFFFF AND SWAP1 PUSH1 0x20 ADD SWAP1 SWAP3 SWAP2 SWAP1 DUP1 CALLDATALOAD SWAP1 PUSH1 0x20 ADD SWAP1 SWAP3 SWAP2 SWAP1 POP POP POP PUSH2 0xBBE JUMP JUMPDEST PUSH1 0x40 MLOAD DUP1 DUP3 ISZERO ISZERO DUP2 MSTORE PUSH1 0x20 ADD SWAP2 POP POP PUSH1 0x40 MLOAD DUP1 SWAP2 SUB SWAP1 RETURN JUMPDEST PUSH2 0x3AA PUSH1 0x4 DUP1 CALLDATASIZE SUB PUSH1 0x20 DUP2 LT ISZERO PUSH2 0x37E JUMPI PUSH1 0x0 DUP1 REVERT JUMPDEST DUP2 ADD SWAP1 DUP1 DUP1 CALLDATALOAD PUSH20 0xFFFFFFFFFFFFFFFFFFFFFFFFFFFFFFFFFFFFFFFF AND SWAP1 PUSH1 0x20 ADD SWAP1 SWAP3 SWAP2 SWAP1 POP POP POP PUSH2 0xEBF JUMP JUMPDEST PUSH1 0x40 MLOAD DUP1 DUP3 ISZERO ISZERO DUP2 MSTORE PUSH1 0x20 ADD SWAP2 POP POP PUSH1 0x40 MLOAD DUP1 SWAP2 SUB SWAP1 RETURN JUMPDEST PUSH2 0x3EE PUSH1 0x4 DUP1 CALLDATASIZE SUB PUSH1 0x20 DUP2 LT ISZERO PUSH2 0x3D8 JUMPI PUSH1 0x0 DUP1 REVERT JUMPDEST DUP2 ADD SWAP1 DUP1 DUP1 CALLDATALOAD SWAP1 PUSH1 0x20 ADD SWAP1 SWAP3 SWAP2 SWAP1 POP POP POP PUSH2 0x1030 JUMP JUMPDEST STOP JUMPDEST PUSH2 0x3F8 PUSH2 0x10FD JUMP JUMPDEST PUSH1 0x40 MLOAD DUP1 DUP3 DUP2 MSTORE PUSH1 0x20 ADD SWAP2 POP POP PUSH1 0x40 MLOAD DUP1 SWAP2 SUB SWAP1 RETURN JUMPDEST PUSH2 0x416 PUSH2 0x1124 JUMP JUMPDEST PUSH1 0x40 MLOAD DUP1 DUP3 PUSH1 0xFF AND DUP2 MSTORE PUSH1 0x20 ADD SWAP2 POP POP PUSH1 0x40 MLOAD DUP1 SWAP2 SUB SWAP1 RETURN JUMPDEST PUSH2 0x437 PUSH2 0x113B JUMP JUMPDEST PUSH1 0x40 MLOAD DUP1 DUP3 DUP2 MSTORE PUSH1 0x20 ADD SWAP2 POP POP PUSH1 0x40 MLOAD DUP1 SWAP2 SUB SWAP1 RETURN JUMPDEST PUSH2 0x499 PUSH1 0x4 DUP1 CALLDATASIZE SUB PUSH1 0x40 DUP2 LT ISZERO PUSH2 0x463 JUMPI PUSH1 0x0 DUP1 REVERT JUMPDEST DUP2 ADD SWAP1 DUP1 DUP1 CALLDATALOAD PUSH20 0xFFFFFFFFFFFFFFFFFFFFFFFFFFFFFFFFFFFFFFFF AND SWAP1 PUSH1 0x20 ADD SWAP1 SWAP3 SWAP2 SWAP1 DUP1 CALLDATALOAD SWAP1 PUSH1 0x20 ADD SWAP1 SWAP3 SWAP2 SWAP1 POP POP POP PUSH2 0x1141 JUMP JUMPDEST PUSH1 0x40 MLOAD DUP1 DUP3 ISZERO ISZERO DUP2 MSTORE PUSH1 0x20 ADD SWAP2 POP POP PUSH1 0x40 MLOAD DUP1 SWAP2 SUB SWAP1 RETURN JUMPDEST PUSH2 0x4FD PUSH1 0x4 DUP1 CALLDATASIZE SUB PUSH1 0x40 DUP2 LT ISZERO PUSH2 0x4C7 JUMPI PUSH1 0x0 DUP1 REVERT JUMPDEST DUP2 ADD SWAP1 DUP1 DUP1 CALLDATALOAD PUSH20 0xFFFFFFFFFFFFFFFFFFFFFFFFFFFFFFFFFFFFFFFF AND SWAP1 PUSH1 0x20 ADD SWAP1 SWAP3 SWAP2 SWAP1 DUP1 CALLDATALOAD SWAP1 PUSH1 0x20 ADD SWAP1 SWAP3 SWAP2 SWAP1 POP POP POP PUSH2 0x11E6 JUMP JUMPDEST STOP JUMPDEST PUSH2 0x52B PUSH1 0x4 DUP1 CALLDATASIZE SUB PUSH1 0x20 DUP2 LT ISZERO PUSH2 0x515 JUMPI PUSH1 0x0 DUP1 REVERT JUMPDEST DUP2 ADD SWAP1 DUP1 DUP1 CALLDATALOAD SWAP1 PUSH1 0x20 ADD SWAP1 SWAP3 SWAP2 SWAP1 POP POP POP PUSH2 0x129A JUMP JUMPDEST STOP JUMPDEST PUSH2 0x56F PUSH1 0x4 DUP1 CALLDATASIZE SUB PUSH1 0x20 DUP2 LT ISZERO PUSH2 0x543 JUMPI PUSH1 0x0 DUP1 REVERT JUMPDEST DUP2 ADD SWAP1 DUP1 DUP1 CALLDATALOAD PUSH20 0xFFFFFFFFFFFFFFFFFFFFFFFFFFFFFFFFFFFFFFFF AND SWAP1 PUSH1 0x20 ADD SWAP1 SWAP3 SWAP2 SWAP1 POP POP POP PUSH2 0x12A7 JUMP JUMPDEST STOP JUMPDEST PUSH2 0x579 PUSH2 0x142A JUMP JUMPDEST STOP JUMPDEST PUSH2 0x5BD PUSH1 0x4 DUP1 CALLDATASIZE SUB PUSH1 0x20 DUP2 LT ISZERO PUSH2 0x591 JUMPI PUSH1 0x0 DUP1 REVERT JUMPDEST DUP2 ADD SWAP1 DUP1 DUP1 CALLDATALOAD PUSH20 0xFFFFFFFFFFFFFFFFFFFFFFFFFFFFFFFFFFFFFFFF AND SWAP1 PUSH1 0x20 ADD SWAP1 SWAP3 SWAP2 SWAP1 POP POP POP PUSH2 0x1615 JUMP JUMPDEST PUSH1 0x40 MLOAD DUP1 DUP3 ISZERO ISZERO DUP2 MSTORE PUSH1 0x20 ADD SWAP2 POP POP PUSH1 0x40 MLOAD DUP1 SWAP2 SUB SWAP1 RETURN JUMPDEST PUSH2 0x617 PUSH1 0x4 DUP1 CALLDATASIZE SUB PUSH1 0x20 DUP2 LT ISZERO PUSH2 0x5EB JUMPI PUSH1 0x0 DUP1 REVERT JUMPDEST DUP2 ADD SWAP1 DUP1 DUP1 CALLDATALOAD PUSH20 0xFFFFFFFFFFFFFFFFFFFFFFFFFFFFFFFFFFFFFFFF AND SWAP1 PUSH1 0x20 ADD SWAP1 SWAP3 SWAP2 SWAP1 POP POP POP PUSH2 0x1786 JUMP JUMPDEST PUSH1 0x40 MLOAD DUP1 DUP3 ISZERO ISZERO DUP2 MSTORE PUSH1 0x20 ADD SWAP2 POP POP PUSH1 0x40 MLOAD DUP1 SWAP2 SUB SWAP1 RETURN JUMPDEST PUSH2 0x671 PUSH1 0x4 DUP1 CALLDATASIZE SUB PUSH1 0x20 DUP2 LT ISZERO PUSH2 0x645 JUMPI PUSH1 0x0 DUP1 REVERT JUMPDEST DUP2 ADD SWAP1 DUP1 DUP1 CALLDATALOAD PUSH20 0xFFFFFFFFFFFFFFFFFFFFFFFFFFFFFFFFFFFFFFFF AND SWAP1 PUSH1 0x20 ADD SWAP1 SWAP3 SWAP2 SWAP1 POP POP POP PUSH2 0x1895 JUMP JUMPDEST PUSH1 0x40 MLOAD DUP1 DUP3 ISZERO ISZERO DUP2 MSTORE PUSH1 0x20 ADD SWAP2 POP POP PUSH1 0x40 MLOAD DUP1 SWAP2 SUB SWAP1 RETURN JUMPDEST PUSH2 0x6CB PUSH1 0x4 DUP1 CALLDATASIZE SUB PUSH1 0x20 DUP2 LT ISZERO PUSH2 0x69F JUMPI PUSH1 0x0 DUP1 REVERT JUMPDEST DUP2 ADD SWAP1 DUP1 DUP1 CALLDATALOAD PUSH20 0xFFFFFFFFFFFFFFFFFFFFFFFFFFFFFFFFFFFFFFFF AND SWAP1 PUSH1 0x20 ADD SWAP1 SWAP3 SWAP2 SWAP1 POP POP POP PUSH2 0x18B5 JUMP JUMPDEST PUSH1 0x40 MLOAD DUP1 DUP3 DUP2 MSTORE PUSH1 0x20 ADD SWAP2 POP POP PUSH1 0x40 MLOAD DUP1 SWAP2 SUB SWAP1 RETURN JUMPDEST PUSH2 0x6E9 PUSH2 0x18FD JUMP JUMPDEST PUSH1 0x40 MLOAD DUP1 DUP3 DUP2 MSTORE PUSH1 0x20 ADD SWAP2 POP POP PUSH1 0x40 MLOAD DUP1 SWAP2 SUB SWAP1 RETURN JUMPDEST PUSH2 0x74B PUSH1 0x4 DUP1 CALLDATASIZE SUB PUSH1 0x40 DUP2 LT ISZERO PUSH2 0x715 JUMPI PUSH1 0x0 DUP1 REVERT JUMPDEST DUP2 ADD SWAP1 DUP1 DUP1 CALLDATALOAD PUSH20 0xFFFFFFFFFFFFFFFFFFFFFFFFFFFFFFFFFFFFFFFF AND SWAP1 PUSH1 0x20 ADD SWAP1 SWAP3 SWAP2 SWAP1 DUP1 CALLDATALOAD SWAP1 PUSH1 0x20 ADD SWAP1 SWAP3 SWAP2 SWAP1 POP POP POP PUSH2 0x1903 JUMP JUMPDEST STOP JUMPDEST PUSH2 0x78F PUSH1 0x4 DUP1 CALLDATASIZE SUB PUSH1 0x20 DUP2 LT ISZERO PUSH2 0x763 JUMPI PUSH1 0x0 DUP1 REVERT JUMPDEST DUP2 ADD SWAP1 DUP1 DUP1 CALLDATALOAD PUSH20 0xFFFFFFFFFFFFFFFFFFFFFFFFFFFFFFFFFFFFFFFF AND SWAP1 PUSH1 0x20 ADD SWAP1 SWAP3 SWAP2 SWAP1 POP POP POP PUSH2 0x1911 JUMP JUMPDEST PUSH1 0x40 MLOAD DUP1 DUP3 DUP2 MSTORE PUSH1 0x20 ADD SWAP2 POP POP PUSH1 0x40 MLOAD DUP1 SWAP2 SUB SWAP1 RETURN JUMPDEST PUSH2 0x7AD PUSH2 0x1961 JUMP JUMPDEST PUSH1 0x40 MLOAD DUP1 DUP3 PUSH20 0xFFFFFFFFFFFFFFFFFFFFFFFFFFFFFFFFFFFFFFFF AND DUP2 MSTORE PUSH1 0x20 ADD SWAP2 POP POP PUSH1 0x40 MLOAD DUP1 SWAP2 SUB SWAP1 RETURN JUMPDEST PUSH2 0x7E1 PUSH2 0x198B JUMP JUMPDEST PUSH1 0x40 MLOAD DUP1 DUP1 PUSH1 0x20 ADD DUP3 DUP2 SUB DUP3 MSTORE DUP4 DUP2 DUP2 MLOAD DUP2 MSTORE PUSH1 0x20 ADD SWAP2 POP DUP1 MLOAD SWAP1 PUSH1 0x20 ADD SWAP1 DUP1 DUP4 DUP4 PUSH1 0x0 JUMPDEST DUP4 DUP2 LT ISZERO PUSH2 0x821 JUMPI DUP1 DUP3 ADD MLOAD DUP2 DUP5 ADD MSTORE PUSH1 0x20 DUP2 ADD SWAP1 POP PUSH2 0x806 JUMP JUMPDEST POP POP POP POP SWAP1 POP SWAP1 DUP2 ADD SWAP1 PUSH1 0x1F AND DUP1 ISZERO PUSH2 0x84E JUMPI DUP1 DUP3 SUB DUP1 MLOAD PUSH1 0x1 DUP4 PUSH1 0x20 SUB PUSH2 0x100 EXP SUB NOT AND DUP2 MSTORE PUSH1 0x20 ADD SWAP2 POP JUMPDEST POP SWAP3 POP POP POP PUSH1 0x40 MLOAD DUP1 SWAP2 SUB SWAP1 RETURN JUMPDEST PUSH2 0x8A8 PUSH1 0x4 DUP1 CALLDATASIZE SUB PUSH1 0x40 DUP2 LT ISZERO PUSH2 0x872 JUMPI PUSH1 0x0 DUP1 REVERT JUMPDEST DUP2 ADD SWAP1 DUP1 DUP1 CALLDATALOAD PUSH20 0xFFFFFFFFFFFFFFFFFFFFFFFFFFFFFFFFFFFFFFFF AND SWAP1 PUSH1 0x20 ADD SWAP1 SWAP3 SWAP2 SWAP1 DUP1 CALLDATALOAD SWAP1 PUSH1 0x20 ADD SWAP1 SWAP3 SWAP2 SWAP1 POP POP POP PUSH2 0x1A2D JUMP JUMPDEST STOP JUMPDEST PUSH2 0x8F6 PUSH1 0x4 DUP1 CALLDATASIZE SUB PUSH1 0x40 DUP2 LT ISZERO PUSH2 0x8C0 JUMPI PUSH1 0x0 DUP1 REVERT JUMPDEST DUP2 ADD SWAP1 DUP1 DUP1 CALLDATALOAD PUSH20 0xFFFFFFFFFFFFFFFFFFFFFFFFFFFFFFFFFFFFFFFF AND SWAP1 PUSH1 0x20 ADD SWAP1 SWAP3 SWAP2 SWAP1 DUP1 CALLDATALOAD SWAP1 PUSH1 0x20 ADD SWAP1 SWAP3 SWAP2 SWAP1 POP POP POP PUSH2 0x1A81 JUMP JUMPDEST PUSH1 0x40 MLOAD DUP1 DUP3 ISZERO ISZERO DUP2 MSTORE PUSH1 0x20 ADD SWAP2 POP POP PUSH1 0x40 MLOAD DUP1 SWAP2 SUB SWAP1 RETURN JUMPDEST PUSH2 0x95A PUSH1 0x4 DUP1 CALLDATASIZE SUB PUSH1 0x40 DUP2 LT ISZERO PUSH2 0x924 JUMPI PUSH1 0x0 DUP1 REVERT JUMPDEST DUP2 ADD SWAP1 DUP1 DUP1 CALLDATALOAD PUSH20 0xFFFFFFFFFFFFFFFFFFFFFFFFFFFFFFFFFFFFFFFF AND SWAP1 PUSH1 0x20 ADD SWAP1 SWAP3 SWAP2 SWAP1 DUP1 CALLDATALOAD SWAP1 PUSH1 0x20 ADD SWAP1 SWAP3 SWAP2 SWAP1 POP POP POP PUSH2 0x1B40 JUMP JUMPDEST PUSH1 0x40 MLOAD DUP1 DUP3 ISZERO ISZERO DUP2 MSTORE PUSH1 0x20 ADD SWAP2 POP POP PUSH1 0x40 MLOAD DUP1 SWAP2 SUB SWAP1 RETURN JUMPDEST PUSH2 0xA09 PUSH1 0x4 DUP1 CALLDATASIZE SUB PUSH1 0xE0 DUP2 LT ISZERO PUSH2 0x988 JUMPI PUSH1 0x0 DUP1 REVERT JUMPDEST DUP2 ADD SWAP1 DUP1 DUP1 CALLDATALOAD PUSH20 0xFFFFFFFFFFFFFFFFFFFFFFFFFFFFFFFFFFFFFFFF AND SWAP1 PUSH1 0x20 ADD SWAP1 SWAP3 SWAP2 SWAP1 DUP1 CALLDATALOAD PUSH20 0xFFFFFFFFFFFFFFFFFFFFFFFFFFFFFFFFFFFFFFFF AND SWAP1 PUSH1 0x20 ADD SWAP1 SWAP3 SWAP2 SWAP1 DUP1 CALLDATALOAD SWAP1 PUSH1 0x20 ADD SWAP1 SWAP3 SWAP2 SWAP1 DUP1 CALLDATALOAD SWAP1 PUSH1 0x20 ADD SWAP1 SWAP3 SWAP2 SWAP1 DUP1 CALLDATALOAD PUSH1 0xFF AND SWAP1 PUSH1 0x20 ADD SWAP1 SWAP3 SWAP2 SWAP1 DUP1 CALLDATALOAD SWAP1 PUSH1 0x20 ADD SWAP1 SWAP3 SWAP2 SWAP1 DUP1 CALLDATALOAD SWAP1 PUSH1 0x20 ADD SWAP1 SWAP3 SWAP2 SWAP1 POP POP POP PUSH2 0x1C86 JUMP JUMPDEST STOP JUMPDEST PUSH2 0xA6D PUSH1 0x4 DUP1 CALLDATASIZE SUB PUSH1 0x40 DUP2 LT ISZERO PUSH2 0xA21 JUMPI PUSH1 0x0 DUP1 REVERT JUMPDEST DUP2 ADD SWAP1 DUP1 DUP1 CALLDATALOAD PUSH20 0xFFFFFFFFFFFFFFFFFFFFFFFFFFFFFFFFFFFFFFFF AND SWAP1 PUSH1 0x20 ADD SWAP1 SWAP3 SWAP2 SWAP1 DUP1 CALLDATALOAD PUSH20 0xFFFFFFFFFFFFFFFFFFFFFFFFFFFFFFFFFFFFFFFF AND SWAP1 PUSH1 0x20 ADD SWAP1 SWAP3 SWAP2 SWAP1 POP POP POP PUSH2 0x1FAD JUMP JUMPDEST PUSH1 0x40 MLOAD DUP1 DUP3 DUP2 MSTORE PUSH1 0x20 ADD SWAP2 POP POP PUSH1 0x40 MLOAD DUP1 SWAP2 SUB SWAP1 RETURN JUMPDEST PUSH2 0xAC5 PUSH1 0x4 DUP1 CALLDATASIZE SUB PUSH1 0x20 DUP2 LT ISZERO PUSH2 0xA99 JUMPI PUSH1 0x0 DUP1 REVERT JUMPDEST DUP2 ADD SWAP1 DUP1 DUP1 CALLDATALOAD PUSH20 0xFFFFFFFFFFFFFFFFFFFFFFFFFFFFFFFFFFFFFFFF AND SWAP1 PUSH1 0x20 ADD SWAP1 SWAP3 SWAP2 SWAP1 POP POP POP PUSH2 0x2034 JUMP JUMPDEST STOP JUMPDEST PUSH2 0xACF PUSH2 0x213B JUMP JUMPDEST PUSH1 0x40 MLOAD DUP1 DUP3 PUSH20 0xFFFFFFFFFFFFFFFFFFFFFFFFFFFFFFFFFFFFFFFF AND DUP2 MSTORE PUSH1 0x20 ADD SWAP2 POP POP PUSH1 0x40 MLOAD DUP1 SWAP2 SUB SWAP1 RETURN JUMPDEST PUSH1 0x60 PUSH1 0x3 DUP1 SLOAD PUSH1 0x1 DUP2 PUSH1 0x1 AND ISZERO PUSH2 0x100 MUL SUB AND PUSH1 0x2 SWAP1 DIV DUP1 PUSH1 0x1F ADD PUSH1 0x20 DUP1 SWAP2 DIV MUL PUSH1 0x20 ADD PUSH1 0x40 MLOAD SWAP1 DUP2 ADD PUSH1 0x40 MSTORE DUP1 SWAP3 SWAP2 SWAP1 DUP2 DUP2 MSTORE PUSH1 0x20 ADD DUP3 DUP1 SLOAD PUSH1 0x1 DUP2 PUSH1 0x1 AND ISZERO PUSH2 0x100 MUL SUB AND PUSH1 0x2 SWAP1 DIV DUP1 ISZERO PUSH2 0xB93 JUMPI DUP1 PUSH1 0x1F LT PUSH2 0xB68 JUMPI PUSH2 0x100 DUP1 DUP4 SLOAD DIV MUL DUP4 MSTORE SWAP2 PUSH1 0x20 ADD SWAP2 PUSH2 0xB93 JUMP JUMPDEST DUP3 ADD SWAP2 SWAP1 PUSH1 0x0 MSTORE PUSH1 0x20 PUSH1 0x0 KECCAK256 SWAP1 JUMPDEST DUP2 SLOAD DUP2 MSTORE SWAP1 PUSH1 0x1 ADD SWAP1 PUSH1 0x20 ADD DUP1 DUP4 GT PUSH2 0xB76 JUMPI DUP3 SWAP1 SUB PUSH1 0x1F AND DUP3 ADD SWAP2 JUMPDEST POP POP POP POP POP SWAP1 POP SWAP1 JUMP JUMPDEST PUSH1 0x0 PUSH2 0xBAA CALLER DUP5 DUP5 PUSH2 0x2165 JUMP JUMPDEST PUSH1 0x1 SWAP1 POP SWAP3 SWAP2 POP POP JUMP JUMPDEST PUSH1 0x0 PUSH1 0x2 SLOAD SWAP1 POP SWAP1 JUMP JUMPDEST PUSH1 0x0 PUSH1 0xB PUSH1 0x0 CALLER PUSH20 0xFFFFFFFFFFFFFFFFFFFFFFFFFFFFFFFFFFFFFFFF AND PUSH20 0xFFFFFFFFFFFFFFFFFFFFFFFFFFFFFFFFFFFFFFFF AND DUP2 MSTORE PUSH1 0x20 ADD SWAP1 DUP2 MSTORE PUSH1 0x20 ADD PUSH1 0x0 KECCAK256 PUSH1 0x0 SWAP1 SLOAD SWAP1 PUSH2 0x100 EXP SWAP1 DIV PUSH1 0xFF AND DUP1 PUSH2 0xC61 JUMPI POP PUSH1 0xB PUSH1 0x0 DUP5 PUSH20 0xFFFFFFFFFFFFFFFFFFFFFFFFFFFFFFFFFFFFFFFF AND PUSH20 0xFFFFFFFFFFFFFFFFFFFFFFFFFFFFFFFFFFFFFFFF AND DUP2 MSTORE PUSH1 0x20 ADD SWAP1 DUP2 MSTORE PUSH1 0x20 ADD PUSH1 0x0 KECCAK256 PUSH1 0x0 SWAP1 SLOAD SWAP1 PUSH2 0x100 EXP SWAP1 DIV PUSH1 0xFF AND JUMPDEST DUP1 PUSH2 0xCB5 JUMPI POP PUSH1 0xB PUSH1 0x0 DUP6 PUSH20 0xFFFFFFFFFFFFFFFFFFFFFFFFFFFFFFFFFFFFFFFF AND PUSH20 0xFFFFFFFFFFFFFFFFFFFFFFFFFFFFFFFFFFFFFFFF AND DUP2 MSTORE PUSH1 0x20 ADD SWAP1 DUP2 MSTORE PUSH1 0x20 ADD PUSH1 0x0 KECCAK256 PUSH1 0x0 SWAP1 SLOAD SWAP1 PUSH2 0x100 EXP SWAP1 DIV PUSH1 0xFF AND JUMPDEST ISZERO PUSH2 0xD81 JUMPI PUSH2 0xCC5 DUP5 DUP5 DUP5 PUSH2 0x235C JUMP JUMPDEST PUSH2 0xD78 DUP5 CALLER PUSH2 0xD73 DUP6 PUSH1 0x40 MLOAD DUP1 PUSH1 0x60 ADD PUSH1 0x40 MSTORE DUP1 PUSH1 0x28 DUP2 MSTORE PUSH1 0x20 ADD PUSH2 0x2DE9 PUSH1 0x28 SWAP2 CODECOPY PUSH1 0x1 PUSH1 0x0 DUP12 PUSH20 0xFFFFFFFFFFFFFFFFFFFFFFFFFFFFFFFFFFFFFFFF AND PUSH20 0xFFFFFFFFFFFFFFFFFFFFFFFFFFFFFFFFFFFFFFFF AND DUP2 MSTORE PUSH1 0x20 ADD SWAP1 DUP2 MSTORE PUSH1 0x20 ADD PUSH1 0x0 KECCAK256 PUSH1 0x0 CALLER PUSH20 0xFFFFFFFFFFFFFFFFFFFFFFFFFFFFFFFFFFFFFFFF AND PUSH20 0xFFFFFFFFFFFFFFFFFFFFFFFFFFFFFFFFFFFFFFFF AND DUP2 MSTORE PUSH1 0x20 ADD SWAP1 DUP2 MSTORE PUSH1 0x20 ADD PUSH1 0x0 KECCAK256 SLOAD PUSH2 0x261D SWAP1 SWAP3 SWAP2 SWAP1 PUSH4 0xFFFFFFFF AND JUMP JUMPDEST PUSH2 0x2165 JUMP JUMPDEST PUSH1 0x1 SWAP1 POP PUSH2 0xEB8 JUMP JUMPDEST PUSH1 0x0 PUSH2 0xDAD PUSH3 0x186A0 PUSH2 0xD9F PUSH1 0xD SLOAD DUP7 PUSH2 0x26DD SWAP1 SWAP2 SWAP1 PUSH4 0xFFFFFFFF AND JUMP JUMPDEST PUSH2 0x2763 SWAP1 SWAP2 SWAP1 PUSH4 0xFFFFFFFF AND JUMP JUMPDEST SWAP1 POP PUSH1 0x0 PUSH2 0xDC4 DUP3 DUP6 PUSH2 0x27AD SWAP1 SWAP2 SWAP1 PUSH4 0xFFFFFFFF AND JUMP JUMPDEST SWAP1 POP PUSH2 0xDD1 DUP7 DUP7 DUP4 PUSH2 0x235C JUMP JUMPDEST PUSH2 0xDFE DUP7 PUSH1 0xC PUSH1 0x0 SWAP1 SLOAD SWAP1 PUSH2 0x100 EXP SWAP1 DIV PUSH20 0xFFFFFFFFFFFFFFFFFFFFFFFFFFFFFFFFFFFFFFFF AND DUP5 PUSH2 0x235C JUMP JUMPDEST PUSH2 0xEB1 DUP7 CALLER PUSH2 0xEAC DUP8 PUSH1 0x40 MLOAD DUP1 PUSH1 0x60 ADD PUSH1 0x40 MSTORE DUP1 PUSH1 0x28 DUP2 MSTORE PUSH1 0x20 ADD PUSH2 0x2DE9 PUSH1 0x28 SWAP2 CODECOPY PUSH1 0x1 PUSH1 0x0 DUP14 PUSH20 0xFFFFFFFFFFFFFFFFFFFFFFFFFFFFFFFFFFFFFFFF AND PUSH20 0xFFFFFFFFFFFFFFFFFFFFFFFFFFFFFFFFFFFFFFFF AND DUP2 MSTORE PUSH1 0x20 ADD SWAP1 DUP2 MSTORE PUSH1 0x20 ADD PUSH1 0x0 KECCAK256 PUSH1 0x0 CALLER PUSH20 0xFFFFFFFFFFFFFFFFFFFFFFFFFFFFFFFFFFFFFFFF AND PUSH20 0xFFFFFFFFFFFFFFFFFFFFFFFFFFFFFFFFFFFFFFFF AND DUP2 MSTORE PUSH1 0x20 ADD SWAP1 DUP2 MSTORE PUSH1 0x20 ADD PUSH1 0x0 KECCAK256 SLOAD PUSH2 0x261D SWAP1 SWAP3 SWAP2 SWAP1 PUSH4 0xFFFFFFFF AND JUMP JUMPDEST PUSH2 0x2165 JUMP JUMPDEST PUSH1 0x1 SWAP3 POP POP POP JUMPDEST SWAP4 SWAP3 POP POP POP JUMP JUMPDEST PUSH1 0x0 CALLER PUSH20 0xFFFFFFFFFFFFFFFFFFFFFFFFFFFFFFFFFFFFFFFF AND PUSH1 0x8 PUSH1 0x0 SWAP1 SLOAD SWAP1 PUSH2 0x100 EXP SWAP1 DIV PUSH20 0xFFFFFFFFFFFFFFFFFFFFFFFFFFFFFFFFFFFFFFFF AND PUSH20 0xFFFFFFFFFFFFFFFFFFFFFFFFFFFFFFFFFFFFFFFF AND EQ PUSH2 0xF84 JUMPI PUSH1 0x40 MLOAD PUSH32 0x8C379A000000000000000000000000000000000000000000000000000000000 DUP2 MSTORE PUSH1 0x4 ADD DUP1 DUP1 PUSH1 0x20 ADD DUP3 DUP2 SUB DUP3 MSTORE PUSH1 0x20 DUP2 MSTORE PUSH1 0x20 ADD DUP1 PUSH32 0x4F776E61626C653A2063616C6C6572206973206E6F7420746865206F776E6572 DUP2 MSTORE POP PUSH1 0x20 ADD SWAP2 POP POP PUSH1 0x40 MLOAD DUP1 SWAP2 SUB SWAP1 REVERT JUMPDEST PUSH1 0x1 PUSH1 0xB PUSH1 0x0 DUP5 PUSH20 0xFFFFFFFFFFFFFFFFFFFFFFFFFFFFFFFFFFFFFFFF AND PUSH20 0xFFFFFFFFFFFFFFFFFFFFFFFFFFFFFFFFFFFFFFFF AND DUP2 MSTORE PUSH1 0x20 ADD SWAP1 DUP2 MSTORE PUSH1 0x20 ADD PUSH1 0x0 KECCAK256 PUSH1 0x0 PUSH2 0x100 EXP DUP2 SLOAD DUP2 PUSH1 0xFF MUL NOT AND SWAP1 DUP4 ISZERO ISZERO MUL OR SWAP1 SSTORE POP PUSH1 0xB PUSH1 0x0 DUP4 PUSH20 0xFFFFFFFFFFFFFFFFFFFFFFFFFFFFFFFFFFFFFFFF AND PUSH20 0xFFFFFFFFFFFFFFFFFFFFFFFFFFFFFFFFFFFFFFFF AND DUP2 MSTORE PUSH1 0x20 ADD SWAP1 DUP2 MSTORE PUSH1 0x20 ADD PUSH1 0x0 KECCAK256 PUSH1 0x0 SWAP1 SLOAD SWAP1 PUSH2 0x100 EXP SWAP1 DIV PUSH1 0xFF AND SWAP1 POP SWAP2 SWAP1 POP JUMP JUMPDEST CALLER PUSH20 0xFFFFFFFFFFFFFFFFFFFFFFFFFFFFFFFFFFFFFFFF AND PUSH1 0x8 PUSH1 0x0 SWAP1 SLOAD SWAP1 PUSH2 0x100 EXP SWAP1 DIV PUSH20 0xFFFFFFFFFFFFFFFFFFFFFFFFFFFFFFFFFFFFFFFF AND PUSH20 0xFFFFFFFFFFFFFFFFFFFFFFFFFFFFFFFFFFFFFFFF AND EQ PUSH2 0x10F3 JUMPI PUSH1 0x40 MLOAD PUSH32 0x8C379A000000000000000000000000000000000000000000000000000000000 DUP2 MSTORE PUSH1 0x4 ADD DUP1 DUP1 PUSH1 0x20 ADD DUP3 DUP2 SUB DUP3 MSTORE PUSH1 0x20 DUP2 MSTORE PUSH1 0x20 ADD DUP1 PUSH32 0x4F776E61626C653A2063616C6C6572206973206E6F7420746865206F776E6572 DUP2 MSTORE POP PUSH1 0x20 ADD SWAP2 POP POP PUSH1 0x40 MLOAD DUP1 SWAP2 SUB SWAP1 REVERT JUMPDEST DUP1 PUSH1 0xD DUP2 SWAP1 SSTORE POP POP JUMP JUMPDEST PUSH32 0x6E71EDAE12B1B97F4D1F60370FEF10105FA2FAAE0126114A169C64845D6126C9 PUSH1 0x0 SHL DUP2 JUMP JUMPDEST PUSH1 0x0 PUSH1 0x5 PUSH1 0x0 SWAP1 SLOAD SWAP1 PUSH2 0x100 EXP SWAP1 DIV PUSH1 0xFF AND SWAP1 POP SWAP1 JUMP JUMPDEST PUSH1 0x7 SLOAD DUP2 JUMP JUMPDEST PUSH1 0x0 PUSH2 0x11DC CALLER DUP5 PUSH2 0x11D7 DUP6 PUSH1 0x1 PUSH1 0x0 CALLER PUSH20 0xFFFFFFFFFFFFFFFFFFFFFFFFFFFFFFFFFFFFFFFF AND PUSH20 0xFFFFFFFFFFFFFFFFFFFFFFFFFFFFFFFFFFFFFFFF AND DUP2 MSTORE PUSH1 0x20 ADD SWAP1 DUP2 MSTORE PUSH1 0x20 ADD PUSH1 0x0 KECCAK256 PUSH1 0x0 DUP10 PUSH20 0xFFFFFFFFFFFFFFFFFFFFFFFFFFFFFFFFFFFFFFFF AND PUSH20 0xFFFFFFFFFFFFFFFFFFFFFFFFFFFFFFFFFFFFFFFF AND DUP2 MSTORE PUSH1 0x20 ADD SWAP1 DUP2 MSTORE PUSH1 0x20 ADD PUSH1 0x0 KECCAK256 SLOAD PUSH2 0x27F7 SWAP1 SWAP2 SWAP1 PUSH4 0xFFFFFFFF AND JUMP JUMPDEST PUSH2 0x2165 JUMP JUMPDEST PUSH1 0x1 SWAP1 POP SWAP3 SWAP2 POP POP JUMP JUMPDEST CALLER PUSH20 0xFFFFFFFFFFFFFFFFFFFFFFFFFFFFFFFFFFFFFFFF AND PUSH1 0xA PUSH1 0x0 SWAP1 SLOAD SWAP1 PUSH2 0x100 EXP SWAP1 DIV PUSH20 0xFFFFFFFFFFFFFFFFFFFFFFFFFFFFFFFFFFFFFFFF AND PUSH20 0xFFFFFFFFFFFFFFFFFFFFFFFFFFFFFFFFFFFFFFFF AND EQ PUSH2 0x128C JUMPI PUSH1 0x40 MLOAD PUSH32 0x8C379A000000000000000000000000000000000000000000000000000000000 DUP2 MSTORE PUSH1 0x4 ADD DUP1 DUP1 PUSH1 0x20 ADD DUP3 DUP2 SUB DUP3 MSTORE PUSH1 0x23 DUP2 MSTORE PUSH1 0x20 ADD DUP1 PUSH2 0x2E11 PUSH1 0x23 SWAP2 CODECOPY PUSH1 0x40 ADD SWAP2 POP POP PUSH1 0x40 MLOAD DUP1 SWAP2 SUB SWAP1 REVERT JUMPDEST PUSH2 0x1296 DUP3 DUP3 PUSH2 0x287F JUMP JUMPDEST POP POP JUMP JUMPDEST PUSH2 0x12A4 CALLER DUP3 PUSH2 0x2A44 JUMP JUMPDEST POP JUMP JUMPDEST CALLER PUSH20 0xFFFFFFFFFFFFFFFFFFFFFFFFFFFFFFFFFFFFFFFF AND PUSH1 0x8 PUSH1 0x0 SWAP1 SLOAD SWAP1 PUSH2 0x100 EXP SWAP1 DIV PUSH20 0xFFFFFFFFFFFFFFFFFFFFFFFFFFFFFFFFFFFFFFFF AND PUSH20 0xFFFFFFFFFFFFFFFFFFFFFFFFFFFFFFFFFFFFFFFF AND EQ PUSH2 0x136A JUMPI PUSH1 0x40 MLOAD PUSH32 0x8C379A000000000000000000000000000000000000000000000000000000000 DUP2 MSTORE PUSH1 0x4 ADD DUP1 DUP1 PUSH1 0x20 ADD DUP3 DUP2 SUB DUP3 MSTORE PUSH1 0x20 DUP2 MSTORE PUSH1 0x20 ADD DUP1 PUSH32 0x4F776E61626C653A2063616C6C6572206973206E6F7420746865206F776E6572 DUP2 MSTORE POP PUSH1 0x20 ADD SWAP2 POP POP PUSH1 0x40 MLOAD DUP1 SWAP2 SUB SWAP1 REVERT JUMPDEST DUP1 PUSH20 0xFFFFFFFFFFFFFFFFFFFFFFFFFFFFFFFFFFFFFFFF AND PUSH1 0x8 PUSH1 0x0 SWAP1 SLOAD SWAP1 PUSH2 0x100 EXP SWAP1 DIV PUSH20 0xFFFFFFFFFFFFFFFFFFFFFFFFFFFFFFFFFFFFFFFF AND PUSH20 0xFFFFFFFFFFFFFFFFFFFFFFFFFFFFFFFFFFFFFFFF AND PUSH32 0xEA8258F2D9DDB679928CF34B78CF645B7FEDA9ACC828E4DD82D014EAAE270EBA PUSH1 0x40 MLOAD PUSH1 0x40 MLOAD DUP1 SWAP2 SUB SWAP1 LOG3 DUP1 PUSH1 0x9 PUSH1 0x0 PUSH2 0x100 EXP DUP2 SLOAD DUP2 PUSH20 0xFFFFFFFFFFFFFFFFFFFFFFFFFFFFFFFFFFFFFFFF MUL NOT AND SWAP1 DUP4 PUSH20 0xFFFFFFFFFFFFFFFFFFFFFFFFFFFFFFFFFFFFFFFF AND MUL OR SWAP1 SSTORE POP POP JUMP JUMPDEST PUSH1 0x9 PUSH1 0x0 SWAP1 SLOAD SWAP1 PUSH2 0x100 EXP SWAP1 DIV PUSH20 0xFFFFFFFFFFFFFFFFFFFFFFFFFFFFFFFFFFFFFFFF AND PUSH20 0xFFFFFFFFFFFFFFFFFFFFFFFFFFFFFFFFFFFFFFFF AND CALLER PUSH20 0xFFFFFFFFFFFFFFFFFFFFFFFFFFFFFFFFFFFFFFFF AND EQ PUSH2 0x14D0 JUMPI PUSH1 0x40 MLOAD PUSH32 0x8C379A000000000000000000000000000000000000000000000000000000000 DUP2 MSTORE PUSH1 0x4 ADD DUP1 DUP1 PUSH1 0x20 ADD DUP3 DUP2 SUB DUP3 MSTORE PUSH1 0x22 DUP2 MSTORE PUSH1 0x20 ADD DUP1 PUSH2 0x2D85 PUSH1 0x22 SWAP2 CODECOPY PUSH1 0x40 ADD SWAP2 POP POP PUSH1 0x40 MLOAD DUP1 SWAP2 SUB SWAP1 REVERT JUMPDEST PUSH1 0x9 PUSH1 0x0 SWAP1 SLOAD SWAP1 PUSH2 0x100 EXP SWAP1 DIV PUSH20 0xFFFFFFFFFFFFFFFFFFFFFFFFFFFFFFFFFFFFFFFF AND PUSH20 0xFFFFFFFFFFFFFFFFFFFFFFFFFFFFFFFFFFFFFFFF AND PUSH1 0x8 PUSH1 0x0 SWAP1 SLOAD SWAP1 PUSH2 0x100 EXP SWAP1 DIV PUSH20 0xFFFFFFFFFFFFFFFFFFFFFFFFFFFFFFFFFFFFFFFF AND PUSH20 0xFFFFFFFFFFFFFFFFFFFFFFFFFFFFFFFFFFFFFFFF AND PUSH32 0xAA151555690C956FC3EA32F106BB9F119B5237A061EAA8557CFF3E51E3792C8D PUSH1 0x40 MLOAD PUSH1 0x40 MLOAD DUP1 SWAP2 SUB SWAP1 LOG3 PUSH1 0x9 PUSH1 0x0 SWAP1 SLOAD SWAP1 PUSH2 0x100 EXP SWAP1 DIV PUSH20 0xFFFFFFFFFFFFFFFFFFFFFFFFFFFFFFFFFFFFFFFF AND PUSH1 0x8 PUSH1 0x0 PUSH2 0x100 EXP DUP2 SLOAD DUP2 PUSH20 0xFFFFFFFFFFFFFFFFFFFFFFFFFFFFFFFFFFFFFFFF MUL NOT AND SWAP1 DUP4 PUSH20 0xFFFFFFFFFFFFFFFFFFFFFFFFFFFFFFFFFFFFFFFF AND MUL OR SWAP1 SSTORE POP PUSH1 0x0 PUSH1 0x9 PUSH1 0x0 PUSH2 0x100 EXP DUP2 SLOAD DUP2 PUSH20 0xFFFFFFFFFFFFFFFFFFFFFFFFFFFFFFFFFFFFFFFF MUL NOT AND SWAP1 DUP4 PUSH20 0xFFFFFFFFFFFFFFFFFFFFFFFFFFFFFFFFFFFFFFFF AND MUL OR SWAP1 SSTORE POP JUMP JUMPDEST PUSH1 0x0 CALLER PUSH20 0xFFFFFFFFFFFFFFFFFFFFFFFFFFFFFFFFFFFFFFFF AND PUSH1 0x8 PUSH1 0x0 SWAP1 SLOAD SWAP1 PUSH2 0x100 EXP SWAP1 DIV PUSH20 0xFFFFFFFFFFFFFFFFFFFFFFFFFFFFFFFFFFFFFFFF AND PUSH20 0xFFFFFFFFFFFFFFFFFFFFFFFFFFFFFFFFFFFFFFFF AND EQ PUSH2 0x16DA JUMPI PUSH1 0x40 MLOAD PUSH32 0x8C379A000000000000000000000000000000000000000000000000000000000 DUP2 MSTORE PUSH1 0x4 ADD DUP1 DUP1 PUSH1 0x20 ADD DUP3 DUP2 SUB DUP3 MSTORE PUSH1 0x20 DUP2 MSTORE PUSH1 0x20 ADD DUP1 PUSH32 0x4F776E61626C653A2063616C6C6572206973206E6F7420746865206F776E6572 DUP2 MSTORE POP PUSH1 0x20 ADD SWAP2 POP POP PUSH1 0x40 MLOAD DUP1 SWAP2 SUB SWAP1 REVERT JUMPDEST PUSH1 0x0 PUSH1 0xB PUSH1 0x0 DUP5 PUSH20 0xFFFFFFFFFFFFFFFFFFFFFFFFFFFFFFFFFFFFFFFF AND PUSH20 0xFFFFFFFFFFFFFFFFFFFFFFFFFFFFFFFFFFFFFFFF AND DUP2 MSTORE PUSH1 0x20 ADD SWAP1 DUP2 MSTORE PUSH1 0x20 ADD PUSH1 0x0 KECCAK256 PUSH1 0x0 PUSH2 0x100 EXP DUP2 SLOAD DUP2 PUSH1 0xFF MUL NOT AND SWAP1 DUP4 ISZERO ISZERO MUL OR SWAP1 SSTORE POP PUSH1 0xB PUSH1 0x0 DUP4 PUSH20 0xFFFFFFFFFFFFFFFFFFFFFFFFFFFFFFFFFFFFFFFF AND PUSH20 0xFFFFFFFFFFFFFFFFFFFFFFFFFFFFFFFFFFFFFFFF AND DUP2 MSTORE PUSH1 0x20 ADD SWAP1 DUP2 MSTORE PUSH1 0x20 ADD PUSH1 0x0 KECCAK256 PUSH1 0x0 SWAP1 SLOAD SWAP1 PUSH2 0x100 EXP SWAP1 DIV PUSH1 0xFF AND SWAP1 POP SWAP2 SWAP1 POP JUMP JUMPDEST PUSH1 0x0 CALLER PUSH20 0xFFFFFFFFFFFFFFFFFFFFFFFFFFFFFFFFFFFFFFFF AND PUSH1 0x8 PUSH1 0x0 SWAP1 SLOAD SWAP1 PUSH2 0x100 EXP SWAP1 DIV PUSH20 0xFFFFFFFFFFFFFFFFFFFFFFFFFFFFFFFFFFFFFFFF AND PUSH20 0xFFFFFFFFFFFFFFFFFFFFFFFFFFFFFFFFFFFFFFFF AND EQ PUSH2 0x184B JUMPI PUSH1 0x40 MLOAD PUSH32 0x8C379A000000000000000000000000000000000000000000000000000000000 DUP2 MSTORE PUSH1 0x4 ADD DUP1 DUP1 PUSH1 0x20 ADD DUP3 DUP2 SUB DUP3 MSTORE PUSH1 0x20 DUP2 MSTORE PUSH1 0x20 ADD DUP1 PUSH32 0x4F776E61626C653A2063616C6C6572206973206E6F7420746865206F776E6572 DUP2 MSTORE POP PUSH1 0x20 ADD SWAP2 POP POP PUSH1 0x40 MLOAD DUP1 SWAP2 SUB SWAP1 REVERT JUMPDEST DUP2 PUSH1 0xA PUSH1 0x0 PUSH2 0x100 EXP DUP2 SLOAD DUP2 PUSH20 0xFFFFFFFFFFFFFFFFFFFFFFFFFFFFFFFFFFFFFFFF MUL NOT AND SWAP1 DUP4 PUSH20 0xFFFFFFFFFFFFFFFFFFFFFFFFFFFFFFFFFFFFFFFF AND MUL OR SWAP1 SSTORE POP PUSH1 0x1 SWAP1 POP SWAP2 SWAP1 POP JUMP JUMPDEST PUSH1 0xB PUSH1 0x20 MSTORE DUP1 PUSH1 0x0 MSTORE PUSH1 0x40 PUSH1 0x0 KECCAK256 PUSH1 0x0 SWAP2 POP SLOAD SWAP1 PUSH2 0x100 EXP SWAP1 DIV PUSH1 0xFF AND DUP2 JUMP JUMPDEST PUSH1 0x0 DUP1 PUSH1 0x0 DUP4 PUSH20 0xFFFFFFFFFFFFFFFFFFFFFFFFFFFFFFFFFFFFFFFF AND PUSH20 0xFFFFFFFFFFFFFFFFFFFFFFFFFFFFFFFFFFFFFFFF AND DUP2 MSTORE PUSH1 0x20 ADD SWAP1 DUP2 MSTORE PUSH1 0x20 ADD PUSH1 0x0 KECCAK256 SLOAD SWAP1 POP SWAP2 SWAP1 POP JUMP JUMPDEST PUSH1 0xD SLOAD DUP2 JUMP JUMPDEST PUSH2 0x190D DUP3 DUP3 PUSH2 0x1A2D JUMP JUMPDEST POP POP JUMP JUMPDEST PUSH1 0x0 PUSH2 0x195A PUSH1 0x6 PUSH1 0x0 DUP5 PUSH20 0xFFFFFFFFFFFFFFFFFFFFFFFFFFFFFFFFFFFFFFFF AND PUSH20 0xFFFFFFFFFFFFFFFFFFFFFFFFFFFFFFFFFFFFFFFF AND DUP2 MSTORE PUSH1 0x20 ADD SWAP1 DUP2 MSTORE PUSH1 0x20 ADD PUSH1 0x0 KECCAK256 PUSH2 0x2C08 JUMP JUMPDEST SWAP1 POP SWAP2 SWAP1 POP JUMP JUMPDEST PUSH1 0x0 PUSH1 0x8 PUSH1 0x0 SWAP1 SLOAD SWAP1 PUSH2 0x100 EXP SWAP1 DIV PUSH20 0xFFFFFFFFFFFFFFFFFFFFFFFFFFFFFFFFFFFFFFFF AND SWAP1 POP SWAP1 JUMP JUMPDEST PUSH1 0x60 PUSH1 0x4 DUP1 SLOAD PUSH1 0x1 DUP2 PUSH1 0x1 AND ISZERO PUSH2 0x100 MUL SUB AND PUSH1 0x2 SWAP1 DIV DUP1 PUSH1 0x1F ADD PUSH1 0x20 DUP1 SWAP2 DIV MUL PUSH1 0x20 ADD PUSH1 0x40 MLOAD SWAP1 DUP2 ADD PUSH1 0x40 MSTORE DUP1 SWAP3 SWAP2 SWAP1 DUP2 DUP2 MSTORE PUSH1 0x20 ADD DUP3 DUP1 SLOAD PUSH1 0x1 DUP2 PUSH1 0x1 AND ISZERO PUSH2 0x100 MUL SUB AND PUSH1 0x2 SWAP1 DIV DUP1 ISZERO PUSH2 0x1A23 JUMPI DUP1 PUSH1 0x1F LT PUSH2 0x19F8 JUMPI PUSH2 0x100 DUP1 DUP4 SLOAD DIV MUL DUP4 MSTORE SWAP2 PUSH1 0x20 ADD SWAP2 PUSH2 0x1A23 JUMP JUMPDEST DUP3 ADD SWAP2 SWAP1 PUSH1 0x0 MSTORE PUSH1 0x20 PUSH1 0x0 KECCAK256 SWAP1 JUMPDEST DUP2 SLOAD DUP2 MSTORE SWAP1 PUSH1 0x1 ADD SWAP1 PUSH1 0x20 ADD DUP1 DUP4 GT PUSH2 0x1A06 JUMPI DUP3 SWAP1 SUB PUSH1 0x1F AND DUP3 ADD SWAP2 JUMPDEST POP POP POP POP POP SWAP1 POP SWAP1 JUMP JUMPDEST PUSH1 0x0 PUSH2 0x1A65 DUP3 PUSH1 0x40 MLOAD DUP1 PUSH1 0x60 ADD PUSH1 0x40 MSTORE DUP1 PUSH1 0x24 DUP2 MSTORE PUSH1 0x20 ADD PUSH2 0x2E34 PUSH1 0x24 SWAP2 CODECOPY PUSH2 0x1A56 DUP7 CALLER PUSH2 0x1FAD JUMP JUMPDEST PUSH2 0x261D SWAP1 SWAP3 SWAP2 SWAP1 PUSH4 0xFFFFFFFF AND JUMP JUMPDEST SWAP1 POP PUSH2 0x1A72 DUP4 CALLER DUP4 PUSH2 0x2165 JUMP JUMPDEST PUSH2 0x1A7C DUP4 DUP4 PUSH2 0x2A44 JUMP JUMPDEST POP POP POP JUMP JUMPDEST PUSH1 0x0 PUSH2 0x1B36 CALLER DUP5 PUSH2 0x1B31 DUP6 PUSH1 0x40 MLOAD DUP1 PUSH1 0x60 ADD PUSH1 0x40 MSTORE DUP1 PUSH1 0x25 DUP2 MSTORE PUSH1 0x20 ADD PUSH2 0x2EC2 PUSH1 0x25 SWAP2 CODECOPY PUSH1 0x1 PUSH1 0x0 CALLER PUSH20 0xFFFFFFFFFFFFFFFFFFFFFFFFFFFFFFFFFFFFFFFF AND PUSH20 0xFFFFFFFFFFFFFFFFFFFFFFFFFFFFFFFFFFFFFFFF AND DUP2 MSTORE PUSH1 0x20 ADD SWAP1 DUP2 MSTORE PUSH1 0x20 ADD PUSH1 0x0 KECCAK256 PUSH1 0x0 DUP11 PUSH20 0xFFFFFFFFFFFFFFFFFFFFFFFFFFFFFFFFFFFFFFFF AND PUSH20 0xFFFFFFFFFFFFFFFFFFFFFFFFFFFFFFFFFFFFFFFF AND DUP2 MSTORE PUSH1 0x20 ADD SWAP1 DUP2 MSTORE PUSH1 0x20 ADD PUSH1 0x0 KECCAK256 SLOAD PUSH2 0x261D SWAP1 SWAP3 SWAP2 SWAP1 PUSH4 0xFFFFFFFF AND JUMP JUMPDEST PUSH2 0x2165 JUMP JUMPDEST PUSH1 0x1 SWAP1 POP SWAP3 SWAP2 POP POP JUMP JUMPDEST PUSH1 0x0 PUSH1 0xB PUSH1 0x0 CALLER PUSH20 0xFFFFFFFFFFFFFFFFFFFFFFFFFFFFFFFFFFFFFFFF AND PUSH20 0xFFFFFFFFFFFFFFFFFFFFFFFFFFFFFFFFFFFFFFFF AND DUP2 MSTORE PUSH1 0x20 ADD SWAP1 DUP2 MSTORE PUSH1 0x20 ADD PUSH1 0x0 KECCAK256 PUSH1 0x0 SWAP1 SLOAD SWAP1 PUSH2 0x100 EXP SWAP1 DIV PUSH1 0xFF AND DUP1 PUSH2 0x1BE3 JUMPI POP PUSH1 0xB PUSH1 0x0 DUP5 PUSH20 0xFFFFFFFFFFFFFFFFFFFFFFFFFFFFFFFFFFFFFFFF AND PUSH20 0xFFFFFFFFFFFFFFFFFFFFFFFFFFFFFFFFFFFFFFFF AND DUP2 MSTORE PUSH1 0x20 ADD SWAP1 DUP2 MSTORE PUSH1 0x20 ADD PUSH1 0x0 KECCAK256 PUSH1 0x0 SWAP1 SLOAD SWAP1 PUSH2 0x100 EXP SWAP1 DIV PUSH1 0xFF AND JUMPDEST ISZERO PUSH2 0x1BFC JUMPI PUSH2 0x1BF3 CALLER DUP5 DUP5 PUSH2 0x235C JUMP JUMPDEST PUSH1 0x1 SWAP1 POP PUSH2 0x1C80 JUMP JUMPDEST PUSH1 0x0 PUSH2 0x1C28 PUSH3 0x186A0 PUSH2 0x1C1A PUSH1 0xD SLOAD DUP7 PUSH2 0x26DD SWAP1 SWAP2 SWAP1 PUSH4 0xFFFFFFFF AND JUMP JUMPDEST PUSH2 0x2763 SWAP1 SWAP2 SWAP1 PUSH4 0xFFFFFFFF AND JUMP JUMPDEST SWAP1 POP PUSH1 0x0 PUSH2 0x1C3F DUP3 DUP6 PUSH2 0x27AD SWAP1 SWAP2 SWAP1 PUSH4 0xFFFFFFFF AND JUMP JUMPDEST SWAP1 POP PUSH2 0x1C4C CALLER DUP7 DUP4 PUSH2 0x235C JUMP JUMPDEST PUSH2 0x1C79 CALLER PUSH1 0xC PUSH1 0x0 SWAP1 SLOAD SWAP1 PUSH2 0x100 EXP SWAP1 DIV PUSH20 0xFFFFFFFFFFFFFFFFFFFFFFFFFFFFFFFFFFFFFFFF AND DUP5 PUSH2 0x235C JUMP JUMPDEST PUSH1 0x1 SWAP3 POP POP POP JUMPDEST SWAP3 SWAP2 POP POP JUMP JUMPDEST DUP4 TIMESTAMP GT ISZERO PUSH2 0x1CFC JUMPI PUSH1 0x40 MLOAD PUSH32 0x8C379A000000000000000000000000000000000000000000000000000000000 DUP2 MSTORE PUSH1 0x4 ADD DUP1 DUP1 PUSH1 0x20 ADD DUP3 DUP2 SUB DUP3 MSTORE PUSH1 0x18 DUP2 MSTORE PUSH1 0x20 ADD DUP1 PUSH32 0x5065726D69743A206578706972656420646561646C696E650000000000000000 DUP2 MSTORE POP PUSH1 0x20 ADD SWAP2 POP POP PUSH1 0x40 MLOAD DUP1 SWAP2 SUB SWAP1 REVERT JUMPDEST PUSH1 0x0 PUSH32 0x6E71EDAE12B1B97F4D1F60370FEF10105FA2FAAE0126114A169C64845D6126C9 PUSH1 0x0 SHL DUP9 DUP9 DUP9 PUSH2 0x1D6C PUSH1 0x6 PUSH1 0x0 DUP15 PUSH20 0xFFFFFFFFFFFFFFFFFFFFFFFFFFFFFFFFFFFFFFFF AND PUSH20 0xFFFFFFFFFFFFFFFFFFFFFFFFFFFFFFFFFFFFFFFF AND DUP2 MSTORE PUSH1 0x20 ADD SWAP1 DUP2 MSTORE PUSH1 0x20 ADD PUSH1 0x0 KECCAK256 PUSH2 0x2C08 JUMP JUMPDEST DUP10 PUSH1 0x40 MLOAD PUSH1 0x20 ADD DUP1 DUP8 DUP2 MSTORE PUSH1 0x20 ADD DUP7 PUSH20 0xFFFFFFFFFFFFFFFFFFFFFFFFFFFFFFFFFFFFFFFF AND DUP2 MSTORE PUSH1 0x20 ADD DUP6 PUSH20 0xFFFFFFFFFFFFFFFFFFFFFFFFFFFFFFFFFFFFFFFF AND DUP2 MSTORE PUSH1 0x20 ADD DUP5 DUP2 MSTORE PUSH1 0x20 ADD DUP4 DUP2 MSTORE PUSH1 0x20 ADD DUP3 DUP2 MSTORE PUSH1 0x20 ADD SWAP7 POP POP POP POP POP POP POP PUSH1 0x40 MLOAD PUSH1 0x20 DUP2 DUP4 SUB SUB DUP2 MSTORE SWAP1 PUSH1 0x40 MSTORE DUP1 MLOAD SWAP1 PUSH1 0x20 ADD KECCAK256 SWAP1 POP PUSH1 0x0 PUSH2 0x1901 PUSH1 0x7 SLOAD DUP4 PUSH1 0x40 MLOAD PUSH1 0x20 ADD DUP1 DUP5 PUSH2 0xFFFF AND PUSH1 0xF0 SHL DUP2 MSTORE PUSH1 0x2 ADD DUP4 DUP2 MSTORE PUSH1 0x20 ADD DUP3 DUP2 MSTORE PUSH1 0x20 ADD SWAP4 POP POP POP POP PUSH1 0x40 MLOAD PUSH1 0x20 DUP2 DUP4 SUB SUB DUP2 MSTORE SWAP1 PUSH1 0x40 MSTORE DUP1 MLOAD SWAP1 PUSH1 0x20 ADD KECCAK256 SWAP1 POP PUSH1 0x0 PUSH1 0x1 DUP3 DUP8 DUP8 DUP8 PUSH1 0x40 MLOAD PUSH1 0x0 DUP2 MSTORE PUSH1 0x20 ADD PUSH1 0x40 MSTORE PUSH1 0x40 MLOAD DUP1 DUP6 DUP2 MSTORE PUSH1 0x20 ADD DUP5 PUSH1 0xFF AND DUP2 MSTORE PUSH1 0x20 ADD DUP4 DUP2 MSTORE PUSH1 0x20 ADD DUP3 DUP2 MSTORE PUSH1 0x20 ADD SWAP5 POP POP POP POP POP PUSH1 0x20 PUSH1 0x40 MLOAD PUSH1 0x20 DUP2 SUB SWAP1 DUP1 DUP5 SUB SWAP1 DUP6 GAS STATICCALL ISZERO DUP1 ISZERO PUSH2 0x1E86 JUMPI RETURNDATASIZE PUSH1 0x0 DUP1 RETURNDATACOPY RETURNDATASIZE PUSH1 0x0 REVERT JUMPDEST POP POP POP PUSH1 0x20 PUSH1 0x40 MLOAD SUB MLOAD SWAP1 POP PUSH1 0x0 PUSH20 0xFFFFFFFFFFFFFFFFFFFFFFFFFFFFFFFFFFFFFFFF AND DUP2 PUSH20 0xFFFFFFFFFFFFFFFFFFFFFFFFFFFFFFFFFFFFFFFF AND EQ ISZERO DUP1 ISZERO PUSH2 0x1EFA JUMPI POP DUP10 PUSH20 0xFFFFFFFFFFFFFFFFFFFFFFFFFFFFFFFFFFFFFFFF AND DUP2 PUSH20 0xFFFFFFFFFFFFFFFFFFFFFFFFFFFFFFFFFFFFFFFF AND EQ JUMPDEST PUSH2 0x1F4F JUMPI PUSH1 0x40 MLOAD PUSH32 0x8C379A000000000000000000000000000000000000000000000000000000000 DUP2 MSTORE PUSH1 0x4 ADD DUP1 DUP1 PUSH1 0x20 ADD DUP3 DUP2 SUB DUP3 MSTORE PUSH1 0x21 DUP2 MSTORE PUSH1 0x20 ADD DUP1 PUSH2 0x2DA7 PUSH1 0x21 SWAP2 CODECOPY PUSH1 0x40 ADD SWAP2 POP POP PUSH1 0x40 MLOAD DUP1 SWAP2 SUB SWAP1 REVERT JUMPDEST PUSH2 0x1F96 PUSH1 0x6 PUSH1 0x0 DUP13 PUSH20 0xFFFFFFFFFFFFFFFFFFFFFFFFFFFFFFFFFFFFFFFF AND PUSH20 0xFFFFFFFFFFFFFFFFFFFFFFFFFFFFFFFFFFFFFFFF AND DUP2 MSTORE PUSH1 0x20 ADD SWAP1 DUP2 MSTORE PUSH1 0x20 ADD PUSH1 0x0 KECCAK256 PUSH2 0x2C16 JUMP JUMPDEST PUSH2 0x1FA1 DUP11 DUP11 DUP11 PUSH2 0x2165 JUMP JUMPDEST POP POP POP POP POP POP POP POP POP POP JUMP JUMPDEST PUSH1 0x0 PUSH1 0x1 PUSH1 0x0 DUP5 PUSH20 0xFFFFFFFFFFFFFFFFFFFFFFFFFFFFFFFFFFFFFFFF AND PUSH20 0xFFFFFFFFFFFFFFFFFFFFFFFFFFFFFFFFFFFFFFFF AND DUP2 MSTORE PUSH1 0x20 ADD SWAP1 DUP2 MSTORE PUSH1 0x20 ADD PUSH1 0x0 KECCAK256 PUSH1 0x0 DUP4 PUSH20 0xFFFFFFFFFFFFFFFFFFFFFFFFFFFFFFFFFFFFFFFF AND PUSH20 0xFFFFFFFFFFFFFFFFFFFFFFFFFFFFFFFFFFFFFFFF AND DUP2 MSTORE PUSH1 0x20 ADD SWAP1 DUP2 MSTORE PUSH1 0x20 ADD PUSH1 0x0 KECCAK256 SLOAD SWAP1 POP SWAP3 SWAP2 POP POP JUMP JUMPDEST CALLER PUSH20 0xFFFFFFFFFFFFFFFFFFFFFFFFFFFFFFFFFFFFFFFF AND PUSH1 0x8 PUSH1 0x0 SWAP1 SLOAD SWAP1 PUSH2 0x100 EXP SWAP1 DIV PUSH20 0xFFFFFFFFFFFFFFFFFFFFFFFFFFFFFFFFFFFFFFFF AND PUSH20 0xFFFFFFFFFFFFFFFFFFFFFFFFFFFFFFFFFFFFFFFF AND EQ PUSH2 0x20F7 JUMPI PUSH1 0x40 MLOAD PUSH32 0x8C379A000000000000000000000000000000000000000000000000000000000 DUP2 MSTORE PUSH1 0x4 ADD DUP1 DUP1 PUSH1 0x20 ADD DUP3 DUP2 SUB DUP3 MSTORE PUSH1 0x20 DUP2 MSTORE PUSH1 0x20 ADD DUP1 PUSH32 0x4F776E61626C653A2063616C6C6572206973206E6F7420746865206F776E6572 DUP2 MSTORE POP PUSH1 0x20 ADD SWAP2 POP POP PUSH1 0x40 MLOAD DUP1 SWAP2 SUB SWAP1 REVERT JUMPDEST DUP1 PUSH1 0xC PUSH1 0x0 PUSH2 0x100 EXP DUP2 SLOAD DUP2 PUSH20 0xFFFFFFFFFFFFFFFFFFFFFFFFFFFFFFFFFFFFFFFF MUL NOT AND SWAP1 DUP4 PUSH20 0xFFFFFFFFFFFFFFFFFFFFFFFFFFFFFFFFFFFFFFFF AND MUL OR SWAP1 SSTORE POP POP JUMP JUMPDEST PUSH1 0x0 PUSH1 0xA PUSH1 0x0 SWAP1 SLOAD SWAP1 PUSH2 0x100 EXP SWAP1 DIV PUSH20 0xFFFFFFFFFFFFFFFFFFFFFFFFFFFFFFFFFFFFFFFF AND SWAP1 POP SWAP1 JUMP JUMPDEST PUSH1 0x0 PUSH20 0xFFFFFFFFFFFFFFFFFFFFFFFFFFFFFFFFFFFFFFFF AND DUP4 PUSH20 0xFFFFFFFFFFFFFFFFFFFFFFFFFFFFFFFFFFFFFFFF AND EQ ISZERO PUSH2 0x21EB JUMPI PUSH1 0x40 MLOAD PUSH32 0x8C379A000000000000000000000000000000000000000000000000000000000 DUP2 MSTORE PUSH1 0x4 ADD DUP1 DUP1 PUSH1 0x20 ADD DUP3 DUP2 SUB DUP3 MSTORE PUSH1 0x24 DUP2 MSTORE PUSH1 0x20 ADD DUP1 PUSH2 0x2E9E PUSH1 0x24 SWAP2 CODECOPY PUSH1 0x40 ADD SWAP2 POP POP PUSH1 0x40 MLOAD DUP1 SWAP2 SUB SWAP1 REVERT JUMPDEST PUSH1 0x0 PUSH20 0xFFFFFFFFFFFFFFFFFFFFFFFFFFFFFFFFFFFFFFFF AND DUP3 PUSH20 0xFFFFFFFFFFFFFFFFFFFFFFFFFFFFFFFFFFFFFFFF AND EQ ISZERO PUSH2 0x2271 JUMPI PUSH1 0x40 MLOAD PUSH32 0x8C379A000000000000000000000000000000000000000000000000000000000 DUP2 MSTORE PUSH1 0x4 ADD DUP1 DUP1 PUSH1 0x20 ADD DUP3 DUP2 SUB DUP3 MSTORE PUSH1 0x22 DUP2 MSTORE PUSH1 0x20 ADD DUP1 PUSH2 0x2D3D PUSH1 0x22 SWAP2 CODECOPY PUSH1 0x40 ADD SWAP2 POP POP PUSH1 0x40 MLOAD DUP1 SWAP2 SUB SWAP1 REVERT JUMPDEST DUP1 PUSH1 0x1 PUSH1 0x0 DUP6 PUSH20 0xFFFFFFFFFFFFFFFFFFFFFFFFFFFFFFFFFFFFFFFF AND PUSH20 0xFFFFFFFFFFFFFFFFFFFFFFFFFFFFFFFFFFFFFFFF AND DUP2 MSTORE PUSH1 0x20 ADD SWAP1 DUP2 MSTORE PUSH1 0x20 ADD PUSH1 0x0 KECCAK256 PUSH1 0x0 DUP5 PUSH20 0xFFFFFFFFFFFFFFFFFFFFFFFFFFFFFFFFFFFFFFFF AND PUSH20 0xFFFFFFFFFFFFFFFFFFFFFFFFFFFFFFFFFFFFFFFF AND DUP2 MSTORE PUSH1 0x20 ADD SWAP1 DUP2 MSTORE PUSH1 0x20 ADD PUSH1 0x0 KECCAK256 DUP2 SWAP1 SSTORE POP DUP2 PUSH20 0xFFFFFFFFFFFFFFFFFFFFFFFFFFFFFFFFFFFFFFFF AND DUP4 PUSH20 0xFFFFFFFFFFFFFFFFFFFFFFFFFFFFFFFFFFFFFFFF AND PUSH32 0x8C5BE1E5EBEC7D5BD14F71427D1E84F3DD0314C0F7B2291E5B200AC8C7C3B925 DUP4 PUSH1 0x40 MLOAD DUP1 DUP3 DUP2 MSTORE PUSH1 0x20 ADD SWAP2 POP POP PUSH1 0x40 MLOAD DUP1 SWAP2 SUB SWAP1 LOG3 POP POP POP JUMP JUMPDEST PUSH1 0x0 PUSH20 0xFFFFFFFFFFFFFFFFFFFFFFFFFFFFFFFFFFFFFFFF AND DUP4 PUSH20 0xFFFFFFFFFFFFFFFFFFFFFFFFFFFFFFFFFFFFFFFF AND EQ ISZERO PUSH2 0x23E2 JUMPI PUSH1 0x40 MLOAD PUSH32 0x8C379A000000000000000000000000000000000000000000000000000000000 DUP2 MSTORE PUSH1 0x4 ADD DUP1 DUP1 PUSH1 0x20 ADD DUP3 DUP2 SUB DUP3 MSTORE PUSH1 0x25 DUP2 MSTORE PUSH1 0x20 ADD DUP1 PUSH2 0x2E79 PUSH1 0x25 SWAP2 CODECOPY PUSH1 0x40 ADD SWAP2 POP POP PUSH1 0x40 MLOAD DUP1 SWAP2 SUB SWAP1 REVERT JUMPDEST PUSH1 0x0 PUSH20 0xFFFFFFFFFFFFFFFFFFFFFFFFFFFFFFFFFFFFFFFF AND DUP3 PUSH20 0xFFFFFFFFFFFFFFFFFFFFFFFFFFFFFFFFFFFFFFFF AND EQ ISZERO PUSH2 0x2468 JUMPI PUSH1 0x40 MLOAD PUSH32 0x8C379A000000000000000000000000000000000000000000000000000000000 DUP2 MSTORE PUSH1 0x4 ADD DUP1 DUP1 PUSH1 0x20 ADD DUP3 DUP2 SUB DUP3 MSTORE PUSH1 0x23 DUP2 MSTORE PUSH1 0x20 ADD DUP1 PUSH2 0x2CF8 PUSH1 0x23 SWAP2 CODECOPY PUSH1 0x40 ADD SWAP2 POP POP PUSH1 0x40 MLOAD DUP1 SWAP2 SUB SWAP1 REVERT JUMPDEST PUSH2 0x2473 DUP4 DUP4 DUP4 PUSH2 0x2C2C JUMP JUMPDEST PUSH2 0x24DE DUP2 PUSH1 0x40 MLOAD DUP1 PUSH1 0x60 ADD PUSH1 0x40 MSTORE DUP1 PUSH1 0x26 DUP2 MSTORE PUSH1 0x20 ADD PUSH2 0x2D5F PUSH1 0x26 SWAP2 CODECOPY PUSH1 0x0 DUP1 DUP8 PUSH20 0xFFFFFFFFFFFFFFFFFFFFFFFFFFFFFFFFFFFFFFFF AND PUSH20 0xFFFFFFFFFFFFFFFFFFFFFFFFFFFFFFFFFFFFFFFF AND DUP2 MSTORE PUSH1 0x20 ADD SWAP1 DUP2 MSTORE PUSH1 0x20 ADD PUSH1 0x0 KECCAK256 SLOAD PUSH2 0x261D SWAP1 SWAP3 SWAP2 SWAP1 PUSH4 0xFFFFFFFF AND JUMP JUMPDEST PUSH1 0x0 DUP1 DUP6 PUSH20 0xFFFFFFFFFFFFFFFFFFFFFFFFFFFFFFFFFFFFFFFF AND PUSH20 0xFFFFFFFFFFFFFFFFFFFFFFFFFFFFFFFFFFFFFFFF AND DUP2 MSTORE PUSH1 0x20 ADD SWAP1 DUP2 MSTORE PUSH1 0x20 ADD PUSH1 0x0 KECCAK256 DUP2 SWAP1 SSTORE POP PUSH2 0x2571 DUP2 PUSH1 0x0 DUP1 DUP6 PUSH20 0xFFFFFFFFFFFFFFFFFFFFFFFFFFFFFFFFFFFFFFFF AND PUSH20 0xFFFFFFFFFFFFFFFFFFFFFFFFFFFFFFFFFFFFFFFF AND DUP2 MSTORE PUSH1 0x20 ADD SWAP1 DUP2 MSTORE PUSH1 0x20 ADD PUSH1 0x0 KECCAK256 SLOAD PUSH2 0x27F7 SWAP1 SWAP2 SWAP1 PUSH4 0xFFFFFFFF AND JUMP JUMPDEST PUSH1 0x0 DUP1 DUP5 PUSH20 0xFFFFFFFFFFFFFFFFFFFFFFFFFFFFFFFFFFFFFFFF AND PUSH20 0xFFFFFFFFFFFFFFFFFFFFFFFFFFFFFFFFFFFFFFFF AND DUP2 MSTORE PUSH1 0x20 ADD SWAP1 DUP2 MSTORE PUSH1 0x20 ADD PUSH1 0x0 KECCAK256 DUP2 SWAP1 SSTORE POP DUP2 PUSH20 0xFFFFFFFFFFFFFFFFFFFFFFFFFFFFFFFFFFFFFFFF AND DUP4 PUSH20 0xFFFFFFFFFFFFFFFFFFFFFFFFFFFFFFFFFFFFFFFF AND PUSH32 0xDDF252AD1BE2C89B69C2B068FC378DAA952BA7F163C4A11628F55A4DF523B3EF DUP4 PUSH1 0x40 MLOAD DUP1 DUP3 DUP2 MSTORE PUSH1 0x20 ADD SWAP2 POP POP PUSH1 0x40 MLOAD DUP1 SWAP2 SUB SWAP1 LOG3 POP POP POP JUMP JUMPDEST PUSH1 0x0 DUP4 DUP4 GT ISZERO DUP3 SWAP1 PUSH2 0x26CA JUMPI PUSH1 0x40 MLOAD PUSH32 0x8C379A000000000000000000000000000000000000000000000000000000000 DUP2 MSTORE PUSH1 0x4 ADD DUP1 DUP1 PUSH1 0x20 ADD DUP3 DUP2 SUB DUP3 MSTORE DUP4 DUP2 DUP2 MLOAD DUP2 MSTORE PUSH1 0x20 ADD SWAP2 POP DUP1 MLOAD SWAP1 PUSH1 0x20 ADD SWAP1 DUP1 DUP4 DUP4 PUSH1 0x0 JUMPDEST DUP4 DUP2 LT ISZERO PUSH2 0x268F JUMPI DUP1 DUP3 ADD MLOAD DUP2 DUP5 ADD MSTORE PUSH1 0x20 DUP2 ADD SWAP1 POP PUSH2 0x2674 JUMP JUMPDEST POP POP POP POP SWAP1 POP SWAP1 DUP2 ADD SWAP1 PUSH1 0x1F AND DUP1 ISZERO PUSH2 0x26BC JUMPI DUP1 DUP3 SUB DUP1 MLOAD PUSH1 0x1 DUP4 PUSH1 0x20 SUB PUSH2 0x100 EXP SUB NOT AND DUP2 MSTORE PUSH1 0x20 ADD SWAP2 POP JUMPDEST POP SWAP3 POP POP POP PUSH1 0x40 MLOAD DUP1 SWAP2 SUB SWAP1 REVERT JUMPDEST POP PUSH1 0x0 DUP4 DUP6 SUB SWAP1 POP DUP1 SWAP2 POP POP SWAP4 SWAP3 POP POP POP JUMP JUMPDEST PUSH1 0x0 DUP1 DUP4 EQ ISZERO PUSH2 0x26F0 JUMPI PUSH1 0x0 SWAP1 POP PUSH2 0x275D JUMP JUMPDEST PUSH1 0x0 DUP3 DUP5 MUL SWAP1 POP DUP3 DUP5 DUP3 DUP2 PUSH2 0x2701 JUMPI INVALID JUMPDEST DIV EQ PUSH2 0x2758 JUMPI PUSH1 0x40 MLOAD PUSH32 0x8C379A000000000000000000000000000000000000000000000000000000000 DUP2 MSTORE PUSH1 0x4 ADD DUP1 DUP1 PUSH1 0x20 ADD DUP3 DUP2 SUB DUP3 MSTORE PUSH1 0x21 DUP2 MSTORE PUSH1 0x20 ADD DUP1 PUSH2 0x2DC8 PUSH1 0x21 SWAP2 CODECOPY PUSH1 0x40 ADD SWAP2 POP POP PUSH1 0x40 MLOAD DUP1 SWAP2 SUB SWAP1 REVERT JUMPDEST DUP1 SWAP2 POP POP JUMPDEST SWAP3 SWAP2 POP POP JUMP JUMPDEST PUSH1 0x0 PUSH2 0x27A5 DUP4 DUP4 PUSH1 0x40 MLOAD DUP1 PUSH1 0x40 ADD PUSH1 0x40 MSTORE DUP1 PUSH1 0x1A DUP2 MSTORE PUSH1 0x20 ADD PUSH32 0x536166654D6174683A206469766973696F6E206279207A65726F000000000000 DUP2 MSTORE POP PUSH2 0x2C31 JUMP JUMPDEST SWAP1 POP SWAP3 SWAP2 POP POP JUMP JUMPDEST PUSH1 0x0 PUSH2 0x27EF DUP4 DUP4 PUSH1 0x40 MLOAD DUP1 PUSH1 0x40 ADD PUSH1 0x40 MSTORE DUP1 PUSH1 0x1E DUP2 MSTORE PUSH1 0x20 ADD PUSH32 0x536166654D6174683A207375627472616374696F6E206F766572666C6F770000 DUP2 MSTORE POP PUSH2 0x261D JUMP JUMPDEST SWAP1 POP SWAP3 SWAP2 POP POP JUMP JUMPDEST PUSH1 0x0 DUP1 DUP3 DUP5 ADD SWAP1 POP DUP4 DUP2 LT ISZERO PUSH2 0x2875 JUMPI PUSH1 0x40 MLOAD PUSH32 0x8C379A000000000000000000000000000000000000000000000000000000000 DUP2 MSTORE PUSH1 0x4 ADD DUP1 DUP1 PUSH1 0x20 ADD DUP3 DUP2 SUB DUP3 MSTORE PUSH1 0x1B DUP2 MSTORE PUSH1 0x20 ADD DUP1 PUSH32 0x536166654D6174683A206164646974696F6E206F766572666C6F770000000000 DUP2 MSTORE POP PUSH1 0x20 ADD SWAP2 POP POP PUSH1 0x40 MLOAD DUP1 SWAP2 SUB SWAP1 REVERT JUMPDEST DUP1 SWAP2 POP POP SWAP3 SWAP2 POP POP JUMP JUMPDEST PUSH1 0x0 PUSH20 0xFFFFFFFFFFFFFFFFFFFFFFFFFFFFFFFFFFFFFFFF AND DUP3 PUSH20 0xFFFFFFFFFFFFFFFFFFFFFFFFFFFFFFFFFFFFFFFF AND EQ ISZERO PUSH2 0x2922 JUMPI PUSH1 0x40 MLOAD PUSH32 0x8C379A000000000000000000000000000000000000000000000000000000000 DUP2 MSTORE PUSH1 0x4 ADD DUP1 DUP1 PUSH1 0x20 ADD DUP3 DUP2 SUB DUP3 MSTORE PUSH1 0x1F DUP2 MSTORE PUSH1 0x20 ADD DUP1 PUSH32 0x45524332303A206D696E7420746F20746865207A65726F206164647265737300 DUP2 MSTORE POP PUSH1 0x20 ADD SWAP2 POP POP PUSH1 0x40 MLOAD DUP1 SWAP2 SUB SWAP1 REVERT JUMPDEST PUSH2 0x292D ADDRESS DUP4 DUP4 PUSH2 0x2C2C JUMP JUMPDEST PUSH2 0x2942 DUP2 PUSH1 0x2 SLOAD PUSH2 0x27F7 SWAP1 SWAP2 SWAP1 PUSH4 0xFFFFFFFF AND JUMP JUMPDEST PUSH1 0x2 DUP2 SWAP1 SSTORE POP PUSH2 0x2999 DUP2 PUSH1 0x0 DUP1 DUP6 PUSH20 0xFFFFFFFFFFFFFFFFFFFFFFFFFFFFFFFFFFFFFFFF AND PUSH20 0xFFFFFFFFFFFFFFFFFFFFFFFFFFFFFFFFFFFFFFFF AND DUP2 MSTORE PUSH1 0x20 ADD SWAP1 DUP2 MSTORE PUSH1 0x20 ADD PUSH1 0x0 KECCAK256 SLOAD PUSH2 0x27F7 SWAP1 SWAP2 SWAP1 PUSH4 0xFFFFFFFF AND JUMP JUMPDEST PUSH1 0x0 DUP1 DUP5 PUSH20 0xFFFFFFFFFFFFFFFFFFFFFFFFFFFFFFFFFFFFFFFF AND PUSH20 0xFFFFFFFFFFFFFFFFFFFFFFFFFFFFFFFFFFFFFFFF AND DUP2 MSTORE PUSH1 0x20 ADD SWAP1 DUP2 MSTORE PUSH1 0x20 ADD PUSH1 0x0 KECCAK256 DUP2 SWAP1 SSTORE POP DUP2 PUSH20 0xFFFFFFFFFFFFFFFFFFFFFFFFFFFFFFFFFFFFFFFF AND ADDRESS PUSH20 0xFFFFFFFFFFFFFFFFFFFFFFFFFFFFFFFFFFFFFFFF AND PUSH32 0xDDF252AD1BE2C89B69C2B068FC378DAA952BA7F163C4A11628F55A4DF523B3EF DUP4 PUSH1 0x40 MLOAD DUP1 DUP3 DUP2 MSTORE PUSH1 0x20 ADD SWAP2 POP POP PUSH1 0x40 MLOAD DUP1 SWAP2 SUB SWAP1 LOG3 POP POP JUMP JUMPDEST PUSH1 0x0 PUSH20 0xFFFFFFFFFFFFFFFFFFFFFFFFFFFFFFFFFFFFFFFF AND DUP3 PUSH20 0xFFFFFFFFFFFFFFFFFFFFFFFFFFFFFFFFFFFFFFFF AND EQ ISZERO PUSH2 0x2ACA JUMPI PUSH1 0x40 MLOAD PUSH32 0x8C379A000000000000000000000000000000000000000000000000000000000 DUP2 MSTORE PUSH1 0x4 ADD DUP1 DUP1 PUSH1 0x20 ADD DUP3 DUP2 SUB DUP3 MSTORE PUSH1 0x21 DUP2 MSTORE PUSH1 0x20 ADD DUP1 PUSH2 0x2E58 PUSH1 0x21 SWAP2 CODECOPY PUSH1 0x40 ADD SWAP2 POP POP PUSH1 0x40 MLOAD DUP1 SWAP2 SUB SWAP1 REVERT JUMPDEST PUSH2 0x2AD6 DUP3 PUSH1 0x0 DUP4 PUSH2 0x2C2C JUMP JUMPDEST PUSH2 0x2B41 DUP2 PUSH1 0x40 MLOAD DUP1 PUSH1 0x60 ADD PUSH1 0x40 MSTORE DUP1 PUSH1 0x22 DUP2 MSTORE PUSH1 0x20 ADD PUSH2 0x2D1B PUSH1 0x22 SWAP2 CODECOPY PUSH1 0x0 DUP1 DUP7 PUSH20 0xFFFFFFFFFFFFFFFFFFFFFFFFFFFFFFFFFFFFFFFF AND PUSH20 0xFFFFFFFFFFFFFFFFFFFFFFFFFFFFFFFFFFFFFFFF AND DUP2 MSTORE PUSH1 0x20 ADD SWAP1 DUP2 MSTORE PUSH1 0x20 ADD PUSH1 0x0 KECCAK256 SLOAD PUSH2 0x261D SWAP1 SWAP3 SWAP2 SWAP1 PUSH4 0xFFFFFFFF AND JUMP JUMPDEST PUSH1 0x0 DUP1 DUP5 PUSH20 0xFFFFFFFFFFFFFFFFFFFFFFFFFFFFFFFFFFFFFFFF AND PUSH20 0xFFFFFFFFFFFFFFFFFFFFFFFFFFFFFFFFFFFFFFFF AND DUP2 MSTORE PUSH1 0x20 ADD SWAP1 DUP2 MSTORE PUSH1 0x20 ADD PUSH1 0x0 KECCAK256 DUP2 SWAP1 SSTORE POP PUSH2 0x2B98 DUP2 PUSH1 0x2 SLOAD PUSH2 0x27AD SWAP1 SWAP2 SWAP1 PUSH4 0xFFFFFFFF AND JUMP JUMPDEST PUSH1 0x2 DUP2 SWAP1 SSTORE POP PUSH1 0x0 PUSH20 0xFFFFFFFFFFFFFFFFFFFFFFFFFFFFFFFFFFFFFFFF AND DUP3 PUSH20 0xFFFFFFFFFFFFFFFFFFFFFFFFFFFFFFFFFFFFFFFF AND PUSH32 0xDDF252AD1BE2C89B69C2B068FC378DAA952BA7F163C4A11628F55A4DF523B3EF DUP4 PUSH1 0x40 MLOAD DUP1 DUP3 DUP2 MSTORE PUSH1 0x20 ADD SWAP2 POP POP PUSH1 0x40 MLOAD DUP1 SWAP2 SUB SWAP1 LOG3 POP POP JUMP JUMPDEST PUSH1 0x0 DUP2 PUSH1 0x0 ADD SLOAD SWAP1 POP SWAP2 SWAP1 POP JUMP JUMPDEST PUSH1 0x1 DUP2 PUSH1 0x0 ADD PUSH1 0x0 DUP3 DUP3 SLOAD ADD SWAP3 POP POP DUP2 SWAP1 SSTORE POP POP JUMP JUMPDEST POP POP POP JUMP JUMPDEST PUSH1 0x0 DUP1 DUP4 GT DUP3 SWAP1 PUSH2 0x2CDD JUMPI PUSH1 0x40 MLOAD PUSH32 0x8C379A000000000000000000000000000000000000000000000000000000000 DUP2 MSTORE PUSH1 0x4 ADD DUP1 DUP1 PUSH1 0x20 ADD DUP3 DUP2 SUB DUP3 MSTORE DUP4 DUP2 DUP2 MLOAD DUP2 MSTORE PUSH1 0x20 ADD SWAP2 POP DUP1 MLOAD SWAP1 PUSH1 0x20 ADD SWAP1 DUP1 DUP4 DUP4 PUSH1 0x0 JUMPDEST DUP4 DUP2 LT ISZERO PUSH2 0x2CA2 JUMPI DUP1 DUP3 ADD MLOAD DUP2 DUP5 ADD MSTORE PUSH1 0x20 DUP2 ADD SWAP1 POP PUSH2 0x2C87 JUMP JUMPDEST POP POP POP POP SWAP1 POP SWAP1 DUP2 ADD SWAP1 PUSH1 0x1F AND DUP1 ISZERO PUSH2 0x2CCF JUMPI DUP1 DUP3 SUB DUP1 MLOAD PUSH1 0x1 DUP4 PUSH1 0x20 SUB PUSH2 0x100 EXP SUB NOT AND DUP2 MSTORE PUSH1 0x20 ADD SWAP2 POP JUMPDEST POP SWAP3 POP POP POP PUSH1 0x40 MLOAD DUP1 SWAP2 SUB SWAP1 REVERT JUMPDEST POP PUSH1 0x0 DUP4 DUP6 DUP2 PUSH2 0x2CE9 JUMPI INVALID JUMPDEST DIV SWAP1 POP DUP1 SWAP2 POP POP SWAP4 SWAP3 POP POP POP JUMP INVALID GASLIMIT MSTORE NUMBER ORIGIN ADDRESS GASPRICE KECCAK256 PUSH21 0x72616E7366657220746F20746865207A65726F2061 PUSH5 0x6472657373 GASLIMIT MSTORE NUMBER ORIGIN ADDRESS GASPRICE KECCAK256 PUSH3 0x75726E KECCAK256 PUSH2 0x6D6F PUSH22 0x6E7420657863656564732062616C616E636545524332 ADDRESS GASPRICE KECCAK256 PUSH2 0x7070 PUSH19 0x6F766520746F20746865207A65726F20616464 PUSH19 0x65737345524332303A207472616E7366657220 PUSH2 0x6D6F PUSH22 0x6E7420657863656564732062616C616E63654F776E61 PUSH3 0x6C653A KECCAK256 PUSH14 0x757374206265206E6577206F776E PUSH6 0x7220746F2070 PUSH22 0x6C6C5A65726F537761705065726D69743A20496E7661 PUSH13 0x6964207369676E617475726553 PUSH2 0x6665 0x4D PUSH2 0x7468 GASPRICE KECCAK256 PUSH14 0x756C7469706C69636174696F6E20 PUSH16 0x766572666C6F7745524332303A207472 PUSH2 0x6E73 PUSH7 0x657220616D6F75 PUSH15 0x74206578636565647320616C6C6F77 PUSH2 0x6E63 PUSH6 0x5661756C744F PUSH24 0x6E65643A2063616C6C6572206973206E6F74207468652056 PUSH2 0x756C PUSH21 0x45524332303A206275726E20616D6F756E74206578 PUSH4 0x65656473 KECCAK256 PUSH2 0x6C6C PUSH16 0x77616E636545524332303A206275726E KECCAK256 PUSH7 0x726F6D20746865 KECCAK256 PUSH27 0x65726F206164647265737345524332303A207472616E7366657220 PUSH7 0x726F6D20746865 KECCAK256 PUSH27 0x65726F206164647265737345524332303A20617070726F76652066 PUSH19 0x6F6D20746865207A65726F2061646472657373 GASLIMIT MSTORE NUMBER ORIGIN ADDRESS GASPRICE KECCAK256 PUSH5 0x6563726561 PUSH20 0x656420616C6C6F77616E63652062656C6F77207A PUSH6 0x726FA2646970 PUSH7 0x7358221220F013 EXTCODECOPY 0xE6 CALLDATACOPY SWAP9 LOG0 DUP3 PUSH30 0xB636A78A0CACF5CE209E32838C1CF6C4BDCF3FF3B78BD764736F6C634300 SMOD SDIV STOP CALLER "
				},
				"gasEstimates": {
					"creation": {
						"codeDepositCost": "2412000",
						"executionCost": "infinite",
						"totalCost": "infinite"
					},
					"external": {
						"DOMAIN_SEPARATOR()": "1073",
						"PERMIT_TYPEHASH()": "323",
						"_burnFrom(address,uint256)": "infinite",
						"allowance(address,address)": "1387",
						"approve(address,uint256)": "infinite",
						"balanceOf(address)": "1286",
						"burn(uint256)": "infinite",
						"burnFrom(address,uint256)": "infinite",
						"decimals()": "1101",
						"decreaseAllowance(address,uint256)": "infinite",
						"delWhiteList(address)": "23176",
						"increaseAllowance(address,uint256)": "infinite",
						"isWhiteListed(address)": "1268",
						"mint(address,uint256)": "infinite",
						"name()": "infinite",
						"nonces(address)": "1334",
						"owner()": "1166",
						"permit(address,address,uint256,uint256,uint8,bytes32,bytes32)": "infinite",
						"pullManagement()": "infinite",
						"pushManagement(address)": "24419",
						"setFeeTo(address)": "22059",
						"setTax(uint256)": "21202",
						"setVault(address)": "22095",
						"setWhileList(address)": "23133",
						"symbol()": "infinite",
						"taxRate()": "1050",
						"totalSupply()": "1104",
						"transfer(address,uint256)": "infinite",
						"transferFrom(address,address,uint256)": "infinite",
						"vault()": "1165"
					}
				},
				"methodIdentifiers": {
					"DOMAIN_SEPARATOR()": "3644e515",
					"PERMIT_TYPEHASH()": "30adf81f",
					"_burnFrom(address,uint256)": "a22b35ce",
					"allowance(address,address)": "dd62ed3e",
					"approve(address,uint256)": "095ea7b3",
					"balanceOf(address)": "70a08231",
					"burn(uint256)": "42966c68",
					"burnFrom(address,uint256)": "79cc6790",
					"decimals()": "313ce567",
					"decreaseAllowance(address,uint256)": "a457c2d7",
					"delWhiteList(address)": "605e5ee1",
					"increaseAllowance(address,uint256)": "39509351",
					"isWhiteListed(address)": "6f9170f6",
					"mint(address,uint256)": "40c10f19",
					"name()": "06fdde03",
					"nonces(address)": "7ecebe00",
					"owner()": "8da5cb5b",
					"permit(address,address,uint256,uint256,uint8,bytes32,bytes32)": "d505accf",
					"pullManagement()": "5a96ac0a",
					"pushManagement(address)": "46f68ee9",
					"setFeeTo(address)": "f46901ed",
					"setTax(uint256)": "2e5bb6ff",
					"setVault(address)": "6817031b",
					"setWhileList(address)": "24e1bfea",
					"symbol()": "95d89b41",
					"taxRate()": "771a3a1d",
					"totalSupply()": "18160ddd",
					"transfer(address,uint256)": "a9059cbb",
					"transferFrom(address,address,uint256)": "23b872dd",
					"vault()": "fbfa77cf"
				}
			},
			"userdoc": {
				"kind": "user",
				"methods": {},
				"version": 1
			}
		}
	}
}