{
  "contractName": "Protocols",
  "abi": [
    {
      "inputs": [
        {
          "internalType": "address",
          "name": "_BBX",
          "type": "address"
        },
        {
          "internalType": "address",
          "name": "_DT",
          "type": "address"
        },
        {
          "internalType": "uint256",
          "name": "_maxBuyingLimit",
          "type": "uint256"
        },
        {
          "internalType": "uint256",
          "name": "_blocksPerDay",
          "type": "uint256"
        }
      ],
      "stateMutability": "nonpayable",
      "type": "constructor"
    },
    {
      "anonymous": false,
      "inputs": [
        {
          "indexed": true,
          "internalType": "address",
          "name": "previousOwner",
          "type": "address"
        },
        {
          "indexed": true,
          "internalType": "address",
          "name": "newOwner",
          "type": "address"
        }
      ],
      "name": "OwnershipPulled",
      "type": "event"
    },
    {
      "anonymous": false,
      "inputs": [
        {
          "indexed": true,
          "internalType": "address",
          "name": "previousOwner",
          "type": "address"
        },
        {
          "indexed": true,
          "internalType": "address",
          "name": "newOwner",
          "type": "address"
        }
      ],
      "name": "OwnershipPushed",
      "type": "event"
    },
    {
      "inputs": [],
      "name": "BBXaddress",
      "outputs": [
        {
          "internalType": "address",
          "name": "",
          "type": "address"
        }
      ],
      "stateMutability": "view",
      "type": "function"
    },
    {
      "inputs": [],
      "name": "DTaddress",
      "outputs": [
        {
          "internalType": "address",
          "name": "",
          "type": "address"
        }
      ],
      "stateMutability": "view",
      "type": "function"
    },
    {
      "inputs": [],
      "name": "blocksPerDay",
      "outputs": [
        {
          "internalType": "uint256",
          "name": "",
          "type": "uint256"
        }
      ],
      "stateMutability": "view",
      "type": "function"
    },
    {
      "inputs": [],
      "name": "currentDay",
      "outputs": [
        {
          "internalType": "uint256",
          "name": "Start",
          "type": "uint256"
        },
        {
          "internalType": "uint256",
          "name": "End",
          "type": "uint256"
        }
      ],
      "stateMutability": "view",
      "type": "function"
    },
    {
      "inputs": [],
      "name": "maxLimitPerDay",
      "outputs": [
        {
          "internalType": "uint256",
          "name": "",
          "type": "uint256"
        }
      ],
      "stateMutability": "view",
      "type": "function"
    },
    {
      "inputs": [],
      "name": "owner",
      "outputs": [
        {
          "internalType": "address",
          "name": "",
          "type": "address"
        }
      ],
      "stateMutability": "view",
      "type": "function"
    },
    {
      "inputs": [
        {
          "internalType": "uint256",
          "name": "",
          "type": "uint256"
        }
      ],
      "name": "protocolInfo",
      "outputs": [
        {
          "internalType": "uint256",
          "name": "id",
          "type": "uint256"
        },
        {
          "internalType": "string",
          "name": "name",
          "type": "string"
        },
        {
          "internalType": "uint256",
          "name": "price",
          "type": "uint256"
        },
        {
          "internalType": "uint256",
          "name": "reward",
          "type": "uint256"
        },
        {
          "internalType": "uint256",
          "name": "vesting",
          "type": "uint256"
        }
      ],
      "stateMutability": "view",
      "type": "function"
    },
    {
      "inputs": [],
      "name": "pullManagement",
      "outputs": [],
      "stateMutability": "nonpayable",
      "type": "function"
    },
    {
      "inputs": [
        {
          "internalType": "uint256",
          "name": "",
          "type": "uint256"
        },
        {
          "internalType": "uint256",
          "name": "",
          "type": "uint256"
        },
        {
          "internalType": "address",
          "name": "",
          "type": "address"
        }
      ],
      "name": "purchaseCountPerDay",
      "outputs": [
        {
          "internalType": "uint256",
          "name": "",
          "type": "uint256"
        }
      ],
      "stateMutability": "view",
      "type": "function"
    },
    {
      "inputs": [
        {
          "internalType": "address",
          "name": "newOwner_",
          "type": "address"
        }
      ],
      "name": "pushManagement",
      "outputs": [],
      "stateMutability": "nonpayable",
      "type": "function"
    },
    {
      "inputs": [
        {
          "internalType": "uint256",
          "name": "",
          "type": "uint256"
        },
        {
          "internalType": "address",
          "name": "",
          "type": "address"
        },
        {
          "internalType": "uint256",
          "name": "",
          "type": "uint256"
        }
      ],
      "name": "userInfo",
      "outputs": [
        {
          "internalType": "uint256",
          "name": "purchaseBlock",
          "type": "uint256"
        },
        {
          "internalType": "uint256",
          "name": "expiryBlock",
          "type": "uint256"
        }
      ],
      "stateMutability": "view",
      "type": "function"
    },
    {
      "inputs": [
        {
          "internalType": "uint256",
          "name": "_id",
          "type": "uint256"
        },
        {
          "internalType": "string",
          "name": "_name",
          "type": "string"
        },
        {
          "internalType": "uint256",
          "name": "_price",
          "type": "uint256"
        },
        {
          "internalType": "uint256",
          "name": "_reward",
          "type": "uint256"
        },
        {
          "internalType": "uint256",
          "name": "_vesting",
          "type": "uint256"
        }
      ],
      "name": "createProtocol",
      "outputs": [],
      "stateMutability": "nonpayable",
      "type": "function"
    },
    {
      "inputs": [],
      "name": "updateDay",
      "outputs": [],
      "stateMutability": "nonpayable",
      "type": "function"
    },
    {
      "inputs": [
        {
          "internalType": "uint256",
          "name": "_id",
          "type": "uint256"
        }
      ],
      "name": "purchaseProtocol",
      "outputs": [],
      "stateMutability": "nonpayable",
      "type": "function"
    },
    {
      "inputs": [
        {
          "internalType": "uint256",
          "name": "_id",
          "type": "uint256"
        }
      ],
      "name": "getReward",
      "outputs": [],
      "stateMutability": "nonpayable",
      "type": "function"
    }
  ],
  "bytecode": "0x60806040526101f4600b5534801561001657600080fd5b5060405162001b7838038062001b788339818101604052608081101561003b57600080fd5b8101908080519060200190929190805190602001909291908051906020019092919080519060200190929190505050336000806101000a81548173ffffffffffffffffffffffffffffffffffffffff021916908373ffffffffffffffffffffffffffffffffffffffff16021790555060008054906101000a900473ffffffffffffffffffffffffffffffffffffffff1673ffffffffffffffffffffffffffffffffffffffff16600073ffffffffffffffffffffffffffffffffffffffff167fea8258f2d9ddb679928cf34b78cf645b7feda9acc828e4dd82d014eaae270eba60405160405180910390a383600560006101000a81548173ffffffffffffffffffffffffffffffffffffffff021916908373ffffffffffffffffffffffffffffffffffffffff16021790555082600660006101000a81548173ffffffffffffffffffffffffffffffffffffffff021916908373ffffffffffffffffffffffffffffffffffffffff16021790555081600781905550806008819055506101c36101cc60201b60201c565b50505050610287565b436009600001819055506101f46008546009600001546101ff60201b6115561790919060201c565b600960010181905550565b60008082840190508381101561027d576040517f08c379a000000000000000000000000000000000000000000000000000000000815260040180806020018281038252601b8152602001807f536166654d6174683a206164646974696f6e206f766572666c6f77000000000081525060200191505060405180910390fd5b8091505092915050565b6118e180620002976000396000f3fe608060405234801561001057600080fd5b50600436106100f55760003560e01c80636d9873c511610097578063bf0fa0b611610066578063bf0fa0b6146103ae578063deb019bd146103cc578063e8ada04b1461043f578063f9c7d4fb14610502576100f5565b80636d9873c5146102215780638da5cb5b1461022b578063980657321461025f578063a5553cf614610342576100f5565b806346f68ee9116100d357806346f68ee9146101905780634cfea68a146101d45780635a96ac0a146101f25780635c9302c9146101fc576100f5565b80630fcb2aa9146100fa5780631c4b774b1461012e5780632d4b2f2a1461015c575b600080fd5b610102610530565b604051808273ffffffffffffffffffffffffffffffffffffffff16815260200191505060405180910390f35b61015a6004803603602081101561014457600080fd5b8101908080359060200190929190505050610556565b005b610164610854565b604051808273ffffffffffffffffffffffffffffffffffffffff16815260200191505060405180910390f35b6101d2600480360360208110156101a657600080fd5b81019080803573ffffffffffffffffffffffffffffffffffffffff16906020019092919050505061087a565b005b6101dc6109f9565b6040518082815260200191505060405180910390f35b6101fa6109ff565b005b610204610be7565b604051808381526020018281526020019250505060405180910390f35b610229610bf9565b005b610233610c3b565b604051808273ffffffffffffffffffffffffffffffffffffffff16815260200191505060405180910390f35b610340600480360360a081101561027557600080fd5b81019080803590602001909291908035906020019064010000000081111561029c57600080fd5b8201836020820111156102ae57600080fd5b803590602001918460018302840111640100000000831117156102d057600080fd5b91908080601f016020809104026020016040519081016040528093929190818152602001838380828437600081840152601f19601f820116905080830192505050505050509192919290803590602001909291908035906020019092919080359060200190929190505050610c64565b005b6103986004803603606081101561035857600080fd5b810190808035906020019092919080359060200190929190803573ffffffffffffffffffffffffffffffffffffffff169060200190929190505050610e4e565b6040518082815260200191505060405180910390f35b6103b6610e80565b6040518082815260200191505060405180910390f35b610422600480360360608110156103e257600080fd5b8101908080359060200190929190803573ffffffffffffffffffffffffffffffffffffffff16906020019092919080359060200190929190505050610e86565b604051808381526020018281526020019250505060405180910390f35b61046b6004803603602081101561045557600080fd5b8101908080359060200190929190505050610ed4565b6040518086815260200180602001858152602001848152602001838152602001828103825286818151815260200191508051906020019080838360005b838110156104c35780820151818401526020810190506104a8565b50505050905090810190601f1680156104f05780820380516001836020036101000a031916815260200191505b50965050505050505060405180910390f35b61052e6004803603602081101561051857600080fd5b8101908080359060200190929190505050610fa2565b005b600660009054906101000a900473ffffffffffffffffffffffffffffffffffffffff1681565b61055e610bf9565b6000610568611774565b60005b6003600085815260200190815260200160002060003373ffffffffffffffffffffffffffffffffffffffff1673ffffffffffffffffffffffffffffffffffffffff16815260200190815260200160002080549050811161084e576003600085815260200190815260200160002060003373ffffffffffffffffffffffffffffffffffffffff1673ffffffffffffffffffffffffffffffffffffffff168152602001908152602001600020818154811061062057fe5b9060005260206000209060020201604051806040016040529081600082015481526020016001820154815250509150438260200151101561083c576002600085815260200190815260200160002060030154830192506003600085815260200190815260200160002060003373ffffffffffffffffffffffffffffffffffffffff1673ffffffffffffffffffffffffffffffffffffffff16815260200190815260200160002060016003600087815260200190815260200160002060003373ffffffffffffffffffffffffffffffffffffffff1673ffffffffffffffffffffffffffffffffffffffff16815260200190815260200160002080549050038154811061072757fe5b90600052602060002090600202016003600086815260200190815260200160002060003373ffffffffffffffffffffffffffffffffffffffff1673ffffffffffffffffffffffffffffffffffffffff168152602001908152602001600020828154811061079057fe5b906000526020600020906002020160008201548160000155600182015481600101559050506003600085815260200190815260200160002060003373ffffffffffffffffffffffffffffffffffffffff1673ffffffffffffffffffffffffffffffffffffffff16815260200190815260200160002080548061080e57fe5b6001900381819060005260206000209060020201600080820160009055600182016000905550509055610841565b600090505b808060010191505061056b565b50505050565b600560009054906101000a900473ffffffffffffffffffffffffffffffffffffffff1681565b3373ffffffffffffffffffffffffffffffffffffffff1660008054906101000a900473ffffffffffffffffffffffffffffffffffffffff1673ffffffffffffffffffffffffffffffffffffffff161461093b576040517f08c379a00000000000000000000000000000000000000000000000000000000081526004018080602001828103825260208152602001807f4f776e61626c653a2063616c6c6572206973206e6f7420746865206f776e657281525060200191505060405180910390fd5b8073ffffffffffffffffffffffffffffffffffffffff1660008054906101000a900473ffffffffffffffffffffffffffffffffffffffff1673ffffffffffffffffffffffffffffffffffffffff167fea8258f2d9ddb679928cf34b78cf645b7feda9acc828e4dd82d014eaae270eba60405160405180910390a380600160006101000a81548173ffffffffffffffffffffffffffffffffffffffff021916908373ffffffffffffffffffffffffffffffffffffffff16021790555050565b60085481565b600160009054906101000a900473ffffffffffffffffffffffffffffffffffffffff1673ffffffffffffffffffffffffffffffffffffffff163373ffffffffffffffffffffffffffffffffffffffff1614610aa5576040517f08c379a00000000000000000000000000000000000000000000000000000000081526004018080602001828103825260228152602001806118696022913960400191505060405180910390fd5b600160009054906101000a900473ffffffffffffffffffffffffffffffffffffffff1673ffffffffffffffffffffffffffffffffffffffff1660008054906101000a900473ffffffffffffffffffffffffffffffffffffffff1673ffffffffffffffffffffffffffffffffffffffff167faa151555690c956fc3ea32f106bb9f119b5237a061eaa8557cff3e51e3792c8d60405160405180910390a3600160009054906101000a900473ffffffffffffffffffffffffffffffffffffffff166000806101000a81548173ffffffffffffffffffffffffffffffffffffffff021916908373ffffffffffffffffffffffffffffffffffffffff1602179055506000600160006101000a81548173ffffffffffffffffffffffffffffffffffffffff021916908373ffffffffffffffffffffffffffffffffffffffff160217905550565b60098060000154908060010154905082565b600960010154431115610c3957600960010154600960000181905550610c2f60085460096001015461155690919063ffffffff16565b6009600101819055505b565b60008060009054906101000a900473ffffffffffffffffffffffffffffffffffffffff16905090565b3373ffffffffffffffffffffffffffffffffffffffff1660008054906101000a900473ffffffffffffffffffffffffffffffffffffffff1673ffffffffffffffffffffffffffffffffffffffff1614610d25576040517f08c379a00000000000000000000000000000000000000000000000000000000081526004018080602001828103825260208152602001807f4f776e61626c653a2063616c6c6572206973206e6f7420746865206f776e657281525060200191505060405180910390fd5b8460026000878152602001908152602001600020600001541415610db1576040517f08c379a00000000000000000000000000000000000000000000000000000000081526004018080602001828103825260188152602001807f50726f746f636f6c20416c72656164792045786973747321000000000000000081525060200191505060405180910390fd5b610db961178e565b6040518060a001604052808781526020018681526020018581526020018481526020018381525090508060026000888152602001908152602001600020600082015181600001556020820151816001019080519060200190610e1c9291906117bd565b50604082015181600201556060820151816003015560808201518160040155905050610e46610bf9565b505050505050565b600460205282600052604060002060205281600052604060002060205280600052604060002060009250925050505481565b60075481565b60036020528260005260406000206020528160005260406000208181548110610eae57600080fd5b906000526020600020906002020160009250925050508060000154908060010154905082565b6002602052806000526040600020600091509050806000015490806001018054600181600116156101000203166002900480601f016020809104026020016040519081016040528092919081815260200182805460018160011615610100020316600290048015610f865780601f10610f5b57610100808354040283529160200191610f86565b820191906000526020600020905b815481529060010190602001808311610f6957829003601f168201915b5050505050908060020154908060030154908060040154905085565b80610fab610bf9565b600754600460008381526020019081526020016000206000600960010154815260200190815260200160002060003373ffffffffffffffffffffffffffffffffffffffff1673ffffffffffffffffffffffffffffffffffffffff1681526020019081526020016000205410611088576040517f08c379a00000000000000000000000000000000000000000000000000000000081526004018080602001828103825260148152602001807f4d617820507572636861736564204c696d69742100000000000000000000000081525060200191505060405180910390fd5b6000600560009054906101000a900473ffffffffffffffffffffffffffffffffffffffff1690506000600660009054906101000a900473ffffffffffffffffffffffffffffffffffffffff1690508173ffffffffffffffffffffffffffffffffffffffff166323b872dd333060026000898152602001908152602001600020600201546040518463ffffffff1660e01b8152600401808473ffffffffffffffffffffffffffffffffffffffff1681526020018373ffffffffffffffffffffffffffffffffffffffff1681526020018281526020019350505050602060405180830381600087803b15801561117b57600080fd5b505af115801561118f573d6000803e3d6000fd5b505050506040513d60208110156111a557600080fd5b8101908080519060200190929190505050506001600460008681526020019081526020016000206000600960010154815260200190815260200160002060003373ffffffffffffffffffffffffffffffffffffffff1673ffffffffffffffffffffffffffffffffffffffff1681526020019081526020016000205401600460008681526020019081526020016000206000600960010154815260200190815260200160002060003373ffffffffffffffffffffffffffffffffffffffff1673ffffffffffffffffffffffffffffffffffffffff168152602001908152602001600020819055508173ffffffffffffffffffffffffffffffffffffffff166340c10f193060026000888152602001908152602001600020600301546040518363ffffffff1660e01b8152600401808373ffffffffffffffffffffffffffffffffffffffff16815260200182815260200192505050600060405180830381600087803b15801561131257600080fd5b505af1158015611326573d6000803e3d6000fd5b505050508073ffffffffffffffffffffffffffffffffffffffff166340c10f193060026000888152602001908152602001600020600301546040518363ffffffff1660e01b8152600401808373ffffffffffffffffffffffffffffffffffffffff16815260200182815260200192505050600060405180830381600087803b1580156113b157600080fd5b505af11580156113c5573d6000803e3d6000fd5b50505050600061140a6113e5612710600b546115de90919063ffffffff16565b600260008881526020019081526020016000206002015461162890919063ffffffff16565b90508273ffffffffffffffffffffffffffffffffffffffff166342966c68826040518263ffffffff1660e01b815260040180828152602001915050600060405180830381600087803b15801561145f57600080fd5b505af1158015611473573d6000803e3d6000fd5b5050505061147f611774565b60405180604001604052804381526020016114b9600260008a8152602001908152602001600020600401544361155690919063ffffffff16565b81525090506003600087815260200190815260200160002060003373ffffffffffffffffffffffffffffffffffffffff1673ffffffffffffffffffffffffffffffffffffffff16815260200190815260200160002081908060018154018082558091505060019003906000526020600020906002020160009091909190915060008201518160000155602082015181600101555050505050505050565b6000808284019050838110156115d4576040517f08c379a000000000000000000000000000000000000000000000000000000000815260040180806020018281038252601b8152602001807f536166654d6174683a206164646974696f6e206f766572666c6f77000000000081525060200191505060405180910390fd5b8091505092915050565b600061162083836040518060400160405280601a81526020017f536166654d6174683a206469766973696f6e206279207a65726f0000000000008152506116ae565b905092915050565b60008083141561163b57600090506116a8565b600082840290508284828161164c57fe5b04146116a3576040517f08c379a000000000000000000000000000000000000000000000000000000000815260040180806020018281038252602181526020018061188b6021913960400191505060405180910390fd5b809150505b92915050565b6000808311829061175a576040517f08c379a00000000000000000000000000000000000000000000000000000000081526004018080602001828103825283818151815260200191508051906020019080838360005b8381101561171f578082015181840152602081019050611704565b50505050905090810190601f16801561174c5780820380516001836020036101000a031916815260200191505b509250505060405180910390fd5b50600083858161176657fe5b049050809150509392505050565b604051806040016040528060008152602001600081525090565b6040518060a0016040528060008152602001606081526020016000815260200160008152602001600081525090565b828054600181600116156101000203166002900490600052602060002090601f0160209004810192826117f3576000855561183a565b82601f1061180c57805160ff191683800117855561183a565b8280016001018555821561183a579182015b8281111561183957825182559160200191906001019061181e565b5b509050611847919061184b565b5090565b5b8082111561186457600081600090555060010161184c565b509056fe4f776e61626c653a206d757374206265206e6577206f776e657220746f2070756c6c536166654d6174683a206d756c7469706c69636174696f6e206f766572666c6f77a26469706673582212204405c066be72a21f1fb55e7042a82eb3a982b17d8340c5b4a1d7cc67ad5063fe64736f6c63430007050033",
  "immutableReferences": {},
  "source": "// SPDX-License-Identifier: AGPL-3.0-or-later\npragma solidity 0.7.5;\n\nimport \"./BBX_Token.sol\";\nimport \"./interfaces/iBBX.sol\";\nimport \"./libraries/SafeMath.sol\";\nimport \"./interfaces/iDT.sol\";\n\ncontract Protocols is Ownable\n{\n    using SafeMath for uint256;\n\n    // fee 1%   --> 100\n    // fee 10%  --> 1000\n    // fee 100% --> 10000\n\n    struct Protocol\n    {\n        uint256 id;\n        string name;\n        uint256 price;\n        uint256 reward;\n        uint256 vesting;\n    }\n    struct pkgVesting\n    {\n        uint256 purchaseBlock;\n        uint256 expiryBlock;\n    }\n    struct Day\n    {\n        uint256 Start;\n        uint256 End;\n    }\n\n    mapping(uint256 => Protocol) public protocolInfo; // id -> protocol\n    mapping(uint256 => mapping(address => pkgVesting[])) public userInfo;   // pkgId -> user -> [purchase, expiry]\n    mapping(uint256 => mapping(uint256 => mapping(address => uint256)))public purchaseCountPerDay;   // id => dayend => user => purchase Count of that day...\n    address public BBXaddress;\n    address public DTaddress;\n    uint256 public maxLimitPerDay;\n    uint256 public blocksPerDay;\n    Day public currentDay;\n    uint256 burnRate = 500; // 5%\n\n    constructor(address _BBX, address _DT, uint256 _maxBuyingLimit, uint256 _blocksPerDay)\n    {\n        BBXaddress = _BBX;\n        DTaddress = _DT;\n        maxLimitPerDay = _maxBuyingLimit;\n        blocksPerDay = _blocksPerDay;\n        initialize();\n    }\n\n    function initialize() private\n    {\n        currentDay.Start = block.number;\n        currentDay.End = currentDay.Start.add(blocksPerDay);\n    }\n\n    function createProtocol(uint256 _id, string memory _name, uint256 _price, uint256 _reward, uint256 _vesting) external onlyOwner\n    {\n\n        require(protocolInfo[_id].id != _id, \"Protocol Already Exists!\");\n        Protocol memory _newProtocol = Protocol({\n            id: _id,\n            name: _name,\n            price: _price,\n            reward: _reward,\n            vesting: _vesting\n        });\n        protocolInfo[_id] = _newProtocol;\n        updateDay();\n    }\n\n    function updateDay()public\n    {\n        if(block.number > currentDay.End)\n        {\n            currentDay.Start = currentDay.End;\n            currentDay.End = currentDay.End.add(blocksPerDay);\n        }\n    }\n\n    modifier checkLimitPerDay(uint256 _id)\n    {\n        updateDay();\n        // here we will use dayEnd BlockNumber so that it would be constant for all users!\n        require(purchaseCountPerDay[_id][currentDay.End][msg.sender] < maxLimitPerDay, \"Max Purchased Limit!\");\n        _;\n    }\n\n    function purchaseProtocol(uint256 _id) public checkLimitPerDay(_id)\n    {\n        iBBX ibbx = iBBX(BBXaddress);\n        iDT idt = iDT(DTaddress);\n        // transfer Tokens in BBX pool\n        ibbx.transferFrom(msg.sender, address(this), protocolInfo[_id].price);\n        // increment user purchase count of day\n        purchaseCountPerDay[_id][currentDay.End][msg.sender] = purchaseCountPerDay[_id][currentDay.End][msg.sender] + 1;\n        // mint BBX Reward and add to pool\n        ibbx.mint(address(this), protocolInfo[_id].reward);\n        // mint DT Reward and add to pool\n        idt.mint(address(this), protocolInfo[_id].reward);\n        // calculating and burn 5% of BBX\n        uint256 burningAmount = protocolInfo[_id].price.mul(burnRate.div(10000));\n        ibbx.burn(burningAmount);\n        // store user info\n        pkgVesting memory _pkgVesting = pkgVesting({purchaseBlock:block.number, expiryBlock: block.number.add(protocolInfo[_id].vesting)});\n        userInfo[_id][msg.sender].push(_pkgVesting);\n    }\n\n    function getReward(uint256 _id)public\n    {\n        updateDay();\n        // calculating reward of all expired pkgs of same protocol...\n        uint256 claimableReward = 0;\n        pkgVesting memory _record;\n\n        for(uint256 i=0; i<= userInfo[_id][msg.sender].length; i++)\n        {\n           _record = userInfo[_id][msg.sender][i];\n           if(_record.expiryBlock < block.number)\n           {\n               claimableReward = claimableReward + protocolInfo[_id].reward;\n               userInfo[_id][msg.sender][i] = userInfo[_id][msg.sender][userInfo[_id][msg.sender].length - 1];\n               userInfo[_id][msg.sender].pop();\n           }\n           else\n           {\n               i = 0;\n           }\n        }\n        //after calculating reward...\n\n    }\n   \n\n\n\n}",
  "sourcePath": "/home/kryptomind/Documents/KM_data/BBX/contracts/Protocols.sol",
  "compiler": {
    "name": "solc",
    "version": "0.7.5+commit.eb77ed08.Emscripten.clang"
  },
  "schemaVersion": "3.4.6",
  "updatedAt": "2022-03-22T12:53:20.446Z",
  "devdoc": {
    "kind": "dev",
    "methods": {},
    "version": 1
  },
  "userdoc": {
    "kind": "user",
    "methods": {},
    "version": 1
  }
}