{
  "contractName": "ProtocolsV2",
  "abi": [
    {
      "inputs": [
        {
          "internalType": "address",
          "name": "_BBX",
          "type": "address"
        },
        {
          "internalType": "address",
          "name": "_DT",
          "type": "address"
        }
      ],
      "stateMutability": "nonpayable",
      "type": "constructor"
    },
    {
      "anonymous": false,
      "inputs": [
        {
          "indexed": true,
          "internalType": "address",
          "name": "previousOwner",
          "type": "address"
        },
        {
          "indexed": true,
          "internalType": "address",
          "name": "newOwner",
          "type": "address"
        }
      ],
      "name": "OwnershipPulled",
      "type": "event"
    },
    {
      "anonymous": false,
      "inputs": [
        {
          "indexed": true,
          "internalType": "address",
          "name": "previousOwner",
          "type": "address"
        },
        {
          "indexed": true,
          "internalType": "address",
          "name": "newOwner",
          "type": "address"
        }
      ],
      "name": "OwnershipPushed",
      "type": "event"
    },
    {
      "inputs": [],
      "name": "BBXaddress",
      "outputs": [
        {
          "internalType": "address",
          "name": "",
          "type": "address"
        }
      ],
      "stateMutability": "view",
      "type": "function"
    },
    {
      "inputs": [],
      "name": "DTaddress",
      "outputs": [
        {
          "internalType": "address",
          "name": "",
          "type": "address"
        }
      ],
      "stateMutability": "view",
      "type": "function"
    },
    {
      "inputs": [],
      "name": "owner",
      "outputs": [
        {
          "internalType": "address",
          "name": "",
          "type": "address"
        }
      ],
      "stateMutability": "view",
      "type": "function"
    },
    {
      "inputs": [
        {
          "internalType": "uint256",
          "name": "",
          "type": "uint256"
        }
      ],
      "name": "protocolInfo",
      "outputs": [
        {
          "internalType": "uint256",
          "name": "id",
          "type": "uint256"
        },
        {
          "internalType": "string",
          "name": "name",
          "type": "string"
        },
        {
          "internalType": "uint256",
          "name": "price",
          "type": "uint256"
        },
        {
          "internalType": "uint256",
          "name": "reward",
          "type": "uint256"
        },
        {
          "internalType": "uint256",
          "name": "vesting",
          "type": "uint256"
        },
        {
          "internalType": "uint256",
          "name": "perDayPurchaseLimit",
          "type": "uint256"
        }
      ],
      "stateMutability": "view",
      "type": "function"
    },
    {
      "inputs": [],
      "name": "pullManagement",
      "outputs": [],
      "stateMutability": "nonpayable",
      "type": "function"
    },
    {
      "inputs": [
        {
          "internalType": "address",
          "name": "newOwner_",
          "type": "address"
        }
      ],
      "name": "pushManagement",
      "outputs": [],
      "stateMutability": "nonpayable",
      "type": "function"
    },
    {
      "inputs": [
        {
          "internalType": "address",
          "name": "",
          "type": "address"
        },
        {
          "internalType": "uint256",
          "name": "",
          "type": "uint256"
        }
      ],
      "name": "userInfo",
      "outputs": [
        {
          "internalType": "uint256",
          "name": "lastPurchase",
          "type": "uint256"
        },
        {
          "internalType": "uint256",
          "name": "pkgCount",
          "type": "uint256"
        }
      ],
      "stateMutability": "view",
      "type": "function"
    },
    {
      "inputs": [],
      "name": "currentTime",
      "outputs": [
        {
          "internalType": "uint256",
          "name": "_time",
          "type": "uint256"
        }
      ],
      "stateMutability": "view",
      "type": "function"
    },
    {
      "inputs": [
        {
          "internalType": "uint256",
          "name": "_id",
          "type": "uint256"
        },
        {
          "internalType": "string",
          "name": "_name",
          "type": "string"
        },
        {
          "internalType": "uint256",
          "name": "_price",
          "type": "uint256"
        },
        {
          "internalType": "uint256",
          "name": "_reward",
          "type": "uint256"
        },
        {
          "internalType": "uint256",
          "name": "_vesting",
          "type": "uint256"
        },
        {
          "internalType": "uint256",
          "name": "_perDayPurchaseLimit",
          "type": "uint256"
        }
      ],
      "name": "createProtocol",
      "outputs": [],
      "stateMutability": "nonpayable",
      "type": "function"
    },
    {
      "inputs": [
        {
          "internalType": "uint256",
          "name": "_id",
          "type": "uint256"
        }
      ],
      "name": "purchaseProtocol",
      "outputs": [],
      "stateMutability": "nonpayable",
      "type": "function"
    },
    {
      "inputs": [
        {
          "internalType": "uint256",
          "name": "_id",
          "type": "uint256"
        },
        {
          "internalType": "address",
          "name": "_user",
          "type": "address"
        },
        {
          "internalType": "uint256",
          "name": "_index",
          "type": "uint256"
        }
      ],
      "name": "getExpiry",
      "outputs": [
        {
          "internalType": "uint256",
          "name": "_expiry",
          "type": "uint256"
        }
      ],
      "stateMutability": "view",
      "type": "function"
    },
    {
      "inputs": [
        {
          "internalType": "uint256",
          "name": "_id",
          "type": "uint256"
        },
        {
          "internalType": "bool",
          "name": "_specific",
          "type": "bool"
        },
        {
          "internalType": "uint256",
          "name": "_index",
          "type": "uint256"
        }
      ],
      "name": "claimPKG",
      "outputs": [],
      "stateMutability": "nonpayable",
      "type": "function"
    }
  ],
  "bytecode": "0x60806040526101f460065534801561001657600080fd5b50604051611f50380380611f508339818101604052604081101561003957600080fd5b810190808051906020019092919080519060200190929190505050336000806101000a81548173ffffffffffffffffffffffffffffffffffffffff021916908373ffffffffffffffffffffffffffffffffffffffff16021790555060008054906101000a900473ffffffffffffffffffffffffffffffffffffffff1673ffffffffffffffffffffffffffffffffffffffff16600073ffffffffffffffffffffffffffffffffffffffff167fea8258f2d9ddb679928cf34b78cf645b7feda9acc828e4dd82d014eaae270eba60405160405180910390a381600460006101000a81548173ffffffffffffffffffffffffffffffffffffffff021916908373ffffffffffffffffffffffffffffffffffffffff16021790555080600560006101000a81548173ffffffffffffffffffffffffffffffffffffffff021916908373ffffffffffffffffffffffffffffffffffffffff1602179055505050611dae806101a26000396000f3fe608060405234801561001057600080fd5b50600436106100b45760003560e01c80638da5cb5b116100715780638da5cb5b146102445780638da8196114610278578063d18e81b314610365578063e8ada04b14610383578063f06a6ee41461044d578063f9c7d4fb14610491576100b4565b80630fcb2aa9146100b957806321ce919d146100ed5780632d4b2f2a1461015657806346f68ee91461018a5780635a96ac0a146101ce578063803f5536146101d8575b600080fd5b6100c16104bf565b604051808273ffffffffffffffffffffffffffffffffffffffff16815260200191505060405180910390f35b6101396004803603604081101561010357600080fd5b81019080803573ffffffffffffffffffffffffffffffffffffffff169060200190929190803590602001909291905050506104e5565b604051808381526020018281526020019250505060405180910390f35b61015e610516565b604051808273ffffffffffffffffffffffffffffffffffffffff16815260200191505060405180910390f35b6101cc600480360360208110156101a057600080fd5b81019080803573ffffffffffffffffffffffffffffffffffffffff16906020019092919050505061053c565b005b6101d66106bb565b005b61022e600480360360608110156101ee57600080fd5b8101908080359060200190929190803573ffffffffffffffffffffffffffffffffffffffff169060200190929190803590602001909291905050506108a3565b6040518082815260200191505060405180910390f35b61024c610917565b604051808273ffffffffffffffffffffffffffffffffffffffff16815260200191505060405180910390f35b610363600480360360c081101561028e57600080fd5b8101908080359060200190929190803590602001906401000000008111156102b557600080fd5b8201836020820111156102c757600080fd5b803590602001918460018302840111640100000000831117156102e957600080fd5b91908080601f016020809104026020016040519081016040528093929190818152602001838380828437600081840152601f19601f82011690508083019250505050505050919291929080359060200190929190803590602001909291908035906020019092919080359060200190929190505050610940565b005b61036d610b36565b6040518082815260200191505060405180910390f35b6103af6004803603602081101561039957600080fd5b8101908080359060200190929190505050610b3e565b6040518087815260200180602001868152602001858152602001848152602001838152602001828103825287818151815260200191508051906020019080838360005b8381101561040d5780820151818401526020810190506103f2565b50505050905090810190601f16801561043a5780820380516001836020036101000a031916815260200191505b5097505050505050505060405180910390f35b61048f6004803603606081101561046357600080fd5b810190808035906020019092919080351515906020019092919080359060200190929190505050610c12565b005b6104bd600480360360208110156104a757600080fd5b8101908080359060200190929190505050611100565b005b600560009054906101000a900473ffffffffffffffffffffffffffffffffffffffff1681565b6003602052816000526040600020602052806000526040600020600091509150508060000154908060010154905082565b600460009054906101000a900473ffffffffffffffffffffffffffffffffffffffff1681565b3373ffffffffffffffffffffffffffffffffffffffff1660008054906101000a900473ffffffffffffffffffffffffffffffffffffffff1673ffffffffffffffffffffffffffffffffffffffff16146105fd576040517f08c379a00000000000000000000000000000000000000000000000000000000081526004018080602001828103825260208152602001807f4f776e61626c653a2063616c6c6572206973206e6f7420746865206f776e657281525060200191505060405180910390fd5b8073ffffffffffffffffffffffffffffffffffffffff1660008054906101000a900473ffffffffffffffffffffffffffffffffffffffff1673ffffffffffffffffffffffffffffffffffffffff167fea8258f2d9ddb679928cf34b78cf645b7feda9acc828e4dd82d014eaae270eba60405160405180910390a380600160006101000a81548173ffffffffffffffffffffffffffffffffffffffff021916908373ffffffffffffffffffffffffffffffffffffffff16021790555050565b600160009054906101000a900473ffffffffffffffffffffffffffffffffffffffff1673ffffffffffffffffffffffffffffffffffffffff163373ffffffffffffffffffffffffffffffffffffffff1614610761576040517f08c379a0000000000000000000000000000000000000000000000000000000008152600401808060200182810382526022815260200180611d366022913960400191505060405180910390fd5b600160009054906101000a900473ffffffffffffffffffffffffffffffffffffffff1673ffffffffffffffffffffffffffffffffffffffff1660008054906101000a900473ffffffffffffffffffffffffffffffffffffffff1673ffffffffffffffffffffffffffffffffffffffff167faa151555690c956fc3ea32f106bb9f119b5237a061eaa8557cff3e51e3792c8d60405160405180910390a3600160009054906101000a900473ffffffffffffffffffffffffffffffffffffffff166000806101000a81548173ffffffffffffffffffffffffffffffffffffffff021916908373ffffffffffffffffffffffffffffffffffffffff1602179055506000600160006101000a81548173ffffffffffffffffffffffffffffffffffffffff021916908373ffffffffffffffffffffffffffffffffffffffff160217905550565b6000600360008473ffffffffffffffffffffffffffffffffffffffff1673ffffffffffffffffffffffffffffffffffffffff1681526020019081526020016000206000858152602001908152602001600020600201828154811061090357fe5b906000526020600020015490509392505050565b60008060009054906101000a900473ffffffffffffffffffffffffffffffffffffffff16905090565b3373ffffffffffffffffffffffffffffffffffffffff1660008054906101000a900473ffffffffffffffffffffffffffffffffffffffff1673ffffffffffffffffffffffffffffffffffffffff1614610a01576040517f08c379a00000000000000000000000000000000000000000000000000000000081526004018080602001828103825260208152602001807f4f776e61626c653a2063616c6c6572206973206e6f7420746865206f776e657281525060200191505060405180910390fd5b8560026000888152602001908152602001600020600001541415610a8d576040517f08c379a00000000000000000000000000000000000000000000000000000000081526004018080602001828103825260188152602001807f50726f746f636f6c20416c72656164792045786973747321000000000000000081525060200191505060405180910390fd5b610a95611c54565b6040518060c00160405280888152602001878152602001868152602001858152602001603c850281526020018381525090508060026000898152602001908152602001600020600082015181600001556020820151816001019080519060200190610b01929190611c8a565b5060408201518160020155606082015181600301556080820151816004015560a0820151816005015590505050505050505050565b600042905090565b6002602052806000526040600020600091509050806000015490806001018054600181600116156101000203166002900480601f016020809104026020016040519081016040528092919081815260200182805460018160011615610100020316600290048015610bf05780601f10610bc557610100808354040283529160200191610bf0565b820191906000526020600020905b815481529060010190602001808311610bd357829003601f168201915b5050505050908060020154908060030154908060040154908060050154905086565b8115610f735742600360003373ffffffffffffffffffffffffffffffffffffffff1673ffffffffffffffffffffffffffffffffffffffff16815260200190815260200160002060008581526020019081526020016000206002018281548110610c7757fe5b906000526020600020015410610cf5576040517f08c379a00000000000000000000000000000000000000000000000000000000081526004018080602001828103825260108152602001807f506b67204e4f542045787069726564210000000000000000000000000000000081525060200191505060405180910390fd5b600360003373ffffffffffffffffffffffffffffffffffffffff1673ffffffffffffffffffffffffffffffffffffffff16815260200190815260200160002060008481526020019081526020016000206002016001600360003373ffffffffffffffffffffffffffffffffffffffff1673ffffffffffffffffffffffffffffffffffffffff1681526020019081526020016000206000868152602001908152602001600020600201805490500381548110610dac57fe5b9060005260206000200154600360003373ffffffffffffffffffffffffffffffffffffffff1673ffffffffffffffffffffffffffffffffffffffff16815260200190815260200160002060008581526020019081526020016000206002018281548110610e1557fe5b9060005260206000200181905550600360003373ffffffffffffffffffffffffffffffffffffffff1673ffffffffffffffffffffffffffffffffffffffff1681526020019081526020016000206000848152602001908152602001600020600201805480610e7f57fe5b60019003818190600052602060002001600090559055600560009054906101000a900473ffffffffffffffffffffffffffffffffffffffff1673ffffffffffffffffffffffffffffffffffffffff166340c10f193360026000878152602001908152602001600020600301546002600088815260200190815260200160002060020154016040518363ffffffff1660e01b8152600401808373ffffffffffffffffffffffffffffffffffffffff16815260200182815260200192505050600060405180830381600087803b158015610f5657600080fd5b505af1158015610f6a573d6000803e3d6000fd5b505050506110fb565b6000610f7e8461162f565b905060008111610ff6576040517f08c379a00000000000000000000000000000000000000000000000000000000081526004018080602001828103825260128152602001807f4e4f20504b47206973204578706972656421000000000000000000000000000081525060200191505060405180910390fd5b6000611049600260008781526020019081526020016000206002015461103b600260008981526020019081526020016000206003015485611abe90919063ffffffff16565b611b0890919063ffffffff16565b82019050600560009054906101000a900473ffffffffffffffffffffffffffffffffffffffff1673ffffffffffffffffffffffffffffffffffffffff166340c10f1933836040518363ffffffff1660e01b8152600401808373ffffffffffffffffffffffffffffffffffffffff16815260200182815260200192505050600060405180830381600087803b1580156110e057600080fd5b505af11580156110f4573d6000803e3d6000fd5b5050505050505b505050565b806002600082815260200190815260200160002060050154600360003373ffffffffffffffffffffffffffffffffffffffff1673ffffffffffffffffffffffffffffffffffffffff16815260200190815260200160002060008381526020019081526020016000206001015410806111ce575042610258600360003373ffffffffffffffffffffffffffffffffffffffff1673ffffffffffffffffffffffffffffffffffffffff16815260200190815260200160002060008481526020019081526020016000206000015401105b611240576040517f08c379a000000000000000000000000000000000000000000000000000000000815260040180806020018281038252601a8152602001807f4d61782050757263686173696e67204c696d6974204572726f7200000000000081525060200191505060405180910390fd5b600460009054906101000a900473ffffffffffffffffffffffffffffffffffffffff1673ffffffffffffffffffffffffffffffffffffffff166323b872dd333060026000878152602001908152602001600020600201546040518463ffffffff1660e01b8152600401808473ffffffffffffffffffffffffffffffffffffffff1681526020018373ffffffffffffffffffffffffffffffffffffffff1681526020018281526020019350505050602060405180830381600087803b15801561130757600080fd5b505af115801561131b573d6000803e3d6000fd5b505050506040513d602081101561133157600080fd5b81019080805190602001909291905050505042610258600360003373ffffffffffffffffffffffffffffffffffffffff1673ffffffffffffffffffffffffffffffffffffffff1681526020019081526020016000206000858152602001908152602001600020600001540111156114e7576001600360003373ffffffffffffffffffffffffffffffffffffffff1673ffffffffffffffffffffffffffffffffffffffff16815260200190815260200160002060008481526020019081526020016000206001015401600360003373ffffffffffffffffffffffffffffffffffffffff1673ffffffffffffffffffffffffffffffffffffffff168152602001908152602001600020600084815260200190815260200160002060010181905550600360003373ffffffffffffffffffffffffffffffffffffffff1673ffffffffffffffffffffffffffffffffffffffff168152602001908152602001600020600083815260200190815260200160002060020160026000848152602001908152602001600020600401544201908060018154018082558091505060019003906000526020600020016000909190919091505561162b565b42600360003373ffffffffffffffffffffffffffffffffffffffff1673ffffffffffffffffffffffffffffffffffffffff1681526020019081526020016000206000848152602001908152602001600020600001819055506001600360003373ffffffffffffffffffffffffffffffffffffffff1673ffffffffffffffffffffffffffffffffffffffff168152602001908152602001600020600084815260200190815260200160002060010181905550600360003373ffffffffffffffffffffffffffffffffffffffff1673ffffffffffffffffffffffffffffffffffffffff16815260200190815260200160002060008381526020019081526020016000206002016002600084815260200190815260200160002060040154420190806001815401808255809150506001900390600052602060002001600090919091909150555b5050565b6000806000905042600360003373ffffffffffffffffffffffffffffffffffffffff1673ffffffffffffffffffffffffffffffffffffffff16815260200190815260200160002060008581526020019081526020016000206002016001600360003373ffffffffffffffffffffffffffffffffffffffff1673ffffffffffffffffffffffffffffffffffffffff16815260200190815260200160002060008781526020019081526020016000206002018054905003815481106116ee57fe5b906000526020600020015410156118075760006001600360003373ffffffffffffffffffffffffffffffffffffffff1673ffffffffffffffffffffffffffffffffffffffff1681526020019081526020016000206000868152602001908152602001600020600201805490500390505b6000811061180157600260008581526020019081526020016000206003015482019150600360003373ffffffffffffffffffffffffffffffffffffffff1673ffffffffffffffffffffffffffffffffffffffff16815260200190815260200160002060008581526020019081526020016000206002018054806117dd57fe5b6001900381819060005260206000200160009055905580806001900391505061175e565b50611ab7565b60006001600360003373ffffffffffffffffffffffffffffffffffffffff1673ffffffffffffffffffffffffffffffffffffffff1681526020019081526020016000206000868152602001908152602001600020600201805490500390505b60008110611aad5742600360003373ffffffffffffffffffffffffffffffffffffffff1673ffffffffffffffffffffffffffffffffffffffff168152602001908152602001600020600086815260200190815260200160002060020182815481106118cd57fe5b906000526020600020015411156118e357611a9f565b600260008581526020019081526020016000206003015482019150600360003373ffffffffffffffffffffffffffffffffffffffff1673ffffffffffffffffffffffffffffffffffffffff16815260200190815260200160002060008581526020019081526020016000206002016001600360003373ffffffffffffffffffffffffffffffffffffffff1673ffffffffffffffffffffffffffffffffffffffff16815260200190815260200160002060008781526020019081526020016000206002018054905003815481106119b557fe5b9060005260206000200154600360003373ffffffffffffffffffffffffffffffffffffffff1673ffffffffffffffffffffffffffffffffffffffff16815260200190815260200160002060008681526020019081526020016000206002018281548110611a1e57fe5b9060005260206000200181905550600360003373ffffffffffffffffffffffffffffffffffffffff1673ffffffffffffffffffffffffffffffffffffffff1681526020019081526020016000206000858152602001908152602001600020600201805480611a8857fe5b600190038181906000526020600020016000905590555b808060019003915050611866565b5080915050611ab9565b505b919050565b6000611b0083836040518060400160405280601a81526020017f536166654d6174683a206469766973696f6e206279207a65726f000000000000815250611b8e565b905092915050565b600080831415611b1b5760009050611b88565b6000828402905082848281611b2c57fe5b0414611b83576040517f08c379a0000000000000000000000000000000000000000000000000000000008152600401808060200182810382526021815260200180611d586021913960400191505060405180910390fd5b809150505b92915050565b60008083118290611c3a576040517f08c379a00000000000000000000000000000000000000000000000000000000081526004018080602001828103825283818151815260200191508051906020019080838360005b83811015611bff578082015181840152602081019050611be4565b50505050905090810190601f168015611c2c5780820380516001836020036101000a031916815260200191505b509250505060405180910390fd5b506000838581611c4657fe5b049050809150509392505050565b6040518060c001604052806000815260200160608152602001600081526020016000815260200160008152602001600081525090565b828054600181600116156101000203166002900490600052602060002090601f016020900481019282611cc05760008555611d07565b82601f10611cd957805160ff1916838001178555611d07565b82800160010185558215611d07579182015b82811115611d06578251825591602001919060010190611ceb565b5b509050611d149190611d18565b5090565b5b80821115611d31576000816000905550600101611d19565b509056fe4f776e61626c653a206d757374206265206e6577206f776e657220746f2070756c6c536166654d6174683a206d756c7469706c69636174696f6e206f766572666c6f77a26469706673582212200d9b531052fc7cea6acc6d77b9ce731b6948a5ca5ce67898738f2425faa073a464736f6c63430007050033",
  "immutableReferences": {},
  "source": "// SPDX-License-Identifier: AGPL-3.0-or-later\npragma solidity 0.7.5;\n\nimport \"./BBX_Token.sol\";\nimport \"./interfaces/iBBX.sol\";\nimport \"./libraries/SafeMath.sol\";\nimport \"./interfaces/iDT.sol\";\n\ncontract ProtocolsV2 is Ownable\n{\n    using SafeMath for uint256;\n\n    // fee 1%   --> 100\n    // fee 10%  --> 1000\n    // fee 100% --> 10000\n\n    struct Protocol\n    {\n        uint256 id;\n        string name;\n        uint256 price;\n        uint256 reward;\n        uint256 vesting;\n        uint256 perDayPurchaseLimit;\n    }\n\n    struct userPkg\n    {\n        uint256 lastPurchase; // when last pkg was purchased...\n        uint256 pkgCount;    // per day pkg count...\n        uint256[] claim;    // expiry of purchased pkgs\n    }\n\n    mapping(uint256 => Protocol) public protocolInfo;\n    mapping(address => mapping(uint256 => userPkg))public userInfo;\n    address public BBXaddress;\n    address public DTaddress;\n    uint256 burnRate = 500;\n\n     constructor(address _BBX, address _DT)\n    {\n        BBXaddress = _BBX;\n        DTaddress = _DT;\n    }\n\n    function currentTime()public view returns(uint256 _time)\n    {\n        return block.timestamp;\n    }\n\n    function createProtocol(uint256 _id, string memory _name, uint256 _price, uint256 _reward, uint256 _vesting, uint256 _perDayPurchaseLimit) external onlyOwner\n    {\n\n        require(protocolInfo[_id].id != _id, \"Protocol Already Exists!\");\n        Protocol memory _newProtocol = Protocol({\n            id: _id,\n            name: _name,\n            price: _price,\n            reward: _reward,\n            vesting: _vesting * 1 minutes,  // defined in days...(testing for minutes!)\n            perDayPurchaseLimit: _perDayPurchaseLimit\n        });\n        protocolInfo[_id] = _newProtocol;\n    \n    }\n\n    modifier checkLimitPerDay(uint256 _id)\n    {\n        require((userInfo[msg.sender][_id].pkgCount < protocolInfo[_id].perDayPurchaseLimit) || ((userInfo[msg.sender][_id].lastPurchase + 10 minutes < block.timestamp)), \"Max Purchasing Limit Error\");\n        _;\n    }\n\n    function purchaseProtocol(uint256 _id) public checkLimitPerDay(_id) \n    {\n        iBBX(BBXaddress).transferFrom(msg.sender, address(this), protocolInfo[_id].price);\n        if((userInfo[msg.sender][_id].lastPurchase + 10 minutes) > block.timestamp) // 24hours not completed after purchasing last protocol...\n        {\n            userInfo[msg.sender][_id].pkgCount =  userInfo[msg.sender][_id].pkgCount + 1;\n            userInfo[msg.sender][_id].claim.push(block.timestamp + protocolInfo[_id].vesting);\n        }\n        else // after 24 hours of purchasing last protocol or purchasing for first time...\n        {\n            userInfo[msg.sender][_id].lastPurchase = block.timestamp;\n            userInfo[msg.sender][_id].pkgCount = 1;\n            userInfo[msg.sender][_id].claim.push(block.timestamp + protocolInfo[_id].vesting);\n        }\n    }\n\n    function getExpiry(uint256 _id, address _user, uint256 _index)public view returns(uint256 _expiry)\n    {\n        return userInfo[_user][_id].claim[_index];\n    }\n\n    // get all reward at once for specific id...\n    function totalROI(uint256 _id) internal returns(uint256 _reward)\n    {\n        uint256 claimableReward = 0;\n        // all pkgs are expired...\n        if(userInfo[msg.sender][_id].claim[userInfo[msg.sender][_id].claim.length-1] < block.timestamp)\n        {\n            for(uint256 i = userInfo[msg.sender][_id].claim.length - 1; i >= 0; i--)\n            {\n                claimableReward += protocolInfo[_id].reward;\n                userInfo[msg.sender][_id].claim.pop();\n            }\n        }\n        else // last or more pkg are not expired... \n        {\n            for(uint256 i = userInfo[msg.sender][_id].claim.length - 1; i >= 0; i--)\n        {\n            if(userInfo[msg.sender][_id].claim[i] > block.timestamp)\n            {\n                // pkg not expired...\n                continue;\n            }\n            else\n            {\n                // pkg is expired...\n                claimableReward += protocolInfo[_id].reward;\n                userInfo[msg.sender][_id].claim[i] = userInfo[msg.sender][_id].claim[userInfo[msg.sender][_id].claim.length - 1];\n                userInfo[msg.sender][_id].claim.pop();\n            }\n        }\n        return(claimableReward);\n        }\n        \n    }\n\n    function claimPKG(uint256 _id, bool _specific, uint256 _index)public\n    {\n        if(_specific) // get reward for specific pkg using array index.\n        {\n            require(userInfo[msg.sender][_id].claim[_index] < block.timestamp, \"Pkg NOT Expired!\");\n            userInfo[msg.sender][_id].claim[_index] = userInfo[msg.sender][_id].claim[userInfo[msg.sender][_id].claim.length - 1];\n            userInfo[msg.sender][_id].claim.pop();\n            iDT(DTaddress).mint(msg.sender, (protocolInfo[_id].price + protocolInfo[_id].reward));\n        }\n        else // get all reward of specific pkg\n        {\n            uint256 _ROI = totalROI(_id);\n            require(_ROI > 0 , \"NO PKG is Expired!\");\n            uint256 claimableDT = _ROI + (_ROI.div(protocolInfo[_id].reward).mul(protocolInfo[_id].price));\n            iDT(DTaddress).mint(msg.sender, claimableDT);\n        }\n    }\n\n}",
  "sourcePath": "/home/kryptomind/Documents/KM_data/BBX/contracts/ProtocolsV2.sol",
  "compiler": {
    "name": "solc",
    "version": "0.7.5+commit.eb77ed08.Emscripten.clang"
  },
  "schemaVersion": "3.4.6",
  "updatedAt": "2022-03-22T12:53:20.485Z",
  "devdoc": {
    "kind": "dev",
    "methods": {},
    "version": 1
  },
  "userdoc": {
    "kind": "user",
    "methods": {},
    "version": 1
  }
}